{
  "contractName": "Admin",
  "abi": [
    {
      "anonymous": false,
      "inputs": [
        {
          "indexed": true,
          "internalType": "address",
          "name": "previousOwner",
          "type": "address"
        },
        {
          "indexed": true,
          "internalType": "address",
          "name": "newOwner",
          "type": "address"
        }
      ],
      "name": "OwnershipTransferPrepared",
      "type": "event"
    },
    {
      "anonymous": false,
      "inputs": [
        {
          "indexed": true,
          "internalType": "address",
          "name": "previousOwner",
          "type": "address"
        },
        {
          "indexed": true,
          "internalType": "address",
          "name": "newOwner",
          "type": "address"
        }
      ],
      "name": "OwnershipTransferred",
      "type": "event"
    },
    {
      "anonymous": false,
      "inputs": [
        {
          "indexed": false,
          "internalType": "uint256",
          "name": "oldGasPriceLimit",
          "type": "uint256"
        },
        {
          "indexed": false,
          "internalType": "uint256",
          "name": "newGasPriceLimit",
          "type": "uint256"
        }
      ],
      "name": "UpdateGasPriceLimit",
      "type": "event"
    },
    {
      "anonymous": false,
      "inputs": [
        {
          "indexed": false,
          "internalType": "uint256",
          "name": "oldK",
          "type": "uint256"
        },
        {
          "indexed": false,
          "internalType": "uint256",
          "name": "newK",
          "type": "uint256"
        }
      ],
      "name": "UpdateK",
      "type": "event"
    },
    {
      "anonymous": false,
      "inputs": [
        {
          "indexed": false,
          "internalType": "uint256",
          "name": "oldLiquidityProviderFeeRate",
          "type": "uint256"
        },
        {
          "indexed": false,
          "internalType": "uint256",
          "name": "newLiquidityProviderFeeRate",
          "type": "uint256"
        }
      ],
      "name": "UpdateLiquidityProviderFeeRate",
      "type": "event"
    },
    {
      "anonymous": false,
      "inputs": [
        {
          "indexed": false,
          "internalType": "uint256",
          "name": "oldMaintainerFeeRate",
          "type": "uint256"
        },
        {
          "indexed": false,
          "internalType": "uint256",
          "name": "newMaintainerFeeRate",
          "type": "uint256"
        }
      ],
      "name": "UpdateMaintainerFeeRate",
      "type": "event"
    },
    {
      "inputs": [],
      "name": "_BASE_BALANCE_",
      "outputs": [
        {
          "internalType": "uint256",
          "name": "",
          "type": "uint256"
        }
      ],
      "stateMutability": "view",
      "type": "function"
    },
    {
      "inputs": [],
      "name": "_BASE_BALANCE_LIMIT_",
      "outputs": [
        {
          "internalType": "uint256",
          "name": "",
          "type": "uint256"
        }
      ],
      "stateMutability": "view",
      "type": "function"
    },
    {
      "inputs": [],
      "name": "_BASE_CAPITAL_RECEIVE_QUOTE_",
      "outputs": [
        {
          "internalType": "uint256",
          "name": "",
          "type": "uint256"
        }
      ],
      "stateMutability": "view",
      "type": "function"
    },
    {
      "inputs": [],
      "name": "_BASE_CAPITAL_TOKEN_",
      "outputs": [
        {
          "internalType": "address",
          "name": "",
          "type": "address"
        }
      ],
      "stateMutability": "view",
      "type": "function"
    },
    {
      "inputs": [],
      "name": "_BASE_TOKEN_",
      "outputs": [
        {
          "internalType": "address",
          "name": "",
          "type": "address"
        }
      ],
      "stateMutability": "view",
      "type": "function"
    },
    {
      "inputs": [],
      "name": "_BUYING_ALLOWED_",
      "outputs": [
        {
          "internalType": "bool",
          "name": "",
          "type": "bool"
        }
      ],
      "stateMutability": "view",
      "type": "function"
    },
    {
      "inputs": [
        {
          "internalType": "address",
          "name": "",
          "type": "address"
        }
      ],
      "name": "_CLAIMED_",
      "outputs": [
        {
          "internalType": "bool",
          "name": "",
          "type": "bool"
        }
      ],
      "stateMutability": "view",
      "type": "function"
    },
    {
      "inputs": [],
      "name": "_CLOSED_",
      "outputs": [
        {
          "internalType": "bool",
          "name": "",
          "type": "bool"
        }
      ],
      "stateMutability": "view",
      "type": "function"
    },
    {
      "inputs": [],
      "name": "_DEPOSIT_BASE_ALLOWED_",
      "outputs": [
        {
          "internalType": "bool",
          "name": "",
          "type": "bool"
        }
      ],
      "stateMutability": "view",
      "type": "function"
    },
    {
      "inputs": [],
      "name": "_DEPOSIT_QUOTE_ALLOWED_",
      "outputs": [
        {
          "internalType": "bool",
          "name": "",
          "type": "bool"
        }
      ],
      "stateMutability": "view",
      "type": "function"
    },
    {
      "inputs": [],
      "name": "_GAS_PRICE_LIMIT_",
      "outputs": [
        {
          "internalType": "uint256",
          "name": "",
          "type": "uint256"
        }
      ],
      "stateMutability": "view",
      "type": "function"
    },
    {
      "inputs": [],
      "name": "_K_",
      "outputs": [
        {
          "internalType": "uint256",
          "name": "",
          "type": "uint256"
        }
      ],
      "stateMutability": "view",
      "type": "function"
    },
    {
      "inputs": [],
      "name": "_LP_FEE_RATE_",
      "outputs": [
        {
          "internalType": "uint256",
          "name": "",
          "type": "uint256"
        }
      ],
      "stateMutability": "view",
      "type": "function"
    },
    {
      "inputs": [],
      "name": "_MAINTAINER_",
      "outputs": [
        {
          "internalType": "address",
          "name": "",
          "type": "address"
        }
      ],
      "stateMutability": "view",
      "type": "function"
    },
    {
      "inputs": [],
      "name": "_MT_FEE_RATE_",
      "outputs": [
        {
          "internalType": "uint256",
          "name": "",
          "type": "uint256"
        }
      ],
      "stateMutability": "view",
      "type": "function"
    },
    {
      "inputs": [],
      "name": "_NEW_OWNER_",
      "outputs": [
        {
          "internalType": "address",
          "name": "",
          "type": "address"
        }
      ],
      "stateMutability": "view",
      "type": "function"
    },
    {
      "inputs": [],
      "name": "_ORACLE_",
      "outputs": [
        {
          "internalType": "address",
          "name": "",
          "type": "address"
        }
      ],
      "stateMutability": "view",
      "type": "function"
    },
    {
      "inputs": [],
      "name": "_OWNER_",
      "outputs": [
        {
          "internalType": "address",
          "name": "",
          "type": "address"
        }
      ],
      "stateMutability": "view",
      "type": "function"
    },
    {
      "inputs": [],
      "name": "_QUOTE_BALANCE_",
      "outputs": [
        {
          "internalType": "uint256",
          "name": "",
          "type": "uint256"
        }
      ],
      "stateMutability": "view",
      "type": "function"
    },
    {
      "inputs": [],
      "name": "_QUOTE_BALANCE_LIMIT_",
      "outputs": [
        {
          "internalType": "uint256",
          "name": "",
          "type": "uint256"
        }
      ],
      "stateMutability": "view",
      "type": "function"
    },
    {
      "inputs": [],
      "name": "_QUOTE_CAPITAL_RECEIVE_BASE_",
      "outputs": [
        {
          "internalType": "uint256",
          "name": "",
          "type": "uint256"
        }
      ],
      "stateMutability": "view",
      "type": "function"
    },
    {
      "inputs": [],
      "name": "_QUOTE_CAPITAL_TOKEN_",
      "outputs": [
        {
          "internalType": "address",
          "name": "",
          "type": "address"
        }
      ],
      "stateMutability": "view",
      "type": "function"
    },
    {
      "inputs": [],
      "name": "_QUOTE_TOKEN_",
      "outputs": [
        {
          "internalType": "address",
          "name": "",
          "type": "address"
        }
      ],
      "stateMutability": "view",
      "type": "function"
    },
    {
      "inputs": [],
      "name": "_R_STATUS_",
      "outputs": [
        {
          "internalType": "enum Types.RStatus",
          "name": "",
          "type": "uint8"
        }
      ],
      "stateMutability": "view",
      "type": "function"
    },
    {
      "inputs": [],
      "name": "_SELLING_ALLOWED_",
      "outputs": [
        {
          "internalType": "bool",
          "name": "",
          "type": "bool"
        }
      ],
      "stateMutability": "view",
      "type": "function"
    },
    {
      "inputs": [],
      "name": "_SUPERVISOR_",
      "outputs": [
        {
          "internalType": "address",
          "name": "",
          "type": "address"
        }
      ],
      "stateMutability": "view",
      "type": "function"
    },
    {
      "inputs": [],
      "name": "_TARGET_BASE_TOKEN_AMOUNT_",
      "outputs": [
        {
          "internalType": "uint256",
          "name": "",
          "type": "uint256"
        }
      ],
      "stateMutability": "view",
      "type": "function"
    },
    {
      "inputs": [],
      "name": "_TARGET_QUOTE_TOKEN_AMOUNT_",
      "outputs": [
        {
          "internalType": "uint256",
          "name": "",
          "type": "uint256"
        }
      ],
      "stateMutability": "view",
      "type": "function"
    },
    {
      "inputs": [],
      "name": "_TRADE_ALLOWED_",
      "outputs": [
        {
          "internalType": "bool",
          "name": "",
          "type": "bool"
        }
      ],
      "stateMutability": "view",
      "type": "function"
    },
    {
      "inputs": [],
      "name": "claimOwnership",
      "outputs": [],
      "stateMutability": "nonpayable",
      "type": "function"
    },
    {
      "inputs": [
        {
          "internalType": "address",
          "name": "lp",
          "type": "address"
        }
      ],
      "name": "getBaseCapitalBalanceOf",
      "outputs": [
        {
          "internalType": "uint256",
          "name": "",
          "type": "uint256"
        }
      ],
      "stateMutability": "view",
      "type": "function"
    },
    {
      "inputs": [],
      "name": "getOraclePrice",
      "outputs": [
        {
          "internalType": "uint256",
          "name": "",
          "type": "uint256"
        }
      ],
      "stateMutability": "view",
      "type": "function"
    },
    {
      "inputs": [
        {
          "internalType": "address",
          "name": "lp",
          "type": "address"
        }
      ],
      "name": "getQuoteCapitalBalanceOf",
      "outputs": [
        {
          "internalType": "uint256",
          "name": "",
          "type": "uint256"
        }
      ],
      "stateMutability": "view",
      "type": "function"
    },
    {
      "inputs": [],
      "name": "getTotalBaseCapital",
      "outputs": [
        {
          "internalType": "uint256",
          "name": "",
          "type": "uint256"
        }
      ],
      "stateMutability": "view",
      "type": "function"
    },
    {
      "inputs": [],
      "name": "getTotalQuoteCapital",
      "outputs": [
        {
          "internalType": "uint256",
          "name": "",
          "type": "uint256"
        }
      ],
      "stateMutability": "view",
      "type": "function"
    },
    {
      "inputs": [
        {
          "internalType": "address",
          "name": "newOwner",
          "type": "address"
        }
      ],
      "name": "transferOwnership",
      "outputs": [],
      "stateMutability": "nonpayable",
      "type": "function"
    },
    {
      "inputs": [],
      "name": "version",
      "outputs": [
        {
          "internalType": "uint256",
          "name": "",
          "type": "uint256"
        }
      ],
      "stateMutability": "pure",
      "type": "function"
    },
    {
      "inputs": [
        {
          "internalType": "address",
          "name": "newOracle",
          "type": "address"
        }
      ],
      "name": "setOracle",
      "outputs": [],
      "stateMutability": "nonpayable",
      "type": "function"
    },
    {
      "inputs": [
        {
          "internalType": "address",
          "name": "newSupervisor",
          "type": "address"
        }
      ],
      "name": "setSupervisor",
      "outputs": [],
      "stateMutability": "nonpayable",
      "type": "function"
    },
    {
      "inputs": [
        {
          "internalType": "address",
          "name": "newMaintainer",
          "type": "address"
        }
      ],
      "name": "setMaintainer",
      "outputs": [],
      "stateMutability": "nonpayable",
      "type": "function"
    },
    {
      "inputs": [
        {
          "internalType": "uint256",
          "name": "newLiquidityPorviderFeeRate",
          "type": "uint256"
        }
      ],
      "name": "setLiquidityProviderFeeRate",
      "outputs": [],
      "stateMutability": "nonpayable",
      "type": "function"
    },
    {
      "inputs": [
        {
          "internalType": "uint256",
          "name": "newMaintainerFeeRate",
          "type": "uint256"
        }
      ],
      "name": "setMaintainerFeeRate",
      "outputs": [],
      "stateMutability": "nonpayable",
      "type": "function"
    },
    {
      "inputs": [
        {
          "internalType": "uint256",
          "name": "newK",
          "type": "uint256"
        }
      ],
      "name": "setK",
      "outputs": [],
      "stateMutability": "nonpayable",
      "type": "function"
    },
    {
      "inputs": [
        {
          "internalType": "uint256",
          "name": "newGasPriceLimit",
          "type": "uint256"
        }
      ],
      "name": "setGasPriceLimit",
      "outputs": [],
      "stateMutability": "nonpayable",
      "type": "function"
    },
    {
      "inputs": [],
      "name": "disableTrading",
      "outputs": [],
      "stateMutability": "nonpayable",
      "type": "function"
    },
    {
      "inputs": [],
      "name": "enableTrading",
      "outputs": [],
      "stateMutability": "nonpayable",
      "type": "function"
    },
    {
      "inputs": [],
      "name": "disableQuoteDeposit",
      "outputs": [],
      "stateMutability": "nonpayable",
      "type": "function"
    },
    {
      "inputs": [],
      "name": "enableQuoteDeposit",
      "outputs": [],
      "stateMutability": "nonpayable",
      "type": "function"
    },
    {
      "inputs": [],
      "name": "disableBaseDeposit",
      "outputs": [],
      "stateMutability": "nonpayable",
      "type": "function"
    },
    {
      "inputs": [],
      "name": "enableBaseDeposit",
      "outputs": [],
      "stateMutability": "nonpayable",
      "type": "function"
    },
    {
      "inputs": [],
      "name": "disableBuying",
      "outputs": [],
      "stateMutability": "nonpayable",
      "type": "function"
    },
    {
      "inputs": [],
      "name": "enableBuying",
      "outputs": [],
      "stateMutability": "nonpayable",
      "type": "function"
    },
    {
      "inputs": [],
      "name": "disableSelling",
      "outputs": [],
      "stateMutability": "nonpayable",
      "type": "function"
    },
    {
      "inputs": [],
      "name": "enableSelling",
      "outputs": [],
      "stateMutability": "nonpayable",
      "type": "function"
    },
    {
      "inputs": [
        {
          "internalType": "uint256",
          "name": "newBaseBalanceLimit",
          "type": "uint256"
        }
      ],
      "name": "setBaseBalanceLimit",
      "outputs": [],
      "stateMutability": "nonpayable",
      "type": "function"
    },
    {
      "inputs": [
        {
          "internalType": "uint256",
          "name": "newQuoteBalanceLimit",
          "type": "uint256"
        }
      ],
      "name": "setQuoteBalanceLimit",
      "outputs": [],
      "stateMutability": "nonpayable",
      "type": "function"
    }
  ],
  "bytecode": "0x608060405234801561001057600080fd5b5061142b806100206000396000f3fe608060405234801561001057600080fd5b50600436106103785760003560e01c80637c9b8e89116101d3578063b2094fd311610104578063d689107c116100a2578063ec2fd46d1161007c578063ec2fd46d146105ca578063f2220416146105d2578063f2fde38b146105e5578063f67ed448146105f857610378565b8063d689107c146105b2578063dd58b41c146105ba578063eab5d20e146105c257610378565b8063c5bbffe8116100de578063c5bbffe814610592578063c6b73cf91461059a578063cc062b58146105a2578063d4b97046146105aa57610378565b8063b2094fd31461057a578063bc7d679d14610582578063c0ffa1781461058a57610378565b806397316ad811610171578063a598aca71161014b578063a598aca71461055a578063ab44a7a314610562578063ac1fbc981461056a578063aceecbc81461057257610378565b806397316ad8146105375780639b020fba1461054a578063a3161a561461055257610378565b80638a8c523c116101ad5780638a8c523c1461050c5780638ff5e7421461051457806390cbf8221461051c5780639299eb301461052457610378565b80637c9b8e89146104e95780638456db15146104f1578063892daf05146104f957610378565b80633960f142116102ad57806367de8be91161024b57806373a2ab7c1161022557806373a2ab7c146104b3578063796da7af146104bb5780637adbf973146104c35780637aed942d146104d657610378565b806367de8be91461047857806368be20ad1461048b5780636ec6a58d146104ab57610378565b80634de4527e116102875780634de4527e1461044d5780634e71e0c81461045557806354fd4d501461045d5780635bb7552a1461046557610378565b80633960f142146104355780634322ec831461043d5780634a248d2a1461044557610378565b80631769ddaa1161031a578063245c9685116102f4578063245c968514610415578063247f993b1461041d5780632aa82c651461042557806336ac41a81461042d57610378565b80631769ddaa146103f057806317700f01146103f857806317be952e1461040057610378565b80631184d8be116103565780631184d8be146103b857806313c57624146103c057806313ea5d29146103c857806316048bc4146103db57610378565b8063092316021461037d5780630cd1667d146103925780630e6518e9146103b0575b600080fd5b61039061038b36600461122b565b61060b565b005b61039a610693565b6040516103a791906113de565b60405180910390f35b61039a610716565b61039061071c565b610390610785565b6103906103d6366004611204565b6107d3565b6103e361081f565b6040516103a7919061125b565b61039a61082e565b610390610834565b610408610882565b6040516103a7919061127a565b61039a61088b565b610390610891565b61039a6108dc565b610390610921565b6103e361098a565b6103e3610999565b6103e36109a8565b61039a6109b7565b6103906109bd565b61039a610a4b565b61039061047336600461122b565b610a50565b61039061048636600461122b565b610ac6565b61049e610499366004611204565b610b38565b6040516103a7919061126f565b61049e610b4d565b6103e3610b5d565b61039a610b6c565b6103906104d1366004611204565b610bb1565b61039a6104e4366004611204565b610bfd565b61039a610c84565b6103e3610c8a565b61039061050736600461122b565b610c99565b610390610cf2565b61049e610d5b565b610390610d69565b610390610532366004611204565b610dcc565b61039061054536600461122b565b610e18565b61039a610e71565b61049e610e77565b61049e610e80565b61039a610e90565b6103e3610e96565b610390610ea5565b61039a610ef1565b610390610ef7565b61039a610f45565b61049e610f4b565b61039a610f5b565b610390610f61565b6103e3610fc6565b6103e3610fd5565b61049e610fe4565b61039a610ff4565b61039a610ffa565b6103906105e036600461122b565b611000565b6103906105f3366004611204565b611072565b61039a610606366004611204565b61111d565b6006546001600160a01b031633148061062e57506000546001600160a01b031633145b6106535760405162461bcd60e51b815260040161064a906112d2565b60405180910390fd5b7f808f99cfd15f1be6019f93dc76c81d5bd82e0b3e0b3d23a54f5a2e647a6cc3cc600254826040516106869291906113e7565b60405180910390a1600255565b601354604080516318160ddd60e01b815290516000926001600160a01b0316916318160ddd916004808301926020929190829003018186803b1580156106d857600080fd5b505afa1580156106ec573d6000803e3d6000fd5b505050506040513d601f19601f820116820180604052508101906107109190611243565b90505b90565b60165481565b6000546001600160a01b031633146107465760405162461bcd60e51b815260040161064a9061137a565b600154600160b01b900460ff16156107705760405162461bcd60e51b815260040161064a90611330565b6001805460ff60c01b1916600160c01b179055565b6006546001600160a01b03163314806107a857506000546001600160a01b031633145b6107c45760405162461bcd60e51b815260040161064a906112d2565b6001805460ff60c01b19169055565b6000546001600160a01b031633146107fd5760405162461bcd60e51b815260040161064a9061137a565b600780546001600160a01b0319166001600160a01b0392909216919091179055565b6000546001600160a01b031681565b60055481565b6006546001600160a01b031633148061085757506000546001600160a01b031633145b6108735760405162461bcd60e51b815260040161064a906112d2565b6001805460ff60c81b19169055565b600e5460ff1681565b60105481565b6006546001600160a01b03163314806108b457506000546001600160a01b031633145b6108d05760405162461bcd60e51b815260040161064a906112d2565b6003805460ff19169055565b601454604080516318160ddd60e01b815290516000926001600160a01b0316916318160ddd916004808301926020929190829003018186803b1580156106d857600080fd5b6000546001600160a01b0316331461094b5760405162461bcd60e51b815260040161064a9061137a565b600154600160b01b900460ff16156109755760405162461bcd60e51b815260040161064a90611330565b6001805460ff60b81b1916600160b81b179055565b6006546001600160a01b031681565b6007546001600160a01b031681565b6008546001600160a01b031681565b60025481565b6001546001600160a01b031633146109e75760405162461bcd60e51b815260040161064a906112ab565b600154600080546040516001600160a01b0393841693909116917f8be0079c531659141344cd1fd0a4f28419497f9722a3daafe3b4186f6b6457e091a360018054600080546001600160a01b03199081166001600160a01b03841617909155169055565b606590565b6000546001600160a01b03163314610a7a5760405162461bcd60e51b815260040161064a9061137a565b7f3ce6ea91adda496b7a0546fa6558e5b52c3a509de6015820efb00ca4020e0a07600b5482604051610aad9291906113e7565b60405180910390a1600b819055610ac261114e565b5050565b6000546001600160a01b03163314610af05760405162461bcd60e51b815260040161064a9061137a565b7f023a40bebf7ac113f81c3d628073246cf9e0bc49980a9d6a9531498ce9e3dd1c600d5482604051610b239291906113e7565b60405180910390a1600d819055610ac261114e565b60176020526000908152604090205460ff1681565b600154600160b01b900460ff1681565b600a546001600160a01b031681565b600a5460408051634c6afee560e11b815290516000926001600160a01b0316916398d5fdca916004808301926020929190829003018186803b1580156106d857600080fd5b6000546001600160a01b03163314610bdb5760405162461bcd60e51b815260040161064a9061137a565b600a80546001600160a01b0319166001600160a01b0392909216919091179055565b6013546040516370a0823160e01b81526000916001600160a01b0316906370a0823190610c2e90859060040161125b565b60206040518083038186803b158015610c4657600080fd5b505afa158015610c5a573d6000803e3d6000fd5b505050506040513d601f19601f82011682018060405250810190610c7e9190611243565b92915050565b60125481565b6001546001600160a01b031681565b6000546001600160a01b03163314610cc35760405162461bcd60e51b815260040161064a9061137a565b600154600160b01b900460ff1615610ced5760405162461bcd60e51b815260040161064a90611330565b600455565b6000546001600160a01b03163314610d1c5760405162461bcd60e51b815260040161064a9061137a565b600154600160b01b900460ff1615610d465760405162461bcd60e51b815260040161064a90611330565b6001805460ff60c81b1916600160c81b179055565b600354610100900460ff1681565b6000546001600160a01b03163314610d935760405162461bcd60e51b815260040161064a9061137a565b600154600160b01b900460ff1615610dbd5760405162461bcd60e51b815260040161064a90611330565b6003805460ff19166001179055565b6000546001600160a01b03163314610df65760405162461bcd60e51b815260040161064a9061137a565b600680546001600160a01b0319166001600160a01b0392909216919091179055565b6000546001600160a01b03163314610e425760405162461bcd60e51b815260040161064a9061137a565b600154600160b01b900460ff1615610e6c5760405162461bcd60e51b815260040161064a90611330565b600555565b60045481565b60035460ff1681565b600154600160c01b900460ff1681565b600b5481565b6014546001600160a01b031681565b6006546001600160a01b0316331480610ec857506000546001600160a01b031633145b610ee45760405162461bcd60e51b815260040161064a906112d2565b6003805461ff0019169055565b600f5481565b6006546001600160a01b0316331480610f1a57506000546001600160a01b031633145b610f365760405162461bcd60e51b815260040161064a906112d2565b6001805460ff60b81b19169055565b600c5481565b600154600160b81b900460ff1681565b60155481565b6000546001600160a01b03163314610f8b5760405162461bcd60e51b815260040161064a9061137a565b600154600160b01b900460ff1615610fb55760405162461bcd60e51b815260040161064a90611330565b6003805461ff001916610100179055565b6009546001600160a01b031681565b6013546001600160a01b031681565b600154600160c81b900460ff1681565b60115481565b600d5481565b6000546001600160a01b0316331461102a5760405162461bcd60e51b815260040161064a9061137a565b7f6b04da3d58e4b37d99652babb3ea2bc25ce94379bfff3059f03d61b26c59e553600c548260405161105d9291906113e7565b60405180910390a1600c819055610ac261114e565b6000546001600160a01b0316331461109c5760405162461bcd60e51b815260040161064a9061137a565b6001600160a01b0381166110c25760405162461bcd60e51b815260040161064a90611309565b600080546040516001600160a01b03808516939216917fdcf55418cee3220104fef63f979ff3c4097ad240c0c43dcb33ce837748983e6291a3600180546001600160a01b0319166001600160a01b0392909216919091179055565b6014546040516370a0823160e01b81526000916001600160a01b0316906370a0823190610c2e90859060040161125b565b6000670de0b6b3a7640000600d54106111795760405162461bcd60e51b815260040161064a906113c0565b6000600d541161119b5760405162461bcd60e51b815260040161064a9061128e565b670de0b6b3a76400006111bb600c54600b546111d890919063ffffffff16565b106107135760405162461bcd60e51b815260040161064a90611355565b6000828201838110156111fd5760405162461bcd60e51b815260040161064a9061139d565b9392505050565b600060208284031215611215578081fd5b81356001600160a01b03811681146111fd578182fd5b60006020828403121561123c578081fd5b5035919050565b600060208284031215611254578081fd5b5051919050565b6001600160a01b0391909116815260200190565b901515815260200190565b602081016003831061128857fe5b91905290565b60208082526003908201526204b3d360ec1b604082015260600190565b6020808252600d908201526c494e56414c49445f434c41494d60981b604082015260600190565b60208082526017908201527f4e4f545f53555045525649534f525f4f525f4f574e4552000000000000000000604082015260600190565b6020808252600d908201526c24a72b20a624a22fa7aba722a960991b604082015260600190565b6020808252600b908201526a1113d113d7d0d313d4d15160aa1b604082015260600190565b6020808252600b908201526a4645455f524154453e3d3160a81b604082015260600190565b6020808252600990820152682727aa2fa7aba722a960b91b604082015260600190565b60208082526009908201526820a2222fa2a92927a960b91b604082015260600190565b6020808252600490820152634b3e3d3160e01b604082015260600190565b90815260200190565b91825260208201526040019056fea2646970667358221220e856033bc330207be0100003cace375d8fad287d256324bddc13e5a37282509e64736f6c63430006090033",
  "immutableReferences": {},
  "source": "/*\n\n    Copyright 2020 DODO ZOO.\n    SPDX-License-Identifier: Apache-2.0\n\n*/\n\npragma solidity 0.6.9;\npragma experimental ABIEncoderV2;\n\nimport {Storage} from \"./Storage.sol\";\n\n\n/**\n * @title Admin\n * @author DODO Breeder\n *\n * @notice Functions for admin operations\n */\ncontract Admin is Storage {\n    // ============ Events ============\n\n    event UpdateGasPriceLimit(uint256 oldGasPriceLimit, uint256 newGasPriceLimit);\n\n    event UpdateLiquidityProviderFeeRate(\n        uint256 oldLiquidityProviderFeeRate,\n        uint256 newLiquidityProviderFeeRate\n    );\n\n    event UpdateMaintainerFeeRate(uint256 oldMaintainerFeeRate, uint256 newMaintainerFeeRate);\n\n    event UpdateK(uint256 oldK, uint256 newK);\n\n    // ============ Params Setting Functions ============\n\n    function setOracle(address newOracle) external onlyOwner {\n        _ORACLE_ = newOracle;\n    }\n\n    function setSupervisor(address newSupervisor) external onlyOwner {\n        _SUPERVISOR_ = newSupervisor;\n    }\n\n    function setMaintainer(address newMaintainer) external onlyOwner {\n        _MAINTAINER_ = newMaintainer;\n    }\n\n    function setLiquidityProviderFeeRate(uint256 newLiquidityPorviderFeeRate) external onlyOwner {\n        emit UpdateLiquidityProviderFeeRate(_LP_FEE_RATE_, newLiquidityPorviderFeeRate);\n        _LP_FEE_RATE_ = newLiquidityPorviderFeeRate;\n        _checkDODOParameters();\n    }\n\n    function setMaintainerFeeRate(uint256 newMaintainerFeeRate) external onlyOwner {\n        emit UpdateMaintainerFeeRate(_MT_FEE_RATE_, newMaintainerFeeRate);\n        _MT_FEE_RATE_ = newMaintainerFeeRate;\n        _checkDODOParameters();\n    }\n\n    function setK(uint256 newK) external onlyOwner {\n        emit UpdateK(_K_, newK);\n        _K_ = newK;\n        _checkDODOParameters();\n    }\n\n    function setGasPriceLimit(uint256 newGasPriceLimit) external onlySupervisorOrOwner {\n        emit UpdateGasPriceLimit(_GAS_PRICE_LIMIT_, newGasPriceLimit);\n        _GAS_PRICE_LIMIT_ = newGasPriceLimit;\n    }\n\n    // ============ System Control Functions ============\n\n    function disableTrading() external onlySupervisorOrOwner {\n        _TRADE_ALLOWED_ = false;\n    }\n\n    function enableTrading() external onlyOwner notClosed {\n        _TRADE_ALLOWED_ = true;\n    }\n\n    function disableQuoteDeposit() external onlySupervisorOrOwner {\n        _DEPOSIT_QUOTE_ALLOWED_ = false;\n    }\n\n    function enableQuoteDeposit() external onlyOwner notClosed {\n        _DEPOSIT_QUOTE_ALLOWED_ = true;\n    }\n\n    function disableBaseDeposit() external onlySupervisorOrOwner {\n        _DEPOSIT_BASE_ALLOWED_ = false;\n    }\n\n    function enableBaseDeposit() external onlyOwner notClosed {\n        _DEPOSIT_BASE_ALLOWED_ = true;\n    }\n\n    // ============ Advanced Control Functions ============\n\n    function disableBuying() external onlySupervisorOrOwner {\n        _BUYING_ALLOWED_ = false;\n    }\n\n    function enableBuying() external onlyOwner notClosed {\n        _BUYING_ALLOWED_ = true;\n    }\n\n    function disableSelling() external onlySupervisorOrOwner {\n        _SELLING_ALLOWED_ = false;\n    }\n\n    function enableSelling() external onlyOwner notClosed {\n        _SELLING_ALLOWED_ = true;\n    }\n\n    function setBaseBalanceLimit(uint256 newBaseBalanceLimit) external onlyOwner notClosed {\n        _BASE_BALANCE_LIMIT_ = newBaseBalanceLimit;\n    }\n\n    function setQuoteBalanceLimit(uint256 newQuoteBalanceLimit) external onlyOwner notClosed {\n        _QUOTE_BALANCE_LIMIT_ = newQuoteBalanceLimit;\n    }\n}\n",
  "sourcePath": "/Users/owen/Desktop/dodo/dodo-smart-contract/contracts/impl/Admin.sol",
  "compiler": {
    "name": "solc",
    "version": "0.6.9+commit.3e3065ac.Emscripten.clang"
  },
  "schemaVersion": "3.2.3",
  "updatedAt": "2020-11-06T08:03:35.678Z",
  "devdoc": {
    "author": "DODO Breeder",
    "methods": {},
    "title": "Admin"
  },
  "userdoc": {
    "methods": {},
    "notice": "Functions for admin operations"
  }
}