{
  "contractName": "BandBNBBUSDPriceOracleProxy",
  "abi": [
    {
      "inputs": [
        {
          "internalType": "contract IBandOracleAggregator",
          "name": "_aggregator",
          "type": "address"
        }
      ],
      "stateMutability": "nonpayable",
      "type": "constructor"
    },
    {
      "inputs": [],
      "name": "aggregator",
      "outputs": [
        {
          "internalType": "contract IBandOracleAggregator",
          "name": "",
          "type": "address"
        }
      ],
      "stateMutability": "view",
      "type": "function"
    },
    {
      "inputs": [],
      "name": "getPrice",
      "outputs": [
        {
          "internalType": "uint256",
          "name": "",
          "type": "uint256"
        }
      ],
      "stateMutability": "view",
      "type": "function"
    }
  ],
  "bytecode": "0x608060405234801561001057600080fd5b5060405161023438038061023483398101604081905261002f91610054565b600080546001600160a01b0319166001600160a01b0392909216919091179055610082565b600060208284031215610065578081fd5b81516001600160a01b038116811461007b578182fd5b9392505050565b6101a3806100916000396000f3fe608060405234801561001057600080fd5b50600436106100365760003560e01c8063245a7bfc1461003b57806398d5fdca14610059575b600080fd5b61004361006e565b6040516100509190610119565b60405180910390f35b61006161007d565b6040516100509190610164565b6000546001600160a01b031681565b6000805460405163195556f360e21b81526001600160a01b03909116906365555bcc906100ac9060040161012d565b60206040518083038186803b1580156100c457600080fd5b505afa1580156100d8573d6000803e3d6000fd5b505050506040513d601f19601f820116820180604052508101906100fc9190610101565b905090565b600060208284031215610112578081fd5b5051919050565b6001600160a01b0391909116815260200190565b604080825260039082018190526221272160e91b6060830152608060208301819052820152621554d160ea1b60a082015260c00190565b9081526020019056fea26469706673582212203679565ead7c9ba3798f21b1c8a9c7453826485a4329737309557af60365c16564736f6c63430006090033",
  "immutableReferences": {},
  "source": "/*\n\n    Copyright 2020 DODO ZOO.\n    SPDX-License-Identifier: Apache-2.0\n\n*/\n\npragma solidity 0.6.9;\npragma experimental ABIEncoderV2;\n\n\ninterface IBandOracleAggregator {\n    function getReferenceData(string memory base, string memory quote)\n        external\n        view\n        returns (uint256);\n}\n\n\ncontract BandBNBBUSDPriceOracleProxy {\n    IBandOracleAggregator public aggregator;\n\n    constructor(IBandOracleAggregator _aggregator) public {\n        aggregator = _aggregator;\n    }\n\n    function getPrice() public view returns (uint256) {\n        return aggregator.getReferenceData(\"BNB\", \"USD\");\n    }\n}\n",
  "sourcePath": "/Users/owen/Desktop/dodo/dodo-smart-contract/contracts/helper/BandBNBBUSDPriceOracleProxy.sol",
  "compiler": {
    "name": "solc",
    "version": "0.6.9+commit.3e3065ac.Emscripten.clang"
  },
  "schemaVersion": "3.2.3",
  "updatedAt": "2020-11-06T08:03:35.491Z",
  "devdoc": {
    "methods": {}
  },
  "userdoc": {
    "methods": {}
  }
}