{
  "contractName": "ChainlinkETHUSDTPriceOracleProxy",
  "abi": [
    {
      "inputs": [],
      "name": "chainlink",
      "outputs": [
        {
          "internalType": "address",
          "name": "",
          "type": "address"
        }
      ],
      "stateMutability": "view",
      "type": "function"
    },
    {
      "inputs": [],
      "name": "getPrice",
      "outputs": [
        {
          "internalType": "uint256",
          "name": "",
          "type": "uint256"
        }
      ],
      "stateMutability": "view",
      "type": "function"
    }
  ],
  "bytecode": "0x6080604052600080546001600160a01b03191673ee9f2375b4bdf6387aa8265dd4fb8f16512a1d4617905534801561003657600080fd5b50610187806100466000396000f3fe608060405234801561001057600080fd5b50600436106100365760003560e01c806398d5fdca1461003b5780639c3feeb714610059575b600080fd5b61004361006e565b6040516100509190610148565b60405180910390f35b61006161010d565b6040516100509190610134565b60008060009054906101000a90046001600160a01b03166001600160a01b03166350d25bcd6040518163ffffffff1660e01b815260040160206040518083038186803b1580156100bd57600080fd5b505afa1580156100d1573d6000803e3d6000fd5b505050506040513d601f19601f820116820180604052508101906100f5919061011c565b69d3c21bcecceda10000008161010757fe5b04905090565b6000546001600160a01b031681565b60006020828403121561012d578081fd5b5051919050565b6001600160a01b0391909116815260200190565b9081526020019056fea2646970667358221220428095be92520b1539541bd81554548f3a314c244d6918196329713135ba236164736f6c63430006090033",
  "immutableReferences": {},
  "source": "/*\n\n    Copyright 2020 DODO ZOO.\n    SPDX-License-Identifier: Apache-2.0\n\n*/\n\npragma solidity 0.6.9;\npragma experimental ABIEncoderV2;\n\n\ninterface IChainlink {\n    function latestAnswer() external view returns (uint256);\n}\n\n\n// for WETH-USDT(decimals=6) price convert\n\ncontract ChainlinkETHUSDTPriceOracleProxy {\n    address public chainlink = 0xEe9F2375b4bdF6387aa8265dD4FB8F16512A1d46;\n\n    function getPrice() external view returns (uint256) {\n        return 10**24 / IChainlink(chainlink).latestAnswer();\n    }\n}\n",
  "sourcePath": "/Users/owen/Desktop/dodo/dodo-smart-contract/contracts/helper/ChainlinkEthUSDTPriceOracleProxy.sol",
  "compiler": {
    "name": "solc",
    "version": "0.6.9+commit.3e3065ac.Emscripten.clang"
  },
  "schemaVersion": "3.2.3",
  "updatedAt": "2020-11-06T08:03:35.504Z",
  "devdoc": {
    "methods": {}
  },
  "userdoc": {
    "methods": {}
  }
}