{
  "contractName": "ChainlinkETHPriceOracleProxy",
  "abi": [
    {
      "inputs": [],
      "name": "chainlink",
      "outputs": [
        {
          "internalType": "address",
          "name": "",
          "type": "address"
        }
      ],
      "stateMutability": "view",
      "type": "function"
    },
    {
      "inputs": [],
      "name": "getPrice",
      "outputs": [
        {
          "internalType": "uint256",
          "name": "",
          "type": "uint256"
        }
      ],
      "stateMutability": "view",
      "type": "function"
    }
  ],
  "bytecode": "0x6080604052600080546001600160a01b031916735f4ec3df9cbd43714fe2740f5e3616155c5b841917905534801561003657600080fd5b50610173806100466000396000f3fe608060405234801561001057600080fd5b50600436106100365760003560e01c806398d5fdca1461003b5780639c3feeb714610059575b600080fd5b61004361006e565b6040516100509190610134565b60405180910390f35b6100616100f9565b6040516100509190610120565b60008054604080516350d25bcd60e01b815290516064926001600160a01b0316916350d25bcd916004808301926020929190829003018186803b1580156100b457600080fd5b505afa1580156100c8573d6000803e3d6000fd5b505050506040513d601f19601f820116820180604052508101906100ec9190610108565b816100f357fe5b04905090565b6000546001600160a01b031681565b600060208284031215610119578081fd5b5051919050565b6001600160a01b0391909116815260200190565b9081526020019056fea26469706673582212205555b0b7c9d5fd397dcfc32dc4ba242ea35e2b5c33b9133350713a49ea552d0064736f6c63430006090033",
  "immutableReferences": {},
  "source": "/*\n\n    Copyright 2020 DODO ZOO.\n    SPDX-License-Identifier: Apache-2.0\n\n*/\n\npragma solidity 0.6.9;\npragma experimental ABIEncoderV2;\n\n\ninterface IChainlink {\n    function latestAnswer() external view returns (uint256);\n}\n\n\n// for WETH-USDC(decimals=6) price convert\n\ncontract ChainlinkETHPriceOracleProxy {\n    address public chainlink = 0x5f4eC3Df9cbd43714FE2740f5E3616155c5b8419;\n\n    function getPrice() external view returns (uint256) {\n        return IChainlink(chainlink).latestAnswer() / 100;\n    }\n}\n",
  "sourcePath": "/Users/owen/Desktop/dodo/dodo-smart-contract/contracts/helper/ChainlinkEthUSDCPriceOracleProxy.sol",
  "compiler": {
    "name": "solc",
    "version": "0.6.9+commit.3e3065ac.Emscripten.clang"
  },
  "schemaVersion": "3.2.3",
  "updatedAt": "2020-11-06T08:03:35.504Z",
  "devdoc": {
    "methods": {}
  },
  "userdoc": {
    "methods": {}
  }
}