{
  "contractName": "ChainlinkYFIUSDCPriceOracleProxy",
  "abi": [
    {
      "inputs": [],
      "name": "EthUsd",
      "outputs": [
        {
          "internalType": "address",
          "name": "",
          "type": "address"
        }
      ],
      "stateMutability": "view",
      "type": "function"
    },
    {
      "inputs": [],
      "name": "yfiEth",
      "outputs": [
        {
          "internalType": "address",
          "name": "",
          "type": "address"
        }
      ],
      "stateMutability": "view",
      "type": "function"
    },
    {
      "inputs": [],
      "name": "getPrice",
      "outputs": [
        {
          "internalType": "uint256",
          "name": "",
          "type": "uint256"
        }
      ],
      "stateMutability": "view",
      "type": "function"
    }
  ],
  "bytecode": "0x6080604052600080546001600160a01b0319908116737c5d4f8345e66f68099581db340cd65b078c41f41790915560018054909116735f4ec3df9cbd43714fe2740f5e3616155c5b841917905534801561005857600080fd5b5061030c806100686000396000f3fe608060405234801561001057600080fd5b50600436106100415760003560e01c806328737ae51461004657806398d5fdca14610064578063f57689d514610079575b600080fd5b61004e610081565b60405161005b919061026e565b60405180910390f35b61006c610090565b60405161005b91906102cd565b61004e6101c9565b6000546001600160a01b031681565b60008054604080516350d25bcd60e01b8152905183926001600160a01b0316916350d25bcd916004808301926020929190829003018186803b1580156100d557600080fd5b505afa1580156100e9573d6000803e3d6000fd5b505050506040513d601f19601f8201168201806040525081019061010d9190610256565b90506000600160009054906101000a90046001600160a01b03166001600160a01b03166350d25bcd6040518163ffffffff1660e01b815260040160206040518083038186803b15801561015f57600080fd5b505afa158015610173573d6000803e3d6000fd5b505050506040513d601f19601f820116820180604052508101906101979190610256565b90506101c268056bc75e2d631000006101b6848463ffffffff6101d816565b9063ffffffff61022416565b9250505090565b6001546001600160a01b031681565b6000826101e75750600061021e565b828202828482816101f457fe5b041461021b5760405162461bcd60e51b8152600401610212906102aa565b60405180910390fd5b90505b92915050565b60008082116102455760405162461bcd60e51b815260040161021290610282565b81838161024e57fe5b049392505050565b600060208284031215610267578081fd5b5051919050565b6001600160a01b0391909116815260200190565b6020808252600e908201526d2224ab24a224a723afa2a92927a960911b604082015260600190565b60208082526009908201526826aaa62fa2a92927a960b91b604082015260600190565b9081526020019056fea2646970667358221220ba7fbf63c00d658b8e32971f1efb1a92bbde656ec5df1ec5e928c1fe6330c26f64736f6c63430006090033",
  "immutableReferences": {},
  "source": "/*\n\n    Copyright 2020 DODO ZOO.\n    SPDX-License-Identifier: Apache-2.0\n\n*/\n\npragma solidity 0.6.9;\npragma experimental ABIEncoderV2;\n\nimport {SafeMath} from \"../lib/SafeMath.sol\";\n\n\ninterface IChainlink {\n    function latestAnswer() external view returns (uint256);\n}\n\n\n// for YFI-USDC(decimals=6) price convert\n\ncontract ChainlinkYFIUSDCPriceOracleProxy {\n    using SafeMath for uint256;\n\n    address public yfiEth = 0x7c5d4F8345e66f68099581Db340cd65B078C41f4;\n    address public EthUsd = 0x5f4eC3Df9cbd43714FE2740f5E3616155c5b8419;\n\n    function getPrice() external view returns (uint256) {\n        uint256 yfiEthPrice = IChainlink(yfiEth).latestAnswer();\n        uint256 EthUsdPrice = IChainlink(EthUsd).latestAnswer();\n        return yfiEthPrice.mul(EthUsdPrice).div(10**20);\n    }\n}\n",
  "sourcePath": "/Users/owen/Desktop/dodo/dodo-smart-contract/contracts/helper/ChainlinkYFIUSDCPriceOracleProxy.sol",
  "compiler": {
    "name": "solc",
    "version": "0.6.9+commit.3e3065ac.Emscripten.clang"
  },
  "schemaVersion": "3.2.3",
  "updatedAt": "2020-11-06T08:03:35.507Z",
  "devdoc": {
    "methods": {}
  },
  "userdoc": {
    "methods": {}
  }
}