{
  "contractName": "CloneFactory",
  "abi": [
    {
      "inputs": [
        {
          "internalType": "address",
          "name": "prototype",
          "type": "address"
        }
      ],
      "name": "clone",
      "outputs": [
        {
          "internalType": "address",
          "name": "proxy",
          "type": "address"
        }
      ],
      "stateMutability": "nonpayable",
      "type": "function"
    }
  ],
  "bytecode": "0x608060405234801561001057600080fd5b50610118806100206000396000f3fe6080604052348015600f57600080fd5b506004361060285760003560e01c80638124b78e14602d575b600080fd5b603c603836600460a2565b6050565b6040516047919060ce565b60405180910390f35b6000808260601b9050604051733d602d80600a3d3981f3363d3d373d3d3d363d7360601b81528160148201526e5af43d82803e903d91602b57fd5bf360881b60288201526037816000f0949350505050565b60006020828403121560b2578081fd5b81356001600160a01b038116811460c7578182fd5b9392505050565b6001600160a01b039190911681526020019056fea264697066735822122083d2cc9c947b08921b671bd416b961f22b420b13338e99f5519208d7388580a564736f6c63430006090033",
  "immutableReferences": {},
  "source": "/*\n\n    Copyright 2020 DODO ZOO.\n    SPDX-License-Identifier: Apache-2.0\n\n*/\n\npragma solidity 0.6.9;\npragma experimental ABIEncoderV2;\n\ninterface ICloneFactory {\n    function clone(address prototype) external returns (address proxy);\n}\n\n// introduction of proxy mode design: https://docs.openzeppelin.com/upgrades/2.8/\n// minimum implementation of transparent proxy: https://eips.ethereum.org/EIPS/eip-1167\n\ncontract CloneFactory is ICloneFactory {\n    function clone(address prototype) external override returns (address proxy) {\n        bytes20 targetBytes = bytes20(prototype);\n        assembly {\n            let clone := mload(0x40)\n            mstore(clone, 0x3d602d80600a3d3981f3363d3d373d3d3d363d73000000000000000000000000)\n            mstore(add(clone, 0x14), targetBytes)\n            mstore(\n                add(clone, 0x28),\n                0x5af43d82803e903d91602b57fd5bf30000000000000000000000000000000000\n            )\n            proxy := create(0, clone, 0x37)\n        }\n        return proxy;\n    }\n}\n",
  "sourcePath": "/Users/owen/Desktop/dodo/dodo-smart-contract/contracts/helper/CloneFactory.sol",
  "compiler": {
    "name": "solc",
    "version": "0.6.9+commit.3e3065ac.Emscripten.clang"
  },
  "schemaVersion": "3.2.3",
  "updatedAt": "2020-11-06T08:03:35.508Z",
  "devdoc": {
    "methods": {}
  },
  "userdoc": {
    "methods": {}
  }
}