{
  "contractName": "ConstOracle",
  "abi": [
    {
      "inputs": [
        {
          "internalType": "uint256",
          "name": "_price",
          "type": "uint256"
        }
      ],
      "stateMutability": "nonpayable",
      "type": "constructor"
    },
    {
      "inputs": [],
      "name": "tokenPrice",
      "outputs": [
        {
          "internalType": "uint256",
          "name": "",
          "type": "uint256"
        }
      ],
      "stateMutability": "view",
      "type": "function"
    },
    {
      "inputs": [],
      "name": "getPrice",
      "outputs": [
        {
          "internalType": "uint256",
          "name": "",
          "type": "uint256"
        }
      ],
      "stateMutability": "view",
      "type": "function"
    }
  ],
  "bytecode": "0x608060405234801561001057600080fd5b506040516100ff3803806100ff83398101604081905261002f91610037565b60005561004f565b600060208284031215610048578081fd5b5051919050565b60a28061005d6000396000f3fe6080604052348015600f57600080fd5b506004361060325760003560e01c80637ff9b59614603757806398d5fdca146051575b600080fd5b603d6057565b604051604891906063565b60405180910390f35b603d605d565b60005481565b60005490565b9081526020019056fea2646970667358221220983b3926be425c261897fcc5f62f15dd5763108fb7819b19ba891e32c578a13464736f6c63430006090033",
  "immutableReferences": {},
  "source": "/*\n\n    Copyright 2020 DODO ZOO.\n    SPDX-License-Identifier: Apache-2.0\n\n*/\n\npragma solidity 0.6.9;\npragma experimental ABIEncoderV2;\n\n\ncontract ConstOracle {\n    uint256 public tokenPrice;\n\n    constructor(uint256 _price) public {\n        tokenPrice = _price;\n    }\n\n    function getPrice() external view returns (uint256) {\n        return tokenPrice;\n    }\n}\n",
  "sourcePath": "/Users/owen/Desktop/dodo/dodo-smart-contract/contracts/helper/ConstOracle.sol",
  "compiler": {
    "name": "solc",
    "version": "0.6.9+commit.3e3065ac.Emscripten.clang"
  },
  "schemaVersion": "3.2.3",
  "updatedAt": "2020-11-06T08:03:35.509Z",
  "devdoc": {
    "methods": {}
  },
  "userdoc": {
    "methods": {}
  }
}