{
  "contractName": "DODOLpToken",
  "abi": [
    {
      "inputs": [
        {
          "internalType": "address",
          "name": "_originToken",
          "type": "address"
        }
      ],
      "stateMutability": "nonpayable",
      "type": "constructor"
    },
    {
      "anonymous": false,
      "inputs": [
        {
          "indexed": true,
          "internalType": "address",
          "name": "owner",
          "type": "address"
        },
        {
          "indexed": true,
          "internalType": "address",
          "name": "spender",
          "type": "address"
        },
        {
          "indexed": false,
          "internalType": "uint256",
          "name": "amount",
          "type": "uint256"
        }
      ],
      "name": "Approval",
      "type": "event"
    },
    {
      "anonymous": false,
      "inputs": [
        {
          "indexed": true,
          "internalType": "address",
          "name": "user",
          "type": "address"
        },
        {
          "indexed": false,
          "internalType": "uint256",
          "name": "value",
          "type": "uint256"
        }
      ],
      "name": "Burn",
      "type": "event"
    },
    {
      "anonymous": false,
      "inputs": [
        {
          "indexed": true,
          "internalType": "address",
          "name": "user",
          "type": "address"
        },
        {
          "indexed": false,
          "internalType": "uint256",
          "name": "value",
          "type": "uint256"
        }
      ],
      "name": "Mint",
      "type": "event"
    },
    {
      "anonymous": false,
      "inputs": [
        {
          "indexed": true,
          "internalType": "address",
          "name": "previousOwner",
          "type": "address"
        },
        {
          "indexed": true,
          "internalType": "address",
          "name": "newOwner",
          "type": "address"
        }
      ],
      "name": "OwnershipTransferPrepared",
      "type": "event"
    },
    {
      "anonymous": false,
      "inputs": [
        {
          "indexed": true,
          "internalType": "address",
          "name": "previousOwner",
          "type": "address"
        },
        {
          "indexed": true,
          "internalType": "address",
          "name": "newOwner",
          "type": "address"
        }
      ],
      "name": "OwnershipTransferred",
      "type": "event"
    },
    {
      "anonymous": false,
      "inputs": [
        {
          "indexed": true,
          "internalType": "address",
          "name": "from",
          "type": "address"
        },
        {
          "indexed": true,
          "internalType": "address",
          "name": "to",
          "type": "address"
        },
        {
          "indexed": false,
          "internalType": "uint256",
          "name": "amount",
          "type": "uint256"
        }
      ],
      "name": "Transfer",
      "type": "event"
    },
    {
      "inputs": [],
      "name": "_NEW_OWNER_",
      "outputs": [
        {
          "internalType": "address",
          "name": "",
          "type": "address"
        }
      ],
      "stateMutability": "view",
      "type": "function"
    },
    {
      "inputs": [],
      "name": "_OWNER_",
      "outputs": [
        {
          "internalType": "address",
          "name": "",
          "type": "address"
        }
      ],
      "stateMutability": "view",
      "type": "function"
    },
    {
      "inputs": [],
      "name": "claimOwnership",
      "outputs": [],
      "stateMutability": "nonpayable",
      "type": "function"
    },
    {
      "inputs": [],
      "name": "originToken",
      "outputs": [
        {
          "internalType": "address",
          "name": "",
          "type": "address"
        }
      ],
      "stateMutability": "view",
      "type": "function"
    },
    {
      "inputs": [],
      "name": "symbol",
      "outputs": [
        {
          "internalType": "string",
          "name": "",
          "type": "string"
        }
      ],
      "stateMutability": "view",
      "type": "function"
    },
    {
      "inputs": [],
      "name": "totalSupply",
      "outputs": [
        {
          "internalType": "uint256",
          "name": "",
          "type": "uint256"
        }
      ],
      "stateMutability": "view",
      "type": "function"
    },
    {
      "inputs": [
        {
          "internalType": "address",
          "name": "newOwner",
          "type": "address"
        }
      ],
      "name": "transferOwnership",
      "outputs": [],
      "stateMutability": "nonpayable",
      "type": "function"
    },
    {
      "inputs": [],
      "name": "name",
      "outputs": [
        {
          "internalType": "string",
          "name": "",
          "type": "string"
        }
      ],
      "stateMutability": "view",
      "type": "function"
    },
    {
      "inputs": [],
      "name": "decimals",
      "outputs": [
        {
          "internalType": "uint8",
          "name": "",
          "type": "uint8"
        }
      ],
      "stateMutability": "view",
      "type": "function"
    },
    {
      "inputs": [
        {
          "internalType": "address",
          "name": "to",
          "type": "address"
        },
        {
          "internalType": "uint256",
          "name": "amount",
          "type": "uint256"
        }
      ],
      "name": "transfer",
      "outputs": [
        {
          "internalType": "bool",
          "name": "",
          "type": "bool"
        }
      ],
      "stateMutability": "nonpayable",
      "type": "function"
    },
    {
      "inputs": [
        {
          "internalType": "address",
          "name": "owner",
          "type": "address"
        }
      ],
      "name": "balanceOf",
      "outputs": [
        {
          "internalType": "uint256",
          "name": "balance",
          "type": "uint256"
        }
      ],
      "stateMutability": "view",
      "type": "function"
    },
    {
      "inputs": [
        {
          "internalType": "address",
          "name": "from",
          "type": "address"
        },
        {
          "internalType": "address",
          "name": "to",
          "type": "address"
        },
        {
          "internalType": "uint256",
          "name": "amount",
          "type": "uint256"
        }
      ],
      "name": "transferFrom",
      "outputs": [
        {
          "internalType": "bool",
          "name": "",
          "type": "bool"
        }
      ],
      "stateMutability": "nonpayable",
      "type": "function"
    },
    {
      "inputs": [
        {
          "internalType": "address",
          "name": "spender",
          "type": "address"
        },
        {
          "internalType": "uint256",
          "name": "amount",
          "type": "uint256"
        }
      ],
      "name": "approve",
      "outputs": [
        {
          "internalType": "bool",
          "name": "",
          "type": "bool"
        }
      ],
      "stateMutability": "nonpayable",
      "type": "function"
    },
    {
      "inputs": [
        {
          "internalType": "address",
          "name": "owner",
          "type": "address"
        },
        {
          "internalType": "address",
          "name": "spender",
          "type": "address"
        }
      ],
      "name": "allowance",
      "outputs": [
        {
          "internalType": "uint256",
          "name": "",
          "type": "uint256"
        }
      ],
      "stateMutability": "view",
      "type": "function"
    },
    {
      "inputs": [
        {
          "internalType": "address",
          "name": "user",
          "type": "address"
        },
        {
          "internalType": "uint256",
          "name": "value",
          "type": "uint256"
        }
      ],
      "name": "mint",
      "outputs": [],
      "stateMutability": "nonpayable",
      "type": "function"
    },
    {
      "inputs": [
        {
          "internalType": "address",
          "name": "user",
          "type": "address"
        },
        {
          "internalType": "uint256",
          "name": "value",
          "type": "uint256"
        }
      ],
      "name": "burn",
      "outputs": [],
      "stateMutability": "nonpayable",
      "type": "function"
    }
  ],
  "bytecode": "0x60c060405260036080819052620444c560ec1b60a0908152620000269160029190620000c6565b503480156200003457600080fd5b506040516200102d3803806200102d83398101604081905262000057916200016b565b600080546001600160a01b03191633178082556040516001600160a01b039190911691907f8be0079c531659141344cd1fd0a4f28419497f9722a3daafe3b4186f6b6457e0908290a3600380546001600160a01b0319166001600160a01b03929092169190911790556200019b565b828054600181600116156101000203166002900490600052602060002090601f016020900481019282601f106200010957805160ff191683800117855562000139565b8280016001018555821562000139579182015b82811115620001395782518255916020019190600101906200011c565b50620001479291506200014b565b5090565b6200016891905b8082111562000147576000815560010162000152565b90565b6000602082840312156200017d578081fd5b81516001600160a01b038116811462000194578182fd5b9392505050565b610e8280620001ab6000396000f3fe608060405234801561001057600080fd5b50600436106101005760003560e01c80634e71e0c8116100975780639dc29fac116100665780639dc29fac146101dd578063a9059cbb146101f0578063dd62ed3e14610203578063f2fde38b1461021657610100565b80634e71e0c8146101b257806370a08231146101ba5780638456db15146101cd57806395d89b41146101d557610100565b806318160ddd116100d357806318160ddd1461016057806323b872dd14610175578063313ce5671461018857806340c10f191461019d57610100565b806306fdde0314610105578063095ea7b31461012357806313096a411461014357806316048bc414610158575b600080fd5b61010d610229565b60405161011a9190610c89565b60405180910390f35b610136610131366004610b56565b6102f6565b60405161011a9190610c7e565b61014b610361565b60405161011a9190610c6a565b61014b610370565b61016861037f565b60405161011a9190610dcd565b610136610183366004610b16565b610385565b610190610509565b60405161011a9190610dd6565b6101b06101ab366004610b56565b61058b565b005b6101b061068e565b6101686101c8366004610ac7565b61071c565b61014b610737565b61010d610746565b6101b06101eb366004610b56565b6107d1565b6101366101fe366004610b56565b6108c8565b610168610211366004610ae2565b610986565b6101b0610224366004610ac7565b6109b1565b604080518082018252600f81526e5f444f444f5f4c505f544f4b454e5f60881b602082015260035482516306fdde0360e01b815292516060936001600160a01b03909216916306fdde03916004808301926000929190829003018186803b15801561029357600080fd5b505afa1580156102a7573d6000803e3d6000fd5b505050506040513d6000823e601f3d908101601f191682016040526102cf9190810190610b80565b816040516020016102e1929190610c3c565b60405160208183030381529060405291505090565b3360008181526006602090815260408083206001600160a01b038716808552925280832085905551919290917f8c5be1e5ebec7d5bd14f71427d1e84f3dd0314c0f7b2291e5b200ac8c7c3b9259061034f908690610dcd565b60405180910390a35060015b92915050565b6003546001600160a01b031681565b6000546001600160a01b031681565b60045481565b6001600160a01b0383166000908152600560205260408120548211156103c65760405162461bcd60e51b81526004016103bd90610d5b565b60405180910390fd5b6001600160a01b03841660009081526006602090815260408083203384529091529020548211156104095760405162461bcd60e51b81526004016103bd90610ce3565b6001600160a01b038416600090815260056020526040902054610432908363ffffffff610a5c16565b6001600160a01b038086166000908152600560205260408082209390935590851681522054610467908363ffffffff610a8416565b6001600160a01b0380851660009081526005602090815260408083209490945591871681526006825282812033825290915220546104ab908363ffffffff610a5c16565b6001600160a01b038086166000818152600660209081526040808320338452909152908190209390935591519085169190600080516020610e2d833981519152906104f7908690610dcd565b60405180910390a35060019392505050565b6003546040805163313ce56760e01b815290516000926001600160a01b03169163313ce567916004808301926020929190829003018186803b15801561054e57600080fd5b505afa158015610562573d6000803e3d6000fd5b505050506040513d601f19601f820116820180604052508101906105869190610c1b565b905090565b6000546001600160a01b031633146105b55760405162461bcd60e51b81526004016103bd90610d87565b6001600160a01b0382166000908152600560205260409020546105de908263ffffffff610a8416565b6001600160a01b03831660009081526005602052604090205560045461060a908263ffffffff610a8416565b6004556040516001600160a01b038316907f0f6798a560793a54c3bcfe86a93cde1e73087d944c0ea20544137d412139688590610648908490610dcd565b60405180910390a2816001600160a01b031660006001600160a01b0316600080516020610e2d833981519152836040516106829190610dcd565b60405180910390a35050565b6001546001600160a01b031633146106b85760405162461bcd60e51b81526004016103bd90610cbc565b600154600080546040516001600160a01b0393841693909116917f8be0079c531659141344cd1fd0a4f28419497f9722a3daafe3b4186f6b6457e091a360018054600080546001600160a01b03199081166001600160a01b03841617909155169055565b6001600160a01b031660009081526005602052604090205490565b6001546001600160a01b031681565b6002805460408051602060018416156101000260001901909316849004601f810184900484028201840190925281815292918301828280156107c95780601f1061079e576101008083540402835291602001916107c9565b820191906000526020600020905b8154815290600101906020018083116107ac57829003601f168201915b505050505081565b6000546001600160a01b031633146107fb5760405162461bcd60e51b81526004016103bd90610d87565b6001600160a01b038216600090815260056020526040902054610824908263ffffffff610a5c16565b6001600160a01b038316600090815260056020526040902055600454610850908263ffffffff610a5c16565b6004556040516001600160a01b038316907fcc16f5dbb4873280815c1ee09dbd06736cffcc184412cf7a71a0fdb75d397ca59061088e908490610dcd565b60405180910390a260006001600160a01b0316826001600160a01b0316600080516020610e2d833981519152836040516106829190610dcd565b336000908152600560205260408120548211156108f75760405162461bcd60e51b81526004016103bd90610d5b565b33600090815260056020526040902054610917908363ffffffff610a5c16565b33600090815260056020526040808220929092556001600160a01b03851681522054610949908363ffffffff610a8416565b6001600160a01b038416600081815260056020526040908190209290925590513390600080516020610e2d8339815191529061034f908690610dcd565b6001600160a01b03918216600090815260066020908152604080832093909416825291909152205490565b6000546001600160a01b031633146109db5760405162461bcd60e51b81526004016103bd90610d87565b6001600160a01b038116610a015760405162461bcd60e51b81526004016103bd90610d34565b600080546040516001600160a01b03808516939216917fdcf55418cee3220104fef63f979ff3c4097ad240c0c43dcb33ce837748983e6291a3600180546001600160a01b0319166001600160a01b0392909216919091179055565b600082821115610a7e5760405162461bcd60e51b81526004016103bd90610d11565b50900390565b600082820183811015610aa95760405162461bcd60e51b81526004016103bd90610daa565b9392505050565b80356001600160a01b038116811461035b57600080fd5b600060208284031215610ad8578081fd5b610aa98383610ab0565b60008060408385031215610af4578081fd5b610afe8484610ab0565b9150610b0d8460208501610ab0565b90509250929050565b600080600060608486031215610b2a578081fd5b8335610b3581610e14565b92506020840135610b4581610e14565b929592945050506040919091013590565b60008060408385031215610b68578182fd5b610b728484610ab0565b946020939093013593505050565b600060208284031215610b91578081fd5b815167ffffffffffffffff80821115610ba8578283fd5b81840185601f820112610bb9578384fd5b8051925081831115610bc9578384fd5b604051601f8401601f191681016020018381118282101715610be9578586fd5b604052838152818401602001871015610c00578485fd5b610c11846020830160208501610de4565b9695505050505050565b600060208284031215610c2c578081fd5b815160ff81168114610aa9578182fd5b60008351610c4e818460208801610de4565b8351908301610c61828260208801610de4565b01949350505050565b6001600160a01b0391909116815260200190565b901515815260200190565b6000602082528251806020840152610ca8816040850160208701610de4565b601f01601f19169190910160400192915050565b6020808252600d908201526c494e56414c49445f434c41494d60981b604082015260600190565b60208082526014908201527308298989eae829c868abe9c9ea8be8a9c9eaa8e960631b604082015260600190565b60208082526009908201526829aaa12fa2a92927a960b91b604082015260600190565b6020808252600d908201526c24a72b20a624a22fa7aba722a960991b604082015260600190565b6020808252601290820152710848298829c868abe9c9ea8be8a9c9eaa8e960731b604082015260600190565b6020808252600990820152682727aa2fa7aba722a960b91b604082015260600190565b60208082526009908201526820a2222fa2a92927a960b91b604082015260600190565b90815260200190565b60ff91909116815260200190565b60005b83811015610dff578181015183820152602001610de7565b83811115610e0e576000848401525b50505050565b6001600160a01b0381168114610e2957600080fd5b5056feddf252ad1be2c89b69c2b068fc378daa952ba7f163c4a11628f55a4df523b3efa26469706673582212209cf0d1d887af2d1880badc337ef0f270c8675b4bfd794dc60bdaa78dec3bd19664736f6c63430006090033",
  "immutableReferences": {},
  "source": "/*\n\n    Copyright 2020 DODO ZOO.\n    SPDX-License-Identifier: Apache-2.0\n\n*/\n\npragma solidity 0.6.9;\npragma experimental ABIEncoderV2;\n\nimport {IERC20} from \"../intf/IERC20.sol\";\nimport {SafeMath} from \"../lib/SafeMath.sol\";\nimport {Ownable} from \"../lib/Ownable.sol\";\n\n/**\n * @title DODOLpToken\n * @author DODO Breeder\n *\n * @notice Tokenize liquidity pool assets. An ordinary ERC20 contract with mint and burn functions\n */\ncontract DODOLpToken is Ownable {\n    using SafeMath for uint256;\n\n    string public symbol = \"DLP\";\n    address public originToken;\n\n    uint256 public totalSupply;\n    mapping(address => uint256) internal balances;\n    mapping(address => mapping(address => uint256)) internal allowed;\n\n    // ============ Events ============\n\n    event Transfer(address indexed from, address indexed to, uint256 amount);\n\n    event Approval(address indexed owner, address indexed spender, uint256 amount);\n\n    event Mint(address indexed user, uint256 value);\n\n    event Burn(address indexed user, uint256 value);\n\n    // ============ Functions ============\n\n    constructor(address _originToken) public {\n        originToken = _originToken;\n    }\n\n    function name() public view returns (string memory) {\n        string memory lpTokenSuffix = \"_DODO_LP_TOKEN_\";\n        return string(abi.encodePacked(IERC20(originToken).name(), lpTokenSuffix));\n    }\n\n    function decimals() public view returns (uint8) {\n        return IERC20(originToken).decimals();\n    }\n\n    /**\n     * @dev transfer token for a specified address\n     * @param to The address to transfer to.\n     * @param amount The amount to be transferred.\n     */\n    function transfer(address to, uint256 amount) public returns (bool) {\n        require(amount <= balances[msg.sender], \"BALANCE_NOT_ENOUGH\");\n\n        balances[msg.sender] = balances[msg.sender].sub(amount);\n        balances[to] = balances[to].add(amount);\n        emit Transfer(msg.sender, to, amount);\n        return true;\n    }\n\n    /**\n     * @dev Gets the balance of the specified address.\n     * @param owner The address to query the the balance of.\n     * @return balance An uint256 representing the amount owned by the passed address.\n     */\n    function balanceOf(address owner) external view returns (uint256 balance) {\n        return balances[owner];\n    }\n\n    /**\n     * @dev Transfer tokens from one address to another\n     * @param from address The address which you want to send tokens from\n     * @param to address The address which you want to transfer to\n     * @param amount uint256 the amount of tokens to be transferred\n     */\n    function transferFrom(\n        address from,\n        address to,\n        uint256 amount\n    ) public returns (bool) {\n        require(amount <= balances[from], \"BALANCE_NOT_ENOUGH\");\n        require(amount <= allowed[from][msg.sender], \"ALLOWANCE_NOT_ENOUGH\");\n\n        balances[from] = balances[from].sub(amount);\n        balances[to] = balances[to].add(amount);\n        allowed[from][msg.sender] = allowed[from][msg.sender].sub(amount);\n        emit Transfer(from, to, amount);\n        return true;\n    }\n\n    /**\n     * @dev Approve the passed address to spend the specified amount of tokens on behalf of msg.sender.\n     * @param spender The address which will spend the funds.\n     * @param amount The amount of tokens to be spent.\n     */\n    function approve(address spender, uint256 amount) public returns (bool) {\n        allowed[msg.sender][spender] = amount;\n        emit Approval(msg.sender, spender, amount);\n        return true;\n    }\n\n    /**\n     * @dev Function to check the amount of tokens that an owner allowed to a spender.\n     * @param owner address The address which owns the funds.\n     * @param spender address The address which will spend the funds.\n     * @return A uint256 specifying the amount of tokens still available for the spender.\n     */\n    function allowance(address owner, address spender) public view returns (uint256) {\n        return allowed[owner][spender];\n    }\n\n    function mint(address user, uint256 value) external onlyOwner {\n        balances[user] = balances[user].add(value);\n        totalSupply = totalSupply.add(value);\n        emit Mint(user, value);\n        emit Transfer(address(0), user, value);\n    }\n\n    function burn(address user, uint256 value) external onlyOwner {\n        balances[user] = balances[user].sub(value);\n        totalSupply = totalSupply.sub(value);\n        emit Burn(user, value);\n        emit Transfer(user, address(0), value);\n    }\n}\n",
  "sourcePath": "/Users/owen/Desktop/dodo/dodo-smart-contract/contracts/impl/DODOLpToken.sol",
  "compiler": {
    "name": "solc",
    "version": "0.6.9+commit.3e3065ac.Emscripten.clang"
  },
  "schemaVersion": "3.2.3",
  "updatedAt": "2020-11-06T08:03:35.680Z",
  "devdoc": {
    "author": "DODO Breeder",
    "methods": {
      "allowance(address,address)": {
        "details": "Function to check the amount of tokens that an owner allowed to a spender.",
        "params": {
          "owner": "address The address which owns the funds.",
          "spender": "address The address which will spend the funds."
        },
        "returns": {
          "_0": "A uint256 specifying the amount of tokens still available for the spender."
        }
      },
      "approve(address,uint256)": {
        "details": "Approve the passed address to spend the specified amount of tokens on behalf of msg.sender.",
        "params": {
          "amount": "The amount of tokens to be spent.",
          "spender": "The address which will spend the funds."
        }
      },
      "balanceOf(address)": {
        "details": "Gets the balance of the specified address.",
        "params": {
          "owner": "The address to query the the balance of."
        },
        "returns": {
          "balance": "An uint256 representing the amount owned by the passed address."
        }
      },
      "transfer(address,uint256)": {
        "details": "transfer token for a specified address",
        "params": {
          "amount": "The amount to be transferred.",
          "to": "The address to transfer to."
        }
      },
      "transferFrom(address,address,uint256)": {
        "details": "Transfer tokens from one address to another",
        "params": {
          "amount": "uint256 the amount of tokens to be transferred",
          "from": "address The address which you want to send tokens from",
          "to": "address The address which you want to transfer to"
        }
      }
    },
    "title": "DODOLpToken"
  },
  "userdoc": {
    "methods": {},
    "notice": "Tokenize liquidity pool assets. An ordinary ERC20 contract with mint and burn functions"
  }
}