{
  "contractName": "DODOEthProxy",
  "abi": [
    {
      "inputs": [
        {
          "internalType": "address",
          "name": "dodoZoo",
          "type": "address"
        },
        {
          "internalType": "address payable",
          "name": "weth",
          "type": "address"
        }
      ],
      "stateMutability": "nonpayable",
      "type": "constructor"
    },
    {
      "anonymous": false,
      "inputs": [
        {
          "indexed": true,
          "internalType": "address",
          "name": "buyer",
          "type": "address"
        },
        {
          "indexed": true,
          "internalType": "address",
          "name": "quoteToken",
          "type": "address"
        },
        {
          "indexed": false,
          "internalType": "uint256",
          "name": "receiveEth",
          "type": "uint256"
        },
        {
          "indexed": false,
          "internalType": "uint256",
          "name": "payToken",
          "type": "uint256"
        }
      ],
      "name": "ProxyBuyEthWithToken",
      "type": "event"
    },
    {
      "anonymous": false,
      "inputs": [
        {
          "indexed": true,
          "internalType": "address",
          "name": "buyer",
          "type": "address"
        },
        {
          "indexed": true,
          "internalType": "address",
          "name": "baseToken",
          "type": "address"
        },
        {
          "indexed": false,
          "internalType": "uint256",
          "name": "receiveToken",
          "type": "uint256"
        },
        {
          "indexed": false,
          "internalType": "uint256",
          "name": "payEth",
          "type": "uint256"
        }
      ],
      "name": "ProxyBuyTokenWithEth",
      "type": "event"
    },
    {
      "anonymous": false,
      "inputs": [
        {
          "indexed": true,
          "internalType": "address",
          "name": "lp",
          "type": "address"
        },
        {
          "indexed": true,
          "internalType": "address",
          "name": "DODO",
          "type": "address"
        },
        {
          "indexed": false,
          "internalType": "uint256",
          "name": "ethAmount",
          "type": "uint256"
        }
      ],
      "name": "ProxyDepositEthAsBase",
      "type": "event"
    },
    {
      "anonymous": false,
      "inputs": [
        {
          "indexed": true,
          "internalType": "address",
          "name": "lp",
          "type": "address"
        },
        {
          "indexed": true,
          "internalType": "address",
          "name": "DODO",
          "type": "address"
        },
        {
          "indexed": false,
          "internalType": "uint256",
          "name": "ethAmount",
          "type": "uint256"
        }
      ],
      "name": "ProxyDepositEthAsQuote",
      "type": "event"
    },
    {
      "anonymous": false,
      "inputs": [
        {
          "indexed": true,
          "internalType": "address",
          "name": "seller",
          "type": "address"
        },
        {
          "indexed": true,
          "internalType": "address",
          "name": "quoteToken",
          "type": "address"
        },
        {
          "indexed": false,
          "internalType": "uint256",
          "name": "payEth",
          "type": "uint256"
        },
        {
          "indexed": false,
          "internalType": "uint256",
          "name": "receiveToken",
          "type": "uint256"
        }
      ],
      "name": "ProxySellEthToToken",
      "type": "event"
    },
    {
      "anonymous": false,
      "inputs": [
        {
          "indexed": true,
          "internalType": "address",
          "name": "seller",
          "type": "address"
        },
        {
          "indexed": true,
          "internalType": "address",
          "name": "baseToken",
          "type": "address"
        },
        {
          "indexed": false,
          "internalType": "uint256",
          "name": "payToken",
          "type": "uint256"
        },
        {
          "indexed": false,
          "internalType": "uint256",
          "name": "receiveEth",
          "type": "uint256"
        }
      ],
      "name": "ProxySellTokenToEth",
      "type": "event"
    },
    {
      "anonymous": false,
      "inputs": [
        {
          "indexed": true,
          "internalType": "address",
          "name": "lp",
          "type": "address"
        },
        {
          "indexed": true,
          "internalType": "address",
          "name": "DODO",
          "type": "address"
        },
        {
          "indexed": false,
          "internalType": "uint256",
          "name": "ethAmount",
          "type": "uint256"
        }
      ],
      "name": "ProxyWithdrawEthAsBase",
      "type": "event"
    },
    {
      "anonymous": false,
      "inputs": [
        {
          "indexed": true,
          "internalType": "address",
          "name": "lp",
          "type": "address"
        },
        {
          "indexed": true,
          "internalType": "address",
          "name": "DODO",
          "type": "address"
        },
        {
          "indexed": false,
          "internalType": "uint256",
          "name": "ethAmount",
          "type": "uint256"
        }
      ],
      "name": "ProxyWithdrawEthAsQuote",
      "type": "event"
    },
    {
      "stateMutability": "payable",
      "type": "fallback"
    },
    {
      "inputs": [],
      "name": "_DODO_ZOO_",
      "outputs": [
        {
          "internalType": "address",
          "name": "",
          "type": "address"
        }
      ],
      "stateMutability": "view",
      "type": "function"
    },
    {
      "inputs": [],
      "name": "_WETH_",
      "outputs": [
        {
          "internalType": "address payable",
          "name": "",
          "type": "address"
        }
      ],
      "stateMutability": "view",
      "type": "function"
    },
    {
      "stateMutability": "payable",
      "type": "receive"
    },
    {
      "inputs": [
        {
          "internalType": "address",
          "name": "quoteTokenAddress",
          "type": "address"
        },
        {
          "internalType": "uint256",
          "name": "ethAmount",
          "type": "uint256"
        },
        {
          "internalType": "uint256",
          "name": "minReceiveTokenAmount",
          "type": "uint256"
        }
      ],
      "name": "sellEthToToken",
      "outputs": [
        {
          "internalType": "uint256",
          "name": "receiveTokenAmount",
          "type": "uint256"
        }
      ],
      "stateMutability": "payable",
      "type": "function"
    },
    {
      "inputs": [
        {
          "internalType": "address",
          "name": "quoteTokenAddress",
          "type": "address"
        },
        {
          "internalType": "uint256",
          "name": "ethAmount",
          "type": "uint256"
        },
        {
          "internalType": "uint256",
          "name": "maxPayTokenAmount",
          "type": "uint256"
        }
      ],
      "name": "buyEthWithToken",
      "outputs": [
        {
          "internalType": "uint256",
          "name": "payTokenAmount",
          "type": "uint256"
        }
      ],
      "stateMutability": "nonpayable",
      "type": "function"
    },
    {
      "inputs": [
        {
          "internalType": "address",
          "name": "baseTokenAddress",
          "type": "address"
        },
        {
          "internalType": "uint256",
          "name": "tokenAmount",
          "type": "uint256"
        },
        {
          "internalType": "uint256",
          "name": "minReceiveEthAmount",
          "type": "uint256"
        }
      ],
      "name": "sellTokenToEth",
      "outputs": [
        {
          "internalType": "uint256",
          "name": "receiveEthAmount",
          "type": "uint256"
        }
      ],
      "stateMutability": "nonpayable",
      "type": "function"
    },
    {
      "inputs": [
        {
          "internalType": "address",
          "name": "baseTokenAddress",
          "type": "address"
        },
        {
          "internalType": "uint256",
          "name": "tokenAmount",
          "type": "uint256"
        },
        {
          "internalType": "uint256",
          "name": "maxPayEthAmount",
          "type": "uint256"
        }
      ],
      "name": "buyTokenWithEth",
      "outputs": [
        {
          "internalType": "uint256",
          "name": "payEthAmount",
          "type": "uint256"
        }
      ],
      "stateMutability": "payable",
      "type": "function"
    },
    {
      "inputs": [
        {
          "internalType": "uint256",
          "name": "ethAmount",
          "type": "uint256"
        },
        {
          "internalType": "address",
          "name": "quoteTokenAddress",
          "type": "address"
        }
      ],
      "name": "depositEthAsBase",
      "outputs": [],
      "stateMutability": "payable",
      "type": "function"
    },
    {
      "inputs": [
        {
          "internalType": "uint256",
          "name": "ethAmount",
          "type": "uint256"
        },
        {
          "internalType": "address",
          "name": "quoteTokenAddress",
          "type": "address"
        }
      ],
      "name": "withdrawEthAsBase",
      "outputs": [
        {
          "internalType": "uint256",
          "name": "withdrawAmount",
          "type": "uint256"
        }
      ],
      "stateMutability": "nonpayable",
      "type": "function"
    },
    {
      "inputs": [
        {
          "internalType": "address",
          "name": "quoteTokenAddress",
          "type": "address"
        }
      ],
      "name": "withdrawAllEthAsBase",
      "outputs": [
        {
          "internalType": "uint256",
          "name": "withdrawAmount",
          "type": "uint256"
        }
      ],
      "stateMutability": "nonpayable",
      "type": "function"
    },
    {
      "inputs": [
        {
          "internalType": "uint256",
          "name": "ethAmount",
          "type": "uint256"
        },
        {
          "internalType": "address",
          "name": "baseTokenAddress",
          "type": "address"
        }
      ],
      "name": "depositEthAsQuote",
      "outputs": [],
      "stateMutability": "payable",
      "type": "function"
    },
    {
      "inputs": [
        {
          "internalType": "uint256",
          "name": "ethAmount",
          "type": "uint256"
        },
        {
          "internalType": "address",
          "name": "baseTokenAddress",
          "type": "address"
        }
      ],
      "name": "withdrawEthAsQuote",
      "outputs": [
        {
          "internalType": "uint256",
          "name": "withdrawAmount",
          "type": "uint256"
        }
      ],
      "stateMutability": "nonpayable",
      "type": "function"
    },
    {
      "inputs": [
        {
          "internalType": "address",
          "name": "baseTokenAddress",
          "type": "address"
        }
      ],
      "name": "withdrawAllEthAsQuote",
      "outputs": [
        {
          "internalType": "uint256",
          "name": "withdrawAmount",
          "type": "uint256"
        }
      ],
      "stateMutability": "nonpayable",
      "type": "function"
    }
  ],
  "bytecode": "0x60806040523480156200001157600080fd5b5060405162002d8138038062002d81833981016040819052620000349162000070565b60008054610100600160a81b0319166101006001600160a01b0394851602179055600180546001600160a01b03191691909216179055620000c7565b6000806040838503121562000083578182fd5b82516200009081620000ae565b6020840151909250620000a381620000ae565b809150509250929050565b6001600160a01b0381168114620000c457600080fd5b50565b612caa80620000d76000396000f3fe6080604052600436106100ab5760003560e01c8063827df19411610064578063827df194146101cf578063b56a1d03146101ef578063ba9344a414610202578063d668e02614610215578063e513462814610235578063e8d522bb14610248576100e5565b80630ae4b86d1461010f5780630d4eec8f1461014557806333e000531461016757806339239f721461017a5780633cff9b561461018f578063770e96d3146101af576100e5565b366100e5576001546001600160a01b031633146100e35760405162461bcd60e51b81526004016100da90612b2c565b60405180910390fd5b005b6001546001600160a01b031633146100e35760405162461bcd60e51b81526004016100da90612b2c565b34801561011b57600080fd5b5061012f61012a36600461290b565b610268565b60405161013c9190612c28565b60405180910390f35b34801561015157600080fd5b5061015a6106a8565b60405161013c9190612a1e565b61012f61017536600461294a565b6106b7565b34801561018657600080fd5b5061015a610a5d565b34801561019b57600080fd5b5061012f6101aa36600461290b565b610a71565b3480156101bb57600080fd5b5061012f6101ca3660046129b6565b610e98565b3480156101db57600080fd5b5061012f6101ea3660046129b6565b6113e6565b6100e36101fd3660046129b6565b611916565b6100e36102103660046129b6565b611be2565b34801561022157600080fd5b5061012f61023036600461294a565b611e98565b61012f61024336600461294a565b612112565b34801561025457600080fd5b5061012f61026336600461294a565b6123d6565b6000805460ff161561028c5760405162461bcd60e51b81526004016100da90612ab1565b6000805460ff191660019081178083559054604051630939d86360e11b81526001600160a01b03610100909304831692631273b0c6926102d3929116908790600401612a32565b60206040518083038186803b1580156102eb57600080fd5b505afa1580156102ff573d6000803e3d6000fd5b505050506040513d601f19601f82011682018060405250810190610323919061292e565b90506001600160a01b03811661034b5760405162461bcd60e51b81526004016100da90612a89565b6000816001600160a01b031663d689107c6040518163ffffffff1660e01b815260040160206040518083038186803b15801561038657600080fd5b505afa15801561039a573d6000803e3d6000fd5b505050506040513d601f19601f820116820180604052508101906103be919061292e565b90506000816001600160a01b03166370a08231336040518263ffffffff1660e01b81526004016103ee9190612a1e565b60206040518083038186803b15801561040657600080fd5b505afa15801561041a573d6000803e3d6000fd5b505050506040513d601f19601f8201168201806040525081019061043e919061299e565b6040516323b872dd60e01b81529091506001600160a01b038316906323b872dd9061047190339030908690600401612a4c565b602060405180830381600087803b15801561048b57600080fd5b505af115801561049f573d6000803e3d6000fd5b505050506040513d601f19601f820116820180604052508101906104c3919061297e565b50826001600160a01b031663d47eaa376040518163ffffffff1660e01b8152600401602060405180830381600087803b1580156104ff57600080fd5b505af1158015610513573d6000803e3d6000fd5b505050506040513d601f19601f82011682018060405250810190610537919061299e565b506001546040516370a0823160e01b81526000916001600160a01b0316906370a0823190610569903090600401612a1e565b60206040518083038186803b15801561058157600080fd5b505afa158015610595573d6000803e3d6000fd5b505050506040513d601f19601f820116820180604052508101906105b9919061299e565b600154604051632e1a7d4d60e01b81529192506001600160a01b031690632e1a7d4d906105ea908490600401612c28565b600060405180830381600087803b15801561060457600080fd5b505af1158015610618573d6000803e3d6000fd5b505060405133925083156108fc02915083906000818181858888f19350505050158015610649573d6000803e3d6000fd5b50836001600160a01b0316336001600160a01b03167fa3c769d2387bbb62e448c2cceed2296eaefb147f02f8848fa21fbd165d1cefb48360405161068d9190612c28565b60405180910390a36000805460ff1916905595945050505050565b6001546001600160a01b031681565b6000805460ff16156106db5760405162461bcd60e51b81526004016100da90612ab1565b6000805460ff191660011790553482146107075760405162461bcd60e51b81526004016100da90612b5a565b60008054600154604051630939d86360e11b81526101009092046001600160a01b0390811692631273b0c692610744928a92911690600401612a32565b60206040518083038186803b15801561075c57600080fd5b505afa158015610770573d6000803e3d6000fd5b505050506040513d601f19601f82011682018060405250810190610794919061292e565b90506001600160a01b0381166107bc5760405162461bcd60e51b81526004016100da90612a89565b6040516306302ef960e21b81526001600160a01b038216906318c0bbe4906107e8908790600401612c28565b60206040518083038186803b15801561080057600080fd5b505afa158015610814573d6000803e3d6000fd5b505050506040513d601f19601f82011682018060405250810190610838919061299e565b9150600160009054906101000a90046001600160a01b03166001600160a01b031663d0e30db0836040518263ffffffff1660e01b81526004016000604051808303818588803b15801561088a57600080fd5b505af115801561089e573d6000803e3d6000fd5b505060015460405163095ea7b360e01b81526001600160a01b03909116935063095ea7b392506108d5915084908690600401612a70565b602060405180830381600087803b1580156108ef57600080fd5b505af1158015610903573d6000803e3d6000fd5b505050506040513d601f19601f82011682018060405250810190610927919061297e565b5060405163733e738360e11b81526001600160a01b0382169063e67ce706906109569087908790600401612c3f565b602060405180830381600087803b15801561097057600080fd5b505af1158015610984573d6000803e3d6000fd5b505050506040513d601f19601f820116820180604052508101906109a8919061299e565b506109b48533866126b2565b60006109c6848463ffffffff6126d116565b905080156109fd57604051339082156108fc029083906000818181858888f193505050501580156109fb573d6000803e3d6000fd5b505b856001600160a01b0316336001600160a01b03167f26073ab24c5b344998011be45a52267573aac5a64b1940dc1bb78de8b1b4f2c98786604051610a42929190612c31565b60405180910390a350506000805460ff191690559392505050565b60005461010090046001600160a01b031681565b6000805460ff1615610a955760405162461bcd60e51b81526004016100da90612ab1565b6000805460ff191660019081178083559054604051630939d86360e11b81526001600160a01b03610100909304831692631273b0c692610ade9288929190911690600401612a32565b60206040518083038186803b158015610af657600080fd5b505afa158015610b0a573d6000803e3d6000fd5b505050506040513d601f19601f82011682018060405250810190610b2e919061292e565b90506001600160a01b038116610b565760405162461bcd60e51b81526004016100da90612a89565b6000816001600160a01b031663ac1fbc986040518163ffffffff1660e01b815260040160206040518083038186803b158015610b9157600080fd5b505afa158015610ba5573d6000803e3d6000fd5b505050506040513d601f19601f82011682018060405250810190610bc9919061292e565b90506000816001600160a01b03166370a08231336040518263ffffffff1660e01b8152600401610bf99190612a1e565b60206040518083038186803b158015610c1157600080fd5b505afa158015610c25573d6000803e3d6000fd5b505050506040513d601f19601f82011682018060405250810190610c49919061299e565b6040516323b872dd60e01b81529091506001600160a01b038316906323b872dd90610c7c90339030908690600401612a4c565b602060405180830381600087803b158015610c9657600080fd5b505af1158015610caa573d6000803e3d6000fd5b505050506040513d601f19601f82011682018060405250810190610cce919061297e565b50826001600160a01b031663c59203af6040518163ffffffff1660e01b8152600401602060405180830381600087803b158015610d0a57600080fd5b505af1158015610d1e573d6000803e3d6000fd5b505050506040513d601f19601f82011682018060405250810190610d42919061299e565b506001546040516370a0823160e01b81526000916001600160a01b0316906370a0823190610d74903090600401612a1e565b60206040518083038186803b158015610d8c57600080fd5b505afa158015610da0573d6000803e3d6000fd5b505050506040513d601f19601f82011682018060405250810190610dc4919061299e565b600154604051632e1a7d4d60e01b81529192506001600160a01b031690632e1a7d4d90610df5908490600401612c28565b600060405180830381600087803b158015610e0f57600080fd5b505af1158015610e23573d6000803e3d6000fd5b505060405133925083156108fc02915083906000818181858888f19350505050158015610e54573d6000803e3d6000fd5b50836001600160a01b0316336001600160a01b03167f0895ba7c28eabd9a8e5510a35c93d3a99c42e2095c20deebdfb6a3063c15fa3d8360405161068d9190612c28565b6000805460ff1615610ebc5760405162461bcd60e51b81526004016100da90612ab1565b6000805460ff191660019081178083559054604051630939d86360e11b81526001600160a01b03610100909304831692631273b0c692610f059288929190911690600401612a32565b60206040518083038186803b158015610f1d57600080fd5b505afa158015610f31573d6000803e3d6000fd5b505050506040513d601f19601f82011682018060405250810190610f55919061292e565b90506001600160a01b038116610f7d5760405162461bcd60e51b81526004016100da90612a89565b6000816001600160a01b031663ac1fbc986040518163ffffffff1660e01b815260040160206040518083038186803b158015610fb857600080fd5b505afa158015610fcc573d6000803e3d6000fd5b505050506040513d601f19601f82011682018060405250810190610ff0919061292e565b90506000816001600160a01b03166370a08231336040518263ffffffff1660e01b81526004016110209190612a1e565b60206040518083038186803b15801561103857600080fd5b505afa15801561104c573d6000803e3d6000fd5b505050506040513d601f19601f82011682018060405250810190611070919061299e565b6040516323b872dd60e01b81529091506001600160a01b038316906323b872dd906110a390339030908690600401612a4c565b602060405180830381600087803b1580156110bd57600080fd5b505af11580156110d1573d6000803e3d6000fd5b505050506040513d601f19601f820116820180604052508101906110f5919061297e565b5060405163c0a5f6ff60e01b81526001600160a01b0384169063c0a5f6ff90611122908990600401612c28565b602060405180830381600087803b15801561113c57600080fd5b505af1158015611150573d6000803e3d6000fd5b505050506040513d601f19601f82011682018060405250810190611174919061299e565b506040516370a0823160e01b81526001600160a01b038316906370a08231906111a1903090600401612a1e565b60206040518083038186803b1580156111b957600080fd5b505afa1580156111cd573d6000803e3d6000fd5b505050506040513d601f19601f820116820180604052508101906111f1919061299e565b60405163a9059cbb60e01b81529091506001600160a01b0383169063a9059cbb906112229033908590600401612a70565b602060405180830381600087803b15801561123c57600080fd5b505af1158015611250573d6000803e3d6000fd5b505050506040513d601f19601f82011682018060405250810190611274919061297e565b506001546040516370a0823160e01b81526000916001600160a01b0316906370a08231906112a6903090600401612a1e565b60206040518083038186803b1580156112be57600080fd5b505afa1580156112d2573d6000803e3d6000fd5b505050506040513d601f19601f820116820180604052508101906112f6919061299e565b600154604051632e1a7d4d60e01b81529192506001600160a01b031690632e1a7d4d90611327908490600401612c28565b600060405180830381600087803b15801561134157600080fd5b505af1158015611355573d6000803e3d6000fd5b505060405133925083156108fc02915083906000818181858888f19350505050158015611386573d6000803e3d6000fd5b50836001600160a01b0316336001600160a01b03167f0895ba7c28eabd9a8e5510a35c93d3a99c42e2095c20deebdfb6a3063c15fa3d836040516113ca9190612c28565b60405180910390a36000805460ff191690559695505050505050565b6000805460ff161561140a5760405162461bcd60e51b81526004016100da90612ab1565b6000805460ff191660019081178083559054604051630939d86360e11b81526001600160a01b03610100909304831692631273b0c692611451929116908790600401612a32565b60206040518083038186803b15801561146957600080fd5b505afa15801561147d573d6000803e3d6000fd5b505050506040513d601f19601f820116820180604052508101906114a1919061292e565b90506001600160a01b0381166114c95760405162461bcd60e51b81526004016100da90612a89565b6000816001600160a01b031663d689107c6040518163ffffffff1660e01b815260040160206040518083038186803b15801561150457600080fd5b505afa158015611518573d6000803e3d6000fd5b505050506040513d601f19601f8201168201806040525081019061153c919061292e565b90506000816001600160a01b03166370a08231336040518263ffffffff1660e01b815260040161156c9190612a1e565b60206040518083038186803b15801561158457600080fd5b505afa158015611598573d6000803e3d6000fd5b505050506040513d601f19601f820116820180604052508101906115bc919061299e565b6040516323b872dd60e01b81529091506001600160a01b038316906323b872dd906115ef90339030908690600401612a4c565b602060405180830381600087803b15801561160957600080fd5b505af115801561161d573d6000803e3d6000fd5b505050506040513d601f19601f82011682018060405250810190611641919061297e565b5060405163f98bea1560e01b81526001600160a01b0384169063f98bea159061166e908990600401612c28565b602060405180830381600087803b15801561168857600080fd5b505af115801561169c573d6000803e3d6000fd5b505050506040513d601f19601f820116820180604052508101906116c0919061299e565b506040516370a0823160e01b81526001600160a01b038316906370a08231906116ed903090600401612a1e565b60206040518083038186803b15801561170557600080fd5b505afa158015611719573d6000803e3d6000fd5b505050506040513d601f19601f8201168201806040525081019061173d919061299e565b60405163a9059cbb60e01b81529091506001600160a01b0383169063a9059cbb9061176e9033908590600401612a70565b602060405180830381600087803b15801561178857600080fd5b505af115801561179c573d6000803e3d6000fd5b505050506040513d601f19601f820116820180604052508101906117c0919061297e565b506001546040516370a0823160e01b81526000916001600160a01b0316906370a08231906117f2903090600401612a1e565b60206040518083038186803b15801561180a57600080fd5b505afa15801561181e573d6000803e3d6000fd5b505050506040513d601f19601f82011682018060405250810190611842919061299e565b600154604051632e1a7d4d60e01b81529192506001600160a01b031690632e1a7d4d90611873908490600401612c28565b600060405180830381600087803b15801561188d57600080fd5b505af11580156118a1573d6000803e3d6000fd5b505060405133925083156108fc02915083906000818181858888f193505050501580156118d2573d6000803e3d6000fd5b50836001600160a01b0316336001600160a01b03167fa3c769d2387bbb62e448c2cceed2296eaefb147f02f8848fa21fbd165d1cefb4836040516113ca9190612c28565b60005460ff16156119395760405162461bcd60e51b81526004016100da90612ab1565b6000805460ff191660011790553482146119655760405162461bcd60e51b81526004016100da90612b5a565b60008054600154604051630939d86360e11b81526001600160a01b03610100909304831692631273b0c6926119a1929116908690600401612a32565b60206040518083038186803b1580156119b957600080fd5b505afa1580156119cd573d6000803e3d6000fd5b505050506040513d601f19601f820116820180604052508101906119f1919061292e565b90506001600160a01b038116611a195760405162461bcd60e51b81526004016100da90612a89565b600160009054906101000a90046001600160a01b03166001600160a01b031663d0e30db0846040518263ffffffff1660e01b81526004016000604051808303818588803b158015611a6957600080fd5b505af1158015611a7d573d6000803e3d6000fd5b505060015460405163095ea7b360e01b81526001600160a01b03909116935063095ea7b39250611ab4915084908790600401612a70565b602060405180830381600087803b158015611ace57600080fd5b505af1158015611ae2573d6000803e3d6000fd5b505050506040513d601f19601f82011682018060405250810190611b06919061297e565b5060405163aa06ce9b60e01b81526001600160a01b0382169063aa06ce9b90611b359033908790600401612a70565b602060405180830381600087803b158015611b4f57600080fd5b505af1158015611b63573d6000803e3d6000fd5b505050506040513d601f19601f82011682018060405250810190611b87919061299e565b50806001600160a01b0316336001600160a01b03167f39666a73ac2731563def85cdcf4732574a8234b02aff775bf2eb8902e83974df85604051611bcb9190612c28565b60405180910390a350506000805460ff1916905550565b60005460ff1615611c055760405162461bcd60e51b81526004016100da90612ab1565b6000805460ff19166001179055348214611c315760405162461bcd60e51b81526004016100da90612b5a565b60008054600154604051630939d86360e11b81526101009092046001600160a01b0390811692631273b0c692611c6e928792911690600401612a32565b60206040518083038186803b158015611c8657600080fd5b505afa158015611c9a573d6000803e3d6000fd5b505050506040513d601f19601f82011682018060405250810190611cbe919061292e565b90506001600160a01b038116611ce65760405162461bcd60e51b81526004016100da90612a89565b600160009054906101000a90046001600160a01b03166001600160a01b031663d0e30db0846040518263ffffffff1660e01b81526004016000604051808303818588803b158015611d3657600080fd5b505af1158015611d4a573d6000803e3d6000fd5b505060015460405163095ea7b360e01b81526001600160a01b03909116935063095ea7b39250611d81915084908790600401612a70565b602060405180830381600087803b158015611d9b57600080fd5b505af1158015611daf573d6000803e3d6000fd5b505050506040513d601f19601f82011682018060405250810190611dd3919061297e565b506040516317c5e7d960e21b81526001600160a01b03821690635f179f6490611e029033908790600401612a70565b602060405180830381600087803b158015611e1c57600080fd5b505af1158015611e30573d6000803e3d6000fd5b505050506040513d601f19601f82011682018060405250810190611e54919061299e565b50806001600160a01b0316336001600160a01b03167f1a5e8be01b6a2fef916c1dd60b6e2638ce21d0c12f6088499061dbca6a1b9d1985604051611bcb9190612c28565b6000805460ff1615611ebc5760405162461bcd60e51b81526004016100da90612ab1565b6000805460ff191660019081178083559054604051630939d86360e11b81526001600160a01b03610100909304831692631273b0c692611f05928a929190911690600401612a32565b60206040518083038186803b158015611f1d57600080fd5b505afa158015611f31573d6000803e3d6000fd5b505050506040513d601f19601f82011682018060405250810190611f55919061292e565b90506001600160a01b038116611f7d5760405162461bcd60e51b81526004016100da90612a89565b611f976001600160a01b038616828663ffffffff6126f916565b611fa28533866127f3565b604051638dae733360e01b81526001600160a01b03821690638dae733390611fd09087908790600401612c3f565b602060405180830381600087803b158015611fea57600080fd5b505af1158015611ffe573d6000803e3d6000fd5b505050506040513d601f19601f82011682018060405250810190612022919061299e565b600154604051632e1a7d4d60e01b81529193506001600160a01b031690632e1a7d4d90612053908590600401612c28565b600060405180830381600087803b15801561206d57600080fd5b505af1158015612081573d6000803e3d6000fd5b505060405133925084156108fc02915084906000818181858888f193505050501580156120b2573d6000803e3d6000fd5b50846001600160a01b0316336001600160a01b03167f9f16cd7297d1abf6cd80a94e26c0149f7c6fb6d6aea14edc4dbd6243e2d79a8c86856040516120f8929190612c31565b60405180910390a3506000805460ff191690559392505050565b6000805460ff16156121365760405162461bcd60e51b81526004016100da90612ab1565b6000805460ff191660011790553483146121625760405162461bcd60e51b81526004016100da90612b5a565b60008054600154604051630939d86360e11b81526001600160a01b03610100909304831692631273b0c69261219e929116908990600401612a32565b60206040518083038186803b1580156121b657600080fd5b505afa1580156121ca573d6000803e3d6000fd5b505050506040513d601f19601f820116820180604052508101906121ee919061292e565b90506001600160a01b0381166122165760405162461bcd60e51b81526004016100da90612a89565b600160009054906101000a90046001600160a01b03166001600160a01b031663d0e30db0856040518263ffffffff1660e01b81526004016000604051808303818588803b15801561226657600080fd5b505af115801561227a573d6000803e3d6000fd5b505060015460405163095ea7b360e01b81526001600160a01b03909116935063095ea7b392506122b1915084908890600401612a70565b602060405180830381600087803b1580156122cb57600080fd5b505af11580156122df573d6000803e3d6000fd5b505050506040513d601f19601f82011682018060405250810190612303919061297e565b50604051638dae733360e01b81526001600160a01b03821690638dae7333906123329087908790600401612c3f565b602060405180830381600087803b15801561234c57600080fd5b505af1158015612360573d6000803e3d6000fd5b505050506040513d601f19601f82011682018060405250810190612384919061299e565b91506123918533846126b2565b846001600160a01b0316336001600160a01b03167f24389fd2849ecc5469e5ed82254a7f446667bf060eec2f26ea2440da69ce326986856040516120f8929190612c31565b6000805460ff16156123fa5760405162461bcd60e51b81526004016100da90612ab1565b6000805460ff191660019081178083559054604051630939d86360e11b81526001600160a01b03610100909304831692631273b0c692612441929116908990600401612a32565b60206040518083038186803b15801561245957600080fd5b505afa15801561246d573d6000803e3d6000fd5b505050506040513d601f19601f82011682018060405250810190612491919061292e565b90506001600160a01b0381166124b95760405162461bcd60e51b81526004016100da90612a89565b6040516306302ef960e21b81526001600160a01b038216906318c0bbe4906124e5908790600401612c28565b60206040518083038186803b1580156124fd57600080fd5b505afa158015612511573d6000803e3d6000fd5b505050506040513d601f19601f82011682018060405250810190612535919061299e565b91506125428533846127f3565b61255c6001600160a01b038616828463ffffffff6126f916565b60405163733e738360e11b81526001600160a01b0382169063e67ce7069061258a9087908790600401612c3f565b602060405180830381600087803b1580156125a457600080fd5b505af11580156125b8573d6000803e3d6000fd5b505050506040513d601f19601f820116820180604052508101906125dc919061299e565b50600154604051632e1a7d4d60e01b81526001600160a01b0390911690632e1a7d4d9061260d908790600401612c28565b600060405180830381600087803b15801561262757600080fd5b505af115801561263b573d6000803e3d6000fd5b505060405133925086156108fc02915086906000818181858888f1935050505015801561266c573d6000803e3d6000fd5b50846001600160a01b0316336001600160a01b03167f4a1f3fcbe8155e39218bea09dc7aff7d7254987ca870ff05d2ef5c878461fee486856040516120f8929190612c31565b6126cc6001600160a01b038416838363ffffffff61280e16565b505050565b6000828211156126f35760405162461bcd60e51b81526004016100da90612b09565b50900390565b8015806127815750604051636eb1769f60e11b81526001600160a01b0384169063dd62ed3e9061272f9030908690600401612a32565b60206040518083038186803b15801561274757600080fd5b505afa15801561275b573d6000803e3d6000fd5b505050506040513d601f19601f8201168201806040525081019061277f919061299e565b155b61279d5760405162461bcd60e51b81526004016100da90612bd2565b6126cc8363095ea7b360e01b84846040516024016127bc929190612a70565b60408051601f198184030181529190526020810180516001600160e01b03166001600160e01b03199093169290921790915261282d565b6126cc6001600160a01b03841683308463ffffffff6128ea16565b6126cc8363a9059cbb60e01b84846040516024016127bc929190612a70565b60006060836001600160a01b03168360405161284991906129e5565b6000604051808303816000865af19150503d8060008114612886576040519150601f19603f3d011682016040523d82523d6000602084013e61288b565b606091505b5091509150816128ad5760405162461bcd60e51b81526004016100da90612ad4565b8051156128e457808060200190518101906128c8919061297e565b6128e45760405162461bcd60e51b81526004016100da90612b88565b50505050565b6128e4846323b872dd60e01b8585856040516024016127bc93929190612a4c565b60006020828403121561291c578081fd5b813561292781612c5c565b9392505050565b60006020828403121561293f578081fd5b815161292781612c5c565b60008060006060848603121561295e578182fd5b833561296981612c5c565b95602085013595506040909401359392505050565b60006020828403121561298f578081fd5b81518015158114612927578182fd5b6000602082840312156129af578081fd5b5051919050565b600080604083850312156129c8578182fd5b8235915060208301356129da81612c5c565b809150509250929050565b60008251815b81811015612a0557602081860181015185830152016129eb565b81811115612a135782828501525b509190910192915050565b6001600160a01b0391909116815260200190565b6001600160a01b0392831681529116602082015260400190565b6001600160a01b039384168152919092166020820152604081019190915260600190565b6001600160a01b03929092168252602082015260400190565b6020808252600e908201526d1113d113d7d393d517d1561254d560921b604082015260600190565b60208082526009908201526814915153951490539560ba1b604082015260600190565b6020808252818101527f5361666545524332303a206c6f772d6c6576656c2063616c6c206661696c6564604082015260600190565b60208082526009908201526829aaa12fa2a92927a960b91b604082015260600190565b60208082526014908201527357455f53415645445f594f55525f4554485f3a2960601b604082015260600190565b60208082526014908201527308aa890be829a9eaa9ca8be9c9ea8be9a82a886960631b604082015260600190565b6020808252602a908201527f5361666545524332303a204552433230206f7065726174696f6e20646964206e6040820152691bdd081cdd58d8d9595960b21b606082015260800190565b60208082526036908201527f5361666545524332303a20617070726f76652066726f6d206e6f6e2d7a65726f60408201527520746f206e6f6e2d7a65726f20616c6c6f77616e636560501b606082015260800190565b90815260200190565b918252602082015260400190565b918252602082015260606040820181905260009082015260800190565b6001600160a01b0381168114612c7157600080fd5b5056fea2646970667358221220cea1a6c3e007c626e0c73448db5f7fd073d1f6e54609a9087f423463c611166b64736f6c63430006090033",
  "immutableReferences": {},
  "source": "/*\n\n    Copyright 2020 DODO ZOO.\n    SPDX-License-Identifier: Apache-2.0\n\n*/\n\npragma solidity 0.6.9;\npragma experimental ABIEncoderV2;\n\nimport {ReentrancyGuard} from \"./lib/ReentrancyGuard.sol\";\nimport {SafeERC20} from \"./lib/SafeERC20.sol\";\nimport {SafeMath} from \"./lib/SafeMath.sol\";\nimport {IDODO} from \"./intf/IDODO.sol\";\nimport {IERC20} from \"./intf/IERC20.sol\";\nimport {IWETH} from \"./intf/IWETH.sol\";\n\ninterface IDODOZoo {\n    function getDODO(address baseToken, address quoteToken) external view returns (address);\n}\n\n/**\n * @title DODO Eth Proxy\n * @author DODO Breeder\n *\n * @notice Handle ETH-WETH converting for users.\n */\ncontract DODOEthProxy is ReentrancyGuard {\n    using SafeERC20 for IERC20;\n    using SafeMath for uint256;\n\n    address public _DODO_ZOO_;\n    address payable public _WETH_;\n\n    // ============ Events ============\n\n    event ProxySellEthToToken(\n        address indexed seller,\n        address indexed quoteToken,\n        uint256 payEth,\n        uint256 receiveToken\n    );\n\n    event ProxyBuyEthWithToken(\n        address indexed buyer,\n        address indexed quoteToken,\n        uint256 receiveEth,\n        uint256 payToken\n    );\n\n    event ProxySellTokenToEth(\n        address indexed seller,\n        address indexed baseToken,\n        uint256 payToken,\n        uint256 receiveEth\n    );\n\n    event ProxyBuyTokenWithEth(\n        address indexed buyer,\n        address indexed baseToken,\n        uint256 receiveToken,\n        uint256 payEth\n    );\n\n    event ProxyDepositEthAsBase(address indexed lp, address indexed DODO, uint256 ethAmount);\n\n    event ProxyWithdrawEthAsBase(address indexed lp, address indexed DODO, uint256 ethAmount);\n\n    event ProxyDepositEthAsQuote(address indexed lp, address indexed DODO, uint256 ethAmount);\n\n    event ProxyWithdrawEthAsQuote(address indexed lp, address indexed DODO, uint256 ethAmount);\n\n    // ============ Functions ============\n\n    constructor(address dodoZoo, address payable weth) public {\n        _DODO_ZOO_ = dodoZoo;\n        _WETH_ = weth;\n    }\n\n    fallback() external payable {\n        require(msg.sender == _WETH_, \"WE_SAVED_YOUR_ETH_:)\");\n    }\n\n    receive() external payable {\n        require(msg.sender == _WETH_, \"WE_SAVED_YOUR_ETH_:)\");\n    }\n\n    function sellEthToToken(\n        address quoteTokenAddress,\n        uint256 ethAmount,\n        uint256 minReceiveTokenAmount\n    ) external payable preventReentrant returns (uint256 receiveTokenAmount) {\n        require(msg.value == ethAmount, \"ETH_AMOUNT_NOT_MATCH\");\n        address DODO = IDODOZoo(_DODO_ZOO_).getDODO(_WETH_, quoteTokenAddress);\n        require(DODO != address(0), \"DODO_NOT_EXIST\");\n        IWETH(_WETH_).deposit{value: ethAmount}();\n        IWETH(_WETH_).approve(DODO, ethAmount);\n        receiveTokenAmount = IDODO(DODO).sellBaseToken(ethAmount, minReceiveTokenAmount, \"\");\n        _transferOut(quoteTokenAddress, msg.sender, receiveTokenAmount);\n        emit ProxySellEthToToken(msg.sender, quoteTokenAddress, ethAmount, receiveTokenAmount);\n        return receiveTokenAmount;\n    }\n\n    function buyEthWithToken(\n        address quoteTokenAddress,\n        uint256 ethAmount,\n        uint256 maxPayTokenAmount\n    ) external preventReentrant returns (uint256 payTokenAmount) {\n        address DODO = IDODOZoo(_DODO_ZOO_).getDODO(_WETH_, quoteTokenAddress);\n        require(DODO != address(0), \"DODO_NOT_EXIST\");\n        payTokenAmount = IDODO(DODO).queryBuyBaseToken(ethAmount);\n        _transferIn(quoteTokenAddress, msg.sender, payTokenAmount);\n        IERC20(quoteTokenAddress).safeApprove(DODO, payTokenAmount);\n        IDODO(DODO).buyBaseToken(ethAmount, maxPayTokenAmount, \"\");\n        IWETH(_WETH_).withdraw(ethAmount);\n        msg.sender.transfer(ethAmount);\n        emit ProxyBuyEthWithToken(msg.sender, quoteTokenAddress, ethAmount, payTokenAmount);\n        return payTokenAmount;\n    }\n\n    function sellTokenToEth(\n        address baseTokenAddress,\n        uint256 tokenAmount,\n        uint256 minReceiveEthAmount\n    ) external preventReentrant returns (uint256 receiveEthAmount) {\n        address DODO = IDODOZoo(_DODO_ZOO_).getDODO(baseTokenAddress, _WETH_);\n        require(DODO != address(0), \"DODO_NOT_EXIST\");\n        IERC20(baseTokenAddress).safeApprove(DODO, tokenAmount);\n        _transferIn(baseTokenAddress, msg.sender, tokenAmount);\n        receiveEthAmount = IDODO(DODO).sellBaseToken(tokenAmount, minReceiveEthAmount, \"\");\n        IWETH(_WETH_).withdraw(receiveEthAmount);\n        msg.sender.transfer(receiveEthAmount);\n        emit ProxySellTokenToEth(msg.sender, baseTokenAddress, tokenAmount, receiveEthAmount);\n        return receiveEthAmount;\n    }\n\n    function buyTokenWithEth(\n        address baseTokenAddress,\n        uint256 tokenAmount,\n        uint256 maxPayEthAmount\n    ) external payable preventReentrant returns (uint256 payEthAmount) {\n        require(msg.value == maxPayEthAmount, \"ETH_AMOUNT_NOT_MATCH\");\n        address DODO = IDODOZoo(_DODO_ZOO_).getDODO(baseTokenAddress, _WETH_);\n        require(DODO != address(0), \"DODO_NOT_EXIST\");\n        payEthAmount = IDODO(DODO).queryBuyBaseToken(tokenAmount);\n        IWETH(_WETH_).deposit{value: payEthAmount}();\n        IWETH(_WETH_).approve(DODO, payEthAmount);\n        IDODO(DODO).buyBaseToken(tokenAmount, maxPayEthAmount, \"\");\n        _transferOut(baseTokenAddress, msg.sender, tokenAmount);\n        uint256 refund = maxPayEthAmount.sub(payEthAmount);\n        if (refund > 0) {\n            msg.sender.transfer(refund);\n        }\n        emit ProxyBuyTokenWithEth(msg.sender, baseTokenAddress, tokenAmount, payEthAmount);\n        return payEthAmount;\n    }\n\n    function depositEthAsBase(uint256 ethAmount, address quoteTokenAddress)\n        external\n        payable\n        preventReentrant\n    {\n        require(msg.value == ethAmount, \"ETH_AMOUNT_NOT_MATCH\");\n        address DODO = IDODOZoo(_DODO_ZOO_).getDODO(_WETH_, quoteTokenAddress);\n        require(DODO != address(0), \"DODO_NOT_EXIST\");\n        IWETH(_WETH_).deposit{value: ethAmount}();\n        IWETH(_WETH_).approve(DODO, ethAmount);\n        IDODO(DODO).depositBaseTo(msg.sender, ethAmount);\n        emit ProxyDepositEthAsBase(msg.sender, DODO, ethAmount);\n    }\n\n    function withdrawEthAsBase(uint256 ethAmount, address quoteTokenAddress)\n        external\n        preventReentrant\n        returns (uint256 withdrawAmount)\n    {\n        address DODO = IDODOZoo(_DODO_ZOO_).getDODO(_WETH_, quoteTokenAddress);\n        require(DODO != address(0), \"DODO_NOT_EXIST\");\n        address ethLpToken = IDODO(DODO)._BASE_CAPITAL_TOKEN_();\n\n        // transfer all pool shares to proxy\n        uint256 lpBalance = IERC20(ethLpToken).balanceOf(msg.sender);\n        IERC20(ethLpToken).transferFrom(msg.sender, address(this), lpBalance);\n        IDODO(DODO).withdrawBase(ethAmount);\n\n        // transfer remain shares back to msg.sender\n        lpBalance = IERC20(ethLpToken).balanceOf(address(this));\n        IERC20(ethLpToken).transfer(msg.sender, lpBalance);\n\n        // because of withdraw penalty, withdrawAmount may not equal to ethAmount\n        // query weth amount first and than transfer ETH to msg.sender\n        uint256 wethAmount = IERC20(_WETH_).balanceOf(address(this));\n        IWETH(_WETH_).withdraw(wethAmount);\n        msg.sender.transfer(wethAmount);\n        emit ProxyWithdrawEthAsBase(msg.sender, DODO, wethAmount);\n        return wethAmount;\n    }\n\n    function withdrawAllEthAsBase(address quoteTokenAddress)\n        external\n        preventReentrant\n        returns (uint256 withdrawAmount)\n    {\n        address DODO = IDODOZoo(_DODO_ZOO_).getDODO(_WETH_, quoteTokenAddress);\n        require(DODO != address(0), \"DODO_NOT_EXIST\");\n        address ethLpToken = IDODO(DODO)._BASE_CAPITAL_TOKEN_();\n\n        // transfer all pool shares to proxy\n        uint256 lpBalance = IERC20(ethLpToken).balanceOf(msg.sender);\n        IERC20(ethLpToken).transferFrom(msg.sender, address(this), lpBalance);\n        IDODO(DODO).withdrawAllBase();\n\n        // because of withdraw penalty, withdrawAmount may not equal to ethAmount\n        // query weth amount first and than transfer ETH to msg.sender\n        uint256 wethAmount = IERC20(_WETH_).balanceOf(address(this));\n        IWETH(_WETH_).withdraw(wethAmount);\n        msg.sender.transfer(wethAmount);\n        emit ProxyWithdrawEthAsBase(msg.sender, DODO, wethAmount);\n        return wethAmount;\n    }\n\n    function depositEthAsQuote(uint256 ethAmount, address baseTokenAddress)\n        external\n        payable\n        preventReentrant\n    {\n        require(msg.value == ethAmount, \"ETH_AMOUNT_NOT_MATCH\");\n        address DODO = IDODOZoo(_DODO_ZOO_).getDODO(baseTokenAddress, _WETH_);\n        require(DODO != address(0), \"DODO_NOT_EXIST\");\n        IWETH(_WETH_).deposit{value: ethAmount}();\n        IWETH(_WETH_).approve(DODO, ethAmount);\n        IDODO(DODO).depositQuoteTo(msg.sender, ethAmount);\n        emit ProxyDepositEthAsQuote(msg.sender, DODO, ethAmount);\n    }\n\n    function withdrawEthAsQuote(uint256 ethAmount, address baseTokenAddress)\n        external\n        preventReentrant\n        returns (uint256 withdrawAmount)\n    {\n        address DODO = IDODOZoo(_DODO_ZOO_).getDODO(baseTokenAddress, _WETH_);\n        require(DODO != address(0), \"DODO_NOT_EXIST\");\n        address ethLpToken = IDODO(DODO)._QUOTE_CAPITAL_TOKEN_();\n\n        // transfer all pool shares to proxy\n        uint256 lpBalance = IERC20(ethLpToken).balanceOf(msg.sender);\n        IERC20(ethLpToken).transferFrom(msg.sender, address(this), lpBalance);\n        IDODO(DODO).withdrawQuote(ethAmount);\n\n        // transfer remain shares back to msg.sender\n        lpBalance = IERC20(ethLpToken).balanceOf(address(this));\n        IERC20(ethLpToken).transfer(msg.sender, lpBalance);\n\n        // because of withdraw penalty, withdrawAmount may not equal to ethAmount\n        // query weth amount first and than transfer ETH to msg.sender\n        uint256 wethAmount = IERC20(_WETH_).balanceOf(address(this));\n        IWETH(_WETH_).withdraw(wethAmount);\n        msg.sender.transfer(wethAmount);\n        emit ProxyWithdrawEthAsQuote(msg.sender, DODO, wethAmount);\n        return wethAmount;\n    }\n\n    function withdrawAllEthAsQuote(address baseTokenAddress)\n        external\n        preventReentrant\n        returns (uint256 withdrawAmount)\n    {\n        address DODO = IDODOZoo(_DODO_ZOO_).getDODO(baseTokenAddress, _WETH_);\n        require(DODO != address(0), \"DODO_NOT_EXIST\");\n        address ethLpToken = IDODO(DODO)._QUOTE_CAPITAL_TOKEN_();\n\n        // transfer all pool shares to proxy\n        uint256 lpBalance = IERC20(ethLpToken).balanceOf(msg.sender);\n        IERC20(ethLpToken).transferFrom(msg.sender, address(this), lpBalance);\n        IDODO(DODO).withdrawAllQuote();\n\n        // because of withdraw penalty, withdrawAmount may not equal to ethAmount\n        // query weth amount first and than transfer ETH to msg.sender\n        uint256 wethAmount = IERC20(_WETH_).balanceOf(address(this));\n        IWETH(_WETH_).withdraw(wethAmount);\n        msg.sender.transfer(wethAmount);\n        emit ProxyWithdrawEthAsQuote(msg.sender, DODO, wethAmount);\n        return wethAmount;\n    }\n\n    // ============ Helper Functions ============\n\n    function _transferIn(\n        address tokenAddress,\n        address from,\n        uint256 amount\n    ) internal {\n        IERC20(tokenAddress).safeTransferFrom(from, address(this), amount);\n    }\n\n    function _transferOut(\n        address tokenAddress,\n        address to,\n        uint256 amount\n    ) internal {\n        IERC20(tokenAddress).safeTransfer(to, amount);\n    }\n}\n",
  "sourcePath": "/Users/owen/Desktop/dodo/dodo-smart-contract/contracts/DODOEthProxy.sol",
  "compiler": {
    "name": "solc",
    "version": "0.6.9+commit.3e3065ac.Emscripten.clang"
  },
  "schemaVersion": "3.2.3",
  "updatedAt": "2020-11-06T08:03:35.452Z",
  "devdoc": {
    "author": "DODO Breeder",
    "methods": {},
    "title": "DODO Eth Proxy"
  },
  "userdoc": {
    "methods": {},
    "notice": "Handle ETH-WETH converting for users."
  }
}