{
  "contractName": "DODOZoo",
  "abi": [
    {
      "inputs": [
        {
          "internalType": "address",
          "name": "_dodoLogic",
          "type": "address"
        },
        {
          "internalType": "address",
          "name": "_cloneFactory",
          "type": "address"
        },
        {
          "internalType": "address",
          "name": "_defaultSupervisor",
          "type": "address"
        }
      ],
      "stateMutability": "nonpayable",
      "type": "constructor"
    },
    {
      "anonymous": false,
      "inputs": [
        {
          "indexed": false,
          "internalType": "address",
          "name": "newBorn",
          "type": "address"
        },
        {
          "indexed": false,
          "internalType": "address",
          "name": "baseToken",
          "type": "address"
        },
        {
          "indexed": false,
          "internalType": "address",
          "name": "quoteToken",
          "type": "address"
        }
      ],
      "name": "DODOBirth",
      "type": "event"
    },
    {
      "anonymous": false,
      "inputs": [
        {
          "indexed": true,
          "internalType": "address",
          "name": "previousOwner",
          "type": "address"
        },
        {
          "indexed": true,
          "internalType": "address",
          "name": "newOwner",
          "type": "address"
        }
      ],
      "name": "OwnershipTransferPrepared",
      "type": "event"
    },
    {
      "anonymous": false,
      "inputs": [
        {
          "indexed": true,
          "internalType": "address",
          "name": "previousOwner",
          "type": "address"
        },
        {
          "indexed": true,
          "internalType": "address",
          "name": "newOwner",
          "type": "address"
        }
      ],
      "name": "OwnershipTransferred",
      "type": "event"
    },
    {
      "inputs": [],
      "name": "_CLONE_FACTORY_",
      "outputs": [
        {
          "internalType": "address",
          "name": "",
          "type": "address"
        }
      ],
      "stateMutability": "view",
      "type": "function"
    },
    {
      "inputs": [],
      "name": "_DEFAULT_SUPERVISOR_",
      "outputs": [
        {
          "internalType": "address",
          "name": "",
          "type": "address"
        }
      ],
      "stateMutability": "view",
      "type": "function"
    },
    {
      "inputs": [],
      "name": "_DODO_LOGIC_",
      "outputs": [
        {
          "internalType": "address",
          "name": "",
          "type": "address"
        }
      ],
      "stateMutability": "view",
      "type": "function"
    },
    {
      "inputs": [
        {
          "internalType": "uint256",
          "name": "",
          "type": "uint256"
        }
      ],
      "name": "_DODOs",
      "outputs": [
        {
          "internalType": "address",
          "name": "",
          "type": "address"
        }
      ],
      "stateMutability": "view",
      "type": "function"
    },
    {
      "inputs": [],
      "name": "_NEW_OWNER_",
      "outputs": [
        {
          "internalType": "address",
          "name": "",
          "type": "address"
        }
      ],
      "stateMutability": "view",
      "type": "function"
    },
    {
      "inputs": [],
      "name": "_OWNER_",
      "outputs": [
        {
          "internalType": "address",
          "name": "",
          "type": "address"
        }
      ],
      "stateMutability": "view",
      "type": "function"
    },
    {
      "inputs": [],
      "name": "claimOwnership",
      "outputs": [],
      "stateMutability": "nonpayable",
      "type": "function"
    },
    {
      "inputs": [
        {
          "internalType": "address",
          "name": "newOwner",
          "type": "address"
        }
      ],
      "name": "transferOwnership",
      "outputs": [],
      "stateMutability": "nonpayable",
      "type": "function"
    },
    {
      "inputs": [
        {
          "internalType": "address",
          "name": "_dodoLogic",
          "type": "address"
        }
      ],
      "name": "setDODOLogic",
      "outputs": [],
      "stateMutability": "nonpayable",
      "type": "function"
    },
    {
      "inputs": [
        {
          "internalType": "address",
          "name": "_cloneFactory",
          "type": "address"
        }
      ],
      "name": "setCloneFactory",
      "outputs": [],
      "stateMutability": "nonpayable",
      "type": "function"
    },
    {
      "inputs": [
        {
          "internalType": "address",
          "name": "_defaultSupervisor",
          "type": "address"
        }
      ],
      "name": "setDefaultSupervisor",
      "outputs": [],
      "stateMutability": "nonpayable",
      "type": "function"
    },
    {
      "inputs": [
        {
          "internalType": "address",
          "name": "dodo",
          "type": "address"
        }
      ],
      "name": "removeDODO",
      "outputs": [],
      "stateMutability": "nonpayable",
      "type": "function"
    },
    {
      "inputs": [
        {
          "internalType": "address",
          "name": "dodo",
          "type": "address"
        }
      ],
      "name": "addDODO",
      "outputs": [],
      "stateMutability": "nonpayable",
      "type": "function"
    },
    {
      "inputs": [
        {
          "internalType": "address",
          "name": "maintainer",
          "type": "address"
        },
        {
          "internalType": "address",
          "name": "baseToken",
          "type": "address"
        },
        {
          "internalType": "address",
          "name": "quoteToken",
          "type": "address"
        },
        {
          "internalType": "address",
          "name": "oracle",
          "type": "address"
        },
        {
          "internalType": "uint256",
          "name": "lpFeeRate",
          "type": "uint256"
        },
        {
          "internalType": "uint256",
          "name": "mtFeeRate",
          "type": "uint256"
        },
        {
          "internalType": "uint256",
          "name": "k",
          "type": "uint256"
        },
        {
          "internalType": "uint256",
          "name": "gasPriceLimit",
          "type": "uint256"
        }
      ],
      "name": "breedDODO",
      "outputs": [
        {
          "internalType": "address",
          "name": "newBornDODO",
          "type": "address"
        }
      ],
      "stateMutability": "nonpayable",
      "type": "function"
    },
    {
      "inputs": [
        {
          "internalType": "address",
          "name": "baseToken",
          "type": "address"
        },
        {
          "internalType": "address",
          "name": "quoteToken",
          "type": "address"
        }
      ],
      "name": "isDODORegistered",
      "outputs": [
        {
          "internalType": "bool",
          "name": "",
          "type": "bool"
        }
      ],
      "stateMutability": "view",
      "type": "function"
    },
    {
      "inputs": [
        {
          "internalType": "address",
          "name": "baseToken",
          "type": "address"
        },
        {
          "internalType": "address",
          "name": "quoteToken",
          "type": "address"
        }
      ],
      "name": "getDODO",
      "outputs": [
        {
          "internalType": "address",
          "name": "",
          "type": "address"
        }
      ],
      "stateMutability": "view",
      "type": "function"
    },
    {
      "inputs": [],
      "name": "getDODOs",
      "outputs": [
        {
          "internalType": "address[]",
          "name": "",
          "type": "address[]"
        }
      ],
      "stateMutability": "view",
      "type": "function"
    }
  ],
  "bytecode": "0x608060405234801561001057600080fd5b50604051610fc3380380610fc383398101604081905261002f916100ba565b600080546001600160a01b03191633178082556040516001600160a01b039190911691907f8be0079c531659141344cd1fd0a4f28419497f9722a3daafe3b4186f6b6457e0908290a3600280546001600160a01b039485166001600160a01b03199182161790915560038054938516938216939093179092556004805491909316911617905561011e565b6000806000606084860312156100ce578283fd5b83516100d981610106565b60208501519093506100ea81610106565b60408501519092506100fb81610106565b809150509250925092565b6001600160a01b038116811461011b57600080fd5b50565b610e968061012d6000396000f3fe608060405234801561001057600080fd5b506004361061010b5760003560e01c8063816bd40e116100a2578063eb774d0511610071578063eb774d05146101e4578063ecfa2d24146101ec578063eef55d3d146101ff578063f2fde38b14610212578063fa20e0d9146102255761010b565b8063816bd40e146101a15780638456db15146101b45780639a07cd82146101bc578063a0b0a4d1146101c45761010b565b80634f4e6eea116100de5780634f4e6eea1461015357806352491217146101665780635891296f1461017b5780636ace4afd1461018e5761010b565b80631273b0c61461011057806316048bc4146101395780633e73d4b4146101415780634e71e0c814610149575b600080fd5b61012361011e366004610bc6565b610238565b6040516101309190610c95565b60405180910390f35b610123610267565b610123610276565b610151610285565b005b610151610161366004610b87565b61031c565b61016e610368565b6040516101309190610d29565b610151610189366004610b87565b6103ca565b61012361019c366004610bfe565b610623565b6101516101af366004610b87565b6107c8565b610123610814565b610123610823565b6101d76101d2366004610bc6565b610832565b6040516101309190610d76565b6101236108a3565b6101516101fa366004610b87565b6108b2565b61015161020d366004610b87565b610a69565b610151610220366004610b87565b610ab5565b610123610233366004610c7d565b610b60565b6001600160a01b0380831660009081526005602090815260408083208585168452909152902054165b92915050565b6000546001600160a01b031681565b6004546001600160a01b031681565b6001546001600160a01b031633146102b85760405162461bcd60e51b81526004016102af90610d81565b60405180910390fd5b600154600080546040516001600160a01b0393841693909116917f8be0079c531659141344cd1fd0a4f28419497f9722a3daafe3b4186f6b6457e091a360018054600080546001600160a01b03199081166001600160a01b03841617909155169055565b6000546001600160a01b031633146103465760405162461bcd60e51b81526004016102af90610e25565b600380546001600160a01b0319166001600160a01b0392909216919091179055565b606060068054806020026020016040519081016040528092919081815260200182805480156103c057602002820191906000526020600020905b81546001600160a01b031681526001909101906020018083116103a2575b5050505050905090565b6000546001600160a01b031633146103f45760405162461bcd60e51b81526004016102af90610e25565b6000816001600160a01b0316634a248d2a6040518163ffffffff1660e01b8152600401602060405180830381600087803b15801561043157600080fd5b505af1158015610445573d6000803e3d6000fd5b505050506040513d601f19601f820116820180604052508101906104699190610baa565b90506000826001600160a01b031663d4b970466040518163ffffffff1660e01b8152600401602060405180830381600087803b1580156104a857600080fd5b505af11580156104bc573d6000803e3d6000fd5b505050506040513d601f19601f820116820180604052508101906104e09190610baa565b90506104ec8282610832565b6105085760405162461bcd60e51b81526004016102af90610df8565b6001600160a01b038083166000908152600560209081526040808320938516835292905290812080546001600160a01b03191690555b60065460001901811161061d57836001600160a01b03166006828154811061056257fe5b6000918252602090912001546001600160a01b031614156106155760068054600019810190811061058f57fe5b600091825260209091200154600680546001600160a01b0390921691839081106105b557fe5b9060005260206000200160006101000a8154816001600160a01b0302191690836001600160a01b0316021790555060068054806105ee57fe5b600082815260209020810160001990810180546001600160a01b031916905501905561061d565b60010161053e565b50505050565b600080546001600160a01b0316331461064e5760405162461bcd60e51b81526004016102af90610e25565b6106588888610832565b156106755760405162461bcd60e51b81526004016102af90610da8565b6003546002546040516340925bc760e11b81526001600160a01b0392831692638124b78e926106a992911690600401610c95565b602060405180830381600087803b1580156106c357600080fd5b505af11580156106d7573d6000803e3d6000fd5b505050506040513d601f19601f820116820180604052508101906106fb9190610baa565b6000546004805460405163f00f9a0960e01b81529394506001600160a01b038086169463f00f9a09946107469490831693909216918f918f918f918f918f918f918f918f9101610ccc565b600060405180830381600087803b15801561076057600080fd5b505af1158015610774573d6000803e3d6000fd5b50505050610781816108b2565b7f5c428a2e12ecaa744a080b25b4cda8b86359c82d726575d7d747e07708071f938189896040516107b493929190610ca9565b60405180910390a198975050505050505050565b6000546001600160a01b031633146107f25760405162461bcd60e51b81526004016102af90610e25565b600280546001600160a01b0319166001600160a01b0392909216919091179055565b6001546001600160a01b031681565b6002546001600160a01b031681565b6001600160a01b038281166000908152600560209081526040808320858516845290915281205490911615801561088e57506001600160a01b038281166000908152600560209081526040808320878516845290915290205416155b1561089b57506000610261565b506001610261565b6003546001600160a01b031681565b6000546001600160a01b031633146108dc5760405162461bcd60e51b81526004016102af90610e25565b6000816001600160a01b0316634a248d2a6040518163ffffffff1660e01b8152600401602060405180830381600087803b15801561091957600080fd5b505af115801561092d573d6000803e3d6000fd5b505050506040513d601f19601f820116820180604052508101906109519190610baa565b90506000826001600160a01b031663d4b970466040518163ffffffff1660e01b8152600401602060405180830381600087803b15801561099057600080fd5b505af11580156109a4573d6000803e3d6000fd5b505050506040513d601f19601f820116820180604052508101906109c89190610baa565b90506109d48282610832565b156109f15760405162461bcd60e51b81526004016102af90610da8565b6001600160a01b03918216600090815260056020908152604080832093851683529290529081208054929093166001600160a01b031992831681179093556006805460018101825591527ff652222313e28459528d920b65115c16c04f3efc82aaedc97be59f3f377c0d3f0180549091169091179055565b6000546001600160a01b03163314610a935760405162461bcd60e51b81526004016102af90610e25565b600480546001600160a01b0319166001600160a01b0392909216919091179055565b6000546001600160a01b03163314610adf5760405162461bcd60e51b81526004016102af90610e25565b6001600160a01b038116610b055760405162461bcd60e51b81526004016102af90610dd1565b600080546040516001600160a01b03808516939216917fdcf55418cee3220104fef63f979ff3c4097ad240c0c43dcb33ce837748983e6291a3600180546001600160a01b0319166001600160a01b0392909216919091179055565b60068181548110610b6d57fe5b6000918252602090912001546001600160a01b0316905081565b600060208284031215610b98578081fd5b8135610ba381610e48565b9392505050565b600060208284031215610bbb578081fd5b8151610ba381610e48565b60008060408385031215610bd8578081fd5b8235610be381610e48565b91506020830135610bf381610e48565b809150509250929050565b600080600080600080600080610100898b031215610c1a578384fd5b8835610c2581610e48565b97506020890135610c3581610e48565b96506040890135610c4581610e48565b95506060890135610c5581610e48565b979a969950949760808101359660a0820135965060c0820135955060e0909101359350915050565b600060208284031215610c8e578081fd5b5035919050565b6001600160a01b0391909116815260200190565b6001600160a01b0393841681529183166020830152909116604082015260600190565b6001600160a01b039a8b168152988a1660208a0152968916604089015294881660608801529287166080870152951660a085015260c084019490945260e08301939093526101008201929092526101208101919091526101400190565b6020808252825182820181905260009190848201906040850190845b81811015610d6a5783516001600160a01b031683529284019291840191600101610d45565b50909695505050505050565b901515815260200190565b6020808252600d908201526c494e56414c49445f434c41494d60981b604082015260600190565b6020808252600f908201526e1113d113d7d49151d254d511549151608a1b604082015260600190565b6020808252600d908201526c24a72b20a624a22fa7aba722a960991b604082015260600190565b6020808252601390820152721113d113d7d393d517d49151d254d511549151606a1b604082015260600190565b6020808252600990820152682727aa2fa7aba722a960b91b604082015260600190565b6001600160a01b0381168114610e5d57600080fd5b5056fea26469706673582212209f9d65b8a74ad719f4c083d82b808375858b7415fc8894426496fb3a8444e53964736f6c63430006090033",
  "immutableReferences": {},
  "source": "/*\n\n    Copyright 2020 DODO ZOO.\n    SPDX-License-Identifier: Apache-2.0\n\n*/\n\npragma solidity 0.6.9;\npragma experimental ABIEncoderV2;\n\nimport {Ownable} from \"./lib/Ownable.sol\";\nimport {IDODO} from \"./intf/IDODO.sol\";\nimport {ICloneFactory} from \"./helper/CloneFactory.sol\";\n\n\n/**\n * @title DODOZoo\n * @author DODO Breeder\n *\n * @notice Register of All DODO\n */\ncontract DODOZoo is Ownable {\n    address public _DODO_LOGIC_;\n    address public _CLONE_FACTORY_;\n\n    address public _DEFAULT_SUPERVISOR_;\n\n    mapping(address => mapping(address => address)) internal _DODO_REGISTER_;\n    address[] public _DODOs;\n\n    // ============ Events ============\n\n    event DODOBirth(address newBorn, address baseToken, address quoteToken);\n\n    // ============ Constructor Function ============\n\n    constructor(\n        address _dodoLogic,\n        address _cloneFactory,\n        address _defaultSupervisor\n    ) public {\n        _DODO_LOGIC_ = _dodoLogic;\n        _CLONE_FACTORY_ = _cloneFactory;\n        _DEFAULT_SUPERVISOR_ = _defaultSupervisor;\n    }\n\n    // ============ Admin Function ============\n\n    function setDODOLogic(address _dodoLogic) external onlyOwner {\n        _DODO_LOGIC_ = _dodoLogic;\n    }\n\n    function setCloneFactory(address _cloneFactory) external onlyOwner {\n        _CLONE_FACTORY_ = _cloneFactory;\n    }\n\n    function setDefaultSupervisor(address _defaultSupervisor) external onlyOwner {\n        _DEFAULT_SUPERVISOR_ = _defaultSupervisor;\n    }\n\n    function removeDODO(address dodo) external onlyOwner {\n        address baseToken = IDODO(dodo)._BASE_TOKEN_();\n        address quoteToken = IDODO(dodo)._QUOTE_TOKEN_();\n        require(isDODORegistered(baseToken, quoteToken), \"DODO_NOT_REGISTERED\");\n        _DODO_REGISTER_[baseToken][quoteToken] = address(0);\n        for (uint256 i = 0; i <= _DODOs.length - 1; i++) {\n            if (_DODOs[i] == dodo) {\n                _DODOs[i] = _DODOs[_DODOs.length - 1];\n                _DODOs.pop();\n                break;\n            }\n        }\n    }\n\n    function addDODO(address dodo) public onlyOwner {\n        address baseToken = IDODO(dodo)._BASE_TOKEN_();\n        address quoteToken = IDODO(dodo)._QUOTE_TOKEN_();\n        require(!isDODORegistered(baseToken, quoteToken), \"DODO_REGISTERED\");\n        _DODO_REGISTER_[baseToken][quoteToken] = dodo;\n        _DODOs.push(dodo);\n    }\n\n    // ============ Breed DODO Function ============\n\n    function breedDODO(\n        address maintainer,\n        address baseToken,\n        address quoteToken,\n        address oracle,\n        uint256 lpFeeRate,\n        uint256 mtFeeRate,\n        uint256 k,\n        uint256 gasPriceLimit\n    ) external onlyOwner returns (address newBornDODO) {\n        require(!isDODORegistered(baseToken, quoteToken), \"DODO_REGISTERED\");\n        newBornDODO = ICloneFactory(_CLONE_FACTORY_).clone(_DODO_LOGIC_);\n        IDODO(newBornDODO).init(\n            _OWNER_,\n            _DEFAULT_SUPERVISOR_,\n            maintainer,\n            baseToken,\n            quoteToken,\n            oracle,\n            lpFeeRate,\n            mtFeeRate,\n            k,\n            gasPriceLimit\n        );\n        addDODO(newBornDODO);\n        emit DODOBirth(newBornDODO, baseToken, quoteToken);\n        return newBornDODO;\n    }\n\n    // ============ View Functions ============\n\n    function isDODORegistered(address baseToken, address quoteToken) public view returns (bool) {\n        if (\n            _DODO_REGISTER_[baseToken][quoteToken] == address(0) &&\n            _DODO_REGISTER_[quoteToken][baseToken] == address(0)\n        ) {\n            return false;\n        } else {\n            return true;\n        }\n    }\n\n    function getDODO(address baseToken, address quoteToken) external view returns (address) {\n        return _DODO_REGISTER_[baseToken][quoteToken];\n    }\n\n    function getDODOs() external view returns (address[] memory) {\n        return _DODOs;\n    }\n}\n",
  "sourcePath": "/Users/owen/Desktop/dodo/dodo-smart-contract/contracts/DODOZoo.sol",
  "compiler": {
    "name": "solc",
    "version": "0.6.9+commit.3e3065ac.Emscripten.clang"
  },
  "schemaVersion": "3.2.3",
  "updatedAt": "2020-11-06T08:03:35.484Z",
  "devdoc": {
    "author": "DODO Breeder",
    "methods": {},
    "title": "DODOZoo"
  },
  "userdoc": {
    "methods": {},
    "notice": "Register of All DODO"
  }
}