{
  "contractName": "DODOMineReader",
  "abi": [
    {
      "inputs": [
        {
          "internalType": "address",
          "name": "_dodoMine",
          "type": "address"
        },
        {
          "internalType": "address",
          "name": "_dodo",
          "type": "address"
        },
        {
          "internalType": "address",
          "name": "_user",
          "type": "address"
        }
      ],
      "name": "getUserStakedBalance",
      "outputs": [
        {
          "internalType": "uint256",
          "name": "baseBalance",
          "type": "uint256"
        },
        {
          "internalType": "uint256",
          "name": "quoteBalance",
          "type": "uint256"
        }
      ],
      "stateMutability": "view",
      "type": "function"
    }
  ],
  "bytecode": "0x608060405234801561001057600080fd5b506105d5806100206000396000f3fe608060405234801561001057600080fd5b506004361061002b5760003560e01c80634e41de7f14610030575b600080fd5b61004361003e36600461048f565b61005a565b604051610051929190610579565b60405180910390f35b6000806000846001600160a01b031663d689107c6040518163ffffffff1660e01b815260040160206040518083038186803b15801561009857600080fd5b505afa1580156100ac573d6000803e3d6000fd5b505050506040513d601f19601f820116820180604052508101906100d09190610473565b90506000856001600160a01b031663ac1fbc986040518163ffffffff1660e01b815260040160206040518083038186803b15801561010d57600080fd5b505afa158015610121573d6000803e3d6000fd5b505050506040513d601f19601f820116820180604052508101906101459190610473565b90506000876001600160a01b03166319a78f5584886040518363ffffffff1660e01b8152600401610177929190610514565b60206040518083038186803b15801561018f57600080fd5b505afa1580156101a3573d6000803e3d6000fd5b505050506040513d601f19601f820116820180604052508101906101c791906104d9565b90506000886001600160a01b03166319a78f5584896040518363ffffffff1660e01b81526004016101f9929190610514565b60206040518083038186803b15801561021157600080fd5b505afa158015610225573d6000803e3d6000fd5b505050506040513d601f19601f8201168201806040525081019061024991906104d9565b90506000846001600160a01b03166318160ddd6040518163ffffffff1660e01b815260040160206040518083038186803b15801561028657600080fd5b505afa15801561029a573d6000803e3d6000fd5b505050506040513d601f19601f820116820180604052508101906102be91906104d9565b90506000846001600160a01b03166318160ddd6040518163ffffffff1660e01b815260040160206040518083038186803b1580156102fb57600080fd5b505afa15801561030f573d6000803e3d6000fd5b505050506040513d601f19601f8201168201806040525081019061033391906104d9565b90506000808b6001600160a01b031663ffa642256040518163ffffffff1660e01b8152600401604080518083038186803b15801561037057600080fd5b505afa158015610384573d6000803e3d6000fd5b505050506040513d601f19601f820116820180604052508101906103a891906104f1565b90925090506103cd846103c1848963ffffffff6103f516565b9063ffffffff61044116565b99506103e3836103c1838863ffffffff6103f516565b98505050505050505050935093915050565b6000826104045750600061043b565b8282028284828161041157fe5b04146104385760405162461bcd60e51b815260040161042f90610556565b60405180910390fd5b90505b92915050565b60008082116104625760405162461bcd60e51b815260040161042f9061052e565b81838161046b57fe5b049392505050565b600060208284031215610484578081fd5b815161043881610587565b6000806000606084860312156104a3578182fd5b83356104ae81610587565b925060208401356104be81610587565b915060408401356104ce81610587565b809150509250925092565b6000602082840312156104ea578081fd5b5051919050565b60008060408385031215610503578182fd5b505080516020909101519092909150565b6001600160a01b0392831681529116602082015260400190565b6020808252600e908201526d2224ab24a224a723afa2a92927a960911b604082015260600190565b60208082526009908201526826aaa62fa2a92927a960b91b604082015260600190565b918252602082015260400190565b6001600160a01b038116811461059c57600080fd5b5056fea264697066735822122058a9b2316ed397b51ced2cada4331ee4342b25e67e74fb636333495dc36ed57c64736f6c63430006090033",
  "immutableReferences": {},
  "source": "/*\n\n    Copyright 2020 DODO ZOO.\n    SPDX-License-Identifier: Apache-2.0\n\n*/\n\npragma solidity 0.6.9;\npragma experimental ABIEncoderV2;\n\nimport {IDODO} from \"../intf/IDODO.sol\";\nimport {IERC20} from \"../intf/IERC20.sol\";\nimport {SafeMath} from \"../lib/SafeMath.sol\";\n\n\ninterface IDODOMine {\n    function getUserLpBalance(address _lpToken, address _user) external view returns (uint256);\n}\n\n\ncontract DODOMineReader {\n    using SafeMath for uint256;\n\n    function getUserStakedBalance(\n        address _dodoMine,\n        address _dodo,\n        address _user\n    ) external view returns (uint256 baseBalance, uint256 quoteBalance) {\n        address baseLpToken = IDODO(_dodo)._BASE_CAPITAL_TOKEN_();\n        address quoteLpToken = IDODO(_dodo)._QUOTE_CAPITAL_TOKEN_();\n\n        uint256 baseLpBalance = IDODOMine(_dodoMine).getUserLpBalance(baseLpToken, _user);\n        uint256 quoteLpBalance = IDODOMine(_dodoMine).getUserLpBalance(quoteLpToken, _user);\n\n        uint256 baseLpTotalSupply = IERC20(baseLpToken).totalSupply();\n        uint256 quoteLpTotalSupply = IERC20(quoteLpToken).totalSupply();\n\n        (uint256 baseTarget, uint256 quoteTarget) = IDODO(_dodo).getExpectedTarget();\n        baseBalance = baseTarget.mul(baseLpBalance).div(baseLpTotalSupply);\n        quoteBalance = quoteTarget.mul(quoteLpBalance).div(quoteLpTotalSupply);\n\n        return (baseBalance, quoteBalance);\n    }\n}\n",
  "sourcePath": "/Users/owen/Desktop/dodo/dodo-smart-contract/contracts/token/DODOMineReader.sol",
  "compiler": {
    "name": "solc",
    "version": "0.6.9+commit.3e3065ac.Emscripten.clang"
  },
  "schemaVersion": "3.2.3",
  "updatedAt": "2020-11-06T08:03:35.735Z",
  "devdoc": {
    "methods": {}
  },
  "userdoc": {
    "methods": {}
  }
}