{
  "contractName": "DODO",
  "abi": [
    {
      "anonymous": false,
      "inputs": [
        {
          "indexed": true,
          "internalType": "address",
          "name": "buyer",
          "type": "address"
        },
        {
          "indexed": false,
          "internalType": "uint256",
          "name": "receiveBase",
          "type": "uint256"
        },
        {
          "indexed": false,
          "internalType": "uint256",
          "name": "payQuote",
          "type": "uint256"
        }
      ],
      "name": "BuyBaseToken",
      "type": "event"
    },
    {
      "anonymous": false,
      "inputs": [
        {
          "indexed": true,
          "internalType": "address",
          "name": "maintainer",
          "type": "address"
        },
        {
          "indexed": false,
          "internalType": "bool",
          "name": "isBaseToken",
          "type": "bool"
        },
        {
          "indexed": false,
          "internalType": "uint256",
          "name": "amount",
          "type": "uint256"
        }
      ],
      "name": "ChargeMaintainerFee",
      "type": "event"
    },
    {
      "anonymous": false,
      "inputs": [
        {
          "indexed": true,
          "internalType": "address",
          "name": "payer",
          "type": "address"
        },
        {
          "indexed": false,
          "internalType": "bool",
          "name": "isBaseToken",
          "type": "bool"
        },
        {
          "indexed": false,
          "internalType": "uint256",
          "name": "amount",
          "type": "uint256"
        }
      ],
      "name": "ChargePenalty",
      "type": "event"
    },
    {
      "anonymous": false,
      "inputs": [
        {
          "indexed": true,
          "internalType": "address",
          "name": "user",
          "type": "address"
        },
        {
          "indexed": false,
          "internalType": "uint256",
          "name": "baseTokenAmount",
          "type": "uint256"
        },
        {
          "indexed": false,
          "internalType": "uint256",
          "name": "quoteTokenAmount",
          "type": "uint256"
        }
      ],
      "name": "ClaimAssets",
      "type": "event"
    },
    {
      "anonymous": false,
      "inputs": [
        {
          "indexed": true,
          "internalType": "address",
          "name": "payer",
          "type": "address"
        },
        {
          "indexed": true,
          "internalType": "address",
          "name": "receiver",
          "type": "address"
        },
        {
          "indexed": false,
          "internalType": "bool",
          "name": "isBaseToken",
          "type": "bool"
        },
        {
          "indexed": false,
          "internalType": "uint256",
          "name": "amount",
          "type": "uint256"
        },
        {
          "indexed": false,
          "internalType": "uint256",
          "name": "lpTokenAmount",
          "type": "uint256"
        }
      ],
      "name": "Deposit",
      "type": "event"
    },
    {
      "anonymous": false,
      "inputs": [
        {
          "indexed": false,
          "internalType": "uint256",
          "name": "amount",
          "type": "uint256"
        },
        {
          "indexed": false,
          "internalType": "bool",
          "name": "isBaseToken",
          "type": "bool"
        }
      ],
      "name": "Donate",
      "type": "event"
    },
    {
      "anonymous": false,
      "inputs": [
        {
          "indexed": true,
          "internalType": "address",
          "name": "previousOwner",
          "type": "address"
        },
        {
          "indexed": true,
          "internalType": "address",
          "name": "newOwner",
          "type": "address"
        }
      ],
      "name": "OwnershipTransferPrepared",
      "type": "event"
    },
    {
      "anonymous": false,
      "inputs": [
        {
          "indexed": true,
          "internalType": "address",
          "name": "previousOwner",
          "type": "address"
        },
        {
          "indexed": true,
          "internalType": "address",
          "name": "newOwner",
          "type": "address"
        }
      ],
      "name": "OwnershipTransferred",
      "type": "event"
    },
    {
      "anonymous": false,
      "inputs": [
        {
          "indexed": true,
          "internalType": "address",
          "name": "seller",
          "type": "address"
        },
        {
          "indexed": false,
          "internalType": "uint256",
          "name": "payBase",
          "type": "uint256"
        },
        {
          "indexed": false,
          "internalType": "uint256",
          "name": "receiveQuote",
          "type": "uint256"
        }
      ],
      "name": "SellBaseToken",
      "type": "event"
    },
    {
      "anonymous": false,
      "inputs": [
        {
          "indexed": false,
          "internalType": "uint256",
          "name": "oldGasPriceLimit",
          "type": "uint256"
        },
        {
          "indexed": false,
          "internalType": "uint256",
          "name": "newGasPriceLimit",
          "type": "uint256"
        }
      ],
      "name": "UpdateGasPriceLimit",
      "type": "event"
    },
    {
      "anonymous": false,
      "inputs": [
        {
          "indexed": false,
          "internalType": "uint256",
          "name": "oldK",
          "type": "uint256"
        },
        {
          "indexed": false,
          "internalType": "uint256",
          "name": "newK",
          "type": "uint256"
        }
      ],
      "name": "UpdateK",
      "type": "event"
    },
    {
      "anonymous": false,
      "inputs": [
        {
          "indexed": false,
          "internalType": "uint256",
          "name": "oldLiquidityProviderFeeRate",
          "type": "uint256"
        },
        {
          "indexed": false,
          "internalType": "uint256",
          "name": "newLiquidityProviderFeeRate",
          "type": "uint256"
        }
      ],
      "name": "UpdateLiquidityProviderFeeRate",
      "type": "event"
    },
    {
      "anonymous": false,
      "inputs": [
        {
          "indexed": false,
          "internalType": "uint256",
          "name": "oldMaintainerFeeRate",
          "type": "uint256"
        },
        {
          "indexed": false,
          "internalType": "uint256",
          "name": "newMaintainerFeeRate",
          "type": "uint256"
        }
      ],
      "name": "UpdateMaintainerFeeRate",
      "type": "event"
    },
    {
      "anonymous": false,
      "inputs": [
        {
          "indexed": true,
          "internalType": "address",
          "name": "payer",
          "type": "address"
        },
        {
          "indexed": true,
          "internalType": "address",
          "name": "receiver",
          "type": "address"
        },
        {
          "indexed": false,
          "internalType": "bool",
          "name": "isBaseToken",
          "type": "bool"
        },
        {
          "indexed": false,
          "internalType": "uint256",
          "name": "amount",
          "type": "uint256"
        },
        {
          "indexed": false,
          "internalType": "uint256",
          "name": "lpTokenAmount",
          "type": "uint256"
        }
      ],
      "name": "Withdraw",
      "type": "event"
    },
    {
      "inputs": [],
      "name": "_BASE_BALANCE_",
      "outputs": [
        {
          "internalType": "uint256",
          "name": "",
          "type": "uint256"
        }
      ],
      "stateMutability": "view",
      "type": "function"
    },
    {
      "inputs": [],
      "name": "_BASE_BALANCE_LIMIT_",
      "outputs": [
        {
          "internalType": "uint256",
          "name": "",
          "type": "uint256"
        }
      ],
      "stateMutability": "view",
      "type": "function"
    },
    {
      "inputs": [],
      "name": "_BASE_CAPITAL_RECEIVE_QUOTE_",
      "outputs": [
        {
          "internalType": "uint256",
          "name": "",
          "type": "uint256"
        }
      ],
      "stateMutability": "view",
      "type": "function"
    },
    {
      "inputs": [],
      "name": "_BASE_CAPITAL_TOKEN_",
      "outputs": [
        {
          "internalType": "address",
          "name": "",
          "type": "address"
        }
      ],
      "stateMutability": "view",
      "type": "function"
    },
    {
      "inputs": [],
      "name": "_BASE_TOKEN_",
      "outputs": [
        {
          "internalType": "address",
          "name": "",
          "type": "address"
        }
      ],
      "stateMutability": "view",
      "type": "function"
    },
    {
      "inputs": [],
      "name": "_BUYING_ALLOWED_",
      "outputs": [
        {
          "internalType": "bool",
          "name": "",
          "type": "bool"
        }
      ],
      "stateMutability": "view",
      "type": "function"
    },
    {
      "inputs": [
        {
          "internalType": "address",
          "name": "",
          "type": "address"
        }
      ],
      "name": "_CLAIMED_",
      "outputs": [
        {
          "internalType": "bool",
          "name": "",
          "type": "bool"
        }
      ],
      "stateMutability": "view",
      "type": "function"
    },
    {
      "inputs": [],
      "name": "_CLOSED_",
      "outputs": [
        {
          "internalType": "bool",
          "name": "",
          "type": "bool"
        }
      ],
      "stateMutability": "view",
      "type": "function"
    },
    {
      "inputs": [],
      "name": "_DEPOSIT_BASE_ALLOWED_",
      "outputs": [
        {
          "internalType": "bool",
          "name": "",
          "type": "bool"
        }
      ],
      "stateMutability": "view",
      "type": "function"
    },
    {
      "inputs": [],
      "name": "_DEPOSIT_QUOTE_ALLOWED_",
      "outputs": [
        {
          "internalType": "bool",
          "name": "",
          "type": "bool"
        }
      ],
      "stateMutability": "view",
      "type": "function"
    },
    {
      "inputs": [],
      "name": "_GAS_PRICE_LIMIT_",
      "outputs": [
        {
          "internalType": "uint256",
          "name": "",
          "type": "uint256"
        }
      ],
      "stateMutability": "view",
      "type": "function"
    },
    {
      "inputs": [],
      "name": "_K_",
      "outputs": [
        {
          "internalType": "uint256",
          "name": "",
          "type": "uint256"
        }
      ],
      "stateMutability": "view",
      "type": "function"
    },
    {
      "inputs": [],
      "name": "_LP_FEE_RATE_",
      "outputs": [
        {
          "internalType": "uint256",
          "name": "",
          "type": "uint256"
        }
      ],
      "stateMutability": "view",
      "type": "function"
    },
    {
      "inputs": [],
      "name": "_MAINTAINER_",
      "outputs": [
        {
          "internalType": "address",
          "name": "",
          "type": "address"
        }
      ],
      "stateMutability": "view",
      "type": "function"
    },
    {
      "inputs": [],
      "name": "_MT_FEE_RATE_",
      "outputs": [
        {
          "internalType": "uint256",
          "name": "",
          "type": "uint256"
        }
      ],
      "stateMutability": "view",
      "type": "function"
    },
    {
      "inputs": [],
      "name": "_NEW_OWNER_",
      "outputs": [
        {
          "internalType": "address",
          "name": "",
          "type": "address"
        }
      ],
      "stateMutability": "view",
      "type": "function"
    },
    {
      "inputs": [],
      "name": "_ORACLE_",
      "outputs": [
        {
          "internalType": "address",
          "name": "",
          "type": "address"
        }
      ],
      "stateMutability": "view",
      "type": "function"
    },
    {
      "inputs": [],
      "name": "_OWNER_",
      "outputs": [
        {
          "internalType": "address",
          "name": "",
          "type": "address"
        }
      ],
      "stateMutability": "view",
      "type": "function"
    },
    {
      "inputs": [],
      "name": "_QUOTE_BALANCE_",
      "outputs": [
        {
          "internalType": "uint256",
          "name": "",
          "type": "uint256"
        }
      ],
      "stateMutability": "view",
      "type": "function"
    },
    {
      "inputs": [],
      "name": "_QUOTE_BALANCE_LIMIT_",
      "outputs": [
        {
          "internalType": "uint256",
          "name": "",
          "type": "uint256"
        }
      ],
      "stateMutability": "view",
      "type": "function"
    },
    {
      "inputs": [],
      "name": "_QUOTE_CAPITAL_RECEIVE_BASE_",
      "outputs": [
        {
          "internalType": "uint256",
          "name": "",
          "type": "uint256"
        }
      ],
      "stateMutability": "view",
      "type": "function"
    },
    {
      "inputs": [],
      "name": "_QUOTE_CAPITAL_TOKEN_",
      "outputs": [
        {
          "internalType": "address",
          "name": "",
          "type": "address"
        }
      ],
      "stateMutability": "view",
      "type": "function"
    },
    {
      "inputs": [],
      "name": "_QUOTE_TOKEN_",
      "outputs": [
        {
          "internalType": "address",
          "name": "",
          "type": "address"
        }
      ],
      "stateMutability": "view",
      "type": "function"
    },
    {
      "inputs": [],
      "name": "_R_STATUS_",
      "outputs": [
        {
          "internalType": "enum Types.RStatus",
          "name": "",
          "type": "uint8"
        }
      ],
      "stateMutability": "view",
      "type": "function"
    },
    {
      "inputs": [],
      "name": "_SELLING_ALLOWED_",
      "outputs": [
        {
          "internalType": "bool",
          "name": "",
          "type": "bool"
        }
      ],
      "stateMutability": "view",
      "type": "function"
    },
    {
      "inputs": [],
      "name": "_SUPERVISOR_",
      "outputs": [
        {
          "internalType": "address",
          "name": "",
          "type": "address"
        }
      ],
      "stateMutability": "view",
      "type": "function"
    },
    {
      "inputs": [],
      "name": "_TARGET_BASE_TOKEN_AMOUNT_",
      "outputs": [
        {
          "internalType": "uint256",
          "name": "",
          "type": "uint256"
        }
      ],
      "stateMutability": "view",
      "type": "function"
    },
    {
      "inputs": [],
      "name": "_TARGET_QUOTE_TOKEN_AMOUNT_",
      "outputs": [
        {
          "internalType": "uint256",
          "name": "",
          "type": "uint256"
        }
      ],
      "stateMutability": "view",
      "type": "function"
    },
    {
      "inputs": [],
      "name": "_TRADE_ALLOWED_",
      "outputs": [
        {
          "internalType": "bool",
          "name": "",
          "type": "bool"
        }
      ],
      "stateMutability": "view",
      "type": "function"
    },
    {
      "inputs": [
        {
          "internalType": "uint256",
          "name": "amount",
          "type": "uint256"
        },
        {
          "internalType": "uint256",
          "name": "maxPayQuote",
          "type": "uint256"
        },
        {
          "internalType": "bytes",
          "name": "data",
          "type": "bytes"
        }
      ],
      "name": "buyBaseToken",
      "outputs": [
        {
          "internalType": "uint256",
          "name": "",
          "type": "uint256"
        }
      ],
      "stateMutability": "nonpayable",
      "type": "function"
    },
    {
      "inputs": [],
      "name": "claimAssets",
      "outputs": [],
      "stateMutability": "nonpayable",
      "type": "function"
    },
    {
      "inputs": [],
      "name": "claimOwnership",
      "outputs": [],
      "stateMutability": "nonpayable",
      "type": "function"
    },
    {
      "inputs": [
        {
          "internalType": "uint256",
          "name": "amount",
          "type": "uint256"
        }
      ],
      "name": "depositBase",
      "outputs": [
        {
          "internalType": "uint256",
          "name": "",
          "type": "uint256"
        }
      ],
      "stateMutability": "nonpayable",
      "type": "function"
    },
    {
      "inputs": [
        {
          "internalType": "address",
          "name": "to",
          "type": "address"
        },
        {
          "internalType": "uint256",
          "name": "amount",
          "type": "uint256"
        }
      ],
      "name": "depositBaseTo",
      "outputs": [
        {
          "internalType": "uint256",
          "name": "",
          "type": "uint256"
        }
      ],
      "stateMutability": "nonpayable",
      "type": "function"
    },
    {
      "inputs": [
        {
          "internalType": "uint256",
          "name": "amount",
          "type": "uint256"
        }
      ],
      "name": "depositQuote",
      "outputs": [
        {
          "internalType": "uint256",
          "name": "",
          "type": "uint256"
        }
      ],
      "stateMutability": "nonpayable",
      "type": "function"
    },
    {
      "inputs": [
        {
          "internalType": "address",
          "name": "to",
          "type": "address"
        },
        {
          "internalType": "uint256",
          "name": "amount",
          "type": "uint256"
        }
      ],
      "name": "depositQuoteTo",
      "outputs": [
        {
          "internalType": "uint256",
          "name": "",
          "type": "uint256"
        }
      ],
      "stateMutability": "nonpayable",
      "type": "function"
    },
    {
      "inputs": [],
      "name": "disableBaseDeposit",
      "outputs": [],
      "stateMutability": "nonpayable",
      "type": "function"
    },
    {
      "inputs": [],
      "name": "disableBuying",
      "outputs": [],
      "stateMutability": "nonpayable",
      "type": "function"
    },
    {
      "inputs": [],
      "name": "disableQuoteDeposit",
      "outputs": [],
      "stateMutability": "nonpayable",
      "type": "function"
    },
    {
      "inputs": [],
      "name": "disableSelling",
      "outputs": [],
      "stateMutability": "nonpayable",
      "type": "function"
    },
    {
      "inputs": [],
      "name": "disableTrading",
      "outputs": [],
      "stateMutability": "nonpayable",
      "type": "function"
    },
    {
      "inputs": [
        {
          "internalType": "uint256",
          "name": "amount",
          "type": "uint256"
        }
      ],
      "name": "donateBaseToken",
      "outputs": [],
      "stateMutability": "nonpayable",
      "type": "function"
    },
    {
      "inputs": [
        {
          "internalType": "uint256",
          "name": "amount",
          "type": "uint256"
        }
      ],
      "name": "donateQuoteToken",
      "outputs": [],
      "stateMutability": "nonpayable",
      "type": "function"
    },
    {
      "inputs": [],
      "name": "enableBaseDeposit",
      "outputs": [],
      "stateMutability": "nonpayable",
      "type": "function"
    },
    {
      "inputs": [],
      "name": "enableBuying",
      "outputs": [],
      "stateMutability": "nonpayable",
      "type": "function"
    },
    {
      "inputs": [],
      "name": "enableQuoteDeposit",
      "outputs": [],
      "stateMutability": "nonpayable",
      "type": "function"
    },
    {
      "inputs": [],
      "name": "enableSelling",
      "outputs": [],
      "stateMutability": "nonpayable",
      "type": "function"
    },
    {
      "inputs": [],
      "name": "enableTrading",
      "outputs": [],
      "stateMutability": "nonpayable",
      "type": "function"
    },
    {
      "inputs": [],
      "name": "finalSettlement",
      "outputs": [],
      "stateMutability": "nonpayable",
      "type": "function"
    },
    {
      "inputs": [
        {
          "internalType": "address",
          "name": "lp",
          "type": "address"
        }
      ],
      "name": "getBaseCapitalBalanceOf",
      "outputs": [
        {
          "internalType": "uint256",
          "name": "",
          "type": "uint256"
        }
      ],
      "stateMutability": "view",
      "type": "function"
    },
    {
      "inputs": [],
      "name": "getExpectedTarget",
      "outputs": [
        {
          "internalType": "uint256",
          "name": "baseTarget",
          "type": "uint256"
        },
        {
          "internalType": "uint256",
          "name": "quoteTarget",
          "type": "uint256"
        }
      ],
      "stateMutability": "view",
      "type": "function"
    },
    {
      "inputs": [
        {
          "internalType": "address",
          "name": "lp",
          "type": "address"
        }
      ],
      "name": "getLpBaseBalance",
      "outputs": [
        {
          "internalType": "uint256",
          "name": "lpBalance",
          "type": "uint256"
        }
      ],
      "stateMutability": "view",
      "type": "function"
    },
    {
      "inputs": [
        {
          "internalType": "address",
          "name": "lp",
          "type": "address"
        }
      ],
      "name": "getLpQuoteBalance",
      "outputs": [
        {
          "internalType": "uint256",
          "name": "lpBalance",
          "type": "uint256"
        }
      ],
      "stateMutability": "view",
      "type": "function"
    },
    {
      "inputs": [],
      "name": "getMidPrice",
      "outputs": [
        {
          "internalType": "uint256",
          "name": "midPrice",
          "type": "uint256"
        }
      ],
      "stateMutability": "view",
      "type": "function"
    },
    {
      "inputs": [],
      "name": "getOraclePrice",
      "outputs": [
        {
          "internalType": "uint256",
          "name": "",
          "type": "uint256"
        }
      ],
      "stateMutability": "view",
      "type": "function"
    },
    {
      "inputs": [
        {
          "internalType": "address",
          "name": "lp",
          "type": "address"
        }
      ],
      "name": "getQuoteCapitalBalanceOf",
      "outputs": [
        {
          "internalType": "uint256",
          "name": "",
          "type": "uint256"
        }
      ],
      "stateMutability": "view",
      "type": "function"
    },
    {
      "inputs": [],
      "name": "getTotalBaseCapital",
      "outputs": [
        {
          "internalType": "uint256",
          "name": "",
          "type": "uint256"
        }
      ],
      "stateMutability": "view",
      "type": "function"
    },
    {
      "inputs": [],
      "name": "getTotalQuoteCapital",
      "outputs": [
        {
          "internalType": "uint256",
          "name": "",
          "type": "uint256"
        }
      ],
      "stateMutability": "view",
      "type": "function"
    },
    {
      "inputs": [
        {
          "internalType": "uint256",
          "name": "amount",
          "type": "uint256"
        }
      ],
      "name": "getWithdrawBasePenalty",
      "outputs": [
        {
          "internalType": "uint256",
          "name": "penalty",
          "type": "uint256"
        }
      ],
      "stateMutability": "view",
      "type": "function"
    },
    {
      "inputs": [
        {
          "internalType": "uint256",
          "name": "amount",
          "type": "uint256"
        }
      ],
      "name": "getWithdrawQuotePenalty",
      "outputs": [
        {
          "internalType": "uint256",
          "name": "penalty",
          "type": "uint256"
        }
      ],
      "stateMutability": "view",
      "type": "function"
    },
    {
      "inputs": [
        {
          "internalType": "uint256",
          "name": "amount",
          "type": "uint256"
        }
      ],
      "name": "queryBuyBaseToken",
      "outputs": [
        {
          "internalType": "uint256",
          "name": "payQuote",
          "type": "uint256"
        }
      ],
      "stateMutability": "view",
      "type": "function"
    },
    {
      "inputs": [
        {
          "internalType": "uint256",
          "name": "amount",
          "type": "uint256"
        }
      ],
      "name": "querySellBaseToken",
      "outputs": [
        {
          "internalType": "uint256",
          "name": "receiveQuote",
          "type": "uint256"
        }
      ],
      "stateMutability": "view",
      "type": "function"
    },
    {
      "inputs": [
        {
          "internalType": "address",
          "name": "token",
          "type": "address"
        },
        {
          "internalType": "uint256",
          "name": "amount",
          "type": "uint256"
        }
      ],
      "name": "retrieve",
      "outputs": [],
      "stateMutability": "nonpayable",
      "type": "function"
    },
    {
      "inputs": [
        {
          "internalType": "uint256",
          "name": "amount",
          "type": "uint256"
        },
        {
          "internalType": "uint256",
          "name": "minReceiveQuote",
          "type": "uint256"
        },
        {
          "internalType": "bytes",
          "name": "data",
          "type": "bytes"
        }
      ],
      "name": "sellBaseToken",
      "outputs": [
        {
          "internalType": "uint256",
          "name": "",
          "type": "uint256"
        }
      ],
      "stateMutability": "nonpayable",
      "type": "function"
    },
    {
      "inputs": [
        {
          "internalType": "uint256",
          "name": "newBaseBalanceLimit",
          "type": "uint256"
        }
      ],
      "name": "setBaseBalanceLimit",
      "outputs": [],
      "stateMutability": "nonpayable",
      "type": "function"
    },
    {
      "inputs": [
        {
          "internalType": "uint256",
          "name": "newGasPriceLimit",
          "type": "uint256"
        }
      ],
      "name": "setGasPriceLimit",
      "outputs": [],
      "stateMutability": "nonpayable",
      "type": "function"
    },
    {
      "inputs": [
        {
          "internalType": "uint256",
          "name": "newK",
          "type": "uint256"
        }
      ],
      "name": "setK",
      "outputs": [],
      "stateMutability": "nonpayable",
      "type": "function"
    },
    {
      "inputs": [
        {
          "internalType": "uint256",
          "name": "newLiquidityPorviderFeeRate",
          "type": "uint256"
        }
      ],
      "name": "setLiquidityProviderFeeRate",
      "outputs": [],
      "stateMutability": "nonpayable",
      "type": "function"
    },
    {
      "inputs": [
        {
          "internalType": "address",
          "name": "newMaintainer",
          "type": "address"
        }
      ],
      "name": "setMaintainer",
      "outputs": [],
      "stateMutability": "nonpayable",
      "type": "function"
    },
    {
      "inputs": [
        {
          "internalType": "uint256",
          "name": "newMaintainerFeeRate",
          "type": "uint256"
        }
      ],
      "name": "setMaintainerFeeRate",
      "outputs": [],
      "stateMutability": "nonpayable",
      "type": "function"
    },
    {
      "inputs": [
        {
          "internalType": "address",
          "name": "newOracle",
          "type": "address"
        }
      ],
      "name": "setOracle",
      "outputs": [],
      "stateMutability": "nonpayable",
      "type": "function"
    },
    {
      "inputs": [
        {
          "internalType": "uint256",
          "name": "newQuoteBalanceLimit",
          "type": "uint256"
        }
      ],
      "name": "setQuoteBalanceLimit",
      "outputs": [],
      "stateMutability": "nonpayable",
      "type": "function"
    },
    {
      "inputs": [
        {
          "internalType": "address",
          "name": "newSupervisor",
          "type": "address"
        }
      ],
      "name": "setSupervisor",
      "outputs": [],
      "stateMutability": "nonpayable",
      "type": "function"
    },
    {
      "inputs": [
        {
          "internalType": "address",
          "name": "newOwner",
          "type": "address"
        }
      ],
      "name": "transferOwnership",
      "outputs": [],
      "stateMutability": "nonpayable",
      "type": "function"
    },
    {
      "inputs": [],
      "name": "version",
      "outputs": [
        {
          "internalType": "uint256",
          "name": "",
          "type": "uint256"
        }
      ],
      "stateMutability": "pure",
      "type": "function"
    },
    {
      "inputs": [],
      "name": "withdrawAllBase",
      "outputs": [
        {
          "internalType": "uint256",
          "name": "",
          "type": "uint256"
        }
      ],
      "stateMutability": "nonpayable",
      "type": "function"
    },
    {
      "inputs": [
        {
          "internalType": "address",
          "name": "to",
          "type": "address"
        }
      ],
      "name": "withdrawAllBaseTo",
      "outputs": [
        {
          "internalType": "uint256",
          "name": "",
          "type": "uint256"
        }
      ],
      "stateMutability": "nonpayable",
      "type": "function"
    },
    {
      "inputs": [],
      "name": "withdrawAllQuote",
      "outputs": [
        {
          "internalType": "uint256",
          "name": "",
          "type": "uint256"
        }
      ],
      "stateMutability": "nonpayable",
      "type": "function"
    },
    {
      "inputs": [
        {
          "internalType": "address",
          "name": "to",
          "type": "address"
        }
      ],
      "name": "withdrawAllQuoteTo",
      "outputs": [
        {
          "internalType": "uint256",
          "name": "",
          "type": "uint256"
        }
      ],
      "stateMutability": "nonpayable",
      "type": "function"
    },
    {
      "inputs": [
        {
          "internalType": "uint256",
          "name": "amount",
          "type": "uint256"
        }
      ],
      "name": "withdrawBase",
      "outputs": [
        {
          "internalType": "uint256",
          "name": "",
          "type": "uint256"
        }
      ],
      "stateMutability": "nonpayable",
      "type": "function"
    },
    {
      "inputs": [
        {
          "internalType": "address",
          "name": "to",
          "type": "address"
        },
        {
          "internalType": "uint256",
          "name": "amount",
          "type": "uint256"
        }
      ],
      "name": "withdrawBaseTo",
      "outputs": [
        {
          "internalType": "uint256",
          "name": "",
          "type": "uint256"
        }
      ],
      "stateMutability": "nonpayable",
      "type": "function"
    },
    {
      "inputs": [
        {
          "internalType": "uint256",
          "name": "amount",
          "type": "uint256"
        }
      ],
      "name": "withdrawQuote",
      "outputs": [
        {
          "internalType": "uint256",
          "name": "",
          "type": "uint256"
        }
      ],
      "stateMutability": "nonpayable",
      "type": "function"
    },
    {
      "inputs": [
        {
          "internalType": "address",
          "name": "to",
          "type": "address"
        },
        {
          "internalType": "uint256",
          "name": "amount",
          "type": "uint256"
        }
      ],
      "name": "withdrawQuoteTo",
      "outputs": [
        {
          "internalType": "uint256",
          "name": "",
          "type": "uint256"
        }
      ],
      "stateMutability": "nonpayable",
      "type": "function"
    },
    {
      "inputs": [
        {
          "internalType": "address",
          "name": "owner",
          "type": "address"
        },
        {
          "internalType": "address",
          "name": "supervisor",
          "type": "address"
        },
        {
          "internalType": "address",
          "name": "maintainer",
          "type": "address"
        },
        {
          "internalType": "address",
          "name": "baseToken",
          "type": "address"
        },
        {
          "internalType": "address",
          "name": "quoteToken",
          "type": "address"
        },
        {
          "internalType": "address",
          "name": "oracle",
          "type": "address"
        },
        {
          "internalType": "uint256",
          "name": "lpFeeRate",
          "type": "uint256"
        },
        {
          "internalType": "uint256",
          "name": "mtFeeRate",
          "type": "uint256"
        },
        {
          "internalType": "uint256",
          "name": "k",
          "type": "uint256"
        },
        {
          "internalType": "uint256",
          "name": "gasPriceLimit",
          "type": "uint256"
        }
      ],
      "name": "init",
      "outputs": [],
      "stateMutability": "nonpayable",
      "type": "function"
    }
  ],
  "bytecode": "0x608060405234801561001057600080fd5b50615bc5806100206000396000f3fe60806040523480156200001157600080fd5b5060043610620005205760003560e01c80638a8c523c11620002a9578063c59203af1162000171578063ec2fd46d11620000e1578063f2220416116200009f578063f222041614620009fe578063f2fde38b1462000a15578063f3ae6c5f1462000a2c578063f67ed4481462000a43578063f98bea151462000a5a578063ffa642251462000a715762000520565b8063ec2fd46d14620009a5578063ed0aa42814620009af578063ee27c68914620009c6578063ee5150b314620009d0578063f00f9a0914620009e75762000520565b8063d4b97046116200012f578063d4b970461462000966578063d689107c1462000970578063dd58b41c146200097a578063e67ce7061462000984578063eab5d20e146200099b5762000520565b8063c59203af1462000934578063c5bbffe8146200093e578063c6b73cf91462000948578063cc062b581462000952578063d47eaa37146200095c5762000520565b8063a3161a561162000219578063aceecbc811620001d7578063aceecbc814620008de578063b2094fd314620008e8578063bc7d679d14620008f2578063c0a5f6ff14620008fc578063c0ffa1781462000913578063c3a2a665146200091d5762000520565b8063a3161a56146200089f578063a598aca714620008a9578063aa06ce9b14620008b3578063ab44a7a314620008ca578063ac1fbc9814620008d45762000520565b8063947cf92b1162000267578063947cf92b146200083957806395faa5f6146200085057806397316ad814620008675780639b020fba146200087e578063a2801e1614620008885762000520565b80638a8c523c14620007ed5780638dae733314620007f75780638ff5e742146200080e57806390cbf82214620008185780639299eb3014620008225762000520565b806336ac41a811620003ed578063648a4fac116200035d578063796da7af116200031b578063796da7af146200078a5780637adbf97314620007945780637aed942d14620007ab5780637c9b8e8914620007c25780638456db1514620007cc578063892daf0514620007d65762000520565b8063648a4fac146200072f57806367de8be9146200073957806368be20ad14620007505780636ec6a58d146200077657806373a2ab7c14620007805762000520565b80634de4527e11620003ab5780634de4527e14620006e35780634e71e0c814620006ed57806354fd4d5014620006f75780635bb7552a14620007015780635f179f6414620007185762000520565b806336ac41a814620006a4578063387b0c1114620006ae5780633960f14214620006c55780634322ec8314620006cf5780634a248d2a14620006d95762000520565b80631769ddaa11620004955780631f3c156e11620004535780631f3c156e146200064e578063245c96851462000658578063247f993b146200066257806327bed8ee146200066c5780632aa82c65146200068357806336a53bbb146200068d5762000520565b80631769ddaa14620005f357806317700f0114620005fd57806317be952e146200060757806318c0bbe414620006205780631e34b9cc14620006375762000520565b8063108db74411620004e3578063108db74414620005985780631184d8be14620005af57806313c5762414620005b957806313ea5d2914620005c357806316048bc414620005da5762000520565b806304512dc414620005255780630923160214620005545780630c9f7bd0146200056d5780630cd1667d14620005845780630e6518e9146200058e575b600080fd5b6200053c62000536366004620041de565b62000a8b565b6040516200054b919062004afb565b60405180910390f35b6200056b62000565366004620042fb565b62000c3d565b005b6200053c6200057e366004620042fb565b62000cc2565b6200053c62000db7565b6200053c62000e3e565b6200053c620005a9366004620042ac565b62000e44565b6200056b62001067565b6200056b620010d6565b6200056b620005d4366004620041de565b62001128565b620005e462001177565b6040516200054b9190620043eb565b6200053c62001186565b6200056b6200118c565b62000611620011de565b6040516200054b9190620044b5565b6200053c62000631366004620042fb565b620011e7565b6200053c62000648366004620041de565b62001200565b6200056b62001379565b6200053c62001670565b6200056b62001676565b6200053c6200067d366004620042fb565b620016c5565b6200053c620016d9565b6200053c6200069e366004620041de565b6200171f565b6200056b62001779565b6200056b620006bf366004620042fb565b620017e8565b620005e46200184f565b620005e46200185e565b620005e46200186d565b6200053c6200187c565b6200056b62001882565b6200053c62001913565b6200056b62000712366004620042fb565b62001918565b6200053c62000729366004620042ac565b62001995565b6200056b62001af4565b6200056b6200074a366004620042fb565b62001c24565b6200076762000761366004620041de565b62001c9d565b6040516200054b91906200443c565b6200076762001cb2565b620005e462001cc2565b6200053c62001cd1565b6200056b620007a5366004620041de565b62001d17565b6200053c620007bc366004620041de565b62001d66565b6200053c62001ded565b620005e462001df3565b6200056b620007e7366004620042fb565b62001e02565b6200056b62001e61565b6200053c620008083660046200432d565b62001ed0565b620007676200218e565b6200056b6200219c565b6200056b62000833366004620041de565b62002205565b6200053c6200084a366004620042ac565b62002254565b6200053c62000861366004620041de565b62002439565b6200056b62000878366004620042fb565b6200247e565b6200053c620024dd565b6200053c62000899366004620042fb565b620024e3565b62000767620024f0565b62000767620024f9565b6200053c620008c4366004620042ac565b62002509565b6200053c6200264a565b620005e462002650565b6200056b6200265f565b6200053c620026af565b6200056b620026b5565b6200053c6200090d366004620042fb565b62002707565b6200053c62002715565b6200056b6200092e366004620042ac565b6200271b565b6200053c6200290a565b6200076762002917565b6200053c62002927565b6200056b6200292d565b6200053c62002998565b620005e4620029a5565b620005e4620029b4565b62000767620029c3565b6200053c620009953660046200432d565b620029d3565b6200053c62002c68565b6200053c62002c6e565b6200056b620009c0366004620042fb565b62002c74565b6200053c62002ccb565b6200053c620009e1366004620042fb565b62002ddc565b6200056b620009f8366004620041fc565b62002e8b565b6200056b62000a0f366004620042fb565b62003095565b6200056b62000a26366004620041de565b6200310e565b6200053c62000a3d366004620042fb565b620031bf565b6200053c62000a54366004620041de565b620031cd565b6200053c62000a6b366004620042fb565b62003200565b62000a7b6200320e565b6040516200054b92919062004b14565b600154600090600160a01b900460ff161562000ac45760405162461bcd60e51b815260040162000abb90620045d7565b60405180910390fd5b6001805460ff60a01b1916600160a01b1790819055600160b01b900460ff161562000b035760405162461bcd60e51b815260040162000abb9062004862565b600062000b10336200171f565b9050600062000b1f33620031cd565b9050600062000b2e8362000cc2565b90508281111562000b535760405162461bcd60e51b815260040162000abb906200483a565b60105462000b68908463ffffffff620032e316565b60105562000b7733836200330e565b62000b948562000b8e858463ffffffff620032e316565b6200337a565b62000b9f81620033b5565b846001600160a01b0316336001600160a01b031660008051602062005b508339815191526000868660405162000bd89392919062004457565b60405180910390a3336001600160a01b031660008051602062005b7083398151915260008360405162000c0d92919062004447565b60405180910390a262000c27838263ffffffff620032e316565b6001805460ff60a01b1916905595945050505050565b6006546001600160a01b031633148062000c6157506000546001600160a01b031633145b62000c805760405162461bcd60e51b815260040162000abb90620046f6565b7f808f99cfd15f1be6019f93dc76c81d5bd82e0b3e0b3d23a54f5a2e647a6cc3cc6002548260405162000cb592919062004b14565b60405180910390a1600255565b600060125482111562000ce95760405162461bcd60e51b815260040162000abb90620044ca565b6002600e5460ff16600281111562000cfd57fe5b141562000dae57600062000d1f600f54601154620032e390919063ffffffff16565b9050600062000d2d62001cd1565b9050600062000d3d83836200340d565b9050600062000d52601254600d54846200343a565b9050600062000d7b62000d7188601254620032e390919063ffffffff16565b600d54856200343a565b905062000da162000d93828963ffffffff620034f116565b839063ffffffff620032e316565b9550505050505062000db2565b5060005b919050565b601354604080516318160ddd60e01b815290516000926001600160a01b0316916318160ddd916004808301926020929190829003018186803b15801562000dfd57600080fd5b505afa15801562000e12573d6000803e3d6000fd5b505050506040513d601f19601f8201168201806040525081019062000e38919062004314565b90505b90565b60165481565b600154600090600160a01b900460ff161562000e745760405162461bcd60e51b815260040162000abb90620045d7565b6001805460ff60a01b1916600160a01b1790819055600160b01b900460ff161562000eb35760405162461bcd60e51b815260040162000abb9062004862565b600062000ebf6200320e565b915050600062000ece620016d9565b90506000811162000ef35760405162461bcd60e51b815260040162000abb90620045fa565b600062000f198362000f0c878563ffffffff6200352016565b9063ffffffff6200356016565b905062000f2633620031cd565b81111562000f485760405162461bcd60e51b815260040162000abb90620046b3565b600062000f558662000cc2565b905085811062000f795760405162461bcd60e51b815260040162000abb906200483a565b60105462000f8e908763ffffffff620032e316565b60105562000f9d33836200330e565b62000fb48762000b8e888463ffffffff620032e316565b62000fbf81620033b5565b6001600160a01b0387163360008051602062005b50833981519152600062000fee8a8663ffffffff620032e316565b86604051620010009392919062004457565b60405180910390a3336001600160a01b031660008051602062005b708339815191526000836040516200103592919062004447565b60405180910390a26200104f868263ffffffff620032e316565b6001805460ff60a01b19169055979650505050505050565b6000546001600160a01b03163314620010945760405162461bcd60e51b815260040162000abb90620048d9565b600154600160b01b900460ff1615620010c15760405162461bcd60e51b815260040162000abb9062004862565b6001805460ff60c01b1916600160c01b179055565b6006546001600160a01b0316331480620010fa57506000546001600160a01b031633145b620011195760405162461bcd60e51b815260040162000abb90620046f6565b6001805460ff60c01b19169055565b6000546001600160a01b03163314620011555760405162461bcd60e51b815260040162000abb90620048d9565b600780546001600160a01b0319166001600160a01b0392909216919091179055565b6000546001600160a01b031681565b60055481565b6006546001600160a01b0316331480620011b057506000546001600160a01b031633145b620011cf5760405162461bcd60e51b815260040162000abb90620046f6565b6001805460ff60c81b19169055565b600e5460ff1681565b6000620011f48262003592565b50939695505050505050565b600154600090600160a01b900460ff1615620012305760405162461bcd60e51b815260040162000abb90620045d7565b6001805460ff60a01b1916600160a01b1790819055600160b01b900460ff16156200126f5760405162461bcd60e51b815260040162000abb9062004862565b60006200127c3362002439565b905060006200128b3362001d66565b905060006200129a8362002ddc565b905082811115620012bf5760405162461bcd60e51b815260040162000abb906200483a565b600f54620012d4908463ffffffff620032e316565b600f55620012e3338362003705565b6200130085620012fa858463ffffffff620032e316565b62003739565b6200130b8162003774565b846001600160a01b0316336001600160a01b031660008051602062005b5083398151915260018686604051620013449392919062004457565b60405180910390a3336001600160a01b031660008051602062005b7083398151915260018360405162000c0d92919062004447565b600154600160a01b900460ff1615620013a65760405162461bcd60e51b815260040162000abb90620045d7565b6001805460ff60a01b1916600160a01b1790819055600160b01b900460ff16620013e45760405162461bcd60e51b815260040162000abb9062004aa6565b3360009081526017602052604090205460ff1615620014175760405162461bcd60e51b815260040162000abb9062004a7d565b336000818152601760205260408120805460ff19166001179055906200143d90620031cd565b905060006200144c3362001d66565b9050600082156200148a576200148762001465620016d9565b6010546200147a908663ffffffff6200352016565b9063ffffffff620037c116565b90505b60008215620014b957620014b6620014a162000db7565b600f546200147a908663ffffffff6200352016565b90505b601054620014ce908363ffffffff620032e316565b601055600f54620014e6908263ffffffff620032e316565b600f819055506200150c620014fe846015546200340d565b839063ffffffff620034f116565b91506200152e62001520856016546200340d565b829063ffffffff620034f116565b90506200153c338262003739565b6200154833836200337a565b601354604051632770a7eb60e21b81526001600160a01b0390911690639dc29fac906200157c9033908790600401620043ff565b600060405180830381600087803b1580156200159757600080fd5b505af1158015620015ac573d6000803e3d6000fd5b5050601454604051632770a7eb60e21b81526001600160a01b039091169250639dc29fac9150620015e49033908890600401620043ff565b600060405180830381600087803b158015620015ff57600080fd5b505af115801562001614573d6000803e3d6000fd5b50505050336001600160a01b03167fbe5f7fe66d16c6a87bb5b8b08a96634fe4f1c2bac9e5e413efe41a782d4d0c4382846040516200165592919062004b14565b60405180910390a2505050506001805460ff60a01b19169055565b60105481565b6006546001600160a01b03163314806200169a57506000546001600160a01b031633145b620016b95760405162461bcd60e51b815260040162000abb90620046f6565b6003805460ff19169055565b6000620016d3338362002509565b92915050565b601454604080516318160ddd60e01b815290516000926001600160a01b0316916318160ddd916004808301926020929190829003018186803b15801562000dfd57600080fd5b6000806200172c620016d9565b905060006200173a6200320e565b915050816200174f5760009250505062000db2565b62001771826200147a836200176488620031cd565b9063ffffffff6200352016565b949350505050565b6000546001600160a01b03163314620017a65760405162461bcd60e51b815260040162000abb90620048d9565b600154600160b01b900460ff1615620017d35760405162461bcd60e51b815260040162000abb9062004862565b6001805460ff60b81b1916600160b81b179055565b600154600160a01b900460ff1615620018155760405162461bcd60e51b815260040162000abb90620045d7565b6001805460ff60a01b1916600160a01b179055620018343382620037ef565b6200183f81620033b5565b506001805460ff60a01b19169055565b6006546001600160a01b031681565b6007546001600160a01b031681565b6008546001600160a01b031681565b60025481565b6001546001600160a01b03163314620018af5760405162461bcd60e51b815260040162000abb906200451e565b600154600080546040516001600160a01b0393841693909116917f8be0079c531659141344cd1fd0a4f28419497f9722a3daafe3b4186f6b6457e091a360018054600080546001600160a01b03199081166001600160a01b03841617909155169055565b606590565b6000546001600160a01b03163314620019455760405162461bcd60e51b815260040162000abb90620048d9565b7f3ce6ea91adda496b7a0546fa6558e5b52c3a509de6015820efb00ca4020e0a07600b54826040516200197a92919062004b14565b60405180910390a1600b819055620019916200385d565b5050565b600154600090600160a01b900460ff1615620019c55760405162461bcd60e51b815260040162000abb90620045d7565b6001805460ff60a01b1916600160a01b1790819055600160b81b900460ff1662001a035760405162461bcd60e51b815260040162000abb90620045a0565b600062001a0f6200320e565b915050600062001a1e620016d9565b9050838162001a415762001a39858463ffffffff620034f116565b905062001a62565b821562001a625762001a5f836200147a878563ffffffff6200352016565b90505b62001a6e3386620037ef565b62001a7a8682620038f2565b60105462001a8f908663ffffffff620034f116565b6010556040516001600160a01b0387169033907f18081cde2fa64894914e1080b98cca17bb6d1acf633e57f6e26ebdb945ad830b9062001ad6906000908a90879062004457565b60405180910390a36001805460ff60a01b1916905595945050505050565b6000546001600160a01b0316331462001b215760405162461bcd60e51b815260040162000abb90620048d9565b600154600160b01b900460ff161562001b4e5760405162461bcd60e51b815260040162000abb9062004862565b6001805462ffffff60b81b1960ff60b01b19909116600160b01b17169055600062001b7862000db7565b9050600062001b86620016d9565b9050601054601254111562001bc857600062001bb0601054601254620032e390919063ffffffff16565b905062001bbe818462003926565b6015555062001bcf565b6012546010555b600f54601154111562001c0f57600062001bf7600f54601154620032e390919063ffffffff16565b905062001c05818362003926565b6016555062001c16565b601154600f555b5050600e805460ff19169055565b6000546001600160a01b0316331462001c515760405162461bcd60e51b815260040162000abb90620048d9565b7f023a40bebf7ac113f81c3d628073246cf9e0bc49980a9d6a9531498ce9e3dd1c600d548260405162001c8692919062004b14565b60405180910390a1600d819055620019916200385d565b60176020526000908152604090205460ff1681565b600154600160b01b900460ff1681565b600a546001600160a01b031681565b600a5460408051634c6afee560e11b815290516000926001600160a01b0316916398d5fdca916004808301926020929190829003018186803b15801562000dfd57600080fd5b6000546001600160a01b0316331462001d445760405162461bcd60e51b815260040162000abb90620048d9565b600a80546001600160a01b0319166001600160a01b0392909216919091179055565b6013546040516370a0823160e01b81526000916001600160a01b0316906370a082319062001d99908590600401620043eb565b60206040518083038186803b15801562001db257600080fd5b505afa15801562001dc7573d6000803e3d6000fd5b505050506040513d601f19601f82011682018060405250810190620016d3919062004314565b60125481565b6001546001600160a01b031681565b6000546001600160a01b0316331462001e2f5760405162461bcd60e51b815260040162000abb90620048d9565b600154600160b01b900460ff161562001e5c5760405162461bcd60e51b815260040162000abb9062004862565b600455565b6000546001600160a01b0316331462001e8e5760405162461bcd60e51b815260040162000abb90620048d9565b600154600160b01b900460ff161562001ebb5760405162461bcd60e51b815260040162000abb9062004862565b6001805460ff60c81b1916600160c81b179055565b600154600090600160c81b900460ff1662001eff5760405162461bcd60e51b815260040162000abb90620047e8565b600354610100900460ff1662001f295760405162461bcd60e51b815260040162000abb9062004887565b6002543a111562001f4e5760405162461bcd60e51b815260040162000abb9062004a53565b600154600160a01b900460ff161562001f7b5760405162461bcd60e51b815260040162000abb90620045d7565b6001805460ff60a01b1916600160a01b1790556000808080808062001fa08b62003947565b9550955095509550955095508986101562001fcf5760405162461bcd60e51b815260040162000abb90620049ab565b62001fdb33876200337a565b8715620020455760405163301bc67560e11b815233906360378cea9062002010906000908f908b908f908f906004016200446f565b600060405180830381600087803b1580156200202b57600080fd5b505af115801562002040573d6000803e3d6000fd5b505050505b62002051338c62003ac0565b8315620020bd5760075462002070906001600160a01b0316856200337a565b6007546040516001600160a01b03909116907fe4fed5362e2669c70e5da5a18942d1e617d8917f6adc0164d9668bd3a6d0cebe90620020b490600090889062004447565b60405180910390a25b8160105414620020cd5760108290555b80600f5414620020dd57600f8190555b826002811115620020ea57fe5b600e5460ff166002811115620020fc57fe5b146200212257600e805484919060ff191660018360028111156200211c57fe5b02179055505b6200212d85620033b5565b336001600160a01b03167fd8648b6ac54162763c86fd54bf2005af8ecd2f9cb273a5775921fd7f91e17b2d8c886040516200216a92919062004b14565b60405180910390a250506001805460ff60a01b191690555091979650505050505050565b600354610100900460ff1681565b6000546001600160a01b03163314620021c95760405162461bcd60e51b815260040162000abb90620048d9565b600154600160b01b900460ff1615620021f65760405162461bcd60e51b815260040162000abb9062004862565b6003805460ff19166001179055565b6000546001600160a01b03163314620022325760405162461bcd60e51b815260040162000abb90620048d9565b600680546001600160a01b0319166001600160a01b0392909216919091179055565b600154600090600160a01b900460ff1615620022845760405162461bcd60e51b815260040162000abb90620045d7565b6001805460ff60a01b1916600160a01b1790819055600160b01b900460ff1615620022c35760405162461bcd60e51b815260040162000abb9062004862565b6000620022cf6200320e565b5090506000620022de62000db7565b905060008111620023035760405162461bcd60e51b815260040162000abb9062004545565b60006200231c8362000f0c878563ffffffff6200352016565b9050620023293362001d66565b8111156200234b5760405162461bcd60e51b815260040162000abb9062004969565b6000620023588662002ddc565b9050858111156200237d5760405162461bcd60e51b815260040162000abb906200483a565b600f5462002392908763ffffffff620032e316565b600f55620023a1338362003705565b620023b887620012fa888463ffffffff620032e316565b620023c38162003774565b6001600160a01b0387163360008051602062005b508339815191526001620023f28a8663ffffffff620032e316565b86604051620024049392919062004457565b60405180910390a3336001600160a01b031660008051602062005b708339815191526001836040516200103592919062004447565b6000806200244662000db7565b90506000620024546200320e565b50905081620024695760009250505062000db2565b62001771826200147a83620017648862001d66565b6000546001600160a01b03163314620024ab5760405162461bcd60e51b815260040162000abb90620048d9565b600154600160b01b900460ff1615620024d85760405162461bcd60e51b815260040162000abb9062004862565b600555565b60045481565b6000620011f48262003947565b60035460ff1681565b600154600160c01b900460ff1681565b600154600090600160a01b900460ff1615620025395760405162461bcd60e51b815260040162000abb90620045d7565b6001805460ff60a01b1916600160a01b1790819055600160c01b900460ff16620025775760405162461bcd60e51b815260040162000abb9062004569565b6000620025836200320e565b50905060006200259262000db7565b90508381620025b557620025ad858463ffffffff620034f116565b9050620025d6565b8215620025d657620025d3836200147a878563ffffffff6200352016565b90505b620025e2338662003ac0565b620025ee868262003b2e565b600f5462002603908663ffffffff620034f116565b600f556040516001600160a01b0387169033907f18081cde2fa64894914e1080b98cca17bb6d1acf633e57f6e26ebdb945ad830b9062001ad6906001908a90879062004457565b600b5481565b6014546001600160a01b031681565b6006546001600160a01b03163314806200268357506000546001600160a01b031633145b620026a25760405162461bcd60e51b815260040162000abb90620046f6565b6003805461ff0019169055565b600f5481565b6006546001600160a01b0316331480620026d957506000546001600160a01b031633145b620026f85760405162461bcd60e51b815260040162000abb90620046f6565b6001805460ff60b81b19169055565b6000620016d3338362000e44565b600c5481565b6000546001600160a01b03163314620027485760405162461bcd60e51b815260040162000abb90620048d9565b6008546001600160a01b03838116911614156200281b5760115462002774908263ffffffff620034f116565b6008546040516370a0823160e01b81526001600160a01b03909116906370a0823190620027a6903090600401620043eb565b60206040518083038186803b158015620027bf57600080fd5b505afa158015620027d4573d6000803e3d6000fd5b505050506040513d601f19601f82011682018060405250810190620027fa919062004314565b10156200281b5760405162461bcd60e51b815260040162000abb90620047b1565b6009546001600160a01b0383811691161415620028ee5760125462002847908263ffffffff620034f116565b6009546040516370a0823160e01b81526001600160a01b03909116906370a082319062002879903090600401620043eb565b60206040518083038186803b1580156200289257600080fd5b505afa158015620028a7573d6000803e3d6000fd5b505050506040513d601f19601f82011682018060405250810190620028cd919062004314565b1015620028ee5760405162461bcd60e51b815260040162000abb90620044ca565b620019916001600160a01b038316338363ffffffff62003b6216565b600062000e383362000a8b565b600154600160b81b900460ff1681565b60155481565b6000546001600160a01b031633146200295a5760405162461bcd60e51b815260040162000abb90620048d9565b600154600160b01b900460ff1615620029875760405162461bcd60e51b815260040162000abb9062004862565b6003805461ff001916610100179055565b600062000e383362001200565b6009546001600160a01b031681565b6013546001600160a01b031681565b600154600160c81b900460ff1681565b600154600090600160c81b900460ff1662002a025760405162461bcd60e51b815260040162000abb90620047e8565b60035460ff1662002a275760405162461bcd60e51b815260040162000abb9062004acf565b6002543a111562002a4c5760405162461bcd60e51b815260040162000abb9062004a53565b600154600160a01b900460ff161562002a795760405162461bcd60e51b815260040162000abb90620045d7565b6001805460ff60a01b1916600160a01b1790556000808080808062002a9e8b62003592565b9550955095509550955095508986111562002acd5760405162461bcd60e51b815260040162000abb90620049e2565b62002ad9338c62003739565b871562002b435760405163301bc67560e11b815233906360378cea9062002b0e906001908f908b908f908f906004016200446f565b600060405180830381600087803b15801562002b2957600080fd5b505af115801562002b3e573d6000803e3d6000fd5b505050505b62002b4f3387620037ef565b831562002bbb5760075462002b6e906001600160a01b03168562003739565b6007546040516001600160a01b03909116907fe4fed5362e2669c70e5da5a18942d1e617d8917f6adc0164d9668bd3a6d0cebe9062002bb290600190889062004447565b60405180910390a25b816010541462002bcb5760108290555b80600f541462002bdb57600f8190555b82600281111562002be857fe5b600e5460ff16600281111562002bfa57fe5b1462002c2057600e805484919060ff1916600183600281111562002c1a57fe5b02179055505b62002c2b8562003774565b336001600160a01b03167fe93ad76094f247c0dafc1c61adc2187de1ac2738f7a3b49cb20b2263420251a38c886040516200216a92919062004b14565b60115481565b600d5481565b600154600160a01b900460ff161562002ca15760405162461bcd60e51b815260040162000abb90620045d7565b6001805460ff60a01b1916600160a01b17905562002cc0338262003ac0565b6200183f8162003774565b600080600062002cda6200320e565b90925090506002600e5460ff16600281111562002cf357fe5b141562002d8657600062002d2562002d1c6012546200147a85866200352090919063ffffffff16565b60125462003926565b905062002d6462002d39600d54836200340d565b600d5462002d5790670de0b6b3a76400009063ffffffff620032e316565b9063ffffffff620034f116565b905062002d7b62002d7462001cd1565b8262003926565b935050505062000e3b565b600062002db162002da86011546200147a86876200352090919063ffffffff16565b60115462003926565b905062002dc562002d39600d54836200340d565b905062002d7b62002dd562001cd1565b826200340d565b600060115482111562002e035760405162461bcd60e51b815260040162000abb90620047b1565b6001600e5460ff16600281111562002e1757fe5b141562000dae57600062002e39601054601254620032e390919063ffffffff16565b9050600062002e4762001cd1565b9050600062002e57838362003926565b9050600062002e6c601154600d54846200343a565b9050600062000d7b62000d7188601154620032e390919063ffffffff16565b600154600160a81b900460ff161562002eb85760405162461bcd60e51b815260040162000abb9062004787565b6001805460ff60a81b1916600160a81b179055600080546001600160a01b03808d166001600160a01b031990921691909117808355604051911691907f8be0079c531659141344cd1fd0a4f28419497f9722a3daafe3b4186f6b6457e0908290a3600680546001600160a01b03199081166001600160a01b038c8116919091179092556007805482168b84161790556008805482168a841617908190556009805483168a8516179055600a8054909216888416179091556001805462ffffff60b81b1916815560028490556003805461010060ff1991821690931761ff00191692909217905560001960048190556005819055600b889055600c879055600d869055600e80549092169091556040519092919091169062002fd990620041b8565b62002fe59190620043eb565b604051809103906000f08015801562003002573d6000803e3d6000fd5b50601380546001600160a01b0319166001600160a01b039283161790556009546040519116906200303390620041b8565b6200303f9190620043eb565b604051809103906000f0801580156200305c573d6000803e3d6000fd5b50601480546001600160a01b0319166001600160a01b0392909216919091179055620030876200385d565b505050505050505050505050565b6000546001600160a01b03163314620030c25760405162461bcd60e51b815260040162000abb90620048d9565b7f6b04da3d58e4b37d99652babb3ea2bc25ce94379bfff3059f03d61b26c59e553600c5482604051620030f792919062004b14565b60405180910390a1600c819055620019916200385d565b6000546001600160a01b031633146200313b5760405162461bcd60e51b815260040162000abb90620048d9565b6001600160a01b038116620031645760405162461bcd60e51b815260040162000abb9062004813565b600080546040516001600160a01b03808516939216917fdcf55418cee3220104fef63f979ff3c4097ad240c0c43dcb33ce837748983e6291a3600180546001600160a01b0319166001600160a01b0392909216919091179055565b6000620016d3338362001995565b6014546040516370a0823160e01b81526000916001600160a01b0316906370a082319062001d99908590600401620043eb565b6000620016d3338362002254565b601254601154600091829182600e5460ff1660028111156200322c57fe5b14156200324557600f54601054935093505050620032df565b6002600e5460ff1660028111156200325957fe5b1415620032915760006200326c62003bc1565b600f5490915062003284848363ffffffff620034f116565b94509450505050620032df565b6001600e5460ff166002811115620032a557fe5b1415620032dc576000620032b862003c32565b9050620032cc828263ffffffff620034f116565b60105494509450505050620032df565b50505b9091565b600082821115620033085760405162461bcd60e51b815260040162000abb9062004764565b50900390565b601454604051632770a7eb60e21b81526001600160a01b0390911690639dc29fac90620033429085908590600401620043ff565b600060405180830381600087803b1580156200335d57600080fd5b505af115801562003372573d6000803e3d6000fd5b505050505050565b60095462003399906001600160a01b0316838363ffffffff62003b6216565b601254620033ae908263ffffffff620032e316565b6012555050565b601054620033ca908263ffffffff620034f116565b6010556040517fa259c93818139b6bc90fb80e8feb75122b42edaae49560f81392cf4e1946726e906200340290839060009062004b04565b60405180910390a150565b6000670de0b6b3a76400006200342a848463ffffffff6200352016565b816200343257fe5b049392505050565b6000806200345a6200345360046200176487876200340d565b8662003c9a565b9050620034856200347f670de0b6b3a764000062001764848263ffffffff620034f116565b62003cbb565b90506000620034c0620034a783670de0b6b3a764000063ffffffff620032e316565b620034ba87600263ffffffff6200352016565b62003c9a565b9050620034e786620034e1670de0b6b3a76400008463ffffffff620034f116565b6200340d565b9695505050505050565b600082820183811015620035195760405162461bcd60e51b815260040162000abb90620048fc565b9392505050565b6000826200353157506000620016d3565b828202828482816200353f57fe5b0414620035195760405162461bcd60e51b815260040162000abb9062004a12565b6000806200356f8484620037c1565b9050828102840380156200358957506001019050620016d3565b509050620016d3565b600080600080600080620035a56200320e565b8093508192505050620035bb87600b546200340d565b9450620035cb87600c546200340d565b93506000620035e68562002d578a8963ffffffff620034f116565b90506000600e5460ff166002811115620035fc57fe5b14156200361b576200360f818362003cf6565b965060019350620036fb565b6001600e5460ff1660028111156200362f57fe5b141562003645576200360f816011548462003d3d565b6002600e5460ff1660028111156200365957fe5b1415620036fb5760006200367960125485620032e390919063ffffffff16565b905060006200369484601154620032e390919063ffffffff16565b905080831015620036ba57620036ae836012548762003d8d565b985060029550620036f8565b80831415620036d05781985060009550620036f8565b620036f1620014fe620036ea858463ffffffff620032e316565b8662003cf6565b9850600195505b50505b5091939550919395565b601354604051632770a7eb60e21b81526001600160a01b0390911690639dc29fac90620033429085908590600401620043ff565b60085462003758906001600160a01b0316838363ffffffff62003b6216565b6011546200376d908263ffffffff620032e316565b6011555050565b600f5462003789908263ffffffff620034f116565b600f556040517fa259c93818139b6bc90fb80e8feb75122b42edaae49560f81392cf4e1946726e906200340290839060019062004b04565b6000808211620037e55760405162461bcd60e51b815260040162000abb906200468b565b8183816200343257fe5b60055460125462003807908363ffffffff620034f116565b1115620038285760405162461bcd60e51b815260040162000abb906200461f565b60095462003848906001600160a01b031683308463ffffffff62003dcf16565b601254620033ae908263ffffffff620034f116565b6000670de0b6b3a7640000600d54106200388b5760405162461bcd60e51b815260040162000abb9062004a35565b6000600d5411620038b05760405162461bcd60e51b815260040162000abb9062004501565b670de0b6b3a7640000620038d2600c54600b54620034f190919063ffffffff16565b1062000e3b5760405162461bcd60e51b815260040162000abb90620048b4565b6014546040516340c10f1960e01b81526001600160a01b03909116906340c10f1990620033429085908590600401620043ff565b600062003519826200147a85670de0b6b3a764000063ffffffff6200352016565b6000806000806000806200395a6200320e565b92509050866000600e5460ff1660028111156200397357fe5b1415620039925762003986818462003df9565b96506002935062003a70565b6001600e5460ff166002811115620039a657fe5b141562003a5a576000620039c660115484620032e390919063ffffffff16565b90506000620039e185601254620032e390919063ffffffff16565b90508183101562003a1457620039fb836011548662003e3b565b9850600195508089111562003a0e578098505b62003a52565b8183141562003a2a578098506000955062003a52565b62003a4b6200152062003a44858563ffffffff620032e316565b8762003df9565b9850600295505b505062003a70565b62003a69816012548562003e5f565b9650600293505b62003a7e87600b546200340d565b955062003a8e87600c546200340d565b945062003ab48562003aa7898963ffffffff620032e316565b9063ffffffff620032e316565b96505091939550919395565b60045460115462003ad8908363ffffffff620034f116565b111562003af95760405162461bcd60e51b815260040162000abb906200472d565b60085462003b19906001600160a01b031683308463ffffffff62003dcf16565b6011546200376d908263ffffffff620034f116565b6013546040516340c10f1960e01b81526001600160a01b03909116906340c10f1990620033429085908590600401620043ff565b62003bbc8363a9059cbb60e01b848460405160240162003b84929190620043ff565b60408051601f198184030181529190526020810180516001600160e01b03166001600160e01b03199093169290921790915262003e96565b505050565b60008062003bdd600f54601154620032e390919063ffffffff16565b9050600062003beb62001cd1565b9050600062003bfb83836200340d565b9050600062003c10601254600d54846200343a565b905062003c2960125482620032e390919063ffffffff16565b94505050505090565b60008062003c4e601054601254620032e390919063ffffffff16565b9050600062003c5c62001cd1565b9050600062003c6c838362003926565b9050600062003c81601154600d54846200343a565b905062003c2960115482620032e390919063ffffffff16565b6000620035198262000f0c85670de0b6b3a764000063ffffffff6200352016565b80600160028204015b8181101562003cf05780915060028182858162003cdd57fe5b04018162003ce757fe5b04905062003cc4565b50919050565b600081831062003d1a5760405162461bcd60e51b815260040162000abb90620047b1565b600062003d2e838563ffffffff620032e316565b90506200177183848362003f5a565b600082841062003d615760405162461bcd60e51b815260040162000abb90620047b1565b600062003d75848663ffffffff620032e316565b905062003d8483858362003f5a565b95945050505050565b60008062003d9a62001cd1565b9050600062003dbb848662003db0858a62003f7a565b6001600d5462003f9b565b9050620034e7818663ffffffff620032e316565b62003df3846323b872dd60e01b85858560405160240162003b849392919062004418565b50505050565b60008062003e0662001cd1565b9050600062003e27848562003e1c85896200340d565b6000600d5462003f9b565b905062003d84848263ffffffff620032e316565b60008062003e50848663ffffffff620034f116565b905062003d8483828662003f5a565b60008062003e6c62001cd1565b9050600062003e82848662003e1c858a6200340d565b9050620034e7858263ffffffff620032e316565b60006060836001600160a01b03168360405162003eb49190620043af565b6000604051808303816000865af19150503d806000811462003ef3576040519150601f19603f3d011682016040523d82523d6000602084013e62003ef8565b606091505b50915091508162003f1d5760405162461bcd60e51b815260040162000abb9062004656565b80511562003df3578080602001905181019062003f3b9190620042d9565b62003df35760405162461bcd60e51b815260040162000abb906200491f565b60008062003f6762001cd1565b905062003d8485858584600d5462004135565b600062003519670de0b6b3a764000062000f0c858563ffffffff6200352016565b60008062003fb4866200147a8962001764878c6200340d565b9050600062003fdd62003fd6670de0b6b3a76400008663ffffffff620032e316565b886200340d565b905060018515620040025762003ffa828863ffffffff620034f116565b915062004017565b62004014838863ffffffff620034f116565b92505b8282106200403d5762004031828463ffffffff620032e316565b91506001905062004056565b6200404f838363ffffffff620032e316565b9150600090505b60006200408d6200407c600462001764670de0b6b3a76400008a63ffffffff620032e316565b620034e18c620017648a8f6200340d565b9050620040aa6200347f8262002d57868063ffffffff6200352016565b90506000620040ce600262001764670de0b6b3a76400008a63ffffffff620032e316565b905060008315620040f357620040eb858463ffffffff620034f116565b905062004108565b62004105838663ffffffff620032e316565b90505b881562004129576200411b818362003926565b965050505050505062003d84565b6200411b818362003c9a565b6000806200414f84620034e1888863ffffffff620032e316565b90506000620041756200416e886200147a8b8063ffffffff6200352016565b8762003c9a565b905060006200418585836200340d565b9050620041ab83620034e18362002d57670de0b6b3a76400008a63ffffffff620032e316565b9998505050505050505050565b61102d8062004b2383390190565b80356001600160a01b0381168114620016d357600080fd5b600060208284031215620041f0578081fd5b620035198383620041c6565b6000806000806000806000806000806101408b8d0312156200421c578586fd5b620042288c8c620041c6565b9950620042398c60208d01620041c6565b98506200424a8c60408d01620041c6565b97506200425b8c60608d01620041c6565b96506200426c8c60808d01620041c6565b95506200427d8c60a08d01620041c6565b945060c08b0135935060e08b013592506101008b013591506101208b013590509295989b9194979a5092959850565b60008060408385031215620042bf578182fd5b620042cb8484620041c6565b946020939093013593505050565b600060208284031215620042eb578081fd5b8151801515811462003519578182fd5b6000602082840312156200430d578081fd5b5035919050565b60006020828403121562004326578081fd5b5051919050565b6000806000806060858703121562004343578384fd5b8435935060208501359250604085013567ffffffffffffffff8082111562004369578384fd5b81870188601f8201126200437b578485fd5b80359250818311156200438c578485fd5b8860208483010111156200439e578485fd5b959894975050602090940194505050565b60008251815b81811015620043d15760208186018101518583015201620043b5565b81811115620043e05782828501525b509190910192915050565b6001600160a01b0391909116815260200190565b6001600160a01b03929092168252602082015260400190565b6001600160a01b039384168152919092166020820152604081019190915260600190565b901515815260200190565b9115158252602082015260400190565b92151583526020830191909152604082015260600190565b6000861515825285602083015284604083015260806060830152826080830152828460a084013781830160a090810191909152601f909201601f19160101949350505050565b6020810160038310620044c457fe5b91905290565b6020808252601d908201527f444f444f5f51554f54455f42414c414e43455f4e4f545f454e4f554748000000604082015260600190565b60208082526003908201526204b3d360ec1b604082015260600190565b6020808252600d908201526c494e56414c49445f434c41494d60981b604082015260600190565b6020808252600a908201526904e4f5f424153455f4c560b41b604082015260600190565b60208082526018908201527f4445504f5349545f424153455f4e4f545f414c4c4f5745440000000000000000604082015260600190565b60208082526019908201527f4445504f5349545f51554f54455f4e4f545f414c4c4f57454400000000000000604082015260600190565b60208082526009908201526814915153951490539560ba1b604082015260600190565b6020808252600b908201526a04e4f5f51554f54455f4c560ac1b604082015260600190565b6020808252601c908201527f51554f54455f42414c414e43455f4c494d49545f455843454544454400000000604082015260600190565b6020808252818101527f5361666545524332303a206c6f772d6c6576656c2063616c6c206661696c6564604082015260600190565b6020808252600e908201526d2224ab24a224a723afa2a92927a960911b604082015260600190565b60208082526023908201527f4c505f51554f54455f4341504954414c5f42414c414e43455f4e4f545f454e4f6040820152620aa8e960eb1b606082015260800190565b60208082526017908201527f4e4f545f53555045525649534f525f4f525f4f574e4552000000000000000000604082015260600190565b6020808252601b908201527f424153455f42414c414e43455f4c494d49545f45584345454445440000000000604082015260600190565b60208082526009908201526829aaa12fa2a92927a960b91b604082015260600190565b60208082526010908201526f1113d113d7d25392551250531256915160821b604082015260600190565b6020808252601c908201527f444f444f5f424153455f42414c414e43455f4e4f545f454e4f55474800000000604082015260600190565b602080825260119082015270151490511157d393d517d0531313d5d151607a1b604082015260600190565b6020808252600d908201526c24a72b20a624a22fa7aba722a960991b604082015260600190565b6020808252600e908201526d1411539053151657d15610d1515160921b604082015260600190565b6020808252600b908201526a1113d113d7d0d313d4d15160aa1b604082015260600190565b60208082526013908201527214d15313125391d7d393d517d0531313d5d151606a1b604082015260600190565b6020808252600b908201526a4645455f524154453e3d3160a81b604082015260600190565b6020808252600990820152682727aa2fa7aba722a960b91b604082015260600190565b60208082526009908201526820a2222fa2a92927a960b91b604082015260600190565b6020808252602a908201527f5361666545524332303a204552433230206f7065726174696f6e20646964206e6040820152691bdd081cdd58d8d9595960b21b606082015260800190565b60208082526022908201527f4c505f424153455f4341504954414c5f42414c414e43455f4e4f545f454e4f5560408201526108e960f31b606082015260800190565b6020808252601c908201527f53454c4c5f424153455f524543454956455f4e4f545f454e4f55474800000000604082015260600190565b602080825260169082015275084aab2be8482a68abe869ea6a8bea89e9ebe9aaa86960531b604082015260600190565b60208082526009908201526826aaa62fa2a92927a960b91b604082015260600190565b6020808252600490820152634b3e3d3160e01b604082015260600190565b60208082526010908201526f11d054d7d4149250d157d15610d1515160821b604082015260600190565b6020808252600f908201526e1053149150511657d0d31052535151608a1b604082015260600190565b6020808252600f908201526e1113d113d7d393d517d0d313d4d151608a1b604082015260600190565b602080825260129082015271109556525391d7d393d517d0531313d5d15160721b604082015260600190565b90815260200190565b9182521515602082015260400190565b91825260208201526040019056fe60c060405260036080819052620444c560ec1b60a0908152620000269160029190620000c6565b503480156200003457600080fd5b506040516200102d3803806200102d83398101604081905262000057916200016b565b600080546001600160a01b03191633178082556040516001600160a01b039190911691907f8be0079c531659141344cd1fd0a4f28419497f9722a3daafe3b4186f6b6457e0908290a3600380546001600160a01b0319166001600160a01b03929092169190911790556200019b565b828054600181600116156101000203166002900490600052602060002090601f016020900481019282601f106200010957805160ff191683800117855562000139565b8280016001018555821562000139579182015b82811115620001395782518255916020019190600101906200011c565b50620001479291506200014b565b5090565b6200016891905b8082111562000147576000815560010162000152565b90565b6000602082840312156200017d578081fd5b81516001600160a01b038116811462000194578182fd5b9392505050565b610e8280620001ab6000396000f3fe608060405234801561001057600080fd5b50600436106101005760003560e01c80634e71e0c8116100975780639dc29fac116100665780639dc29fac146101dd578063a9059cbb146101f0578063dd62ed3e14610203578063f2fde38b1461021657610100565b80634e71e0c8146101b257806370a08231146101ba5780638456db15146101cd57806395d89b41146101d557610100565b806318160ddd116100d357806318160ddd1461016057806323b872dd14610175578063313ce5671461018857806340c10f191461019d57610100565b806306fdde0314610105578063095ea7b31461012357806313096a411461014357806316048bc414610158575b600080fd5b61010d610229565b60405161011a9190610c89565b60405180910390f35b610136610131366004610b56565b6102f6565b60405161011a9190610c7e565b61014b610361565b60405161011a9190610c6a565b61014b610370565b61016861037f565b60405161011a9190610dcd565b610136610183366004610b16565b610385565b610190610509565b60405161011a9190610dd6565b6101b06101ab366004610b56565b61058b565b005b6101b061068e565b6101686101c8366004610ac7565b61071c565b61014b610737565b61010d610746565b6101b06101eb366004610b56565b6107d1565b6101366101fe366004610b56565b6108c8565b610168610211366004610ae2565b610986565b6101b0610224366004610ac7565b6109b1565b604080518082018252600f81526e5f444f444f5f4c505f544f4b454e5f60881b602082015260035482516306fdde0360e01b815292516060936001600160a01b03909216916306fdde03916004808301926000929190829003018186803b15801561029357600080fd5b505afa1580156102a7573d6000803e3d6000fd5b505050506040513d6000823e601f3d908101601f191682016040526102cf9190810190610b80565b816040516020016102e1929190610c3c565b60405160208183030381529060405291505090565b3360008181526006602090815260408083206001600160a01b038716808552925280832085905551919290917f8c5be1e5ebec7d5bd14f71427d1e84f3dd0314c0f7b2291e5b200ac8c7c3b9259061034f908690610dcd565b60405180910390a35060015b92915050565b6003546001600160a01b031681565b6000546001600160a01b031681565b60045481565b6001600160a01b0383166000908152600560205260408120548211156103c65760405162461bcd60e51b81526004016103bd90610d5b565b60405180910390fd5b6001600160a01b03841660009081526006602090815260408083203384529091529020548211156104095760405162461bcd60e51b81526004016103bd90610ce3565b6001600160a01b038416600090815260056020526040902054610432908363ffffffff610a5c16565b6001600160a01b038086166000908152600560205260408082209390935590851681522054610467908363ffffffff610a8416565b6001600160a01b0380851660009081526005602090815260408083209490945591871681526006825282812033825290915220546104ab908363ffffffff610a5c16565b6001600160a01b038086166000818152600660209081526040808320338452909152908190209390935591519085169190600080516020610e2d833981519152906104f7908690610dcd565b60405180910390a35060019392505050565b6003546040805163313ce56760e01b815290516000926001600160a01b03169163313ce567916004808301926020929190829003018186803b15801561054e57600080fd5b505afa158015610562573d6000803e3d6000fd5b505050506040513d601f19601f820116820180604052508101906105869190610c1b565b905090565b6000546001600160a01b031633146105b55760405162461bcd60e51b81526004016103bd90610d87565b6001600160a01b0382166000908152600560205260409020546105de908263ffffffff610a8416565b6001600160a01b03831660009081526005602052604090205560045461060a908263ffffffff610a8416565b6004556040516001600160a01b038316907f0f6798a560793a54c3bcfe86a93cde1e73087d944c0ea20544137d412139688590610648908490610dcd565b60405180910390a2816001600160a01b031660006001600160a01b0316600080516020610e2d833981519152836040516106829190610dcd565b60405180910390a35050565b6001546001600160a01b031633146106b85760405162461bcd60e51b81526004016103bd90610cbc565b600154600080546040516001600160a01b0393841693909116917f8be0079c531659141344cd1fd0a4f28419497f9722a3daafe3b4186f6b6457e091a360018054600080546001600160a01b03199081166001600160a01b03841617909155169055565b6001600160a01b031660009081526005602052604090205490565b6001546001600160a01b031681565b6002805460408051602060018416156101000260001901909316849004601f810184900484028201840190925281815292918301828280156107c95780601f1061079e576101008083540402835291602001916107c9565b820191906000526020600020905b8154815290600101906020018083116107ac57829003601f168201915b505050505081565b6000546001600160a01b031633146107fb5760405162461bcd60e51b81526004016103bd90610d87565b6001600160a01b038216600090815260056020526040902054610824908263ffffffff610a5c16565b6001600160a01b038316600090815260056020526040902055600454610850908263ffffffff610a5c16565b6004556040516001600160a01b038316907fcc16f5dbb4873280815c1ee09dbd06736cffcc184412cf7a71a0fdb75d397ca59061088e908490610dcd565b60405180910390a260006001600160a01b0316826001600160a01b0316600080516020610e2d833981519152836040516106829190610dcd565b336000908152600560205260408120548211156108f75760405162461bcd60e51b81526004016103bd90610d5b565b33600090815260056020526040902054610917908363ffffffff610a5c16565b33600090815260056020526040808220929092556001600160a01b03851681522054610949908363ffffffff610a8416565b6001600160a01b038416600081815260056020526040908190209290925590513390600080516020610e2d8339815191529061034f908690610dcd565b6001600160a01b03918216600090815260066020908152604080832093909416825291909152205490565b6000546001600160a01b031633146109db5760405162461bcd60e51b81526004016103bd90610d87565b6001600160a01b038116610a015760405162461bcd60e51b81526004016103bd90610d34565b600080546040516001600160a01b03808516939216917fdcf55418cee3220104fef63f979ff3c4097ad240c0c43dcb33ce837748983e6291a3600180546001600160a01b0319166001600160a01b0392909216919091179055565b600082821115610a7e5760405162461bcd60e51b81526004016103bd90610d11565b50900390565b600082820183811015610aa95760405162461bcd60e51b81526004016103bd90610daa565b9392505050565b80356001600160a01b038116811461035b57600080fd5b600060208284031215610ad8578081fd5b610aa98383610ab0565b60008060408385031215610af4578081fd5b610afe8484610ab0565b9150610b0d8460208501610ab0565b90509250929050565b600080600060608486031215610b2a578081fd5b8335610b3581610e14565b92506020840135610b4581610e14565b929592945050506040919091013590565b60008060408385031215610b68578182fd5b610b728484610ab0565b946020939093013593505050565b600060208284031215610b91578081fd5b815167ffffffffffffffff80821115610ba8578283fd5b81840185601f820112610bb9578384fd5b8051925081831115610bc9578384fd5b604051601f8401601f191681016020018381118282101715610be9578586fd5b604052838152818401602001871015610c00578485fd5b610c11846020830160208501610de4565b9695505050505050565b600060208284031215610c2c578081fd5b815160ff81168114610aa9578182fd5b60008351610c4e818460208801610de4565b8351908301610c61828260208801610de4565b01949350505050565b6001600160a01b0391909116815260200190565b901515815260200190565b6000602082528251806020840152610ca8816040850160208701610de4565b601f01601f19169190910160400192915050565b6020808252600d908201526c494e56414c49445f434c41494d60981b604082015260600190565b60208082526014908201527308298989eae829c868abe9c9ea8be8a9c9eaa8e960631b604082015260600190565b60208082526009908201526829aaa12fa2a92927a960b91b604082015260600190565b6020808252600d908201526c24a72b20a624a22fa7aba722a960991b604082015260600190565b6020808252601290820152710848298829c868abe9c9ea8be8a9c9eaa8e960731b604082015260600190565b6020808252600990820152682727aa2fa7aba722a960b91b604082015260600190565b60208082526009908201526820a2222fa2a92927a960b91b604082015260600190565b90815260200190565b60ff91909116815260200190565b60005b83811015610dff578181015183820152602001610de7565b83811115610e0e576000848401525b50505050565b6001600160a01b0381168114610e2957600080fd5b5056feddf252ad1be2c89b69c2b068fc378daa952ba7f163c4a11628f55a4df523b3efa26469706673582212209cf0d1d887af2d1880badc337ef0f270c8675b4bfd794dc60bdaa78dec3bd19664736f6c63430006090033e89c586bd81ee35a18f7eac22a732b56e589a2821497cce12a0208828540a36d581f351e2bdb9fa9021bb2a24def989f06ac236f8a92aac14bcbc618ddf3826aa2646970667358221220a7c3f70cc23c3bc7f4459663ac4cd28de21ec73de76092c1f464dcf5d30c400d64736f6c63430006090033",
  "immutableReferences": {},
  "source": "/*\n\n    Copyright 2020 DODO ZOO.\n    SPDX-License-Identifier: Apache-2.0\n\n*/\n\npragma solidity 0.6.9;\npragma experimental ABIEncoderV2;\n\nimport {Types} from \"./lib/Types.sol\";\nimport {IERC20} from \"./intf/IERC20.sol\";\nimport {Storage} from \"./impl/Storage.sol\";\nimport {Trader} from \"./impl/Trader.sol\";\nimport {LiquidityProvider} from \"./impl/LiquidityProvider.sol\";\nimport {Admin} from \"./impl/Admin.sol\";\nimport {DODOLpToken} from \"./impl/DODOLpToken.sol\";\n\n\n/**\n * @title DODO\n * @author DODO Breeder\n *\n * @notice Entrance for users\n */\ncontract DODO is Admin, Trader, LiquidityProvider {\n    function init(\n        address owner,\n        address supervisor,\n        address maintainer,\n        address baseToken,\n        address quoteToken,\n        address oracle,\n        uint256 lpFeeRate,\n        uint256 mtFeeRate,\n        uint256 k,\n        uint256 gasPriceLimit\n    ) external {\n        require(!_INITIALIZED_, \"DODO_INITIALIZED\");\n        _INITIALIZED_ = true;\n\n        // constructor\n        _OWNER_ = owner;\n        emit OwnershipTransferred(address(0), _OWNER_);\n\n        _SUPERVISOR_ = supervisor;\n        _MAINTAINER_ = maintainer;\n        _BASE_TOKEN_ = baseToken;\n        _QUOTE_TOKEN_ = quoteToken;\n        _ORACLE_ = oracle;\n\n        _DEPOSIT_BASE_ALLOWED_ = false;\n        _DEPOSIT_QUOTE_ALLOWED_ = false;\n        _TRADE_ALLOWED_ = false;\n        _GAS_PRICE_LIMIT_ = gasPriceLimit;\n\n        // Advanced controls are disabled by default\n        _BUYING_ALLOWED_ = true;\n        _SELLING_ALLOWED_ = true;\n        uint256 MAX_INT = 0xffffffffffffffffffffffffffffffffffffffffffffffffffffffffffffffff;\n        _BASE_BALANCE_LIMIT_ = MAX_INT;\n        _QUOTE_BALANCE_LIMIT_ = MAX_INT;\n\n        _LP_FEE_RATE_ = lpFeeRate;\n        _MT_FEE_RATE_ = mtFeeRate;\n        _K_ = k;\n        _R_STATUS_ = Types.RStatus.ONE;\n\n        _BASE_CAPITAL_TOKEN_ = address(new DODOLpToken(_BASE_TOKEN_));\n        _QUOTE_CAPITAL_TOKEN_ = address(new DODOLpToken(_QUOTE_TOKEN_));\n\n        _checkDODOParameters();\n    }\n}\n",
  "sourcePath": "/Users/owen/Desktop/dodo/dodo-smart-contract/contracts/dodo.sol",
  "compiler": {
    "name": "solc",
    "version": "0.6.9+commit.3e3065ac.Emscripten.clang"
  },
  "schemaVersion": "3.2.3",
  "updatedAt": "2020-11-06T08:03:35.487Z",
  "devdoc": {
    "author": "DODO Breeder",
    "methods": {},
    "title": "DODO"
  },
  "userdoc": {
    "methods": {},
    "notice": "Entrance for users"
  }
}