{
  "contractName": "LiquidityProvider",
  "abi": [
    {
      "anonymous": false,
      "inputs": [
        {
          "indexed": true,
          "internalType": "address",
          "name": "payer",
          "type": "address"
        },
        {
          "indexed": false,
          "internalType": "bool",
          "name": "isBaseToken",
          "type": "bool"
        },
        {
          "indexed": false,
          "internalType": "uint256",
          "name": "amount",
          "type": "uint256"
        }
      ],
      "name": "ChargePenalty",
      "type": "event"
    },
    {
      "anonymous": false,
      "inputs": [
        {
          "indexed": true,
          "internalType": "address",
          "name": "user",
          "type": "address"
        },
        {
          "indexed": false,
          "internalType": "uint256",
          "name": "baseTokenAmount",
          "type": "uint256"
        },
        {
          "indexed": false,
          "internalType": "uint256",
          "name": "quoteTokenAmount",
          "type": "uint256"
        }
      ],
      "name": "ClaimAssets",
      "type": "event"
    },
    {
      "anonymous": false,
      "inputs": [
        {
          "indexed": true,
          "internalType": "address",
          "name": "payer",
          "type": "address"
        },
        {
          "indexed": true,
          "internalType": "address",
          "name": "receiver",
          "type": "address"
        },
        {
          "indexed": false,
          "internalType": "bool",
          "name": "isBaseToken",
          "type": "bool"
        },
        {
          "indexed": false,
          "internalType": "uint256",
          "name": "amount",
          "type": "uint256"
        },
        {
          "indexed": false,
          "internalType": "uint256",
          "name": "lpTokenAmount",
          "type": "uint256"
        }
      ],
      "name": "Deposit",
      "type": "event"
    },
    {
      "anonymous": false,
      "inputs": [
        {
          "indexed": false,
          "internalType": "uint256",
          "name": "amount",
          "type": "uint256"
        },
        {
          "indexed": false,
          "internalType": "bool",
          "name": "isBaseToken",
          "type": "bool"
        }
      ],
      "name": "Donate",
      "type": "event"
    },
    {
      "anonymous": false,
      "inputs": [
        {
          "indexed": true,
          "internalType": "address",
          "name": "previousOwner",
          "type": "address"
        },
        {
          "indexed": true,
          "internalType": "address",
          "name": "newOwner",
          "type": "address"
        }
      ],
      "name": "OwnershipTransferPrepared",
      "type": "event"
    },
    {
      "anonymous": false,
      "inputs": [
        {
          "indexed": true,
          "internalType": "address",
          "name": "previousOwner",
          "type": "address"
        },
        {
          "indexed": true,
          "internalType": "address",
          "name": "newOwner",
          "type": "address"
        }
      ],
      "name": "OwnershipTransferred",
      "type": "event"
    },
    {
      "anonymous": false,
      "inputs": [
        {
          "indexed": true,
          "internalType": "address",
          "name": "payer",
          "type": "address"
        },
        {
          "indexed": true,
          "internalType": "address",
          "name": "receiver",
          "type": "address"
        },
        {
          "indexed": false,
          "internalType": "bool",
          "name": "isBaseToken",
          "type": "bool"
        },
        {
          "indexed": false,
          "internalType": "uint256",
          "name": "amount",
          "type": "uint256"
        },
        {
          "indexed": false,
          "internalType": "uint256",
          "name": "lpTokenAmount",
          "type": "uint256"
        }
      ],
      "name": "Withdraw",
      "type": "event"
    },
    {
      "inputs": [],
      "name": "_BASE_BALANCE_",
      "outputs": [
        {
          "internalType": "uint256",
          "name": "",
          "type": "uint256"
        }
      ],
      "stateMutability": "view",
      "type": "function"
    },
    {
      "inputs": [],
      "name": "_BASE_BALANCE_LIMIT_",
      "outputs": [
        {
          "internalType": "uint256",
          "name": "",
          "type": "uint256"
        }
      ],
      "stateMutability": "view",
      "type": "function"
    },
    {
      "inputs": [],
      "name": "_BASE_CAPITAL_RECEIVE_QUOTE_",
      "outputs": [
        {
          "internalType": "uint256",
          "name": "",
          "type": "uint256"
        }
      ],
      "stateMutability": "view",
      "type": "function"
    },
    {
      "inputs": [],
      "name": "_BASE_CAPITAL_TOKEN_",
      "outputs": [
        {
          "internalType": "address",
          "name": "",
          "type": "address"
        }
      ],
      "stateMutability": "view",
      "type": "function"
    },
    {
      "inputs": [],
      "name": "_BASE_TOKEN_",
      "outputs": [
        {
          "internalType": "address",
          "name": "",
          "type": "address"
        }
      ],
      "stateMutability": "view",
      "type": "function"
    },
    {
      "inputs": [],
      "name": "_BUYING_ALLOWED_",
      "outputs": [
        {
          "internalType": "bool",
          "name": "",
          "type": "bool"
        }
      ],
      "stateMutability": "view",
      "type": "function"
    },
    {
      "inputs": [
        {
          "internalType": "address",
          "name": "",
          "type": "address"
        }
      ],
      "name": "_CLAIMED_",
      "outputs": [
        {
          "internalType": "bool",
          "name": "",
          "type": "bool"
        }
      ],
      "stateMutability": "view",
      "type": "function"
    },
    {
      "inputs": [],
      "name": "_CLOSED_",
      "outputs": [
        {
          "internalType": "bool",
          "name": "",
          "type": "bool"
        }
      ],
      "stateMutability": "view",
      "type": "function"
    },
    {
      "inputs": [],
      "name": "_DEPOSIT_BASE_ALLOWED_",
      "outputs": [
        {
          "internalType": "bool",
          "name": "",
          "type": "bool"
        }
      ],
      "stateMutability": "view",
      "type": "function"
    },
    {
      "inputs": [],
      "name": "_DEPOSIT_QUOTE_ALLOWED_",
      "outputs": [
        {
          "internalType": "bool",
          "name": "",
          "type": "bool"
        }
      ],
      "stateMutability": "view",
      "type": "function"
    },
    {
      "inputs": [],
      "name": "_GAS_PRICE_LIMIT_",
      "outputs": [
        {
          "internalType": "uint256",
          "name": "",
          "type": "uint256"
        }
      ],
      "stateMutability": "view",
      "type": "function"
    },
    {
      "inputs": [],
      "name": "_K_",
      "outputs": [
        {
          "internalType": "uint256",
          "name": "",
          "type": "uint256"
        }
      ],
      "stateMutability": "view",
      "type": "function"
    },
    {
      "inputs": [],
      "name": "_LP_FEE_RATE_",
      "outputs": [
        {
          "internalType": "uint256",
          "name": "",
          "type": "uint256"
        }
      ],
      "stateMutability": "view",
      "type": "function"
    },
    {
      "inputs": [],
      "name": "_MAINTAINER_",
      "outputs": [
        {
          "internalType": "address",
          "name": "",
          "type": "address"
        }
      ],
      "stateMutability": "view",
      "type": "function"
    },
    {
      "inputs": [],
      "name": "_MT_FEE_RATE_",
      "outputs": [
        {
          "internalType": "uint256",
          "name": "",
          "type": "uint256"
        }
      ],
      "stateMutability": "view",
      "type": "function"
    },
    {
      "inputs": [],
      "name": "_NEW_OWNER_",
      "outputs": [
        {
          "internalType": "address",
          "name": "",
          "type": "address"
        }
      ],
      "stateMutability": "view",
      "type": "function"
    },
    {
      "inputs": [],
      "name": "_ORACLE_",
      "outputs": [
        {
          "internalType": "address",
          "name": "",
          "type": "address"
        }
      ],
      "stateMutability": "view",
      "type": "function"
    },
    {
      "inputs": [],
      "name": "_OWNER_",
      "outputs": [
        {
          "internalType": "address",
          "name": "",
          "type": "address"
        }
      ],
      "stateMutability": "view",
      "type": "function"
    },
    {
      "inputs": [],
      "name": "_QUOTE_BALANCE_",
      "outputs": [
        {
          "internalType": "uint256",
          "name": "",
          "type": "uint256"
        }
      ],
      "stateMutability": "view",
      "type": "function"
    },
    {
      "inputs": [],
      "name": "_QUOTE_BALANCE_LIMIT_",
      "outputs": [
        {
          "internalType": "uint256",
          "name": "",
          "type": "uint256"
        }
      ],
      "stateMutability": "view",
      "type": "function"
    },
    {
      "inputs": [],
      "name": "_QUOTE_CAPITAL_RECEIVE_BASE_",
      "outputs": [
        {
          "internalType": "uint256",
          "name": "",
          "type": "uint256"
        }
      ],
      "stateMutability": "view",
      "type": "function"
    },
    {
      "inputs": [],
      "name": "_QUOTE_CAPITAL_TOKEN_",
      "outputs": [
        {
          "internalType": "address",
          "name": "",
          "type": "address"
        }
      ],
      "stateMutability": "view",
      "type": "function"
    },
    {
      "inputs": [],
      "name": "_QUOTE_TOKEN_",
      "outputs": [
        {
          "internalType": "address",
          "name": "",
          "type": "address"
        }
      ],
      "stateMutability": "view",
      "type": "function"
    },
    {
      "inputs": [],
      "name": "_R_STATUS_",
      "outputs": [
        {
          "internalType": "enum Types.RStatus",
          "name": "",
          "type": "uint8"
        }
      ],
      "stateMutability": "view",
      "type": "function"
    },
    {
      "inputs": [],
      "name": "_SELLING_ALLOWED_",
      "outputs": [
        {
          "internalType": "bool",
          "name": "",
          "type": "bool"
        }
      ],
      "stateMutability": "view",
      "type": "function"
    },
    {
      "inputs": [],
      "name": "_SUPERVISOR_",
      "outputs": [
        {
          "internalType": "address",
          "name": "",
          "type": "address"
        }
      ],
      "stateMutability": "view",
      "type": "function"
    },
    {
      "inputs": [],
      "name": "_TARGET_BASE_TOKEN_AMOUNT_",
      "outputs": [
        {
          "internalType": "uint256",
          "name": "",
          "type": "uint256"
        }
      ],
      "stateMutability": "view",
      "type": "function"
    },
    {
      "inputs": [],
      "name": "_TARGET_QUOTE_TOKEN_AMOUNT_",
      "outputs": [
        {
          "internalType": "uint256",
          "name": "",
          "type": "uint256"
        }
      ],
      "stateMutability": "view",
      "type": "function"
    },
    {
      "inputs": [],
      "name": "_TRADE_ALLOWED_",
      "outputs": [
        {
          "internalType": "bool",
          "name": "",
          "type": "bool"
        }
      ],
      "stateMutability": "view",
      "type": "function"
    },
    {
      "inputs": [],
      "name": "claimAssets",
      "outputs": [],
      "stateMutability": "nonpayable",
      "type": "function"
    },
    {
      "inputs": [],
      "name": "claimOwnership",
      "outputs": [],
      "stateMutability": "nonpayable",
      "type": "function"
    },
    {
      "inputs": [
        {
          "internalType": "uint256",
          "name": "amount",
          "type": "uint256"
        }
      ],
      "name": "donateBaseToken",
      "outputs": [],
      "stateMutability": "nonpayable",
      "type": "function"
    },
    {
      "inputs": [
        {
          "internalType": "uint256",
          "name": "amount",
          "type": "uint256"
        }
      ],
      "name": "donateQuoteToken",
      "outputs": [],
      "stateMutability": "nonpayable",
      "type": "function"
    },
    {
      "inputs": [],
      "name": "finalSettlement",
      "outputs": [],
      "stateMutability": "nonpayable",
      "type": "function"
    },
    {
      "inputs": [
        {
          "internalType": "address",
          "name": "lp",
          "type": "address"
        }
      ],
      "name": "getBaseCapitalBalanceOf",
      "outputs": [
        {
          "internalType": "uint256",
          "name": "",
          "type": "uint256"
        }
      ],
      "stateMutability": "view",
      "type": "function"
    },
    {
      "inputs": [],
      "name": "getExpectedTarget",
      "outputs": [
        {
          "internalType": "uint256",
          "name": "baseTarget",
          "type": "uint256"
        },
        {
          "internalType": "uint256",
          "name": "quoteTarget",
          "type": "uint256"
        }
      ],
      "stateMutability": "view",
      "type": "function"
    },
    {
      "inputs": [],
      "name": "getMidPrice",
      "outputs": [
        {
          "internalType": "uint256",
          "name": "midPrice",
          "type": "uint256"
        }
      ],
      "stateMutability": "view",
      "type": "function"
    },
    {
      "inputs": [],
      "name": "getOraclePrice",
      "outputs": [
        {
          "internalType": "uint256",
          "name": "",
          "type": "uint256"
        }
      ],
      "stateMutability": "view",
      "type": "function"
    },
    {
      "inputs": [
        {
          "internalType": "address",
          "name": "lp",
          "type": "address"
        }
      ],
      "name": "getQuoteCapitalBalanceOf",
      "outputs": [
        {
          "internalType": "uint256",
          "name": "",
          "type": "uint256"
        }
      ],
      "stateMutability": "view",
      "type": "function"
    },
    {
      "inputs": [],
      "name": "getTotalBaseCapital",
      "outputs": [
        {
          "internalType": "uint256",
          "name": "",
          "type": "uint256"
        }
      ],
      "stateMutability": "view",
      "type": "function"
    },
    {
      "inputs": [],
      "name": "getTotalQuoteCapital",
      "outputs": [
        {
          "internalType": "uint256",
          "name": "",
          "type": "uint256"
        }
      ],
      "stateMutability": "view",
      "type": "function"
    },
    {
      "inputs": [
        {
          "internalType": "address",
          "name": "token",
          "type": "address"
        },
        {
          "internalType": "uint256",
          "name": "amount",
          "type": "uint256"
        }
      ],
      "name": "retrieve",
      "outputs": [],
      "stateMutability": "nonpayable",
      "type": "function"
    },
    {
      "inputs": [
        {
          "internalType": "address",
          "name": "newOwner",
          "type": "address"
        }
      ],
      "name": "transferOwnership",
      "outputs": [],
      "stateMutability": "nonpayable",
      "type": "function"
    },
    {
      "inputs": [],
      "name": "version",
      "outputs": [
        {
          "internalType": "uint256",
          "name": "",
          "type": "uint256"
        }
      ],
      "stateMutability": "pure",
      "type": "function"
    },
    {
      "inputs": [
        {
          "internalType": "uint256",
          "name": "amount",
          "type": "uint256"
        }
      ],
      "name": "withdrawBase",
      "outputs": [
        {
          "internalType": "uint256",
          "name": "",
          "type": "uint256"
        }
      ],
      "stateMutability": "nonpayable",
      "type": "function"
    },
    {
      "inputs": [
        {
          "internalType": "uint256",
          "name": "amount",
          "type": "uint256"
        }
      ],
      "name": "depositBase",
      "outputs": [
        {
          "internalType": "uint256",
          "name": "",
          "type": "uint256"
        }
      ],
      "stateMutability": "nonpayable",
      "type": "function"
    },
    {
      "inputs": [
        {
          "internalType": "uint256",
          "name": "amount",
          "type": "uint256"
        }
      ],
      "name": "withdrawQuote",
      "outputs": [
        {
          "internalType": "uint256",
          "name": "",
          "type": "uint256"
        }
      ],
      "stateMutability": "nonpayable",
      "type": "function"
    },
    {
      "inputs": [
        {
          "internalType": "uint256",
          "name": "amount",
          "type": "uint256"
        }
      ],
      "name": "depositQuote",
      "outputs": [
        {
          "internalType": "uint256",
          "name": "",
          "type": "uint256"
        }
      ],
      "stateMutability": "nonpayable",
      "type": "function"
    },
    {
      "inputs": [],
      "name": "withdrawAllBase",
      "outputs": [
        {
          "internalType": "uint256",
          "name": "",
          "type": "uint256"
        }
      ],
      "stateMutability": "nonpayable",
      "type": "function"
    },
    {
      "inputs": [],
      "name": "withdrawAllQuote",
      "outputs": [
        {
          "internalType": "uint256",
          "name": "",
          "type": "uint256"
        }
      ],
      "stateMutability": "nonpayable",
      "type": "function"
    },
    {
      "inputs": [
        {
          "internalType": "address",
          "name": "to",
          "type": "address"
        },
        {
          "internalType": "uint256",
          "name": "amount",
          "type": "uint256"
        }
      ],
      "name": "depositQuoteTo",
      "outputs": [
        {
          "internalType": "uint256",
          "name": "",
          "type": "uint256"
        }
      ],
      "stateMutability": "nonpayable",
      "type": "function"
    },
    {
      "inputs": [
        {
          "internalType": "address",
          "name": "to",
          "type": "address"
        },
        {
          "internalType": "uint256",
          "name": "amount",
          "type": "uint256"
        }
      ],
      "name": "depositBaseTo",
      "outputs": [
        {
          "internalType": "uint256",
          "name": "",
          "type": "uint256"
        }
      ],
      "stateMutability": "nonpayable",
      "type": "function"
    },
    {
      "inputs": [
        {
          "internalType": "address",
          "name": "to",
          "type": "address"
        },
        {
          "internalType": "uint256",
          "name": "amount",
          "type": "uint256"
        }
      ],
      "name": "withdrawQuoteTo",
      "outputs": [
        {
          "internalType": "uint256",
          "name": "",
          "type": "uint256"
        }
      ],
      "stateMutability": "nonpayable",
      "type": "function"
    },
    {
      "inputs": [
        {
          "internalType": "address",
          "name": "to",
          "type": "address"
        },
        {
          "internalType": "uint256",
          "name": "amount",
          "type": "uint256"
        }
      ],
      "name": "withdrawBaseTo",
      "outputs": [
        {
          "internalType": "uint256",
          "name": "",
          "type": "uint256"
        }
      ],
      "stateMutability": "nonpayable",
      "type": "function"
    },
    {
      "inputs": [
        {
          "internalType": "address",
          "name": "to",
          "type": "address"
        }
      ],
      "name": "withdrawAllQuoteTo",
      "outputs": [
        {
          "internalType": "uint256",
          "name": "",
          "type": "uint256"
        }
      ],
      "stateMutability": "nonpayable",
      "type": "function"
    },
    {
      "inputs": [
        {
          "internalType": "address",
          "name": "to",
          "type": "address"
        }
      ],
      "name": "withdrawAllBaseTo",
      "outputs": [
        {
          "internalType": "uint256",
          "name": "",
          "type": "uint256"
        }
      ],
      "stateMutability": "nonpayable",
      "type": "function"
    },
    {
      "inputs": [
        {
          "internalType": "address",
          "name": "lp",
          "type": "address"
        }
      ],
      "name": "getLpBaseBalance",
      "outputs": [
        {
          "internalType": "uint256",
          "name": "lpBalance",
          "type": "uint256"
        }
      ],
      "stateMutability": "view",
      "type": "function"
    },
    {
      "inputs": [
        {
          "internalType": "address",
          "name": "lp",
          "type": "address"
        }
      ],
      "name": "getLpQuoteBalance",
      "outputs": [
        {
          "internalType": "uint256",
          "name": "lpBalance",
          "type": "uint256"
        }
      ],
      "stateMutability": "view",
      "type": "function"
    },
    {
      "inputs": [
        {
          "internalType": "uint256",
          "name": "amount",
          "type": "uint256"
        }
      ],
      "name": "getWithdrawQuotePenalty",
      "outputs": [
        {
          "internalType": "uint256",
          "name": "penalty",
          "type": "uint256"
        }
      ],
      "stateMutability": "view",
      "type": "function"
    },
    {
      "inputs": [
        {
          "internalType": "uint256",
          "name": "amount",
          "type": "uint256"
        }
      ],
      "name": "getWithdrawBasePenalty",
      "outputs": [
        {
          "internalType": "uint256",
          "name": "penalty",
          "type": "uint256"
        }
      ],
      "stateMutability": "view",
      "type": "function"
    }
  ],
  "bytecode": "0x608060405234801561001057600080fd5b50612bdb806100206000396000f3fe608060405234801561001057600080fd5b50600436106103a45760003560e01c80638ff5e742116101e9578063c6b73cf91161010f578063ed0aa428116100ad578063f3ae6c5f1161007c578063f3ae6c5f1461066e578063f67ed44814610681578063f98bea1514610694578063ffa64225146106a7576103a4565b8063ed0aa4281461062d578063ee27c68914610640578063ee5150b314610648578063f2fde38b1461065b576103a4565b8063d689107c116100e9578063d689107c1461060d578063dd58b41c14610615578063eab5d20e1461061d578063ec2fd46d14610625576103a4565b8063c6b73cf9146105f5578063d47eaa37146105fd578063d4b9704614610605576103a4565b8063ab44a7a311610187578063c0ffa17811610156578063c0ffa178146105ca578063c3a2a665146105d2578063c59203af146105e5578063c5bbffe8146105ed576103a4565b8063ab44a7a31461059f578063ac1fbc98146105a7578063b2094fd3146105af578063c0a5f6ff146105b7576103a4565b80639b020fba116101c35780639b020fba14610574578063a3161a561461057c578063a598aca714610584578063aa06ce9b1461058c576103a4565b80638ff5e74214610546578063947cf92b1461054e57806395faa5f614610561576103a4565b80633960f142116102ce578063648a4fac1161026c578063796da7af1161023b578063796da7af1461051b5780637aed942d146105235780637c9b8e89146105365780638456db151461053e576103a4565b8063648a4fac146104e357806368be20ad146104eb5780636ec6a58d1461050b57806373a2ab7c14610513576103a4565b80634de4527e116102a85780634de4527e146104b85780634e71e0c8146104c057806354fd4d50146104c85780635f179f64146104d0576103a4565b80633960f142146104a05780634322ec83146104a85780634a248d2a146104b0576103a4565b806317be952e1161034657806327bed8ee1161031557806327bed8ee1461045f5780632aa82c651461047257806336a53bbb1461047a578063387b0c111461048d576103a4565b806317be952e146104255780631e34b9cc1461043a5780631f3c156e1461044d578063245c968514610457576103a4565b80630e6518e9116103825780630e6518e9146103ed578063108db744146103f557806316048bc4146104085780631769ddaa1461041d576103a4565b806304512dc4146103a95780630c9f7bd0146103d25780630cd1667d146103e5575b600080fd5b6103bc6103b736600461257d565b6106bd565b6040516103c99190612b3e565b60405180910390f35b6103bc6103e03660046125e2565b61084e565b6103bc61092d565b6103bc6109b0565b6103bc610403366004612598565b6109b6565b610410610bab565b6040516103c9919061264b565b6103bc610bba565b61042d610bc0565b6040516103c991906126cf565b6103bc61044836600461257d565b610bc9565b610455610d23565b005b6103bc610fe6565b6103bc61046d3660046125e2565b610fec565b6103bc610ffe565b6103bc61048836600461257d565b611043565b61045561049b3660046125e2565b611092565b6104106110f2565b610410611101565b610410611110565b6103bc61111f565b610455611125565b6103bc6111b3565b6103bc6104de366004612598565b6111b8565b6104556112fd565b6104fe6104f936600461257d565b611417565b6040516103c9919061269c565b6104fe61142c565b61041061143c565b6103bc61144b565b6103bc61053136600461257d565b611490565b6103bc611511565b610410611517565b6104fe611526565b6103bc61055c366004612598565b611534565b6103bc61056f36600461257d565b6116ee565b6103bc611729565b6104fe61172f565b6104fe611738565b6103bc61059a366004612598565b611748565b6103bc61186f565b610410611875565b6103bc611884565b6103bc6105c53660046125e2565b61188a565b6103bc611896565b6104556105e0366004612598565b61189c565b6103bc611a72565b6104fe611a7d565b6103bc611a8d565b6103bc611a93565b610410611a9e565b610410611aad565b6104fe611abc565b6103bc611acc565b6103bc611ad2565b61045561063b3660046125e2565b611ad8565b6103bc611b28565b6103bc6106563660046125e2565b611c19565b61045561066936600461257d565b611cb8565b6103bc61067c3660046125e2565b611d63565b6103bc61068f36600461257d565b611d6f565b6103bc6106a23660046125e2565b611da0565b6106af611dac565b6040516103c9929190612b57565b600154600090600160a01b900460ff16156106f35760405162461bcd60e51b81526004016106ea906127d3565b60405180910390fd5b6001805460ff60a01b1916600160a01b1790819055600160b01b900460ff161561072f5760405162461bcd60e51b81526004016106ea906129d2565b600061073a33611043565b9050600061074733611d6f565b905060006107548361084e565b9050828111156107765760405162461bcd60e51b81526004016106ea906129aa565b601054610789908463ffffffff611e7016565b6010556107963383611e98565b6107af856107aa858463ffffffff611e7016565b611f00565b6107b881611f37565b846001600160a01b0316336001600160a01b0316600080516020612b66833981519152600086866040516107ee939291906126b7565b60405180910390a3336001600160a01b0316600080516020612b868339815191526000836040516108209291906126a7565b60405180910390a2610838838263ffffffff611e7016565b6001805460ff60a01b1916905595945050505050565b60006012548211156108725760405162461bcd60e51b81526004016106ea906126e3565b6002600e5460ff16600281111561088557fe5b14156109245760006108a4600f54601154611e7090919063ffffffff16565b905060006108b061144b565b905060006108be8383611f8b565b905060006108d1601254600d5484611fb5565b905060006108f66108ed88601254611e7090919063ffffffff16565b600d5485611fb5565b905061091861090b828963ffffffff61205816565b839063ffffffff611e7016565b95505050505050610928565b5060005b919050565b601354604080516318160ddd60e01b815290516000926001600160a01b0316916318160ddd916004808301926020929190829003018186803b15801561097257600080fd5b505afa158015610986573d6000803e3d6000fd5b505050506040513d601f19601f820116820180604052508101906109aa91906125fa565b90505b90565b60165481565b600154600090600160a01b900460ff16156109e35760405162461bcd60e51b81526004016106ea906127d3565b6001805460ff60a01b1916600160a01b1790819055600160b01b900460ff1615610a1f5760405162461bcd60e51b81526004016106ea906129d2565b6000610a29611dac565b9150506000610a36610ffe565b905060008111610a585760405162461bcd60e51b81526004016106ea906127f6565b6000610a7a83610a6e878563ffffffff61208416565b9063ffffffff6120be16565b9050610a8533611d6f565b811115610aa45760405162461bcd60e51b81526004016106ea906128af565b6000610aaf8661084e565b9050858110610ad05760405162461bcd60e51b81526004016106ea906129aa565b601054610ae3908763ffffffff611e7016565b601055610af03383611e98565b610b04876107aa888463ffffffff611e7016565b610b0d81611f37565b6001600160a01b03871633600080516020612b668339815191526000610b398a8663ffffffff611e7016565b86604051610b49939291906126b7565b60405180910390a3336001600160a01b0316600080516020612b86833981519152600083604051610b7b9291906126a7565b60405180910390a2610b93868263ffffffff611e7016565b6001805460ff60a01b19169055979650505050505050565b6000546001600160a01b031681565b60055481565b600e5460ff1681565b600154600090600160a01b900460ff1615610bf65760405162461bcd60e51b81526004016106ea906127d3565b6001805460ff60a01b1916600160a01b1790819055600160b01b900460ff1615610c325760405162461bcd60e51b81526004016106ea906129d2565b6000610c3d336116ee565b90506000610c4a33611490565b90506000610c5783611c19565b905082811115610c795760405162461bcd60e51b81526004016106ea906129aa565b600f54610c8c908463ffffffff611e7016565b600f55610c9933836120eb565b610cb285610cad858463ffffffff611e7016565b61211d565b610cbb81612154565b846001600160a01b0316336001600160a01b0316600080516020612b6683398151915260018686604051610cf1939291906126b7565b60405180910390a3336001600160a01b0316600080516020612b868339815191526001836040516108209291906126a7565b600154600160a01b900460ff1615610d4d5760405162461bcd60e51b81526004016106ea906127d3565b6001805460ff60a01b1916600160a01b1790819055600160b01b900460ff16610d885760405162461bcd60e51b81526004016106ea90612b15565b3360009081526017602052604090205460ff1615610db85760405162461bcd60e51b81526004016106ea90612aec565b336000818152601760205260408120805460ff1916600117905590610ddc90611d6f565b90506000610de933611490565b905060008215610e2057610e1d610dfe610ffe565b601054610e11908663ffffffff61208416565b9063ffffffff61219d16565b90505b60008215610e4957610e46610e3361092d565b600f54610e11908663ffffffff61208416565b90505b601054610e5c908363ffffffff611e7016565b601055600f54610e72908263ffffffff611e7016565b600f81905550610e94610e8784601554611f8b565b839063ffffffff61205816565b9150610eb2610ea585601654611f8b565b829063ffffffff61205816565b9050610ebe338261211d565b610ec83383611f00565b601354604051632770a7eb60e21b81526001600160a01b0390911690639dc29fac90610efa903390879060040161265f565b600060405180830381600087803b158015610f1457600080fd5b505af1158015610f28573d6000803e3d6000fd5b5050601454604051632770a7eb60e21b81526001600160a01b039091169250639dc29fac9150610f5e903390889060040161265f565b600060405180830381600087803b158015610f7857600080fd5b505af1158015610f8c573d6000803e3d6000fd5b50505050336001600160a01b03167fbe5f7fe66d16c6a87bb5b8b08a96634fe4f1c2bac9e5e413efe41a782d4d0c438284604051610fcb929190612b57565b60405180910390a2505050506001805460ff60a01b19169055565b60105481565b6000610ff83383611748565b92915050565b601454604080516318160ddd60e01b815290516000926001600160a01b0316916318160ddd916004808301926020929190829003018186803b15801561097257600080fd5b60008061104e610ffe565b9050600061105a611dac565b9150508161106d57600092505050610928565b61108a82610e118361107e88611d6f565b9063ffffffff61208416565b949350505050565b600154600160a01b900460ff16156110bc5760405162461bcd60e51b81526004016106ea906127d3565b6001805460ff60a01b1916600160a01b1790556110d933826121c7565b6110e281611f37565b506001805460ff60a01b19169055565b6006546001600160a01b031681565b6007546001600160a01b031681565b6008546001600160a01b031681565b60025481565b6001546001600160a01b0316331461114f5760405162461bcd60e51b81526004016106ea9061271a565b600154600080546040516001600160a01b0393841693909116917f8be0079c531659141344cd1fd0a4f28419497f9722a3daafe3b4186f6b6457e091a360018054600080546001600160a01b03199081166001600160a01b03841617909155169055565b606590565b600154600090600160a01b900460ff16156111e55760405162461bcd60e51b81526004016106ea906127d3565b6001805460ff60a01b1916600160a01b1790819055600160b81b900460ff166112205760405162461bcd60e51b81526004016106ea9061279c565b600061122a611dac565b9150506000611237610ffe565b905083816112565761124f858463ffffffff61205816565b9050611273565b82156112735761127083610e11878563ffffffff61208416565b90505b61127d33866121c7565b611287868261222c565b60105461129a908663ffffffff61205816565b6010556040516001600160a01b0387169033907f18081cde2fa64894914e1080b98cca17bb6d1acf633e57f6e26ebdb945ad830b906112df906000908a9087906126b7565b60405180910390a36001805460ff60a01b1916905595945050505050565b6000546001600160a01b031633146113275760405162461bcd60e51b81526004016106ea906129f7565b600154600160b01b900460ff16156113515760405162461bcd60e51b81526004016106ea906129d2565b6001805462ffffff60b81b1960ff60b01b19909116600160b01b17169055600061137961092d565b90506000611385610ffe565b905060105460125411156113c15760006113ac601054601254611e7090919063ffffffff16565b90506113b8818461225e565b601555506113c8565b6012546010555b600f5460115411156114025760006113ed600f54601154611e7090919063ffffffff16565b90506113f9818361225e565b60165550611409565b601154600f555b5050600e805460ff19169055565b60176020526000908152604090205460ff1681565b600154600160b01b900460ff1681565b600a546001600160a01b031681565b600a5460408051634c6afee560e11b815290516000926001600160a01b0316916398d5fdca916004808301926020929190829003018186803b15801561097257600080fd5b6013546040516370a0823160e01b81526000916001600160a01b0316906370a08231906114c190859060040161264b565b60206040518083038186803b1580156114d957600080fd5b505afa1580156114ed573d6000803e3d6000fd5b505050506040513d601f19601f82011682018060405250810190610ff891906125fa565b60125481565b6001546001600160a01b031681565b600354610100900460ff1681565b600154600090600160a01b900460ff16156115615760405162461bcd60e51b81526004016106ea906127d3565b6001805460ff60a01b1916600160a01b1790819055600160b01b900460ff161561159d5760405162461bcd60e51b81526004016106ea906129d2565b60006115a7611dac565b50905060006115b461092d565b9050600081116115d65760405162461bcd60e51b81526004016106ea90612741565b60006115ec83610a6e878563ffffffff61208416565b90506115f733611490565b8111156116165760405162461bcd60e51b81526004016106ea90612a87565b600061162186611c19565b9050858111156116435760405162461bcd60e51b81526004016106ea906129aa565b600f54611656908763ffffffff611e7016565b600f5561166333836120eb565b61167787610cad888463ffffffff611e7016565b61168081612154565b6001600160a01b03871633600080516020612b6683398151915260016116ac8a8663ffffffff611e7016565b866040516116bc939291906126b7565b60405180910390a3336001600160a01b0316600080516020612b86833981519152600183604051610b7b9291906126a7565b6000806116f961092d565b90506000611705611dac565b5090508161171857600092505050610928565b61108a82610e118361107e88611490565b60045481565b60035460ff1681565b600154600160c01b900460ff1681565b600154600090600160a01b900460ff16156117755760405162461bcd60e51b81526004016106ea906127d3565b6001805460ff60a01b1916600160a01b1790819055600160c01b900460ff166117b05760405162461bcd60e51b81526004016106ea90612765565b60006117ba611dac565b50905060006117c761092d565b905083816117e6576117df858463ffffffff61205816565b9050611803565b82156118035761180083610e11878563ffffffff61208416565b90505b61180d338661227c565b61181786826122e1565b600f5461182a908663ffffffff61205816565b600f556040516001600160a01b0387169033907f18081cde2fa64894914e1080b98cca17bb6d1acf633e57f6e26ebdb945ad830b906112df906001908a9087906126b7565b600b5481565b6014546001600160a01b031681565b600f5481565b6000610ff833836109b6565b600c5481565b6000546001600160a01b031633146118c65760405162461bcd60e51b81526004016106ea906129f7565b6008546001600160a01b038381169116141561198d576011546118ef908263ffffffff61205816565b6008546040516370a0823160e01b81526001600160a01b03909116906370a082319061191f90309060040161264b565b60206040518083038186803b15801561193757600080fd5b505afa15801561194b573d6000803e3d6000fd5b505050506040513d601f19601f8201168201806040525081019061196f91906125fa565b101561198d5760405162461bcd60e51b81526004016106ea9061294c565b6009546001600160a01b0383811691161415611a54576012546119b6908263ffffffff61205816565b6009546040516370a0823160e01b81526001600160a01b03909116906370a08231906119e690309060040161264b565b60206040518083038186803b1580156119fe57600080fd5b505afa158015611a12573d6000803e3d6000fd5b505050506040513d601f19601f82011682018060405250810190611a3691906125fa565b1015611a545760405162461bcd60e51b81526004016106ea906126e3565b611a6e6001600160a01b038316338363ffffffff61231316565b5050565b60006109aa336106bd565b600154600160b81b900460ff1681565b60155481565b60006109aa33610bc9565b6009546001600160a01b031681565b6013546001600160a01b031681565b600154600160c81b900460ff1681565b60115481565b600d5481565b600154600160a01b900460ff1615611b025760405162461bcd60e51b81526004016106ea906127d3565b6001805460ff60a01b1916600160a01b179055611b1f338261227c565b6110e281612154565b6000806000611b35611dac565b90925090506002600e5460ff166002811115611b4d57fe5b1415611bcf576000611b79611b71601254610e11858661208490919063ffffffff16565b60125461225e565b9050611bb2611b8a600d5483611f8b565b600d54611ba690670de0b6b3a76400009063ffffffff611e7016565b9063ffffffff61205816565b9050611bc5611bbf61144b565b8261225e565b93505050506109ad565b6000611bf5611bed601154610e11868761208490919063ffffffff16565b60115461225e565b9050611c06611b8a600d5483611f8b565b9050611bc5611c1361144b565b82611f8b565b6000601154821115611c3d5760405162461bcd60e51b81526004016106ea9061294c565b6001600e5460ff166002811115611c5057fe5b1415610924576000611c6f601054601254611e7090919063ffffffff16565b90506000611c7b61144b565b90506000611c89838361225e565b90506000611c9c601154600d5484611fb5565b905060006108f66108ed88601154611e7090919063ffffffff16565b6000546001600160a01b03163314611ce25760405162461bcd60e51b81526004016106ea906129f7565b6001600160a01b038116611d085760405162461bcd60e51b81526004016106ea90612983565b600080546040516001600160a01b03808516939216917fdcf55418cee3220104fef63f979ff3c4097ad240c0c43dcb33ce837748983e6291a3600180546001600160a01b0319166001600160a01b0392909216919091179055565b6000610ff833836111b8565b6014546040516370a0823160e01b81526000916001600160a01b0316906370a08231906114c190859060040161264b565b6000610ff83383611534565b601254601154600091829182600e5460ff166002811115611dc957fe5b1415611de057600f54601054935093505050611e6c565b6002600e5460ff166002811115611df357fe5b1415611e25576000611e0361236e565b600f54909150611e19848363ffffffff61205816565b94509450505050611e6c565b6001600e5460ff166002811115611e3857fe5b1415611e69576000611e486123d5565b9050611e5a828263ffffffff61205816565b60105494509450505050611e6c565b50505b9091565b600082821115611e925760405162461bcd60e51b81526004016106ea90612929565b50900390565b601454604051632770a7eb60e21b81526001600160a01b0390911690639dc29fac90611eca908590859060040161265f565b600060405180830381600087803b158015611ee457600080fd5b505af1158015611ef8573d6000803e3d6000fd5b505050505050565b600954611f1d906001600160a01b0316838363ffffffff61231316565b601254611f30908263ffffffff611e7016565b6012555050565b601054611f4a908263ffffffff61205816565b6010556040517fa259c93818139b6bc90fb80e8feb75122b42edaae49560f81392cf4e1946726e90611f80908390600090612b47565b60405180910390a150565b6000670de0b6b3a7640000611fa6848463ffffffff61208416565b81611fad57fe5b049392505050565b600080611fd0611fca600461107e8787611f8b565b86612433565b9050611ff6611ff1670de0b6b3a764000061107e848263ffffffff61205816565b612451565b9050600061202b61201583670de0b6b3a764000063ffffffff611e7016565b61202687600263ffffffff61208416565b612433565b905061204e86612049670de0b6b3a76400008463ffffffff61205816565b611f8b565b9695505050505050565b60008282018381101561207d5760405162461bcd60e51b81526004016106ea90612a1a565b9392505050565b60008261209357506000610ff8565b828202828482816120a057fe5b041461207d5760405162461bcd60e51b81526004016106ea90612ac9565b6000806120cb848461219d565b9050828102840380156120e357506001019050610ff8565b509050610ff8565b601354604051632770a7eb60e21b81526001600160a01b0390911690639dc29fac90611eca908590859060040161265f565b60085461213a906001600160a01b0316838363ffffffff61231316565b60115461214d908263ffffffff611e7016565b6011555050565b600f54612167908263ffffffff61205816565b600f556040517fa259c93818139b6bc90fb80e8feb75122b42edaae49560f81392cf4e1946726e90611f80908390600190612b47565b60008082116121be5760405162461bcd60e51b81526004016106ea90612887565b818381611fad57fe5b6005546012546121dd908363ffffffff61205816565b11156121fb5760405162461bcd60e51b81526004016106ea9061281b565b600954612219906001600160a01b031683308463ffffffff61248816565b601254611f30908263ffffffff61205816565b6014546040516340c10f1960e01b81526001600160a01b03909116906340c10f1990611eca908590859060040161265f565b600061207d82610e1185670de0b6b3a764000063ffffffff61208416565b600454601154612292908363ffffffff61205816565b11156122b05760405162461bcd60e51b81526004016106ea906128f2565b6008546122ce906001600160a01b031683308463ffffffff61248816565b60115461214d908263ffffffff61205816565b6013546040516340c10f1960e01b81526001600160a01b03909116906340c10f1990611eca908590859060040161265f565b6123698363a9059cbb60e01b848460405160240161233292919061265f565b60408051601f198184030181529190526020810180516001600160e01b03166001600160e01b0319909316929092179091526124af565b505050565b600080612388600f54601154611e7090919063ffffffff16565b9050600061239461144b565b905060006123a28383611f8b565b905060006123b5601254600d5484611fb5565b90506123cc60125482611e7090919063ffffffff16565b94505050505090565b6000806123ef601054601254611e7090919063ffffffff16565b905060006123fb61144b565b90506000612409838361225e565b9050600061241c601154600d5484611fb5565b90506123cc60115482611e7090919063ffffffff16565b600061207d82610a6e85670de0b6b3a764000063ffffffff61208416565b80600160028204015b818110156124825780915060028182858161247157fe5b04018161247a57fe5b04905061245a565b50919050565b6124a9846323b872dd60e01b85858560405160240161233293929190612678565b50505050565b60006060836001600160a01b0316836040516124cb9190612612565b6000604051808303816000865af19150503d8060008114612508576040519150601f19603f3d011682016040523d82523d6000602084013e61250d565b606091505b50915091508161252f5760405162461bcd60e51b81526004016106ea90612852565b8051156124a9578080602001905181019061254a91906125c2565b6124a95760405162461bcd60e51b81526004016106ea90612a3d565b80356001600160a01b0381168114610ff857600080fd5b60006020828403121561258e578081fd5b61207d8383612566565b600080604083850312156125aa578081fd5b6125b48484612566565b946020939093013593505050565b6000602082840312156125d3578081fd5b8151801515811461207d578182fd5b6000602082840312156125f3578081fd5b5035919050565b60006020828403121561260b578081fd5b5051919050565b60008251815b818110156126325760208186018101518583015201612618565b818111156126405782828501525b509190910192915050565b6001600160a01b0391909116815260200190565b6001600160a01b03929092168252602082015260400190565b6001600160a01b039384168152919092166020820152604081019190915260600190565b901515815260200190565b9115158252602082015260400190565b92151583526020830191909152604082015260600190565b60208101600383106126dd57fe5b91905290565b6020808252601d908201527f444f444f5f51554f54455f42414c414e43455f4e4f545f454e4f554748000000604082015260600190565b6020808252600d908201526c494e56414c49445f434c41494d60981b604082015260600190565b6020808252600a908201526904e4f5f424153455f4c560b41b604082015260600190565b60208082526018908201527f4445504f5349545f424153455f4e4f545f414c4c4f5745440000000000000000604082015260600190565b60208082526019908201527f4445504f5349545f51554f54455f4e4f545f414c4c4f57454400000000000000604082015260600190565b60208082526009908201526814915153951490539560ba1b604082015260600190565b6020808252600b908201526a04e4f5f51554f54455f4c560ac1b604082015260600190565b6020808252601c908201527f51554f54455f42414c414e43455f4c494d49545f455843454544454400000000604082015260600190565b6020808252818101527f5361666545524332303a206c6f772d6c6576656c2063616c6c206661696c6564604082015260600190565b6020808252600e908201526d2224ab24a224a723afa2a92927a960911b604082015260600190565b60208082526023908201527f4c505f51554f54455f4341504954414c5f42414c414e43455f4e4f545f454e4f6040820152620aa8e960eb1b606082015260800190565b6020808252601b908201527f424153455f42414c414e43455f4c494d49545f45584345454445440000000000604082015260600190565b60208082526009908201526829aaa12fa2a92927a960b91b604082015260600190565b6020808252601c908201527f444f444f5f424153455f42414c414e43455f4e4f545f454e4f55474800000000604082015260600190565b6020808252600d908201526c24a72b20a624a22fa7aba722a960991b604082015260600190565b6020808252600e908201526d1411539053151657d15610d1515160921b604082015260600190565b6020808252600b908201526a1113d113d7d0d313d4d15160aa1b604082015260600190565b6020808252600990820152682727aa2fa7aba722a960b91b604082015260600190565b60208082526009908201526820a2222fa2a92927a960b91b604082015260600190565b6020808252602a908201527f5361666545524332303a204552433230206f7065726174696f6e20646964206e6040820152691bdd081cdd58d8d9595960b21b606082015260800190565b60208082526022908201527f4c505f424153455f4341504954414c5f42414c414e43455f4e4f545f454e4f5560408201526108e960f31b606082015260800190565b60208082526009908201526826aaa62fa2a92927a960b91b604082015260600190565b6020808252600f908201526e1053149150511657d0d31052535151608a1b604082015260600190565b6020808252600f908201526e1113d113d7d393d517d0d313d4d151608a1b604082015260600190565b90815260200190565b9182521515602082015260400190565b91825260208201526040019056fee89c586bd81ee35a18f7eac22a732b56e589a2821497cce12a0208828540a36d581f351e2bdb9fa9021bb2a24def989f06ac236f8a92aac14bcbc618ddf3826aa2646970667358221220f817095e7822ba6073f1c4d1397cd91906e8e24ff2aa07bd7a3d88e5a48f19e964736f6c63430006090033",
  "immutableReferences": {},
  "source": "/*\n\n    Copyright 2020 DODO ZOO.\n    SPDX-License-Identifier: Apache-2.0\n\n*/\n\npragma solidity 0.6.9;\npragma experimental ABIEncoderV2;\n\nimport {SafeMath} from \"../lib/SafeMath.sol\";\nimport {DecimalMath} from \"../lib/DecimalMath.sol\";\nimport {DODOMath} from \"../lib/DODOMath.sol\";\nimport {Types} from \"../lib/Types.sol\";\nimport {IDODOLpToken} from \"../intf/IDODOLpToken.sol\";\nimport {Storage} from \"./Storage.sol\";\nimport {Settlement} from \"./Settlement.sol\";\nimport {Pricing} from \"./Pricing.sol\";\n\n\n/**\n * @title LiquidityProvider\n * @author DODO Breeder\n *\n * @notice Functions for liquidity provider operations\n */\ncontract LiquidityProvider is Storage, Pricing, Settlement {\n    using SafeMath for uint256;\n\n    // ============ Events ============\n\n    event Deposit(\n        address indexed payer,\n        address indexed receiver,\n        bool isBaseToken,\n        uint256 amount,\n        uint256 lpTokenAmount\n    );\n\n    event Withdraw(\n        address indexed payer,\n        address indexed receiver,\n        bool isBaseToken,\n        uint256 amount,\n        uint256 lpTokenAmount\n    );\n\n    event ChargePenalty(address indexed payer, bool isBaseToken, uint256 amount);\n\n    // ============ Modifiers ============\n\n    modifier depositQuoteAllowed() {\n        require(_DEPOSIT_QUOTE_ALLOWED_, \"DEPOSIT_QUOTE_NOT_ALLOWED\");\n        _;\n    }\n\n    modifier depositBaseAllowed() {\n        require(_DEPOSIT_BASE_ALLOWED_, \"DEPOSIT_BASE_NOT_ALLOWED\");\n        _;\n    }\n\n    modifier dodoNotClosed() {\n        require(!_CLOSED_, \"DODO_CLOSED\");\n        _;\n    }\n\n    // ============ Routine Functions ============\n\n    function withdrawBase(uint256 amount) external returns (uint256) {\n        return withdrawBaseTo(msg.sender, amount);\n    }\n\n    function depositBase(uint256 amount) external returns (uint256) {\n        return depositBaseTo(msg.sender, amount);\n    }\n\n    function withdrawQuote(uint256 amount) external returns (uint256) {\n        return withdrawQuoteTo(msg.sender, amount);\n    }\n\n    function depositQuote(uint256 amount) external returns (uint256) {\n        return depositQuoteTo(msg.sender, amount);\n    }\n\n    function withdrawAllBase() external returns (uint256) {\n        return withdrawAllBaseTo(msg.sender);\n    }\n\n    function withdrawAllQuote() external returns (uint256) {\n        return withdrawAllQuoteTo(msg.sender);\n    }\n\n    // ============ Deposit Functions ============\n\n    function depositQuoteTo(address to, uint256 amount)\n        public\n        preventReentrant\n        depositQuoteAllowed\n        returns (uint256)\n    {\n        (, uint256 quoteTarget) = getExpectedTarget();\n        uint256 totalQuoteCapital = getTotalQuoteCapital();\n        uint256 capital = amount;\n        if (totalQuoteCapital == 0) {\n            // give remaining quote token to lp as a gift\n            capital = amount.add(quoteTarget);\n        } else if (quoteTarget > 0) {\n            capital = amount.mul(totalQuoteCapital).div(quoteTarget);\n        }\n\n        // settlement\n        _quoteTokenTransferIn(msg.sender, amount);\n        _mintQuoteCapital(to, capital);\n        _TARGET_QUOTE_TOKEN_AMOUNT_ = _TARGET_QUOTE_TOKEN_AMOUNT_.add(amount);\n\n        emit Deposit(msg.sender, to, false, amount, capital);\n        return capital;\n    }\n\n    function depositBaseTo(address to, uint256 amount)\n        public\n        preventReentrant\n        depositBaseAllowed\n        returns (uint256)\n    {\n        (uint256 baseTarget, ) = getExpectedTarget();\n        uint256 totalBaseCapital = getTotalBaseCapital();\n        uint256 capital = amount;\n        if (totalBaseCapital == 0) {\n            // give remaining base token to lp as a gift\n            capital = amount.add(baseTarget);\n        } else if (baseTarget > 0) {\n            capital = amount.mul(totalBaseCapital).div(baseTarget);\n        }\n\n        // settlement\n        _baseTokenTransferIn(msg.sender, amount);\n        _mintBaseCapital(to, capital);\n        _TARGET_BASE_TOKEN_AMOUNT_ = _TARGET_BASE_TOKEN_AMOUNT_.add(amount);\n\n        emit Deposit(msg.sender, to, true, amount, capital);\n        return capital;\n    }\n\n    // ============ Withdraw Functions ============\n\n    function withdrawQuoteTo(address to, uint256 amount)\n        public\n        preventReentrant\n        dodoNotClosed\n        returns (uint256)\n    {\n        // calculate capital\n        (, uint256 quoteTarget) = getExpectedTarget();\n        uint256 totalQuoteCapital = getTotalQuoteCapital();\n        require(totalQuoteCapital > 0, \"NO_QUOTE_LP\");\n\n        uint256 requireQuoteCapital = amount.mul(totalQuoteCapital).divCeil(quoteTarget);\n        require(\n            requireQuoteCapital <= getQuoteCapitalBalanceOf(msg.sender),\n            \"LP_QUOTE_CAPITAL_BALANCE_NOT_ENOUGH\"\n        );\n\n        // handle penalty, penalty may exceed amount\n        uint256 penalty = getWithdrawQuotePenalty(amount);\n        require(penalty < amount, \"PENALTY_EXCEED\");\n\n        // settlement\n        _TARGET_QUOTE_TOKEN_AMOUNT_ = _TARGET_QUOTE_TOKEN_AMOUNT_.sub(amount);\n        _burnQuoteCapital(msg.sender, requireQuoteCapital);\n        _quoteTokenTransferOut(to, amount.sub(penalty));\n        _donateQuoteToken(penalty);\n\n        emit Withdraw(msg.sender, to, false, amount.sub(penalty), requireQuoteCapital);\n        emit ChargePenalty(msg.sender, false, penalty);\n\n        return amount.sub(penalty);\n    }\n\n    function withdrawBaseTo(address to, uint256 amount)\n        public\n        preventReentrant\n        dodoNotClosed\n        returns (uint256)\n    {\n        // calculate capital\n        (uint256 baseTarget, ) = getExpectedTarget();\n        uint256 totalBaseCapital = getTotalBaseCapital();\n        require(totalBaseCapital > 0, \"NO_BASE_LP\");\n\n        uint256 requireBaseCapital = amount.mul(totalBaseCapital).divCeil(baseTarget);\n        require(\n            requireBaseCapital <= getBaseCapitalBalanceOf(msg.sender),\n            \"LP_BASE_CAPITAL_BALANCE_NOT_ENOUGH\"\n        );\n\n        // handle penalty, penalty may exceed amount\n        uint256 penalty = getWithdrawBasePenalty(amount);\n        require(penalty <= amount, \"PENALTY_EXCEED\");\n\n        // settlement\n        _TARGET_BASE_TOKEN_AMOUNT_ = _TARGET_BASE_TOKEN_AMOUNT_.sub(amount);\n        _burnBaseCapital(msg.sender, requireBaseCapital);\n        _baseTokenTransferOut(to, amount.sub(penalty));\n        _donateBaseToken(penalty);\n\n        emit Withdraw(msg.sender, to, true, amount.sub(penalty), requireBaseCapital);\n        emit ChargePenalty(msg.sender, true, penalty);\n\n        return amount.sub(penalty);\n    }\n\n    // ============ Withdraw all Functions ============\n\n    function withdrawAllQuoteTo(address to)\n        public\n        preventReentrant\n        dodoNotClosed\n        returns (uint256)\n    {\n        uint256 withdrawAmount = getLpQuoteBalance(msg.sender);\n        uint256 capital = getQuoteCapitalBalanceOf(msg.sender);\n\n        // handle penalty, penalty may exceed amount\n        uint256 penalty = getWithdrawQuotePenalty(withdrawAmount);\n        require(penalty <= withdrawAmount, \"PENALTY_EXCEED\");\n\n        // settlement\n        _TARGET_QUOTE_TOKEN_AMOUNT_ = _TARGET_QUOTE_TOKEN_AMOUNT_.sub(withdrawAmount);\n        _burnQuoteCapital(msg.sender, capital);\n        _quoteTokenTransferOut(to, withdrawAmount.sub(penalty));\n        _donateQuoteToken(penalty);\n\n        emit Withdraw(msg.sender, to, false, withdrawAmount, capital);\n        emit ChargePenalty(msg.sender, false, penalty);\n\n        return withdrawAmount.sub(penalty);\n    }\n\n    function withdrawAllBaseTo(address to) public preventReentrant dodoNotClosed returns (uint256) {\n        uint256 withdrawAmount = getLpBaseBalance(msg.sender);\n        uint256 capital = getBaseCapitalBalanceOf(msg.sender);\n\n        // handle penalty, penalty may exceed amount\n        uint256 penalty = getWithdrawBasePenalty(withdrawAmount);\n        require(penalty <= withdrawAmount, \"PENALTY_EXCEED\");\n\n        // settlement\n        _TARGET_BASE_TOKEN_AMOUNT_ = _TARGET_BASE_TOKEN_AMOUNT_.sub(withdrawAmount);\n        _burnBaseCapital(msg.sender, capital);\n        _baseTokenTransferOut(to, withdrawAmount.sub(penalty));\n        _donateBaseToken(penalty);\n\n        emit Withdraw(msg.sender, to, true, withdrawAmount, capital);\n        emit ChargePenalty(msg.sender, true, penalty);\n\n        return withdrawAmount.sub(penalty);\n    }\n\n    // ============ Helper Functions ============\n\n    function _mintBaseCapital(address user, uint256 amount) internal {\n        IDODOLpToken(_BASE_CAPITAL_TOKEN_).mint(user, amount);\n    }\n\n    function _mintQuoteCapital(address user, uint256 amount) internal {\n        IDODOLpToken(_QUOTE_CAPITAL_TOKEN_).mint(user, amount);\n    }\n\n    function _burnBaseCapital(address user, uint256 amount) internal {\n        IDODOLpToken(_BASE_CAPITAL_TOKEN_).burn(user, amount);\n    }\n\n    function _burnQuoteCapital(address user, uint256 amount) internal {\n        IDODOLpToken(_QUOTE_CAPITAL_TOKEN_).burn(user, amount);\n    }\n\n    // ============ Getter Functions ============\n\n    function getLpBaseBalance(address lp) public view returns (uint256 lpBalance) {\n        uint256 totalBaseCapital = getTotalBaseCapital();\n        (uint256 baseTarget, ) = getExpectedTarget();\n        if (totalBaseCapital == 0) {\n            return 0;\n        }\n        lpBalance = getBaseCapitalBalanceOf(lp).mul(baseTarget).div(totalBaseCapital);\n        return lpBalance;\n    }\n\n    function getLpQuoteBalance(address lp) public view returns (uint256 lpBalance) {\n        uint256 totalQuoteCapital = getTotalQuoteCapital();\n        (, uint256 quoteTarget) = getExpectedTarget();\n        if (totalQuoteCapital == 0) {\n            return 0;\n        }\n        lpBalance = getQuoteCapitalBalanceOf(lp).mul(quoteTarget).div(totalQuoteCapital);\n        return lpBalance;\n    }\n\n    function getWithdrawQuotePenalty(uint256 amount) public view returns (uint256 penalty) {\n        require(amount <= _QUOTE_BALANCE_, \"DODO_QUOTE_BALANCE_NOT_ENOUGH\");\n        if (_R_STATUS_ == Types.RStatus.BELOW_ONE) {\n            uint256 spareBase = _BASE_BALANCE_.sub(_TARGET_BASE_TOKEN_AMOUNT_);\n            uint256 price = getOraclePrice();\n            uint256 fairAmount = DecimalMath.mul(spareBase, price);\n            uint256 targetQuote = DODOMath._SolveQuadraticFunctionForTarget(\n                _QUOTE_BALANCE_,\n                _K_,\n                fairAmount\n            );\n            // if amount = _QUOTE_BALANCE_, div error\n            uint256 targetQuoteWithWithdraw = DODOMath._SolveQuadraticFunctionForTarget(\n                _QUOTE_BALANCE_.sub(amount),\n                _K_,\n                fairAmount\n            );\n            return targetQuote.sub(targetQuoteWithWithdraw.add(amount));\n        } else {\n            return 0;\n        }\n    }\n\n    function getWithdrawBasePenalty(uint256 amount) public view returns (uint256 penalty) {\n        require(amount <= _BASE_BALANCE_, \"DODO_BASE_BALANCE_NOT_ENOUGH\");\n        if (_R_STATUS_ == Types.RStatus.ABOVE_ONE) {\n            uint256 spareQuote = _QUOTE_BALANCE_.sub(_TARGET_QUOTE_TOKEN_AMOUNT_);\n            uint256 price = getOraclePrice();\n            uint256 fairAmount = DecimalMath.divFloor(spareQuote, price);\n            uint256 targetBase = DODOMath._SolveQuadraticFunctionForTarget(\n                _BASE_BALANCE_,\n                _K_,\n                fairAmount\n            );\n            // if amount = _BASE_BALANCE_, div error\n            uint256 targetBaseWithWithdraw = DODOMath._SolveQuadraticFunctionForTarget(\n                _BASE_BALANCE_.sub(amount),\n                _K_,\n                fairAmount\n            );\n            return targetBase.sub(targetBaseWithWithdraw.add(amount));\n        } else {\n            return 0;\n        }\n    }\n}\n",
  "sourcePath": "/Users/owen/Desktop/dodo/dodo-smart-contract/contracts/impl/LiquidityProvider.sol",
  "compiler": {
    "name": "solc",
    "version": "0.6.9+commit.3e3065ac.Emscripten.clang"
  },
  "schemaVersion": "3.2.3",
  "updatedAt": "2020-11-06T08:03:35.683Z",
  "devdoc": {
    "author": "DODO Breeder",
    "methods": {},
    "title": "LiquidityProvider"
  },
  "userdoc": {
    "methods": {},
    "notice": "Functions for liquidity provider operations"
  }
}