{
  "contractName": "LockedTokenVault",
  "abi": [
    {
      "inputs": [
        {
          "internalType": "address",
          "name": "_token",
          "type": "address"
        },
        {
          "internalType": "uint256",
          "name": "_startReleaseTime",
          "type": "uint256"
        },
        {
          "internalType": "uint256",
          "name": "_releaseDuration",
          "type": "uint256"
        },
        {
          "internalType": "uint256",
          "name": "_cliffRate",
          "type": "uint256"
        }
      ],
      "stateMutability": "nonpayable",
      "type": "constructor"
    },
    {
      "anonymous": false,
      "inputs": [
        {
          "indexed": true,
          "internalType": "address",
          "name": "holder",
          "type": "address"
        },
        {
          "indexed": false,
          "internalType": "uint256",
          "name": "origin",
          "type": "uint256"
        },
        {
          "indexed": false,
          "internalType": "uint256",
          "name": "claimed",
          "type": "uint256"
        },
        {
          "indexed": false,
          "internalType": "uint256",
          "name": "amount",
          "type": "uint256"
        }
      ],
      "name": "Claim",
      "type": "event"
    },
    {
      "anonymous": false,
      "inputs": [
        {
          "indexed": true,
          "internalType": "address",
          "name": "previousOwner",
          "type": "address"
        },
        {
          "indexed": true,
          "internalType": "address",
          "name": "newOwner",
          "type": "address"
        }
      ],
      "name": "OwnershipTransferPrepared",
      "type": "event"
    },
    {
      "anonymous": false,
      "inputs": [
        {
          "indexed": true,
          "internalType": "address",
          "name": "previousOwner",
          "type": "address"
        },
        {
          "indexed": true,
          "internalType": "address",
          "name": "newOwner",
          "type": "address"
        }
      ],
      "name": "OwnershipTransferred",
      "type": "event"
    },
    {
      "inputs": [],
      "name": "_CLIFF_RATE_",
      "outputs": [
        {
          "internalType": "uint256",
          "name": "",
          "type": "uint256"
        }
      ],
      "stateMutability": "view",
      "type": "function"
    },
    {
      "inputs": [],
      "name": "_DISTRIBUTE_FINISHED_",
      "outputs": [
        {
          "internalType": "bool",
          "name": "",
          "type": "bool"
        }
      ],
      "stateMutability": "view",
      "type": "function"
    },
    {
      "inputs": [],
      "name": "_NEW_OWNER_",
      "outputs": [
        {
          "internalType": "address",
          "name": "",
          "type": "address"
        }
      ],
      "stateMutability": "view",
      "type": "function"
    },
    {
      "inputs": [],
      "name": "_OWNER_",
      "outputs": [
        {
          "internalType": "address",
          "name": "",
          "type": "address"
        }
      ],
      "stateMutability": "view",
      "type": "function"
    },
    {
      "inputs": [],
      "name": "_RELEASE_DURATION_",
      "outputs": [
        {
          "internalType": "uint256",
          "name": "",
          "type": "uint256"
        }
      ],
      "stateMutability": "view",
      "type": "function"
    },
    {
      "inputs": [],
      "name": "_START_RELEASE_TIME_",
      "outputs": [
        {
          "internalType": "uint256",
          "name": "",
          "type": "uint256"
        }
      ],
      "stateMutability": "view",
      "type": "function"
    },
    {
      "inputs": [],
      "name": "_UNDISTRIBUTED_AMOUNT_",
      "outputs": [
        {
          "internalType": "uint256",
          "name": "",
          "type": "uint256"
        }
      ],
      "stateMutability": "view",
      "type": "function"
    },
    {
      "inputs": [],
      "name": "claimOwnership",
      "outputs": [],
      "stateMutability": "nonpayable",
      "type": "function"
    },
    {
      "inputs": [
        {
          "internalType": "address",
          "name": "newOwner",
          "type": "address"
        }
      ],
      "name": "transferOwnership",
      "outputs": [],
      "stateMutability": "nonpayable",
      "type": "function"
    },
    {
      "inputs": [
        {
          "internalType": "uint256",
          "name": "amount",
          "type": "uint256"
        }
      ],
      "name": "deposit",
      "outputs": [],
      "stateMutability": "nonpayable",
      "type": "function"
    },
    {
      "inputs": [
        {
          "internalType": "uint256",
          "name": "amount",
          "type": "uint256"
        }
      ],
      "name": "withdraw",
      "outputs": [],
      "stateMutability": "nonpayable",
      "type": "function"
    },
    {
      "inputs": [],
      "name": "finishDistribute",
      "outputs": [],
      "stateMutability": "nonpayable",
      "type": "function"
    },
    {
      "inputs": [
        {
          "internalType": "address[]",
          "name": "holderList",
          "type": "address[]"
        },
        {
          "internalType": "uint256[]",
          "name": "amountList",
          "type": "uint256[]"
        }
      ],
      "name": "grant",
      "outputs": [],
      "stateMutability": "nonpayable",
      "type": "function"
    },
    {
      "inputs": [
        {
          "internalType": "address",
          "name": "holder",
          "type": "address"
        }
      ],
      "name": "recall",
      "outputs": [],
      "stateMutability": "nonpayable",
      "type": "function"
    },
    {
      "inputs": [
        {
          "internalType": "address",
          "name": "to",
          "type": "address"
        }
      ],
      "name": "transferLockedToken",
      "outputs": [],
      "stateMutability": "nonpayable",
      "type": "function"
    },
    {
      "inputs": [],
      "name": "claim",
      "outputs": [],
      "stateMutability": "nonpayable",
      "type": "function"
    },
    {
      "inputs": [],
      "name": "isReleaseStart",
      "outputs": [
        {
          "internalType": "bool",
          "name": "",
          "type": "bool"
        }
      ],
      "stateMutability": "view",
      "type": "function"
    },
    {
      "inputs": [
        {
          "internalType": "address",
          "name": "holder",
          "type": "address"
        }
      ],
      "name": "getOriginBalance",
      "outputs": [
        {
          "internalType": "uint256",
          "name": "",
          "type": "uint256"
        }
      ],
      "stateMutability": "view",
      "type": "function"
    },
    {
      "inputs": [
        {
          "internalType": "address",
          "name": "holder",
          "type": "address"
        }
      ],
      "name": "getClaimedBalance",
      "outputs": [
        {
          "internalType": "uint256",
          "name": "",
          "type": "uint256"
        }
      ],
      "stateMutability": "view",
      "type": "function"
    },
    {
      "inputs": [
        {
          "internalType": "address",
          "name": "holder",
          "type": "address"
        }
      ],
      "name": "getClaimableBalance",
      "outputs": [
        {
          "internalType": "uint256",
          "name": "",
          "type": "uint256"
        }
      ],
      "stateMutability": "view",
      "type": "function"
    },
    {
      "inputs": [
        {
          "internalType": "address",
          "name": "holder",
          "type": "address"
        }
      ],
      "name": "getRemainingBalance",
      "outputs": [
        {
          "internalType": "uint256",
          "name": "",
          "type": "uint256"
        }
      ],
      "stateMutability": "view",
      "type": "function"
    },
    {
      "inputs": [
        {
          "internalType": "uint256",
          "name": "timestamp",
          "type": "uint256"
        }
      ],
      "name": "getRemainingRatio",
      "outputs": [
        {
          "internalType": "uint256",
          "name": "",
          "type": "uint256"
        }
      ],
      "stateMutability": "view",
      "type": "function"
    }
  ],
  "bytecode": "0x608060405234801561001057600080fd5b506040516110f13803806110f183398101604081905261002f916100aa565b600080546001600160a01b03191633178082556040516001600160a01b039190911691907f8be0079c531659141344cd1fd0a4f28419497f9722a3daafe3b4186f6b6457e0908290a3600280546001600160a01b0319166001600160a01b0395909516949094179093556006919091556007556008556100f3565b600080600080608085870312156100bf578384fd5b84516001600160a01b03811681146100d5578485fd5b60208601516040870151606090970151919890975090945092505050565b610fef806101026000396000f3fe608060405234801561001057600080fd5b50600436106101415760003560e01c80637db41eae116100b8578063cd32f0861161007c578063cd32f08614610250578063cf0e80fe14610258578063d18284961461026b578063e5612b3b1461027e578063ef90364214610286578063f2fde38b1461028e57610141565b80637db41eae146101fc5780638456db151461020f578063b6b55f2514610217578063c2ae16801461022a578063ca4305191461023d57610141565b80632a8b04801161010a5780632a8b0480146101a75780632e1a7d4d146101af5780634e71d92d146101c45780634e71e0c8146101cc5780636a4de5d1146101d4578063710475f6146101e757610141565b80621bf8f61461014657806306def8021461016f57806316048bc41461018257806324b3274114610197578063294dafc01461019f575b600080fd5b610159610154366004610c58565b6102a1565b6040516101669190610f9a565b60405180910390f35b61015961017d366004610c58565b6102dc565b61018a610330565b6040516101669190610d59565b61015961033f565b610159610345565b61015961034b565b6101c26101bd366004610d08565b610351565b005b6101c26103b3565b6101c2610449565b6101596101e2366004610d08565b6104d7565b6101ef61057f565b6040516101669190610daa565b6101c261020a366004610c58565b610588565b61018a61062c565b6101c2610225366004610d08565b61063b565b6101c2610238366004610c7f565b610694565b6101c261024b366004610c58565b6107d6565b6101ef61088a565b610159610266366004610c58565b610893565b610159610279366004610c58565b6108ae565b6101c26108c9565b610159610902565b6101c261029c366004610c58565b610908565b6000806102ad426104d7565b6001600160a01b0384166000908152600360205260409020549091506102d390826109b3565b9150505b919050565b6000806102e8836102a1565b6001600160a01b0384166000908152600460209081526040808320546003909252909120549192506102d391610324908463ffffffff6109df16565b9063ffffffff6109df16565b6000546001600160a01b031681565b60055481565b60085481565b60065481565b6000546001600160a01b031633146103845760405162461bcd60e51b815260040161037b90610eb0565b60405180910390fd5b600554610397908263ffffffff6109df16565b6005556000546103b0906001600160a01b031682610a07565b50565b60006103be336102dc565b90506103ca3382610a07565b336000908152600460205260409020546103ea908263ffffffff610a2816565b336000818152600460208181526040808420869055600382529283902054919052905191927f45c072aa05b9853b5a993de7a28bc332ee01404a628cec1a23ce0f659f842ef19261043e9291908690610fa3565b60405180910390a250565b6001546001600160a01b031633146104735760405162461bcd60e51b815260040161037b90610db5565b600154600080546040516001600160a01b0393841693909116917f8be0079c531659141344cd1fd0a4f28419497f9722a3daafe3b4186f6b6457e091a360018054600080546001600160a01b03199081166001600160a01b03841617909155169055565b60006006548210156104f25750670de0b6b3a76400006102d7565b6000610509600654846109df90919063ffffffff16565b90506007548110156105755760075460009061052b908363ffffffff6109df16565b905061056c60075461056083610554600854670de0b6b3a76400006109df90919063ffffffff16565b9063ffffffff610a5416565b9063ffffffff610a8e16565b925050506102d7565b60009150506102d7565b60095460ff1681565b33600090815260036020526040808220546001600160a01b03841683529120546105b79163ffffffff610a2816565b6001600160a01b038216600081815260036020908152604080832094909455338252600490528281205491815291909120546105f89163ffffffff610a2816565b6001600160a01b03909116600090815260046020818152604080842094909455338352600381528383208390555290812055565b6001546001600160a01b031681565b6000546001600160a01b031633146106655760405162461bcd60e51b815260040161037b90610eb0565b60005461067b906001600160a01b031682610ab8565b60055461068e908263ffffffff610a2816565b60055550565b6000546001600160a01b031633146106be5760405162461bcd60e51b815260040161037b90610eb0565b8281146106dd5760405162461bcd60e51b815260040161037b90610f63565b6000805b848110156107b85761074a8484838181106106f857fe5b905060200201356003600089898681811061070f57fe5b90506020020160208101906107249190610c58565b6001600160a01b031681526020810191909152604001600020549063ffffffff610a2816565b6003600088888581811061075a57fe5b905060200201602081019061076f9190610c58565b6001600160a01b031681526020810191909152604001600020556107ae84848381811061079857fe5b9050602002013583610a2890919063ffffffff16565b91506001016106e1565b506005546107cc908263ffffffff6109df16565b6005555050505050565b6000546001600160a01b031633146108005760405162461bcd60e51b815260040161037b90610eb0565b60095460ff16156108235760405162461bcd60e51b815260040161037b90610ddc565b6001600160a01b0381166000908152600460209081526040808320546003909252909120546005546108609291610324919063ffffffff610a2816565b6005556001600160a01b031660009081526003602090815260408083208390556004909152812055565b60065442101590565b6001600160a01b031660009081526004602052604090205490565b6001600160a01b031660009081526003602052604090205490565b6000546001600160a01b031633146108f35760405162461bcd60e51b815260040161037b90610eb0565b6009805460ff19166001179055565b60075481565b6000546001600160a01b031633146109325760405162461bcd60e51b815260040161037b90610eb0565b6001600160a01b0381166109585760405162461bcd60e51b815260040161037b90610e89565b600080546040516001600160a01b03808516939216917fdcf55418cee3220104fef63f979ff3c4097ad240c0c43dcb33ce837748983e6291a3600180546001600160a01b0319166001600160a01b0392909216919091179055565b6000670de0b6b3a76400006109ce848463ffffffff610a5416565b816109d557fe5b0490505b92915050565b600082821115610a015760405162461bcd60e51b815260040161037b90610e66565b50900390565b600254610a24906001600160a01b0316838363ffffffff610ad616565b5050565b600082820183811015610a4d5760405162461bcd60e51b815260040161037b90610ed3565b9392505050565b600082610a63575060006109d9565b82820282848281610a7057fe5b0414610a4d5760405162461bcd60e51b815260040161037b90610f40565b6000808211610aaf5760405162461bcd60e51b815260040161037b90610e3e565b8183816109d557fe5b600254610a24906001600160a01b031683308463ffffffff610b3116565b610b2c8363a9059cbb60e01b8484604051602401610af5929190610d91565b60408051601f198184030181529190526020810180516001600160e01b03166001600160e01b031990931692909217909152610b58565b505050565b610b52846323b872dd60e01b858585604051602401610af593929190610d6d565b50505050565b60006060836001600160a01b031683604051610b749190610d20565b6000604051808303816000865af19150503d8060008114610bb1576040519150601f19603f3d011682016040523d82523d6000602084013e610bb6565b606091505b509150915081610bd85760405162461bcd60e51b815260040161037b90610e09565b805115610b525780806020019051810190610bf39190610ce8565b610b525760405162461bcd60e51b815260040161037b90610ef6565b60008083601f840112610c20578182fd5b50813567ffffffffffffffff811115610c37578182fd5b6020830191508360208083028501011115610c5157600080fd5b9250929050565b600060208284031215610c69578081fd5b81356001600160a01b0381168114610a4d578182fd5b60008060008060408587031215610c94578283fd5b843567ffffffffffffffff80821115610cab578485fd5b610cb788838901610c0f565b90965094506020870135915080821115610ccf578384fd5b50610cdc87828801610c0f565b95989497509550505050565b600060208284031215610cf9578081fd5b81518015158114610a4d578182fd5b600060208284031215610d19578081fd5b5035919050565b60008251815b81811015610d405760208186018101518583015201610d26565b81811115610d4e5782828501525b509190910192915050565b6001600160a01b0391909116815260200190565b6001600160a01b039384168152919092166020820152604081019190915260600190565b6001600160a01b03929092168252602082015260400190565b901515815260200190565b6020808252600d908201526c494e56414c49445f434c41494d60981b604082015260600190565b602080825260139082015272111254d5149250955511481192539254d21151606a1b604082015260600190565b6020808252818101527f5361666545524332303a206c6f772d6c6576656c2063616c6c206661696c6564604082015260600190565b6020808252600e908201526d2224ab24a224a723afa2a92927a960911b604082015260600190565b60208082526009908201526829aaa12fa2a92927a960b91b604082015260600190565b6020808252600d908201526c24a72b20a624a22fa7aba722a960991b604082015260600190565b6020808252600990820152682727aa2fa7aba722a960b91b604082015260600190565b60208082526009908201526820a2222fa2a92927a960b91b604082015260600190565b6020808252602a908201527f5361666545524332303a204552433230206f7065726174696f6e20646964206e6040820152691bdd081cdd58d8d9595960b21b606082015260800190565b60208082526009908201526826aaa62fa2a92927a960b91b604082015260600190565b6020808252601c908201527f6261746368206772616e74206c656e677468206e6f74206d6174636800000000604082015260600190565b90815260200190565b928352602083019190915260408201526060019056fea26469706673582212207f11995cc6a066ee4583627cb81b22e62285d1aed6171a41fe0fee5d40f41c5464736f6c63430006090033",
  "immutableReferences": {},
  "source": "/*\n\n    Copyright 2020 DODO ZOO.\n    SPDX-License-Identifier: Apache-2.0\n\n*/\n\npragma solidity 0.6.9;\npragma experimental ABIEncoderV2;\n\nimport {SafeMath} from \"../lib/SafeMath.sol\";\nimport {DecimalMath} from \"../lib/DecimalMath.sol\";\nimport {Ownable} from \"../lib/Ownable.sol\";\nimport {SafeERC20} from \"../lib/SafeERC20.sol\";\nimport {IERC20} from \"../intf/IERC20.sol\";\n\n\n/**\n * @title LockedTokenVault\n * @author DODO Breeder\n *\n * @notice Lock Token and release it linearly\n */\n\ncontract LockedTokenVault is Ownable {\n    using SafeMath for uint256;\n    using SafeERC20 for IERC20;\n\n    address _TOKEN_;\n\n    mapping(address => uint256) internal originBalances;\n    mapping(address => uint256) internal claimedBalances;\n\n    uint256 public _UNDISTRIBUTED_AMOUNT_;\n    uint256 public _START_RELEASE_TIME_;\n    uint256 public _RELEASE_DURATION_;\n    uint256 public _CLIFF_RATE_;\n\n    bool public _DISTRIBUTE_FINISHED_;\n\n    // ============ Modifiers ============\n\n    event Claim(address indexed holder, uint256 origin, uint256 claimed, uint256 amount);\n\n    // ============ Modifiers ============\n\n    modifier beforeStartRelease() {\n        require(block.timestamp < _START_RELEASE_TIME_, \"RELEASE START\");\n        _;\n    }\n\n    modifier afterStartRelease() {\n        require(block.timestamp >= _START_RELEASE_TIME_, \"RELEASE NOT START\");\n        _;\n    }\n\n    modifier distributeNotFinished() {\n        require(!_DISTRIBUTE_FINISHED_, \"DISTRIBUTE FINISHED\");\n        _;\n    }\n\n    // ============ Init Functions ============\n\n    constructor(\n        address _token,\n        uint256 _startReleaseTime,\n        uint256 _releaseDuration,\n        uint256 _cliffRate\n    ) public {\n        _TOKEN_ = _token;\n        _START_RELEASE_TIME_ = _startReleaseTime;\n        _RELEASE_DURATION_ = _releaseDuration;\n        _CLIFF_RATE_ = _cliffRate;\n    }\n\n    function deposit(uint256 amount) external onlyOwner {\n        _tokenTransferIn(_OWNER_, amount);\n        _UNDISTRIBUTED_AMOUNT_ = _UNDISTRIBUTED_AMOUNT_.add(amount);\n    }\n\n    function withdraw(uint256 amount) external onlyOwner {\n        _UNDISTRIBUTED_AMOUNT_ = _UNDISTRIBUTED_AMOUNT_.sub(amount);\n        _tokenTransferOut(_OWNER_, amount);\n    }\n\n    function finishDistribute() external onlyOwner {\n        _DISTRIBUTE_FINISHED_ = true;\n    }\n\n    // ============ For Owner ============\n\n    function grant(address[] calldata holderList, uint256[] calldata amountList)\n        external\n        onlyOwner\n    {\n        require(holderList.length == amountList.length, \"batch grant length not match\");\n        uint256 amount = 0;\n        for (uint256 i = 0; i < holderList.length; ++i) {\n            // for saving gas, no event for grant\n            originBalances[holderList[i]] = originBalances[holderList[i]].add(amountList[i]);\n            amount = amount.add(amountList[i]);\n        }\n        _UNDISTRIBUTED_AMOUNT_ = _UNDISTRIBUTED_AMOUNT_.sub(amount);\n    }\n\n    function recall(address holder) external onlyOwner distributeNotFinished {\n        _UNDISTRIBUTED_AMOUNT_ = _UNDISTRIBUTED_AMOUNT_.add(originBalances[holder]).sub(\n            claimedBalances[holder]\n        );\n        originBalances[holder] = 0;\n        claimedBalances[holder] = 0;\n    }\n\n    // ============ For Holder ============\n\n    function transferLockedToken(address to) external {\n        originBalances[to] = originBalances[to].add(originBalances[msg.sender]);\n        claimedBalances[to] = claimedBalances[to].add(claimedBalances[msg.sender]);\n\n        originBalances[msg.sender] = 0;\n        claimedBalances[msg.sender] = 0;\n    }\n\n    function claim() external {\n        uint256 claimableToken = getClaimableBalance(msg.sender);\n        _tokenTransferOut(msg.sender, claimableToken);\n        claimedBalances[msg.sender] = claimedBalances[msg.sender].add(claimableToken);\n        emit Claim(\n            msg.sender,\n            originBalances[msg.sender],\n            claimedBalances[msg.sender],\n            claimableToken\n        );\n    }\n\n    // ============ View ============\n\n    function isReleaseStart() external view returns (bool) {\n        return block.timestamp >= _START_RELEASE_TIME_;\n    }\n\n    function getOriginBalance(address holder) external view returns (uint256) {\n        return originBalances[holder];\n    }\n\n    function getClaimedBalance(address holder) external view returns (uint256) {\n        return claimedBalances[holder];\n    }\n\n    function getClaimableBalance(address holder) public view returns (uint256) {\n        uint256 remainingToken = getRemainingBalance(holder);\n        return originBalances[holder].sub(remainingToken).sub(claimedBalances[holder]);\n    }\n\n    function getRemainingBalance(address holder) public view returns (uint256) {\n        uint256 remainingRatio = getRemainingRatio(block.timestamp);\n        return DecimalMath.mul(originBalances[holder], remainingRatio);\n    }\n\n    function getRemainingRatio(uint256 timestamp) public view returns (uint256) {\n        if (timestamp < _START_RELEASE_TIME_) {\n            return DecimalMath.ONE;\n        }\n        uint256 timePast = timestamp.sub(_START_RELEASE_TIME_);\n        if (timePast < _RELEASE_DURATION_) {\n            uint256 remainingTime = _RELEASE_DURATION_.sub(timePast);\n            return DecimalMath.ONE.sub(_CLIFF_RATE_).mul(remainingTime).div(_RELEASE_DURATION_);\n        } else {\n            return 0;\n        }\n    }\n\n    // ============ Internal Helper ============\n\n    function _tokenTransferIn(address from, uint256 amount) internal {\n        IERC20(_TOKEN_).safeTransferFrom(from, address(this), amount);\n    }\n\n    function _tokenTransferOut(address to, uint256 amount) internal {\n        IERC20(_TOKEN_).safeTransfer(to, amount);\n    }\n}\n",
  "sourcePath": "/Users/owen/Desktop/dodo/dodo-smart-contract/contracts/token/LockedTokenVault.sol",
  "compiler": {
    "name": "solc",
    "version": "0.6.9+commit.3e3065ac.Emscripten.clang"
  },
  "schemaVersion": "3.2.3",
  "updatedAt": "2020-11-06T08:03:35.742Z",
  "devdoc": {
    "author": "DODO Breeder",
    "methods": {},
    "title": "LockedTokenVault"
  },
  "userdoc": {
    "methods": {},
    "notice": "Lock Token and release it linearly"
  }
}