{
  "contractName": "MinimumOracle",
  "abi": [
    {
      "inputs": [],
      "stateMutability": "nonpayable",
      "type": "constructor"
    },
    {
      "anonymous": false,
      "inputs": [
        {
          "indexed": true,
          "internalType": "address",
          "name": "previousOwner",
          "type": "address"
        },
        {
          "indexed": true,
          "internalType": "address",
          "name": "newOwner",
          "type": "address"
        }
      ],
      "name": "OwnershipTransfer",
      "type": "event"
    },
    {
      "inputs": [],
      "name": "_OWNER_",
      "outputs": [
        {
          "internalType": "address",
          "name": "",
          "type": "address"
        }
      ],
      "stateMutability": "view",
      "type": "function"
    },
    {
      "inputs": [],
      "name": "tokenPrice",
      "outputs": [
        {
          "internalType": "uint256",
          "name": "",
          "type": "uint256"
        }
      ],
      "stateMutability": "view",
      "type": "function"
    },
    {
      "inputs": [
        {
          "internalType": "address",
          "name": "newOwner",
          "type": "address"
        }
      ],
      "name": "transferOwnership",
      "outputs": [],
      "stateMutability": "nonpayable",
      "type": "function"
    },
    {
      "inputs": [
        {
          "internalType": "uint256",
          "name": "newPrice",
          "type": "uint256"
        }
      ],
      "name": "setPrice",
      "outputs": [],
      "stateMutability": "nonpayable",
      "type": "function"
    },
    {
      "inputs": [],
      "name": "getPrice",
      "outputs": [
        {
          "internalType": "uint256",
          "name": "",
          "type": "uint256"
        }
      ],
      "stateMutability": "view",
      "type": "function"
    }
  ],
  "bytecode": "0x608060405234801561001057600080fd5b50600080546001600160a01b03191633178082556040516001600160a01b039190911691907f22500af037c600dd7b720644ab6e358635085601d9ac508ad83eb2d6b2d729ca908290a36102a0806100696000396000f3fe608060405234801561001057600080fd5b50600436106100575760003560e01c806316048bc41461005c5780637ff9b5961461007a57806391b7f5ed1461008f57806398d5fdca146100a4578063f2fde38b146100ac575b600080fd5b6100646100bf565b6040516100719190610203565b60405180910390f35b6100826100ce565b6040516100719190610261565b6100a261009d3660046101eb565b6100d4565b005b61008261010c565b6100a26100ba3660046101bd565b610112565b6000546001600160a01b031681565b60015481565b6000546001600160a01b031633146101075760405162461bcd60e51b81526004016100fe9061023e565b60405180910390fd5b600155565b60015490565b6000546001600160a01b0316331461013c5760405162461bcd60e51b81526004016100fe9061023e565b6001600160a01b0381166101625760405162461bcd60e51b81526004016100fe90610217565b600080546040516001600160a01b03808516939216917f22500af037c600dd7b720644ab6e358635085601d9ac508ad83eb2d6b2d729ca91a3600080546001600160a01b0319166001600160a01b0392909216919091179055565b6000602082840312156101ce578081fd5b81356001600160a01b03811681146101e4578182fd5b9392505050565b6000602082840312156101fc578081fd5b5035919050565b6001600160a01b0391909116815260200190565b6020808252600d908201526c24a72b20a624a22fa7aba722a960991b604082015260600190565b6020808252600990820152682727aa2fa7aba722a960b91b604082015260600190565b9081526020019056fea2646970667358221220c3a5edff3cea46018780be4a5f46fbf1a2761357373d836472ac7100d1d9c6c764736f6c63430006090033",
  "immutableReferences": {},
  "source": "/*\n\n    Copyright 2020 DODO ZOO.\n    SPDX-License-Identifier: Apache-2.0\n\n*/\n\npragma solidity 0.6.9;\npragma experimental ABIEncoderV2;\n\n\ninterface IMinimumOracle {\n    function getPrice() external view returns (uint256);\n\n    function setPrice(uint256 newPrice) external;\n\n    function transferOwnership(address newOwner) external;\n}\n\n\ncontract MinimumOracle {\n    address public _OWNER_;\n    uint256 public tokenPrice;\n\n    // ============ Events ============\n\n    event OwnershipTransfer(address indexed previousOwner, address indexed newOwner);\n\n    // ============ Modifiers ============\n\n    modifier onlyOwner() {\n        require(msg.sender == _OWNER_, \"NOT_OWNER\");\n        _;\n    }\n\n    // ============ Functions ============\n\n    constructor() public {\n        _OWNER_ = msg.sender;\n        emit OwnershipTransfer(address(0), _OWNER_);\n    }\n\n    function transferOwnership(address newOwner) external onlyOwner {\n        require(newOwner != address(0), \"INVALID_OWNER\");\n        emit OwnershipTransfer(_OWNER_, newOwner);\n        _OWNER_ = newOwner;\n    }\n\n    function setPrice(uint256 newPrice) external onlyOwner {\n        tokenPrice = newPrice;\n    }\n\n    function getPrice() external view returns (uint256) {\n        return tokenPrice;\n    }\n}\n",
  "sourcePath": "/Users/owen/Desktop/dodo/dodo-smart-contract/contracts/helper/MinimumOracle.sol",
  "compiler": {
    "name": "solc",
    "version": "0.6.9+commit.3e3065ac.Emscripten.clang"
  },
  "schemaVersion": "3.2.3",
  "updatedAt": "2020-11-06T08:03:35.511Z",
  "devdoc": {
    "methods": {}
  },
  "userdoc": {
    "methods": {}
  }
}