{
  "contractName": "MultiSigWalletWithTimelock",
  "abi": [
    {
      "inputs": [
        {
          "internalType": "address[]",
          "name": "_owners",
          "type": "address[]"
        },
        {
          "internalType": "uint256",
          "name": "_required",
          "type": "uint256"
        }
      ],
      "stateMutability": "nonpayable",
      "type": "constructor"
    },
    {
      "anonymous": false,
      "inputs": [
        {
          "indexed": true,
          "internalType": "address",
          "name": "sender",
          "type": "address"
        },
        {
          "indexed": true,
          "internalType": "uint256",
          "name": "transactionId",
          "type": "uint256"
        }
      ],
      "name": "Confirmation",
      "type": "event"
    },
    {
      "anonymous": false,
      "inputs": [
        {
          "indexed": true,
          "internalType": "address",
          "name": "sender",
          "type": "address"
        },
        {
          "indexed": false,
          "internalType": "uint256",
          "name": "value",
          "type": "uint256"
        }
      ],
      "name": "Deposit",
      "type": "event"
    },
    {
      "anonymous": false,
      "inputs": [
        {
          "indexed": true,
          "internalType": "uint256",
          "name": "transactionId",
          "type": "uint256"
        }
      ],
      "name": "Execution",
      "type": "event"
    },
    {
      "anonymous": false,
      "inputs": [
        {
          "indexed": true,
          "internalType": "uint256",
          "name": "transactionId",
          "type": "uint256"
        }
      ],
      "name": "ExecutionFailure",
      "type": "event"
    },
    {
      "anonymous": false,
      "inputs": [
        {
          "indexed": false,
          "internalType": "uint256",
          "name": "lockSeconds",
          "type": "uint256"
        }
      ],
      "name": "LockSecondsChange",
      "type": "event"
    },
    {
      "anonymous": false,
      "inputs": [
        {
          "indexed": true,
          "internalType": "address",
          "name": "owner",
          "type": "address"
        }
      ],
      "name": "OwnerAddition",
      "type": "event"
    },
    {
      "anonymous": false,
      "inputs": [
        {
          "indexed": true,
          "internalType": "address",
          "name": "owner",
          "type": "address"
        }
      ],
      "name": "OwnerRemoval",
      "type": "event"
    },
    {
      "anonymous": false,
      "inputs": [
        {
          "indexed": false,
          "internalType": "uint256",
          "name": "required",
          "type": "uint256"
        }
      ],
      "name": "RequirementChange",
      "type": "event"
    },
    {
      "anonymous": false,
      "inputs": [
        {
          "indexed": true,
          "internalType": "address",
          "name": "sender",
          "type": "address"
        },
        {
          "indexed": true,
          "internalType": "uint256",
          "name": "transactionId",
          "type": "uint256"
        }
      ],
      "name": "Revocation",
      "type": "event"
    },
    {
      "anonymous": false,
      "inputs": [
        {
          "indexed": true,
          "internalType": "uint256",
          "name": "transactionId",
          "type": "uint256"
        }
      ],
      "name": "Submission",
      "type": "event"
    },
    {
      "anonymous": false,
      "inputs": [
        {
          "indexed": true,
          "internalType": "uint256",
          "name": "transactionId",
          "type": "uint256"
        },
        {
          "indexed": false,
          "internalType": "uint256",
          "name": "confirmationTime",
          "type": "uint256"
        }
      ],
      "name": "UnlockTimeSet",
      "type": "event"
    },
    {
      "stateMutability": "payable",
      "type": "fallback"
    },
    {
      "inputs": [],
      "name": "MAX_OWNER_COUNT",
      "outputs": [
        {
          "internalType": "uint256",
          "name": "",
          "type": "uint256"
        }
      ],
      "stateMutability": "view",
      "type": "function"
    },
    {
      "inputs": [
        {
          "internalType": "uint256",
          "name": "",
          "type": "uint256"
        },
        {
          "internalType": "address",
          "name": "",
          "type": "address"
        }
      ],
      "name": "confirmations",
      "outputs": [
        {
          "internalType": "bool",
          "name": "",
          "type": "bool"
        }
      ],
      "stateMutability": "view",
      "type": "function"
    },
    {
      "inputs": [
        {
          "internalType": "uint256",
          "name": "",
          "type": "uint256"
        }
      ],
      "name": "emergencyCalls",
      "outputs": [
        {
          "internalType": "bytes32",
          "name": "selector",
          "type": "bytes32"
        },
        {
          "internalType": "uint256",
          "name": "paramsBytesCount",
          "type": "uint256"
        }
      ],
      "stateMutability": "view",
      "type": "function"
    },
    {
      "inputs": [
        {
          "internalType": "address",
          "name": "",
          "type": "address"
        }
      ],
      "name": "isOwner",
      "outputs": [
        {
          "internalType": "bool",
          "name": "",
          "type": "bool"
        }
      ],
      "stateMutability": "view",
      "type": "function"
    },
    {
      "inputs": [],
      "name": "lockSeconds",
      "outputs": [
        {
          "internalType": "uint256",
          "name": "",
          "type": "uint256"
        }
      ],
      "stateMutability": "view",
      "type": "function"
    },
    {
      "inputs": [
        {
          "internalType": "uint256",
          "name": "",
          "type": "uint256"
        }
      ],
      "name": "owners",
      "outputs": [
        {
          "internalType": "address",
          "name": "",
          "type": "address"
        }
      ],
      "stateMutability": "view",
      "type": "function"
    },
    {
      "inputs": [],
      "name": "required",
      "outputs": [
        {
          "internalType": "uint256",
          "name": "",
          "type": "uint256"
        }
      ],
      "stateMutability": "view",
      "type": "function"
    },
    {
      "inputs": [],
      "name": "transactionCount",
      "outputs": [
        {
          "internalType": "uint256",
          "name": "",
          "type": "uint256"
        }
      ],
      "stateMutability": "view",
      "type": "function"
    },
    {
      "inputs": [
        {
          "internalType": "uint256",
          "name": "",
          "type": "uint256"
        }
      ],
      "name": "transactions",
      "outputs": [
        {
          "internalType": "address",
          "name": "destination",
          "type": "address"
        },
        {
          "internalType": "uint256",
          "name": "value",
          "type": "uint256"
        },
        {
          "internalType": "bytes",
          "name": "data",
          "type": "bytes"
        },
        {
          "internalType": "bool",
          "name": "executed",
          "type": "bool"
        }
      ],
      "stateMutability": "view",
      "type": "function"
    },
    {
      "inputs": [
        {
          "internalType": "uint256",
          "name": "",
          "type": "uint256"
        }
      ],
      "name": "unlockTimes",
      "outputs": [
        {
          "internalType": "uint256",
          "name": "",
          "type": "uint256"
        }
      ],
      "stateMutability": "view",
      "type": "function"
    },
    {
      "stateMutability": "payable",
      "type": "receive"
    },
    {
      "inputs": [],
      "name": "getEmergencyCallsCount",
      "outputs": [
        {
          "internalType": "uint256",
          "name": "count",
          "type": "uint256"
        }
      ],
      "stateMutability": "view",
      "type": "function"
    },
    {
      "inputs": [
        {
          "internalType": "address",
          "name": "owner",
          "type": "address"
        }
      ],
      "name": "addOwner",
      "outputs": [],
      "stateMutability": "nonpayable",
      "type": "function"
    },
    {
      "inputs": [
        {
          "internalType": "address",
          "name": "owner",
          "type": "address"
        }
      ],
      "name": "removeOwner",
      "outputs": [],
      "stateMutability": "nonpayable",
      "type": "function"
    },
    {
      "inputs": [
        {
          "internalType": "address",
          "name": "owner",
          "type": "address"
        },
        {
          "internalType": "address",
          "name": "newOwner",
          "type": "address"
        }
      ],
      "name": "replaceOwner",
      "outputs": [],
      "stateMutability": "nonpayable",
      "type": "function"
    },
    {
      "inputs": [
        {
          "internalType": "uint256",
          "name": "_required",
          "type": "uint256"
        }
      ],
      "name": "changeRequirement",
      "outputs": [],
      "stateMutability": "nonpayable",
      "type": "function"
    },
    {
      "inputs": [
        {
          "internalType": "uint256",
          "name": "_lockSeconds",
          "type": "uint256"
        }
      ],
      "name": "changeLockSeconds",
      "outputs": [],
      "stateMutability": "nonpayable",
      "type": "function"
    },
    {
      "inputs": [
        {
          "internalType": "address",
          "name": "destination",
          "type": "address"
        },
        {
          "internalType": "uint256",
          "name": "value",
          "type": "uint256"
        },
        {
          "internalType": "bytes",
          "name": "data",
          "type": "bytes"
        }
      ],
      "name": "submitTransaction",
      "outputs": [
        {
          "internalType": "uint256",
          "name": "transactionId",
          "type": "uint256"
        }
      ],
      "stateMutability": "nonpayable",
      "type": "function"
    },
    {
      "inputs": [
        {
          "internalType": "uint256",
          "name": "transactionId",
          "type": "uint256"
        }
      ],
      "name": "confirmTransaction",
      "outputs": [],
      "stateMutability": "nonpayable",
      "type": "function"
    },
    {
      "inputs": [
        {
          "internalType": "string",
          "name": "funcName",
          "type": "string"
        },
        {
          "internalType": "uint256",
          "name": "_paramsBytesCount",
          "type": "uint256"
        }
      ],
      "name": "addEmergencyCall",
      "outputs": [],
      "stateMutability": "nonpayable",
      "type": "function"
    },
    {
      "inputs": [
        {
          "internalType": "uint256",
          "name": "transactionId",
          "type": "uint256"
        }
      ],
      "name": "revokeConfirmation",
      "outputs": [],
      "stateMutability": "nonpayable",
      "type": "function"
    },
    {
      "inputs": [
        {
          "internalType": "uint256",
          "name": "transactionId",
          "type": "uint256"
        }
      ],
      "name": "executeTransaction",
      "outputs": [],
      "stateMutability": "nonpayable",
      "type": "function"
    },
    {
      "inputs": [
        {
          "internalType": "uint256",
          "name": "transactionId",
          "type": "uint256"
        }
      ],
      "name": "isConfirmed",
      "outputs": [
        {
          "internalType": "bool",
          "name": "",
          "type": "bool"
        }
      ],
      "stateMutability": "view",
      "type": "function"
    },
    {
      "inputs": [
        {
          "internalType": "uint256",
          "name": "transactionId",
          "type": "uint256"
        }
      ],
      "name": "getConfirmationCount",
      "outputs": [
        {
          "internalType": "uint256",
          "name": "count",
          "type": "uint256"
        }
      ],
      "stateMutability": "view",
      "type": "function"
    },
    {
      "inputs": [
        {
          "internalType": "bool",
          "name": "pending",
          "type": "bool"
        },
        {
          "internalType": "bool",
          "name": "executed",
          "type": "bool"
        }
      ],
      "name": "getTransactionCount",
      "outputs": [
        {
          "internalType": "uint256",
          "name": "count",
          "type": "uint256"
        }
      ],
      "stateMutability": "view",
      "type": "function"
    },
    {
      "inputs": [],
      "name": "getOwners",
      "outputs": [
        {
          "internalType": "address[]",
          "name": "",
          "type": "address[]"
        }
      ],
      "stateMutability": "view",
      "type": "function"
    },
    {
      "inputs": [
        {
          "internalType": "uint256",
          "name": "transactionId",
          "type": "uint256"
        }
      ],
      "name": "getConfirmations",
      "outputs": [
        {
          "internalType": "address[]",
          "name": "_confirmations",
          "type": "address[]"
        }
      ],
      "stateMutability": "view",
      "type": "function"
    }
  ],
  "bytecode": "0x6080604052620151806000553480156200001857600080fd5b5060405162002359380380620023598339810160408190526200003b9162000367565b81518160328211806200004d57508181115b8062000057575080155b8062000061575081155b156200008a5760405162461bcd60e51b81526004016200008190620004b4565b60405180910390fd5b60005b84518110156200016f5760036000868381518110620000a857fe5b6020908102919091018101516001600160a01b031682528101919091526040016000205460ff168062000101575060006001600160a01b0316858281518110620000ee57fe5b60200260200101516001600160a01b0316145b15620001215760405162461bcd60e51b815260040162000081906200048f565b6001600360008784815181106200013457fe5b6020908102919091018101516001600160a01b03168252810191909152604001600020805460ff19169115159190911790556001016200008d565b50835162000185906005906020870190620002b5565b5060068390556040805180820190915260089080620001a76060820162000424565b60408051601f19818403018152918152815160209283012083526000928201839052845460018181018755958452928290208451600290940201928355920151920191909155805180820190915260089080620002076060820162000476565b60408051601f198184030181529181528151602092830120835291810182905283546001818101865560009586529482902084516002909202019081559201519190920155805180820190915260089080620002666060820162000440565b60408051601f1981840301815291815281516020928301208352918101919091528254600181810185556000948552938290208351600290920201908155910151910155506200051292505050565b8280548282559060005260206000209081019282156200030d579160200282015b828111156200030d57825182546001600160a01b0319166001600160a01b03909116178255602090920191600190910190620002d6565b506200031b9291506200031f565b5090565b6200034691905b808211156200031b5780546001600160a01b031916815560010162000326565b90565b80516001600160a01b03811681146200036157600080fd5b92915050565b600080604083850312156200037a578182fd5b82516001600160401b038082111562000391578384fd5b81850186601f820112620003a3578485fd5b8051925081831115620003b4578485fd5b60209150818302620003c8838201620004eb565b8481528381019083850183850186018b1015620003e3578889fd5b8894505b868510156200041157620003fc8b8262000349565b835260019490940193918501918501620003e7565b5097909301519698969750505050505050565b6f636c61696d4f776e657273686970282960801b815260100190565b7f7365744c697175696469747950726f7669646572466565526174652875696e748152633235362960e01b602082015260240190565b6c7365744b2875696e743235362960981b8152600d0190565b6020808252600b908201526a27aba722a92fa2a92927a960a91b604082015260600190565b60208082526017908201527f56414c49445f524551554952454d454e545f4552524f52000000000000000000604082015260600190565b6040518181016001600160401b03811182821017156200050a57600080fd5b604052919050565b611e3780620005226000396000f3fe6080604052600436106101855760003560e01c8063a0e67e2b116100d1578063c0af02271161008a578063dc8452cd11610064578063dc8452cd146104f7578063e20056e61461050c578063ee22610b1461052c578063f075fb901461054c576101d4565b8063c0af0227146104ad578063c6427474146104c2578063d74f8edd146104e2576101d4565b8063a0e67e2b14610401578063b5dc40c314610423578063b77bf60014610443578063ba51a6df14610458578063bfa6fddb14610478578063c01a8c841461048d576101d4565b80637065cb481161013e57806386384afc1161011857806386384afc146103635780638b51d13f146103915780638c22d5d3146103b15780639ace38c2146103d1576101d4565b80637065cb481461030357806376ac947a14610323578063784547a714610343576101d4565b8063025e7c2714610213578063173825d91461024957806320ea8d86146102695780632f54bf6e146102895780633411c81c146102b657806354741525146102d6576101d4565b366101d45734156101d257336001600160a01b03167fe1fffcc4923d04b559f4d29a8bfc6cda04eb5b0d3c460751c2402c5c5cc9109c346040516101c99190611dc8565b60405180910390a25b005b34156101d257336001600160a01b03167fe1fffcc4923d04b559f4d29a8bfc6cda04eb5b0d3c460751c2402c5c5cc9109c346040516101c99190611dc8565b34801561021f57600080fd5b5061023361022e366004611a59565b61056c565b6040516102409190611b20565b60405180910390f35b34801561025557600080fd5b506101d26102643660046118a9565b610593565b34801561027557600080fd5b506101d2610284366004611a59565b61071a565b34801561029557600080fd5b506102a96102a43660046118a9565b610809565b6040516102409190611bd2565b3480156102c257600080fd5b506102a96102d1366004611a71565b61081e565b3480156102e257600080fd5b506102f66102f1366004611990565b61083e565b6040516102409190611dc8565b34801561030f57600080fd5b506101d261031e3660046118a9565b6108aa565b34801561032f57600080fd5b506102f661033e366004611a59565b610a04565b34801561034f57600080fd5b506102a961035e366004611a59565b610a16565b34801561036f57600080fd5b5061038361037e366004611a59565b610aa0565b604051610240929190611bdd565b34801561039d57600080fd5b506102f66103ac366004611a59565b610acb565b3480156103bd57600080fd5b506101d26103cc366004611a59565b610b3a565b3480156103dd57600080fd5b506103f16103ec366004611a59565b610b99565b6040516102409493929190611b34565b34801561040d57600080fd5b50610416610c55565b6040516102409190611b85565b34801561042f57600080fd5b5061041661043e366004611a59565b610cb8565b34801561044f57600080fd5b506102f6610e5c565b34801561046457600080fd5b506101d2610473366004611a59565b610e62565b34801561048457600080fd5b506102f6610f04565b34801561049957600080fd5b506101d26104a8366004611a59565b610f0a565b3480156104b957600080fd5b506102f661108c565b3480156104ce57600080fd5b506102f66104dd3660046118ff565b611092565b3480156104ee57600080fd5b506102f6611202565b34801561050357600080fd5b506102f6611207565b34801561051857600080fd5b506101d26105273660046118cb565b61120d565b34801561053857600080fd5b506101d2610547366004611a59565b6113c3565b34801561055857600080fd5b506101d26105673660046119bb565b61155e565b6005818154811061057957fe5b6000918252602090912001546001600160a01b0316905081565b3330146105bb5760405162461bcd60e51b81526004016105b290611cb9565b60405180910390fd5b6001600160a01b038116600090815260036020526040902054819060ff166105f55760405162461bcd60e51b81526004016105b290611d10565b6001600160a01b0382166000908152600360205260408120805460ff191690555b600554600019018110156106c957826001600160a01b03166005828154811061063b57fe5b6000918252602090912001546001600160a01b031614156106c15760058054600019810190811061066857fe5b600091825260209091200154600580546001600160a01b03909216918390811061068e57fe5b9060005260206000200160006101000a8154816001600160a01b0302191690836001600160a01b031602179055506106c9565b600101610616565b5060055460065411156106e2576005546106e290610e62565b6040516001600160a01b038316907f8001553a916ef2f495d26a907cc54d96ed840d7bda71e73194bf5a9df7a76b9090600090a25050565b3360008181526003602052604090205460ff166107495760405162461bcd60e51b81526004016105b290611d10565b60008281526002602090815260408083203380855292529091205483919060ff166107865760405162461bcd60e51b81526004016105b290611beb565b600084815260016020526040902060030154849060ff16156107ba5760405162461bcd60e51b81526004016105b290611ce4565b6000858152600260209081526040808320338085529252808320805460ff191690555187927ff6a317157440607f36269043eb55f1287a5a19ba2216afeab88cd46cbcfb88e991a35050505050565b60036020526000908152604090205460ff1681565b600260209081526000928352604080842090915290825290205460ff1681565b6000805b6007548110156108a35783801561086b575060008181526001602052604090206003015460ff16155b8061088f575082801561088f575060008181526001602052604090206003015460ff165b1561089b576001820191505b600101610842565b5092915050565b3330146108c95760405162461bcd60e51b81526004016105b290611cb9565b6001600160a01b038116600090815260036020526040902054819060ff16156109045760405162461bcd60e51b81526004016105b290611c14565b816001600160a01b03811661092b5760405162461bcd60e51b81526004016105b290611d69565b600580549050600101600654603282118061094557508181115b8061094e575080155b80610957575081155b156109745760405162461bcd60e51b81526004016105b290611d91565b6001600160a01b038516600081815260036020526040808220805460ff1916600190811790915560058054918201815583527f036b6384b5eca791c62761152d0c79bb0604c104a5fb6f4eb0703f3154bb3db00180546001600160a01b03191684179055517ff39e6e1eb0edcf53c221607b54b00cd28f3196fed0a24994dc308b8f611b682d9190a25050505050565b60046020526000908152604090205481565b600080805b600554811015610a945760008481526002602052604081206005805491929184908110610a4457fe5b60009182526020808320909101546001600160a01b0316835282019290925260400190205460ff1615610a78576001820191505b6006548210610a8c57600192505050610a9b565b600101610a1b565b5060009150505b919050565b60088181548110610aad57fe5b60009182526020909120600290910201805460019091015490915082565b6000805b600554811015610b345760008381526002602052604081206005805491929184908110610af857fe5b60009182526020808320909101546001600160a01b0316835282019290925260400190205460ff1615610b2c576001820191505b600101610acf565b50919050565b333014610b595760405162461bcd60e51b81526004016105b290611cb9565b60008190556040517f884d6758bafbcb4b5e2e0393178ca1f3da3dd380a54ce05ab60aa59756db9dc190610b8e908390611dc8565b60405180910390a150565b6001602081815260009283526040928390208054818401546002808401805488516101009882161598909802600019011691909104601f81018690048602870186019097528686526001600160a01b039092169590949293830182828015610c425780601f10610c1757610100808354040283529160200191610c42565b820191906000526020600020905b815481529060010190602001808311610c2557829003601f168201915b5050506003909301549192505060ff1684565b60606005805480602002602001604051908101604052809291908181526020018280548015610cad57602002820191906000526020600020905b81546001600160a01b03168152600190910190602001808311610c8f575b505050505090505b90565b600554606090819067ffffffffffffffff81118015610cd657600080fd5b50604051908082528060200260200182016040528015610d00578160200160208202803683370190505b5090506000805b600554811015610dc35760008581526002602052604081206005805491929184908110610d3057fe5b60009182526020808320909101546001600160a01b0316835282019290925260400190205460ff1615610dbb5760058181548110610d6a57fe5b9060005260206000200160009054906101000a90046001600160a01b0316838381518110610d9457fe5b60200260200101906001600160a01b031690816001600160a01b0316815250506001820191505b600101610d07565b8167ffffffffffffffff81118015610dda57600080fd5b50604051908082528060200260200182016040528015610e04578160200160208202803683370190505b509350600090505b81811015610e5457828181518110610e2057fe5b6020026020010151848281518110610e3457fe5b6001600160a01b0390921660209283029190910190910152600101610e0c565b505050919050565b60075481565b333014610e815760405162461bcd60e51b81526004016105b290611cb9565b600554816032821180610e9357508181115b80610e9c575080155b80610ea5575081155b15610ec25760405162461bcd60e51b81526004016105b290611d91565b60068390556040517fa3f1ee9126a074d9326c682f561767f710e927faa811f7a99829d49dc421797a90610ef7908590611dc8565b60405180910390a1505050565b60005481565b3360008181526003602052604090205460ff16610f395760405162461bcd60e51b81526004016105b290611d10565b60008281526001602052604090205482906001600160a01b0316610f6f5760405162461bcd60e51b81526004016105b290611c82565b60008381526002602090815260408083203380855292529091205484919060ff1615610fad5760405162461bcd60e51b81526004016105b290611d3c565b6000858152600260209081526040808320338085529252808320805460ff191660011790555187927f4a504a94899432a9846e1aa406dceb1bcfd538bb839071d49d1e5e23f5be30ef91a361100185610a16565b80156110195750600085815260046020526040902054155b801561102b5750611029856115e2565b155b15611085576000805486825260046020526040918290204290910190819055905186907f280af6a3ba059a74f0e894262aa07f2c4d0de1e231882263c0d7dcda111b1a449061107b908490611dc8565b60405180910390a2505b5050505050565b60085490565b3360008181526003602052604081205490919060ff166110c45760405162461bcd60e51b81526004016105b290611d10565b856001600160a01b0381166110eb5760405162461bcd60e51b81526004016105b290611d69565b60075492506040518060800160405280886001600160a01b0316815260200187815260200186868080601f016020809104026020016040519081016040528093929190818152602001838380828437600092018290525093855250505060209182018190528581526001808352604091829020845181546001600160a01b0319166001600160a01b039091161781558484015191810191909155908301518051919261119f926002850192909101906117cd565b50606091909101516003909101805460ff191691151591909117905560078054600101905560405183907fc0ba8fe4b176c1714197d43b9cc6bcf797a4a7461c5fe8d0ef6e184ae7601e5190600090a26111f883610f0a565b5050949350505050565b603281565b60065481565b33301461122c5760405162461bcd60e51b81526004016105b290611cb9565b6001600160a01b038216600090815260036020526040902054829060ff166112665760405162461bcd60e51b81526004016105b290611d10565b6001600160a01b038216600090815260036020526040902054829060ff16156112a15760405162461bcd60e51b81526004016105b290611c14565b60005b60055481101561132957846001600160a01b0316600582815481106112c557fe5b6000918252602090912001546001600160a01b031614156113215783600582815481106112ee57fe5b9060005260206000200160006101000a8154816001600160a01b0302191690836001600160a01b03160217905550611329565b6001016112a4565b506001600160a01b03808516600081815260036020526040808220805460ff1990811690915593871682528082208054909416600117909355915190917f8001553a916ef2f495d26a907cc54d96ed840d7bda71e73194bf5a9df7a76b9091a26040516001600160a01b038416907ff39e6e1eb0edcf53c221607b54b00cd28f3196fed0a24994dc308b8f611b682d90600090a250505050565b3360008181526003602052604090205460ff166113f25760405162461bcd60e51b81526004016105b290611d10565b600082815260016020526040902060030154829060ff16156114265760405162461bcd60e51b81526004016105b290611ce4565b6000838152600460205260409020544210156114545760405162461bcd60e51b81526004016105b290611c4b565b61145d83610a16565b1561155957600083815260016020819052604080832060038101805460ff19168417905580549281015491519093926001600160a01b031691906114a5906002860190611a94565b60006040518083038185875af1925050503d80600081146114e2576040519150601f19603f3d011682016040523d82523d6000602084013e6114e7565b606091505b5050905080156115215760405185907f33e13ecb54c3076d8e8bb8c2881800a4d972b792045ffae98fdf46df365fed7590600090a2611085565b60405185907f526441bb6c1aba3c9a4a6ca1d6545da9c2333c8c48343ef398eb858d72b7923690600090a250600301805460ff191690555b505050565b33301461157d5760405162461bcd60e51b81526004016105b290611cb9565b600860405180604001604052808460405160200161159b9190611b04565b60408051601f198184030181529190528051602091820120825290810193909352815460018181018455600093845292849020825160029092020190815592015191015550565b60008181526001602081815260408084206002908101805483519581161561010002600019011691909104601f8101849004840285018401909252818452606093929091908301828280156116785780601f1061164d57610100808354040283529160200191611678565b820191906000526020600020905b81548152906001019060200180831161165b57829003601f168201915b50939450600093505050505b600854811015610a945761169661184b565b600882815481106116a357fe5b9060005260206000209060020201604051806040016040529081600082015481526020016001820154815250509050806020015160040183511480156116eb57506004835110155b801561171d5750826000815181106116ff57fe5b602091010151815160001a60f81b6001600160f81b03199081169116145b801561174f57508260018151811061173157fe5b602091010151815160011a60f81b6001600160f81b03199081169116145b801561178157508260028151811061176357fe5b602091010151815160021a60f81b6001600160f81b03199081169116145b80156117b357508260038151811061179557fe5b602091010151815160031a60f81b6001600160f81b03199081169116145b156117c45760019350505050610a9b565b50600101611684565b828054600181600116156101000203166002900490600052602060002090601f016020900481019282601f1061180e57805160ff191683800117855561183b565b8280016001018555821561183b579182015b8281111561183b578251825591602001919060010190611820565b50611847929150611862565b5090565b604080518082019091526000808252602082015290565b610cb591905b808211156118475760008155600101611868565b80356001600160a01b038116811461189357600080fd5b92915050565b8035801515811461189357600080fd5b6000602082840312156118ba578081fd5b6118c4838361187c565b9392505050565b600080604083850312156118dd578081fd5b6118e7848461187c565b91506118f6846020850161187c565b90509250929050565b60008060008060608587031215611914578182fd5b84356001600160a01b038116811461192a578283fd5b935060208501359250604085013567ffffffffffffffff8082111561194d578384fd5b81870188601f82011261195e578485fd5b803592508183111561196e578485fd5b88602084830101111561197f578485fd5b959894975050602090940194505050565b600080604083850312156119a2578182fd5b6119ac8484611899565b91506118f68460208501611899565b600080604083850312156119cd578182fd5b823567ffffffffffffffff808211156119e4578384fd5b81850186601f8201126119f5578485fd5b8035925081831115611a05578485fd5b6040516020601f8501601f1916820181018481118382101715611a26578788fd5b6040528482528285018101891015611a3c578687fd5b848184018284013793810184019590955250929593013593505050565b600060208284031215611a6a578081fd5b5035919050565b60008060408385031215611a83578182fd5b823591506118f6846020850161187c565b6000808354600180821660008114611ab35760018114611aca57611af9565b60ff198316865260028304607f1686019350611af9565b600283048786526020808720875b83811015611af15781548a820152908501908201611ad8565b505050860193505b509195945050505050565b60008251611b16818460208701611dd1565b9190910192915050565b6001600160a01b0391909116815260200190565b600060018060a01b0386168252846020830152608060408301528351806080840152611b678160a0850160208801611dd1565b921515606083015250601f91909101601f19160160a0019392505050565b6020808252825182820181905260009190848201906040850190845b81811015611bc65783516001600160a01b031683529284019291840191600101611ba1565b50909695505050505050565b901515815260200190565b918252602082015260400190565b6020808252600f908201526e21a7a72324a926a2a22fa2a92927a960891b604082015260600190565b6020808252601a908201527f4f574e45525f444f45535f4e4f545f45584953545f4552524f52000000000000604082015260600190565b6020808252601a908201527f5452414e53414354494f4e5f4e4545445f544f5f554e4c4f434b000000000000604082015260600190565b60208082526018908201527f5452414e53414354494f4e5f4558495354535f4552524f520000000000000000604082015260600190565b60208082526011908201527027a7262cafaba0a62622aa2fa2a92927a960791b604082015260600190565b6020808252601290820152712727aa2fa2ac22a1aaaa22a22fa2a92927a960711b604082015260600190565b60208082526012908201527127aba722a92fa2ac24a9aa29afa2a92927a960711b604082015260600190565b6020808252601390820152722727aa2fa1a7a72324a926a2a22fa2a92927a960691b604082015260600190565b6020808252600e908201526d2727aa2fa72aa6262fa2a92927a960911b604082015260600190565b60208082526017908201527f56414c49445f524551554952454d454e545f4552524f52000000000000000000604082015260600190565b90815260200190565b60005b83811015611dec578181015183820152602001611dd4565b83811115611dfb576000848401525b5050505056fea26469706673582212203d74ff7a7391bb0bef594d5f3bb61dffe44dc359928a4708db3053e543a82a4764736f6c63430006090033",
  "immutableReferences": {},
  "source": "/**\n *Submitted for verification at Bscscan.com on 2020-09-25\n */\n\n/*\n\n    Copyright 2020 DODO ZOO.\n    SPDX-License-Identifier: Apache-2.0\n\n*/\n\npragma solidity 0.6.9;\npragma experimental ABIEncoderV2;\n\n\ncontract MultiSigWalletWithTimelock {\n    uint256 public constant MAX_OWNER_COUNT = 50;\n    uint256 public lockSeconds = 86400;\n\n    event Confirmation(address indexed sender, uint256 indexed transactionId);\n    event Revocation(address indexed sender, uint256 indexed transactionId);\n    event Submission(uint256 indexed transactionId);\n    event Execution(uint256 indexed transactionId);\n    event ExecutionFailure(uint256 indexed transactionId);\n    event Deposit(address indexed sender, uint256 value);\n    event OwnerAddition(address indexed owner);\n    event OwnerRemoval(address indexed owner);\n    event RequirementChange(uint256 required);\n    event UnlockTimeSet(uint256 indexed transactionId, uint256 confirmationTime);\n    event LockSecondsChange(uint256 lockSeconds);\n\n    mapping(uint256 => Transaction) public transactions;\n    mapping(uint256 => mapping(address => bool)) public confirmations;\n    mapping(address => bool) public isOwner;\n    mapping(uint256 => uint256) public unlockTimes;\n\n    address[] public owners;\n    uint256 public required;\n    uint256 public transactionCount;\n\n    struct Transaction {\n        address destination;\n        uint256 value;\n        bytes data;\n        bool executed;\n    }\n\n    struct EmergencyCall {\n        bytes32 selector;\n        uint256 paramsBytesCount;\n    }\n\n    // Functions bypass the time lock process\n    EmergencyCall[] public emergencyCalls;\n\n    modifier onlyWallet() {\n        if (msg.sender != address(this)) revert(\"ONLY_WALLET_ERROR\");\n        _;\n    }\n\n    modifier ownerDoesNotExist(address owner) {\n        if (isOwner[owner]) revert(\"OWNER_DOES_NOT_EXIST_ERROR\");\n        _;\n    }\n\n    modifier ownerExists(address owner) {\n        if (!isOwner[owner]) revert(\"OWNER_EXISTS_ERROR\");\n        _;\n    }\n\n    modifier transactionExists(uint256 transactionId) {\n        if (transactions[transactionId].destination == address(0))\n            revert(\"TRANSACTION_EXISTS_ERROR\");\n        _;\n    }\n\n    modifier confirmed(uint256 transactionId, address owner) {\n        if (!confirmations[transactionId][owner]) revert(\"CONFIRMED_ERROR\");\n        _;\n    }\n\n    modifier notConfirmed(uint256 transactionId, address owner) {\n        if (confirmations[transactionId][owner]) revert(\"NOT_CONFIRMED_ERROR\");\n        _;\n    }\n\n    modifier notExecuted(uint256 transactionId) {\n        if (transactions[transactionId].executed) revert(\"NOT_EXECUTED_ERROR\");\n        _;\n    }\n\n    modifier notNull(address _address) {\n        if (_address == address(0)) revert(\"NOT_NULL_ERROR\");\n        _;\n    }\n\n    modifier validRequirement(uint256 ownerCount, uint256 _required) {\n        if (\n            ownerCount > MAX_OWNER_COUNT ||\n            _required > ownerCount ||\n            _required == 0 ||\n            ownerCount == 0\n        ) revert(\"VALID_REQUIREMENT_ERROR\");\n        _;\n    }\n\n    /** @dev Fallback function allows to deposit ether. */\n    fallback() external payable {\n        if (msg.value > 0) {\n            emit Deposit(msg.sender, msg.value);\n        }\n    }\n\n    receive() external payable {\n        if (msg.value > 0) {\n            emit Deposit(msg.sender, msg.value);\n        }\n    }\n\n    /** @dev Contract constructor sets initial owners and required number of confirmations.\n     * @param _owners List of initial owners.\n     * @param _required Number of required confirmations.\n     */\n    constructor(address[] memory _owners, uint256 _required)\n        public\n        validRequirement(_owners.length, _required)\n    {\n        for (uint256 i = 0; i < _owners.length; i++) {\n            if (isOwner[_owners[i]] || _owners[i] == address(0)) {\n                revert(\"OWNER_ERROR\");\n            }\n\n            isOwner[_owners[i]] = true;\n        }\n\n        owners = _owners;\n        required = _required;\n\n        // initialzie Emergency calls\n        emergencyCalls.push(\n            EmergencyCall({\n                selector: keccak256(abi.encodePacked(\"claimOwnership()\")),\n                paramsBytesCount: 0\n            })\n        );\n        emergencyCalls.push(\n            EmergencyCall({\n                selector: keccak256(abi.encodePacked(\"setK(uint256)\")),\n                paramsBytesCount: 64\n            })\n        );\n        emergencyCalls.push(\n            EmergencyCall({\n                selector: keccak256(abi.encodePacked(\"setLiquidityProviderFeeRate(uint256)\")),\n                paramsBytesCount: 64\n            })\n        );\n    }\n\n    function getEmergencyCallsCount() external view returns (uint256 count) {\n        return emergencyCalls.length;\n    }\n\n    /** @dev Allows to add a new owner. Transaction has to be sent by wallet.\n     * @param owner Address of new owner.\n     */\n    function addOwner(address owner)\n        external\n        onlyWallet\n        ownerDoesNotExist(owner)\n        notNull(owner)\n        validRequirement(owners.length + 1, required)\n    {\n        isOwner[owner] = true;\n        owners.push(owner);\n        emit OwnerAddition(owner);\n    }\n\n    /** @dev Allows to remove an owner. Transaction has to be sent by wallet.\n     * @param owner Address of owner.\n     */\n    function removeOwner(address owner) external onlyWallet ownerExists(owner) {\n        isOwner[owner] = false;\n        for (uint256 i = 0; i < owners.length - 1; i++) {\n            if (owners[i] == owner) {\n                owners[i] = owners[owners.length - 1];\n                break;\n            }\n        }\n\n        owners.pop;\n\n        if (required > owners.length) {\n            changeRequirement(owners.length);\n        }\n\n        emit OwnerRemoval(owner);\n    }\n\n    /** @dev Allows to replace an owner with a new owner. Transaction has to be sent by wallet.\n     * @param owner Address of owner to be replaced.\n     * @param owner Address of new owner.\n     */\n    function replaceOwner(address owner, address newOwner)\n        external\n        onlyWallet\n        ownerExists(owner)\n        ownerDoesNotExist(newOwner)\n    {\n        for (uint256 i = 0; i < owners.length; i++) {\n            if (owners[i] == owner) {\n                owners[i] = newOwner;\n                break;\n            }\n        }\n\n        isOwner[owner] = false;\n        isOwner[newOwner] = true;\n        emit OwnerRemoval(owner);\n        emit OwnerAddition(newOwner);\n    }\n\n    /** @dev Allows to change the number of required confirmations. Transaction has to be sent by wallet.\n     * @param _required Number of required confirmations.\n     */\n    function changeRequirement(uint256 _required)\n        public\n        onlyWallet\n        validRequirement(owners.length, _required)\n    {\n        required = _required;\n        emit RequirementChange(_required);\n    }\n\n    /** @dev Changes the duration of the time lock for transactions.\n     * @param _lockSeconds Duration needed after a transaction is confirmed and before it becomes executable, in seconds.\n     */\n    function changeLockSeconds(uint256 _lockSeconds) external onlyWallet {\n        lockSeconds = _lockSeconds;\n        emit LockSecondsChange(_lockSeconds);\n    }\n\n    /** @dev Allows an owner to submit and confirm a transaction.\n     * @param destination Transaction target address.\n     * @param value Transaction ether value.\n     * @param data Transaction data payload.\n     * @return transactionId Returns transaction ID.\n     */\n    function submitTransaction(\n        address destination,\n        uint256 value,\n        bytes calldata data\n    ) external ownerExists(msg.sender) notNull(destination) returns (uint256 transactionId) {\n        transactionId = transactionCount;\n        transactions[transactionId] = Transaction({\n            destination: destination,\n            value: value,\n            data: data,\n            executed: false\n        });\n        transactionCount += 1;\n        emit Submission(transactionId);\n        confirmTransaction(transactionId);\n    }\n\n    /** @dev Allows an owner to confirm a transaction.\n     * @param transactionId Transaction ID.\n     */\n    function confirmTransaction(uint256 transactionId)\n        public\n        ownerExists(msg.sender)\n        transactionExists(transactionId)\n        notConfirmed(transactionId, msg.sender)\n    {\n        confirmations[transactionId][msg.sender] = true;\n        emit Confirmation(msg.sender, transactionId);\n\n        if (\n            isConfirmed(transactionId) &&\n            unlockTimes[transactionId] == 0 &&\n            !isEmergencyCall(transactionId)\n        ) {\n            uint256 unlockTime = block.timestamp + lockSeconds;\n            unlockTimes[transactionId] = unlockTime;\n            emit UnlockTimeSet(transactionId, unlockTime);\n        }\n    }\n\n    function isEmergencyCall(uint256 transactionId) internal view returns (bool) {\n        bytes memory data = transactions[transactionId].data;\n\n        for (uint256 i = 0; i < emergencyCalls.length; i++) {\n            EmergencyCall memory emergencyCall = emergencyCalls[i];\n\n            if (\n                data.length == emergencyCall.paramsBytesCount + 4 &&\n                data.length >= 4 &&\n                emergencyCall.selector[0] == data[0] &&\n                emergencyCall.selector[1] == data[1] &&\n                emergencyCall.selector[2] == data[2] &&\n                emergencyCall.selector[3] == data[3]\n            ) {\n                return true;\n            }\n        }\n\n        return false;\n    }\n\n    function addEmergencyCall(string memory funcName, uint256 _paramsBytesCount) public onlyWallet {\n        emergencyCalls.push(\n            EmergencyCall({\n                selector: keccak256(abi.encodePacked(funcName)),\n                paramsBytesCount: _paramsBytesCount\n            })\n        );\n    }\n\n    /** @dev Allows an owner to revoke a confirmation for a transaction.\n     * @param transactionId Transaction ID.\n     */\n    function revokeConfirmation(uint256 transactionId)\n        external\n        ownerExists(msg.sender)\n        confirmed(transactionId, msg.sender)\n        notExecuted(transactionId)\n    {\n        confirmations[transactionId][msg.sender] = false;\n        emit Revocation(msg.sender, transactionId);\n    }\n\n    /** @dev Allows anyone to execute a confirmed transaction.\n     * @param transactionId Transaction ID.\n     */\n    function executeTransaction(uint256 transactionId)\n        external\n        ownerExists(msg.sender)\n        notExecuted(transactionId)\n    {\n        require(block.timestamp >= unlockTimes[transactionId], \"TRANSACTION_NEED_TO_UNLOCK\");\n\n        if (isConfirmed(transactionId)) {\n            Transaction storage transaction = transactions[transactionId];\n            transaction.executed = true;\n            (bool success, ) = transaction.destination.call{value: transaction.value}(\n                transaction.data\n            );\n            if (success) emit Execution(transactionId);\n            else {\n                emit ExecutionFailure(transactionId);\n                transaction.executed = false;\n            }\n        }\n    }\n\n    /** @dev Returns the confirmation status of a transaction.\n     * @param transactionId Transaction ID.\n     * @return Confirmation status.\n     */\n    function isConfirmed(uint256 transactionId) public view returns (bool) {\n        uint256 count = 0;\n\n        for (uint256 i = 0; i < owners.length; i++) {\n            if (confirmations[transactionId][owners[i]]) {\n                count += 1;\n            }\n\n            if (count >= required) {\n                return true;\n            }\n        }\n\n        return false;\n    }\n\n    /* Web3 call functions */\n\n    /** @dev Returns number of confirmations of a transaction.\n     * @param transactionId Transaction ID.\n     * @return count Number of confirmations.\n     */\n    function getConfirmationCount(uint256 transactionId) external view returns (uint256 count) {\n        for (uint256 i = 0; i < owners.length; i++) {\n            if (confirmations[transactionId][owners[i]]) {\n                count += 1;\n            }\n        }\n    }\n\n    /** @dev Returns total number of transactions after filers are applied.\n     * @param pending Include pending transactions.\n     * @param executed Include executed transactions.\n     * @return count Total number of transactions after filters are applied.\n     */\n    function getTransactionCount(bool pending, bool executed)\n        external\n        view\n        returns (uint256 count)\n    {\n        for (uint256 i = 0; i < transactionCount; i++) {\n            if ((pending && !transactions[i].executed) || (executed && transactions[i].executed)) {\n                count += 1;\n            }\n        }\n    }\n\n    /** @dev Returns list of owners.\n     * @return List of owner addresses.\n     */\n    function getOwners() external view returns (address[] memory) {\n        return owners;\n    }\n\n    /** @dev Returns array with owner addresses, which confirmed transaction.\n     * @param transactionId Transaction ID.\n     * @return _confirmations Returns array of owner addresses.\n     */\n    function getConfirmations(uint256 transactionId)\n        external\n        view\n        returns (address[] memory _confirmations)\n    {\n        address[] memory confirmationsTemp = new address[](owners.length);\n        uint256 count = 0;\n        uint256 i;\n\n        for (i = 0; i < owners.length; i++) {\n            if (confirmations[transactionId][owners[i]]) {\n                confirmationsTemp[count] = owners[i];\n                count += 1;\n            }\n        }\n\n        _confirmations = new address[](count);\n\n        for (i = 0; i < count; i++) {\n            _confirmations[i] = confirmationsTemp[i];\n        }\n    }\n}\n",
  "sourcePath": "/Users/owen/Desktop/dodo/dodo-smart-contract/contracts/helper/MultiSig.sol",
  "compiler": {
    "name": "solc",
    "version": "0.6.9+commit.3e3065ac.Emscripten.clang"
  },
  "schemaVersion": "3.2.3",
  "updatedAt": "2020-11-06T08:03:35.513Z",
  "devdoc": {
    "methods": {
      "addOwner(address)": {
        "details": "Allows to add a new owner. Transaction has to be sent by wallet.",
        "params": {
          "owner": "Address of new owner."
        }
      },
      "changeLockSeconds(uint256)": {
        "details": "Changes the duration of the time lock for transactions.",
        "params": {
          "_lockSeconds": "Duration needed after a transaction is confirmed and before it becomes executable, in seconds."
        }
      },
      "changeRequirement(uint256)": {
        "details": "Allows to change the number of required confirmations. Transaction has to be sent by wallet.",
        "params": {
          "_required": "Number of required confirmations."
        }
      },
      "confirmTransaction(uint256)": {
        "details": "Allows an owner to confirm a transaction.",
        "params": {
          "transactionId": "Transaction ID."
        }
      },
      "constructor": {
        "details": "Contract constructor sets initial owners and required number of confirmations.",
        "params": {
          "_owners": "List of initial owners.",
          "_required": "Number of required confirmations."
        }
      },
      "executeTransaction(uint256)": {
        "details": "Allows anyone to execute a confirmed transaction.",
        "params": {
          "transactionId": "Transaction ID."
        }
      },
      "getConfirmationCount(uint256)": {
        "details": "Returns number of confirmations of a transaction.",
        "params": {
          "transactionId": "Transaction ID."
        },
        "returns": {
          "count": "Number of confirmations."
        }
      },
      "getConfirmations(uint256)": {
        "details": "Returns array with owner addresses, which confirmed transaction.",
        "params": {
          "transactionId": "Transaction ID."
        },
        "returns": {
          "_confirmations": "Returns array of owner addresses."
        }
      },
      "getOwners()": {
        "details": "Returns list of owners.",
        "returns": {
          "_0": "List of owner addresses."
        }
      },
      "getTransactionCount(bool,bool)": {
        "details": "Returns total number of transactions after filers are applied.",
        "params": {
          "executed": "Include executed transactions.",
          "pending": "Include pending transactions."
        },
        "returns": {
          "count": "Total number of transactions after filters are applied."
        }
      },
      "isConfirmed(uint256)": {
        "details": "Returns the confirmation status of a transaction.",
        "params": {
          "transactionId": "Transaction ID."
        },
        "returns": {
          "_0": "Confirmation status."
        }
      },
      "removeOwner(address)": {
        "details": "Allows to remove an owner. Transaction has to be sent by wallet.",
        "params": {
          "owner": "Address of owner."
        }
      },
      "replaceOwner(address,address)": {
        "details": "Allows to replace an owner with a new owner. Transaction has to be sent by wallet.",
        "params": {
          "owner": "Address of new owner."
        }
      },
      "revokeConfirmation(uint256)": {
        "details": "Allows an owner to revoke a confirmation for a transaction.",
        "params": {
          "transactionId": "Transaction ID."
        }
      },
      "submitTransaction(address,uint256,bytes)": {
        "details": "Allows an owner to submit and confirm a transaction.",
        "params": {
          "data": "Transaction data payload.",
          "destination": "Transaction target address.",
          "value": "Transaction ether value."
        },
        "returns": {
          "transactionId": "Returns transaction ID."
        }
      }
    }
  },
  "userdoc": {
    "methods": {}
  }
}