{
  "contractName": "Pricing",
  "abi": [
    {
      "anonymous": false,
      "inputs": [
        {
          "indexed": true,
          "internalType": "address",
          "name": "previousOwner",
          "type": "address"
        },
        {
          "indexed": true,
          "internalType": "address",
          "name": "newOwner",
          "type": "address"
        }
      ],
      "name": "OwnershipTransferPrepared",
      "type": "event"
    },
    {
      "anonymous": false,
      "inputs": [
        {
          "indexed": true,
          "internalType": "address",
          "name": "previousOwner",
          "type": "address"
        },
        {
          "indexed": true,
          "internalType": "address",
          "name": "newOwner",
          "type": "address"
        }
      ],
      "name": "OwnershipTransferred",
      "type": "event"
    },
    {
      "inputs": [],
      "name": "_BASE_BALANCE_",
      "outputs": [
        {
          "internalType": "uint256",
          "name": "",
          "type": "uint256"
        }
      ],
      "stateMutability": "view",
      "type": "function"
    },
    {
      "inputs": [],
      "name": "_BASE_BALANCE_LIMIT_",
      "outputs": [
        {
          "internalType": "uint256",
          "name": "",
          "type": "uint256"
        }
      ],
      "stateMutability": "view",
      "type": "function"
    },
    {
      "inputs": [],
      "name": "_BASE_CAPITAL_RECEIVE_QUOTE_",
      "outputs": [
        {
          "internalType": "uint256",
          "name": "",
          "type": "uint256"
        }
      ],
      "stateMutability": "view",
      "type": "function"
    },
    {
      "inputs": [],
      "name": "_BASE_CAPITAL_TOKEN_",
      "outputs": [
        {
          "internalType": "address",
          "name": "",
          "type": "address"
        }
      ],
      "stateMutability": "view",
      "type": "function"
    },
    {
      "inputs": [],
      "name": "_BASE_TOKEN_",
      "outputs": [
        {
          "internalType": "address",
          "name": "",
          "type": "address"
        }
      ],
      "stateMutability": "view",
      "type": "function"
    },
    {
      "inputs": [],
      "name": "_BUYING_ALLOWED_",
      "outputs": [
        {
          "internalType": "bool",
          "name": "",
          "type": "bool"
        }
      ],
      "stateMutability": "view",
      "type": "function"
    },
    {
      "inputs": [
        {
          "internalType": "address",
          "name": "",
          "type": "address"
        }
      ],
      "name": "_CLAIMED_",
      "outputs": [
        {
          "internalType": "bool",
          "name": "",
          "type": "bool"
        }
      ],
      "stateMutability": "view",
      "type": "function"
    },
    {
      "inputs": [],
      "name": "_CLOSED_",
      "outputs": [
        {
          "internalType": "bool",
          "name": "",
          "type": "bool"
        }
      ],
      "stateMutability": "view",
      "type": "function"
    },
    {
      "inputs": [],
      "name": "_DEPOSIT_BASE_ALLOWED_",
      "outputs": [
        {
          "internalType": "bool",
          "name": "",
          "type": "bool"
        }
      ],
      "stateMutability": "view",
      "type": "function"
    },
    {
      "inputs": [],
      "name": "_DEPOSIT_QUOTE_ALLOWED_",
      "outputs": [
        {
          "internalType": "bool",
          "name": "",
          "type": "bool"
        }
      ],
      "stateMutability": "view",
      "type": "function"
    },
    {
      "inputs": [],
      "name": "_GAS_PRICE_LIMIT_",
      "outputs": [
        {
          "internalType": "uint256",
          "name": "",
          "type": "uint256"
        }
      ],
      "stateMutability": "view",
      "type": "function"
    },
    {
      "inputs": [],
      "name": "_K_",
      "outputs": [
        {
          "internalType": "uint256",
          "name": "",
          "type": "uint256"
        }
      ],
      "stateMutability": "view",
      "type": "function"
    },
    {
      "inputs": [],
      "name": "_LP_FEE_RATE_",
      "outputs": [
        {
          "internalType": "uint256",
          "name": "",
          "type": "uint256"
        }
      ],
      "stateMutability": "view",
      "type": "function"
    },
    {
      "inputs": [],
      "name": "_MAINTAINER_",
      "outputs": [
        {
          "internalType": "address",
          "name": "",
          "type": "address"
        }
      ],
      "stateMutability": "view",
      "type": "function"
    },
    {
      "inputs": [],
      "name": "_MT_FEE_RATE_",
      "outputs": [
        {
          "internalType": "uint256",
          "name": "",
          "type": "uint256"
        }
      ],
      "stateMutability": "view",
      "type": "function"
    },
    {
      "inputs": [],
      "name": "_NEW_OWNER_",
      "outputs": [
        {
          "internalType": "address",
          "name": "",
          "type": "address"
        }
      ],
      "stateMutability": "view",
      "type": "function"
    },
    {
      "inputs": [],
      "name": "_ORACLE_",
      "outputs": [
        {
          "internalType": "address",
          "name": "",
          "type": "address"
        }
      ],
      "stateMutability": "view",
      "type": "function"
    },
    {
      "inputs": [],
      "name": "_OWNER_",
      "outputs": [
        {
          "internalType": "address",
          "name": "",
          "type": "address"
        }
      ],
      "stateMutability": "view",
      "type": "function"
    },
    {
      "inputs": [],
      "name": "_QUOTE_BALANCE_",
      "outputs": [
        {
          "internalType": "uint256",
          "name": "",
          "type": "uint256"
        }
      ],
      "stateMutability": "view",
      "type": "function"
    },
    {
      "inputs": [],
      "name": "_QUOTE_BALANCE_LIMIT_",
      "outputs": [
        {
          "internalType": "uint256",
          "name": "",
          "type": "uint256"
        }
      ],
      "stateMutability": "view",
      "type": "function"
    },
    {
      "inputs": [],
      "name": "_QUOTE_CAPITAL_RECEIVE_BASE_",
      "outputs": [
        {
          "internalType": "uint256",
          "name": "",
          "type": "uint256"
        }
      ],
      "stateMutability": "view",
      "type": "function"
    },
    {
      "inputs": [],
      "name": "_QUOTE_CAPITAL_TOKEN_",
      "outputs": [
        {
          "internalType": "address",
          "name": "",
          "type": "address"
        }
      ],
      "stateMutability": "view",
      "type": "function"
    },
    {
      "inputs": [],
      "name": "_QUOTE_TOKEN_",
      "outputs": [
        {
          "internalType": "address",
          "name": "",
          "type": "address"
        }
      ],
      "stateMutability": "view",
      "type": "function"
    },
    {
      "inputs": [],
      "name": "_R_STATUS_",
      "outputs": [
        {
          "internalType": "enum Types.RStatus",
          "name": "",
          "type": "uint8"
        }
      ],
      "stateMutability": "view",
      "type": "function"
    },
    {
      "inputs": [],
      "name": "_SELLING_ALLOWED_",
      "outputs": [
        {
          "internalType": "bool",
          "name": "",
          "type": "bool"
        }
      ],
      "stateMutability": "view",
      "type": "function"
    },
    {
      "inputs": [],
      "name": "_SUPERVISOR_",
      "outputs": [
        {
          "internalType": "address",
          "name": "",
          "type": "address"
        }
      ],
      "stateMutability": "view",
      "type": "function"
    },
    {
      "inputs": [],
      "name": "_TARGET_BASE_TOKEN_AMOUNT_",
      "outputs": [
        {
          "internalType": "uint256",
          "name": "",
          "type": "uint256"
        }
      ],
      "stateMutability": "view",
      "type": "function"
    },
    {
      "inputs": [],
      "name": "_TARGET_QUOTE_TOKEN_AMOUNT_",
      "outputs": [
        {
          "internalType": "uint256",
          "name": "",
          "type": "uint256"
        }
      ],
      "stateMutability": "view",
      "type": "function"
    },
    {
      "inputs": [],
      "name": "_TRADE_ALLOWED_",
      "outputs": [
        {
          "internalType": "bool",
          "name": "",
          "type": "bool"
        }
      ],
      "stateMutability": "view",
      "type": "function"
    },
    {
      "inputs": [],
      "name": "claimOwnership",
      "outputs": [],
      "stateMutability": "nonpayable",
      "type": "function"
    },
    {
      "inputs": [
        {
          "internalType": "address",
          "name": "lp",
          "type": "address"
        }
      ],
      "name": "getBaseCapitalBalanceOf",
      "outputs": [
        {
          "internalType": "uint256",
          "name": "",
          "type": "uint256"
        }
      ],
      "stateMutability": "view",
      "type": "function"
    },
    {
      "inputs": [],
      "name": "getOraclePrice",
      "outputs": [
        {
          "internalType": "uint256",
          "name": "",
          "type": "uint256"
        }
      ],
      "stateMutability": "view",
      "type": "function"
    },
    {
      "inputs": [
        {
          "internalType": "address",
          "name": "lp",
          "type": "address"
        }
      ],
      "name": "getQuoteCapitalBalanceOf",
      "outputs": [
        {
          "internalType": "uint256",
          "name": "",
          "type": "uint256"
        }
      ],
      "stateMutability": "view",
      "type": "function"
    },
    {
      "inputs": [],
      "name": "getTotalBaseCapital",
      "outputs": [
        {
          "internalType": "uint256",
          "name": "",
          "type": "uint256"
        }
      ],
      "stateMutability": "view",
      "type": "function"
    },
    {
      "inputs": [],
      "name": "getTotalQuoteCapital",
      "outputs": [
        {
          "internalType": "uint256",
          "name": "",
          "type": "uint256"
        }
      ],
      "stateMutability": "view",
      "type": "function"
    },
    {
      "inputs": [
        {
          "internalType": "address",
          "name": "newOwner",
          "type": "address"
        }
      ],
      "name": "transferOwnership",
      "outputs": [],
      "stateMutability": "nonpayable",
      "type": "function"
    },
    {
      "inputs": [],
      "name": "version",
      "outputs": [
        {
          "internalType": "uint256",
          "name": "",
          "type": "uint256"
        }
      ],
      "stateMutability": "pure",
      "type": "function"
    },
    {
      "inputs": [],
      "name": "getExpectedTarget",
      "outputs": [
        {
          "internalType": "uint256",
          "name": "baseTarget",
          "type": "uint256"
        },
        {
          "internalType": "uint256",
          "name": "quoteTarget",
          "type": "uint256"
        }
      ],
      "stateMutability": "view",
      "type": "function"
    },
    {
      "inputs": [],
      "name": "getMidPrice",
      "outputs": [
        {
          "internalType": "uint256",
          "name": "midPrice",
          "type": "uint256"
        }
      ],
      "stateMutability": "view",
      "type": "function"
    }
  ],
  "bytecode": "0x608060405234801561001057600080fd5b50610ec7806100206000396000f3fe608060405234801561001057600080fd5b506004361061023d5760003560e01c80638456db151161013b578063c6b73cf9116100b8578063ec2fd46d1161007c578063ec2fd46d146103a7578063ee27c689146103af578063f2fde38b146103b7578063f67ed448146103ca578063ffa64225146103dd5761023d565b8063c6b73cf91461037f578063d4b9704614610387578063d689107c1461038f578063dd58b41c14610397578063eab5d20e1461039f5761023d565b8063ab44a7a3116100ff578063ab44a7a314610357578063ac1fbc981461035f578063b2094fd314610367578063c0ffa1781461036f578063c5bbffe8146103775761023d565b80638456db151461032f5780638ff5e742146103375780639b020fba1461033f578063a3161a5614610347578063a598aca71461034f5761023d565b80634a248d2a116101c95780636ec6a58d1161018d5780636ec6a58d146102fc57806373a2ab7c14610304578063796da7af1461030c5780637aed942d146103145780637c9b8e89146103275761023d565b80634a248d2a146102ba5780634de4527e146102c25780634e71e0c8146102ca57806354fd4d50146102d457806368be20ad146102dc5761023d565b806317be952e1161021057806317be952e14610285578063245c96851461029a5780632aa82c65146102a25780633960f142146102aa5780634322ec83146102b25761023d565b80630cd1667d146102425780630e6518e91461026057806316048bc4146102685780631769ddaa1461027d575b600080fd5b61024a6103f3565b6040516102579190610e7a565b60405180910390f35b61024a610476565b61027061047c565b6040516102579190610d45565b61024a61048b565b61028d610491565b6040516102579190610d64565b61024a61049a565b61024a6104a0565b6102706104e5565b6102706104f4565b610270610503565b61024a610512565b6102d2610518565b005b61024a6105af565b6102ef6102ea366004610d06565b6105b4565b6040516102579190610d59565b6102ef6105c9565b6102706105d9565b61024a6105e8565b61024a610322366004610d06565b61062d565b61024a6106b4565b6102706106ba565b6102ef6106c9565b61024a6106d7565b6102ef6106dd565b6102ef6106e6565b61024a6106f6565b6102706106fc565b61024a61070b565b61024a610711565b6102ef610717565b61024a610727565b61027061072d565b61027061073c565b6102ef61074b565b61024a61075b565b61024a610761565b61024a610767565b6102d26103c5366004610d06565b610864565b61024a6103d8366004610d06565b61090f565b6103e5610940565b604051610257929190610e83565b601354604080516318160ddd60e01b815290516000926001600160a01b0316916318160ddd916004808301926020929190829003018186803b15801561043857600080fd5b505afa15801561044c573d6000803e3d6000fd5b505050506040513d601f19601f820116820180604052508101906104709190610d2d565b90505b90565b60165481565b6000546001600160a01b031681565b60055481565b600e5460ff1681565b60105481565b601454604080516318160ddd60e01b815290516000926001600160a01b0316916318160ddd916004808301926020929190829003018186803b15801561043857600080fd5b6006546001600160a01b031681565b6007546001600160a01b031681565b6008546001600160a01b031681565b60025481565b6001546001600160a01b0316331461054b5760405162461bcd60e51b815260040161054290610d78565b60405180910390fd5b600154600080546040516001600160a01b0393841693909116917f8be0079c531659141344cd1fd0a4f28419497f9722a3daafe3b4186f6b6457e091a360018054600080546001600160a01b03199081166001600160a01b03841617909155169055565b606590565b60176020526000908152604090205460ff1681565b600154600160b01b900460ff1681565b600a546001600160a01b031681565b600a5460408051634c6afee560e11b815290516000926001600160a01b0316916398d5fdca916004808301926020929190829003018186803b15801561043857600080fd5b6013546040516370a0823160e01b81526000916001600160a01b0316906370a082319061065e908590600401610d45565b60206040518083038186803b15801561067657600080fd5b505afa15801561068a573d6000803e3d6000fd5b505050506040513d601f19601f820116820180604052508101906106ae9190610d2d565b92915050565b60125481565b6001546001600160a01b031681565b600354610100900460ff1681565b60045481565b60035460ff1681565b600154600160c01b900460ff1681565b600b5481565b6014546001600160a01b031681565b600f5481565b600c5481565b600154600160b81b900460ff1681565b60155481565b6009546001600160a01b031681565b6013546001600160a01b031681565b600154600160c81b900460ff1681565b60115481565b600d5481565b6000806000610774610940565b90925090506002600e5460ff16600281111561078c57fe5b141561081a5760006107c46107bc6012546107b08586610a0490919063ffffffff16565b9063ffffffff610a4516565b601254610a77565b90506107fd6107d5600d5483610a95565b600d546107f190670de0b6b3a76400009063ffffffff610ab716565b9063ffffffff610adf16565b905061081061080a6105e8565b82610a77565b9350505050610473565b60006108406108386011546107b08687610a0490919063ffffffff16565b601154610a77565b90506108516107d5600d5483610a95565b905061081061085e6105e8565b82610a95565b6000546001600160a01b0316331461088e5760405162461bcd60e51b815260040161054290610e11565b6001600160a01b0381166108b45760405162461bcd60e51b815260040161054290610dea565b600080546040516001600160a01b03808516939216917fdcf55418cee3220104fef63f979ff3c4097ad240c0c43dcb33ce837748983e6291a3600180546001600160a01b0319166001600160a01b0392909216919091179055565b6014546040516370a0823160e01b81526000916001600160a01b0316906370a082319061065e908590600401610d45565b601254601154600091829182600e5460ff16600281111561095d57fe5b141561097457600f54601054935093505050610a00565b6002600e5460ff16600281111561098757fe5b14156109b9576000610997610b04565b600f549091506109ad848363ffffffff610adf16565b94509450505050610a00565b6001600e5460ff1660028111156109cc57fe5b14156109fd5760006109dc610b6b565b90506109ee828263ffffffff610adf16565b60105494509450505050610a00565b50505b9091565b600082610a13575060006106ae565b82820282848281610a2057fe5b0414610a3e5760405162461bcd60e51b815260040161054290610e57565b9392505050565b6000808211610a665760405162461bcd60e51b815260040161054290610d9f565b818381610a6f57fe5b049392505050565b6000610a3e826107b085670de0b6b3a764000063ffffffff610a0416565b6000670de0b6b3a7640000610ab0848463ffffffff610a0416565b81610a6f57fe5b600082821115610ad95760405162461bcd60e51b815260040161054290610dc7565b50900390565b600082820183811015610a3e5760405162461bcd60e51b815260040161054290610e34565b600080610b1e600f54601154610ab790919063ffffffff16565b90506000610b2a6105e8565b90506000610b388383610a95565b90506000610b4b601254600d5484610bc9565b9050610b6260125482610ab790919063ffffffff16565b94505050505090565b600080610b85601054601254610ab790919063ffffffff16565b90506000610b916105e8565b90506000610b9f8383610a77565b90506000610bb2601154600d5484610bc9565b9050610b6260115482610ab790919063ffffffff16565b600080610bf0610bea6004610bde8787610a95565b9063ffffffff610a0416565b86610c78565b9050610c16610c11670de0b6b3a7640000610bde848263ffffffff610adf16565b610ca2565b90506000610c4b610c3583670de0b6b3a764000063ffffffff610ab716565b610c4687600263ffffffff610a0416565b610c78565b9050610c6e86610c69670de0b6b3a76400008463ffffffff610adf16565b610a95565b9695505050505050565b6000610a3e82610c9685670de0b6b3a764000063ffffffff610a0416565b9063ffffffff610cd916565b80600160028204015b81811015610cd357809150600281828581610cc257fe5b040181610ccb57fe5b049050610cab565b50919050565b600080610ce68484610a45565b905082810284038015610cfe575060010190506106ae565b5090506106ae565b600060208284031215610d17578081fd5b81356001600160a01b0381168114610a3e578182fd5b600060208284031215610d3e578081fd5b5051919050565b6001600160a01b0391909116815260200190565b901515815260200190565b6020810160038310610d7257fe5b91905290565b6020808252600d908201526c494e56414c49445f434c41494d60981b604082015260600190565b6020808252600e908201526d2224ab24a224a723afa2a92927a960911b604082015260600190565b60208082526009908201526829aaa12fa2a92927a960b91b604082015260600190565b6020808252600d908201526c24a72b20a624a22fa7aba722a960991b604082015260600190565b6020808252600990820152682727aa2fa7aba722a960b91b604082015260600190565b60208082526009908201526820a2222fa2a92927a960b91b604082015260600190565b60208082526009908201526826aaa62fa2a92927a960b91b604082015260600190565b90815260200190565b91825260208201526040019056fea264697066735822122015504639ba866f736aae2392c0b00473f18b005220704b493962a458c6d65db064736f6c63430006090033",
  "immutableReferences": {},
  "source": "/*\n\n    Copyright 2020 DODO ZOO.\n    SPDX-License-Identifier: Apache-2.0\n\n*/\n\npragma solidity 0.6.9;\npragma experimental ABIEncoderV2;\n\nimport {SafeMath} from \"../lib/SafeMath.sol\";\nimport {DecimalMath} from \"../lib/DecimalMath.sol\";\nimport {DODOMath} from \"../lib/DODOMath.sol\";\nimport {Types} from \"../lib/Types.sol\";\nimport {Storage} from \"./Storage.sol\";\n\n\n/**\n * @title Pricing\n * @author DODO Breeder\n *\n * @notice DODO Pricing model\n */\ncontract Pricing is Storage {\n    using SafeMath for uint256;\n\n    // ============ R = 1 cases ============\n\n    function _ROneSellBaseToken(uint256 amount, uint256 targetQuoteTokenAmount)\n        internal\n        view\n        returns (uint256 receiveQuoteToken)\n    {\n        uint256 i = getOraclePrice();\n        uint256 Q2 = DODOMath._SolveQuadraticFunctionForTrade(\n            targetQuoteTokenAmount,\n            targetQuoteTokenAmount,\n            DecimalMath.mul(i, amount),\n            false,\n            _K_\n        );\n        // in theory Q2 <= targetQuoteTokenAmount\n        // however when amount is close to 0, precision problems may cause Q2 > targetQuoteTokenAmount\n        return targetQuoteTokenAmount.sub(Q2);\n    }\n\n    function _ROneBuyBaseToken(uint256 amount, uint256 targetBaseTokenAmount)\n        internal\n        view\n        returns (uint256 payQuoteToken)\n    {\n        require(amount < targetBaseTokenAmount, \"DODO_BASE_BALANCE_NOT_ENOUGH\");\n        uint256 B2 = targetBaseTokenAmount.sub(amount);\n        payQuoteToken = _RAboveIntegrate(targetBaseTokenAmount, targetBaseTokenAmount, B2);\n        return payQuoteToken;\n    }\n\n    // ============ R < 1 cases ============\n\n    function _RBelowSellBaseToken(\n        uint256 amount,\n        uint256 quoteBalance,\n        uint256 targetQuoteAmount\n    ) internal view returns (uint256 receieQuoteToken) {\n        uint256 i = getOraclePrice();\n        uint256 Q2 = DODOMath._SolveQuadraticFunctionForTrade(\n            targetQuoteAmount,\n            quoteBalance,\n            DecimalMath.mul(i, amount),\n            false,\n            _K_\n        );\n        return quoteBalance.sub(Q2);\n    }\n\n    function _RBelowBuyBaseToken(\n        uint256 amount,\n        uint256 quoteBalance,\n        uint256 targetQuoteAmount\n    ) internal view returns (uint256 payQuoteToken) {\n        // Here we don't require amount less than some value\n        // Because it is limited at upper function\n        // See Trader.queryBuyBaseToken\n        uint256 i = getOraclePrice();\n        uint256 Q2 = DODOMath._SolveQuadraticFunctionForTrade(\n            targetQuoteAmount,\n            quoteBalance,\n            DecimalMath.mulCeil(i, amount),\n            true,\n            _K_\n        );\n        return Q2.sub(quoteBalance);\n    }\n\n    function _RBelowBackToOne() internal view returns (uint256 payQuoteToken) {\n        // important: carefully design the system to make sure spareBase always greater than or equal to 0\n        uint256 spareBase = _BASE_BALANCE_.sub(_TARGET_BASE_TOKEN_AMOUNT_);\n        uint256 price = getOraclePrice();\n        uint256 fairAmount = DecimalMath.mul(spareBase, price);\n        uint256 newTargetQuote = DODOMath._SolveQuadraticFunctionForTarget(\n            _QUOTE_BALANCE_,\n            _K_,\n            fairAmount\n        );\n        return newTargetQuote.sub(_QUOTE_BALANCE_);\n    }\n\n    // ============ R > 1 cases ============\n\n    function _RAboveBuyBaseToken(\n        uint256 amount,\n        uint256 baseBalance,\n        uint256 targetBaseAmount\n    ) internal view returns (uint256 payQuoteToken) {\n        require(amount < baseBalance, \"DODO_BASE_BALANCE_NOT_ENOUGH\");\n        uint256 B2 = baseBalance.sub(amount);\n        return _RAboveIntegrate(targetBaseAmount, baseBalance, B2);\n    }\n\n    function _RAboveSellBaseToken(\n        uint256 amount,\n        uint256 baseBalance,\n        uint256 targetBaseAmount\n    ) internal view returns (uint256 receiveQuoteToken) {\n        // here we don't require B1 <= targetBaseAmount\n        // Because it is limited at upper function\n        // See Trader.querySellBaseToken\n        uint256 B1 = baseBalance.add(amount);\n        return _RAboveIntegrate(targetBaseAmount, B1, baseBalance);\n    }\n\n    function _RAboveBackToOne() internal view returns (uint256 payBaseToken) {\n        // important: carefully design the system to make sure spareBase always greater than or equal to 0\n        uint256 spareQuote = _QUOTE_BALANCE_.sub(_TARGET_QUOTE_TOKEN_AMOUNT_);\n        uint256 price = getOraclePrice();\n        uint256 fairAmount = DecimalMath.divFloor(spareQuote, price);\n        uint256 newTargetBase = DODOMath._SolveQuadraticFunctionForTarget(\n            _BASE_BALANCE_,\n            _K_,\n            fairAmount\n        );\n        return newTargetBase.sub(_BASE_BALANCE_);\n    }\n\n    // ============ Helper functions ============\n\n    function getExpectedTarget() public view returns (uint256 baseTarget, uint256 quoteTarget) {\n        uint256 Q = _QUOTE_BALANCE_;\n        uint256 B = _BASE_BALANCE_;\n        if (_R_STATUS_ == Types.RStatus.ONE) {\n            return (_TARGET_BASE_TOKEN_AMOUNT_, _TARGET_QUOTE_TOKEN_AMOUNT_);\n        } else if (_R_STATUS_ == Types.RStatus.BELOW_ONE) {\n            uint256 payQuoteToken = _RBelowBackToOne();\n            return (_TARGET_BASE_TOKEN_AMOUNT_, Q.add(payQuoteToken));\n        } else if (_R_STATUS_ == Types.RStatus.ABOVE_ONE) {\n            uint256 payBaseToken = _RAboveBackToOne();\n            return (B.add(payBaseToken), _TARGET_QUOTE_TOKEN_AMOUNT_);\n        }\n    }\n\n    function getMidPrice() public view returns (uint256 midPrice) {\n        (uint256 baseTarget, uint256 quoteTarget) = getExpectedTarget();\n        if (_R_STATUS_ == Types.RStatus.BELOW_ONE) {\n            uint256 R = DecimalMath.divFloor(\n                quoteTarget.mul(quoteTarget).div(_QUOTE_BALANCE_),\n                _QUOTE_BALANCE_\n            );\n            R = DecimalMath.ONE.sub(_K_).add(DecimalMath.mul(_K_, R));\n            return DecimalMath.divFloor(getOraclePrice(), R);\n        } else {\n            uint256 R = DecimalMath.divFloor(\n                baseTarget.mul(baseTarget).div(_BASE_BALANCE_),\n                _BASE_BALANCE_\n            );\n            R = DecimalMath.ONE.sub(_K_).add(DecimalMath.mul(_K_, R));\n            return DecimalMath.mul(getOraclePrice(), R);\n        }\n    }\n\n    function _RAboveIntegrate(\n        uint256 B0,\n        uint256 B1,\n        uint256 B2\n    ) internal view returns (uint256) {\n        uint256 i = getOraclePrice();\n        return DODOMath._GeneralIntegrate(B0, B1, B2, i, _K_);\n    }\n\n    // function _RBelowIntegrate(\n    //     uint256 Q0,\n    //     uint256 Q1,\n    //     uint256 Q2\n    // ) internal view returns (uint256) {\n    //     uint256 i = getOraclePrice();\n    //     i = DecimalMath.divFloor(DecimalMath.ONE, i); // 1/i\n    //     return DODOMath._GeneralIntegrate(Q0, Q1, Q2, i, _K_);\n    // }\n}\n",
  "sourcePath": "/Users/owen/Desktop/dodo/dodo-smart-contract/contracts/impl/Pricing.sol",
  "compiler": {
    "name": "solc",
    "version": "0.6.9+commit.3e3065ac.Emscripten.clang"
  },
  "schemaVersion": "3.2.3",
  "updatedAt": "2020-11-06T08:03:35.692Z",
  "devdoc": {
    "author": "DODO Breeder",
    "methods": {},
    "title": "Pricing"
  },
  "userdoc": {
    "methods": {},
    "notice": "DODO Pricing model"
  }
}