{
  "contractName": "Settlement",
  "abi": [
    {
      "anonymous": false,
      "inputs": [
        {
          "indexed": true,
          "internalType": "address",
          "name": "user",
          "type": "address"
        },
        {
          "indexed": false,
          "internalType": "uint256",
          "name": "baseTokenAmount",
          "type": "uint256"
        },
        {
          "indexed": false,
          "internalType": "uint256",
          "name": "quoteTokenAmount",
          "type": "uint256"
        }
      ],
      "name": "ClaimAssets",
      "type": "event"
    },
    {
      "anonymous": false,
      "inputs": [
        {
          "indexed": false,
          "internalType": "uint256",
          "name": "amount",
          "type": "uint256"
        },
        {
          "indexed": false,
          "internalType": "bool",
          "name": "isBaseToken",
          "type": "bool"
        }
      ],
      "name": "Donate",
      "type": "event"
    },
    {
      "anonymous": false,
      "inputs": [
        {
          "indexed": true,
          "internalType": "address",
          "name": "previousOwner",
          "type": "address"
        },
        {
          "indexed": true,
          "internalType": "address",
          "name": "newOwner",
          "type": "address"
        }
      ],
      "name": "OwnershipTransferPrepared",
      "type": "event"
    },
    {
      "anonymous": false,
      "inputs": [
        {
          "indexed": true,
          "internalType": "address",
          "name": "previousOwner",
          "type": "address"
        },
        {
          "indexed": true,
          "internalType": "address",
          "name": "newOwner",
          "type": "address"
        }
      ],
      "name": "OwnershipTransferred",
      "type": "event"
    },
    {
      "inputs": [],
      "name": "_BASE_BALANCE_",
      "outputs": [
        {
          "internalType": "uint256",
          "name": "",
          "type": "uint256"
        }
      ],
      "stateMutability": "view",
      "type": "function"
    },
    {
      "inputs": [],
      "name": "_BASE_BALANCE_LIMIT_",
      "outputs": [
        {
          "internalType": "uint256",
          "name": "",
          "type": "uint256"
        }
      ],
      "stateMutability": "view",
      "type": "function"
    },
    {
      "inputs": [],
      "name": "_BASE_CAPITAL_RECEIVE_QUOTE_",
      "outputs": [
        {
          "internalType": "uint256",
          "name": "",
          "type": "uint256"
        }
      ],
      "stateMutability": "view",
      "type": "function"
    },
    {
      "inputs": [],
      "name": "_BASE_CAPITAL_TOKEN_",
      "outputs": [
        {
          "internalType": "address",
          "name": "",
          "type": "address"
        }
      ],
      "stateMutability": "view",
      "type": "function"
    },
    {
      "inputs": [],
      "name": "_BASE_TOKEN_",
      "outputs": [
        {
          "internalType": "address",
          "name": "",
          "type": "address"
        }
      ],
      "stateMutability": "view",
      "type": "function"
    },
    {
      "inputs": [],
      "name": "_BUYING_ALLOWED_",
      "outputs": [
        {
          "internalType": "bool",
          "name": "",
          "type": "bool"
        }
      ],
      "stateMutability": "view",
      "type": "function"
    },
    {
      "inputs": [
        {
          "internalType": "address",
          "name": "",
          "type": "address"
        }
      ],
      "name": "_CLAIMED_",
      "outputs": [
        {
          "internalType": "bool",
          "name": "",
          "type": "bool"
        }
      ],
      "stateMutability": "view",
      "type": "function"
    },
    {
      "inputs": [],
      "name": "_CLOSED_",
      "outputs": [
        {
          "internalType": "bool",
          "name": "",
          "type": "bool"
        }
      ],
      "stateMutability": "view",
      "type": "function"
    },
    {
      "inputs": [],
      "name": "_DEPOSIT_BASE_ALLOWED_",
      "outputs": [
        {
          "internalType": "bool",
          "name": "",
          "type": "bool"
        }
      ],
      "stateMutability": "view",
      "type": "function"
    },
    {
      "inputs": [],
      "name": "_DEPOSIT_QUOTE_ALLOWED_",
      "outputs": [
        {
          "internalType": "bool",
          "name": "",
          "type": "bool"
        }
      ],
      "stateMutability": "view",
      "type": "function"
    },
    {
      "inputs": [],
      "name": "_GAS_PRICE_LIMIT_",
      "outputs": [
        {
          "internalType": "uint256",
          "name": "",
          "type": "uint256"
        }
      ],
      "stateMutability": "view",
      "type": "function"
    },
    {
      "inputs": [],
      "name": "_K_",
      "outputs": [
        {
          "internalType": "uint256",
          "name": "",
          "type": "uint256"
        }
      ],
      "stateMutability": "view",
      "type": "function"
    },
    {
      "inputs": [],
      "name": "_LP_FEE_RATE_",
      "outputs": [
        {
          "internalType": "uint256",
          "name": "",
          "type": "uint256"
        }
      ],
      "stateMutability": "view",
      "type": "function"
    },
    {
      "inputs": [],
      "name": "_MAINTAINER_",
      "outputs": [
        {
          "internalType": "address",
          "name": "",
          "type": "address"
        }
      ],
      "stateMutability": "view",
      "type": "function"
    },
    {
      "inputs": [],
      "name": "_MT_FEE_RATE_",
      "outputs": [
        {
          "internalType": "uint256",
          "name": "",
          "type": "uint256"
        }
      ],
      "stateMutability": "view",
      "type": "function"
    },
    {
      "inputs": [],
      "name": "_NEW_OWNER_",
      "outputs": [
        {
          "internalType": "address",
          "name": "",
          "type": "address"
        }
      ],
      "stateMutability": "view",
      "type": "function"
    },
    {
      "inputs": [],
      "name": "_ORACLE_",
      "outputs": [
        {
          "internalType": "address",
          "name": "",
          "type": "address"
        }
      ],
      "stateMutability": "view",
      "type": "function"
    },
    {
      "inputs": [],
      "name": "_OWNER_",
      "outputs": [
        {
          "internalType": "address",
          "name": "",
          "type": "address"
        }
      ],
      "stateMutability": "view",
      "type": "function"
    },
    {
      "inputs": [],
      "name": "_QUOTE_BALANCE_",
      "outputs": [
        {
          "internalType": "uint256",
          "name": "",
          "type": "uint256"
        }
      ],
      "stateMutability": "view",
      "type": "function"
    },
    {
      "inputs": [],
      "name": "_QUOTE_BALANCE_LIMIT_",
      "outputs": [
        {
          "internalType": "uint256",
          "name": "",
          "type": "uint256"
        }
      ],
      "stateMutability": "view",
      "type": "function"
    },
    {
      "inputs": [],
      "name": "_QUOTE_CAPITAL_RECEIVE_BASE_",
      "outputs": [
        {
          "internalType": "uint256",
          "name": "",
          "type": "uint256"
        }
      ],
      "stateMutability": "view",
      "type": "function"
    },
    {
      "inputs": [],
      "name": "_QUOTE_CAPITAL_TOKEN_",
      "outputs": [
        {
          "internalType": "address",
          "name": "",
          "type": "address"
        }
      ],
      "stateMutability": "view",
      "type": "function"
    },
    {
      "inputs": [],
      "name": "_QUOTE_TOKEN_",
      "outputs": [
        {
          "internalType": "address",
          "name": "",
          "type": "address"
        }
      ],
      "stateMutability": "view",
      "type": "function"
    },
    {
      "inputs": [],
      "name": "_R_STATUS_",
      "outputs": [
        {
          "internalType": "enum Types.RStatus",
          "name": "",
          "type": "uint8"
        }
      ],
      "stateMutability": "view",
      "type": "function"
    },
    {
      "inputs": [],
      "name": "_SELLING_ALLOWED_",
      "outputs": [
        {
          "internalType": "bool",
          "name": "",
          "type": "bool"
        }
      ],
      "stateMutability": "view",
      "type": "function"
    },
    {
      "inputs": [],
      "name": "_SUPERVISOR_",
      "outputs": [
        {
          "internalType": "address",
          "name": "",
          "type": "address"
        }
      ],
      "stateMutability": "view",
      "type": "function"
    },
    {
      "inputs": [],
      "name": "_TARGET_BASE_TOKEN_AMOUNT_",
      "outputs": [
        {
          "internalType": "uint256",
          "name": "",
          "type": "uint256"
        }
      ],
      "stateMutability": "view",
      "type": "function"
    },
    {
      "inputs": [],
      "name": "_TARGET_QUOTE_TOKEN_AMOUNT_",
      "outputs": [
        {
          "internalType": "uint256",
          "name": "",
          "type": "uint256"
        }
      ],
      "stateMutability": "view",
      "type": "function"
    },
    {
      "inputs": [],
      "name": "_TRADE_ALLOWED_",
      "outputs": [
        {
          "internalType": "bool",
          "name": "",
          "type": "bool"
        }
      ],
      "stateMutability": "view",
      "type": "function"
    },
    {
      "inputs": [],
      "name": "claimOwnership",
      "outputs": [],
      "stateMutability": "nonpayable",
      "type": "function"
    },
    {
      "inputs": [
        {
          "internalType": "address",
          "name": "lp",
          "type": "address"
        }
      ],
      "name": "getBaseCapitalBalanceOf",
      "outputs": [
        {
          "internalType": "uint256",
          "name": "",
          "type": "uint256"
        }
      ],
      "stateMutability": "view",
      "type": "function"
    },
    {
      "inputs": [],
      "name": "getOraclePrice",
      "outputs": [
        {
          "internalType": "uint256",
          "name": "",
          "type": "uint256"
        }
      ],
      "stateMutability": "view",
      "type": "function"
    },
    {
      "inputs": [
        {
          "internalType": "address",
          "name": "lp",
          "type": "address"
        }
      ],
      "name": "getQuoteCapitalBalanceOf",
      "outputs": [
        {
          "internalType": "uint256",
          "name": "",
          "type": "uint256"
        }
      ],
      "stateMutability": "view",
      "type": "function"
    },
    {
      "inputs": [],
      "name": "getTotalBaseCapital",
      "outputs": [
        {
          "internalType": "uint256",
          "name": "",
          "type": "uint256"
        }
      ],
      "stateMutability": "view",
      "type": "function"
    },
    {
      "inputs": [],
      "name": "getTotalQuoteCapital",
      "outputs": [
        {
          "internalType": "uint256",
          "name": "",
          "type": "uint256"
        }
      ],
      "stateMutability": "view",
      "type": "function"
    },
    {
      "inputs": [
        {
          "internalType": "address",
          "name": "newOwner",
          "type": "address"
        }
      ],
      "name": "transferOwnership",
      "outputs": [],
      "stateMutability": "nonpayable",
      "type": "function"
    },
    {
      "inputs": [],
      "name": "version",
      "outputs": [
        {
          "internalType": "uint256",
          "name": "",
          "type": "uint256"
        }
      ],
      "stateMutability": "pure",
      "type": "function"
    },
    {
      "inputs": [
        {
          "internalType": "uint256",
          "name": "amount",
          "type": "uint256"
        }
      ],
      "name": "donateBaseToken",
      "outputs": [],
      "stateMutability": "nonpayable",
      "type": "function"
    },
    {
      "inputs": [
        {
          "internalType": "uint256",
          "name": "amount",
          "type": "uint256"
        }
      ],
      "name": "donateQuoteToken",
      "outputs": [],
      "stateMutability": "nonpayable",
      "type": "function"
    },
    {
      "inputs": [],
      "name": "finalSettlement",
      "outputs": [],
      "stateMutability": "nonpayable",
      "type": "function"
    },
    {
      "inputs": [],
      "name": "claimAssets",
      "outputs": [],
      "stateMutability": "nonpayable",
      "type": "function"
    },
    {
      "inputs": [
        {
          "internalType": "address",
          "name": "token",
          "type": "address"
        },
        {
          "internalType": "uint256",
          "name": "amount",
          "type": "uint256"
        }
      ],
      "name": "retrieve",
      "outputs": [],
      "stateMutability": "nonpayable",
      "type": "function"
    }
  ],
  "bytecode": "0x608060405234801561001057600080fd5b506117a8806100206000396000f3fe608060405234801561001057600080fd5b506004361061025e5760003560e01c80637c9b8e8911610146578063c3a2a665116100c3578063dd58b41c11610087578063dd58b41c146103ee578063eab5d20e146103f6578063ec2fd46d146103fe578063ed0aa42814610406578063f2fde38b14610419578063f67ed4481461042c5761025e565b8063c3a2a665146103bb578063c5bbffe8146103ce578063c6b73cf9146103d6578063d4b97046146103de578063d689107c146103e65761025e565b8063a598aca71161010a578063a598aca714610393578063ab44a7a31461039b578063ac1fbc98146103a3578063b2094fd3146103ab578063c0ffa178146103b35761025e565b80637c9b8e891461036b5780638456db15146103735780638ff5e7421461037b5780639b020fba14610383578063a3161a561461038b5761025e565b80634322ec83116101df578063648a4fac116101a3578063648a4fac1461031857806368be20ad146103205780636ec6a58d1461034057806373a2ab7c14610348578063796da7af146103505780637aed942d146103585761025e565b80634322ec83146102f05780634a248d2a146102f85780634de4527e146103005780634e71e0c81461030857806354fd4d50146103105761025e565b80631f3c156e116102265780631f3c156e146102bb578063245c9685146102c55780632aa82c65146102cd578063387b0c11146102d55780633960f142146102e85761025e565b80630cd1667d146102635780630e6518e91461028157806316048bc4146102895780631769ddaa1461029e57806317be952e146102a6575b600080fd5b61026b61043f565b604051610278919061174b565b60405180910390f35b61026b6104c1565b6102916104c7565b60405161027891906113e4565b61026b6104d6565b6102ae6104dc565b6040516102789190611440565b6102c36104e5565b005b61026b6107b1565b61026b6107b7565b6102c36102e336600461137b565b6107fc565b61029161085c565b61029161086b565b61029161087a565b61026b610889565b6102c361088f565b61026b61091d565b6102c3610922565b61033361032e366004611316565b610a3c565b6040516102789190611435565b610333610a51565b610291610a61565b61026b610a70565b61026b610366366004611316565b610ab5565b61026b610b3c565b610291610b42565b610333610b51565b61026b610b5f565b610333610b65565b610333610b6e565b61026b610b7e565b610291610b84565b61026b610b93565b61026b610b99565b6102c36103c9366004611331565b610b9f565b610333610d75565b61026b610d85565b610291610d8b565b610291610d9a565b610333610da9565b61026b610db9565b61026b610dbf565b6102c361041436600461137b565b610dc5565b6102c3610427366004611316565b610e15565b61026b61043a366004611316565b610ec0565b601354604080516318160ddd60e01b815290516000926001600160a01b0316916318160ddd916004808301926020929190829003018186803b15801561048457600080fd5b505afa158015610498573d6000803e3d6000fd5b505050506040513d601f19601f820116820180604052508101906104bc9190611393565b905090565b60165481565b6000546001600160a01b031681565b60055481565b600e5460ff1681565b600154600160a01b900460ff16156105185760405162461bcd60e51b815260040161050f906114b2565b60405180910390fd5b6001805460ff60a01b1916600160a01b1790819055600160b01b900460ff166105535760405162461bcd60e51b815260040161050f90611722565b3360009081526017602052604090205460ff16156105835760405162461bcd60e51b815260040161050f906116f9565b336000818152601760205260408120805460ff19166001179055906105a790610ec0565b905060006105b433610ab5565b9050600082156105eb576105e86105c96107b7565b6010546105dc908663ffffffff610ef116565b9063ffffffff610f3216565b90505b60008215610614576106116105fe61043f565b600f546105dc908663ffffffff610ef116565b90505b601054610627908363ffffffff610f6416565b601055600f5461063d908263ffffffff610f6416565b600f8190555061065f61065284601554610f8c565b839063ffffffff610fae16565b915061067d61067085601654610f8c565b829063ffffffff610fae16565b90506106893382610fd3565b610693338361100a565b601354604051632770a7eb60e21b81526001600160a01b0390911690639dc29fac906106c590339087906004016113f8565b600060405180830381600087803b1580156106df57600080fd5b505af11580156106f3573d6000803e3d6000fd5b5050601454604051632770a7eb60e21b81526001600160a01b039091169250639dc29fac915061072990339088906004016113f8565b600060405180830381600087803b15801561074357600080fd5b505af1158015610757573d6000803e3d6000fd5b50505050336001600160a01b03167fbe5f7fe66d16c6a87bb5b8b08a96634fe4f1c2bac9e5e413efe41a782d4d0c438284604051610796929190611764565b60405180910390a2505050506001805460ff60a01b19169055565b60105481565b601454604080516318160ddd60e01b815290516000926001600160a01b0316916318160ddd916004808301926020929190829003018186803b15801561048457600080fd5b600154600160a01b900460ff16156108265760405162461bcd60e51b815260040161050f906114b2565b6001805460ff60a01b1916600160a01b1790556108433382611041565b61084c816110a6565b506001805460ff60a01b19169055565b6006546001600160a01b031681565b6007546001600160a01b031681565b6008546001600160a01b031681565b60025481565b6001546001600160a01b031633146108b95760405162461bcd60e51b815260040161050f9061148b565b600154600080546040516001600160a01b0393841693909116917f8be0079c531659141344cd1fd0a4f28419497f9722a3daafe3b4186f6b6457e091a360018054600080546001600160a01b03199081166001600160a01b03841617909155169055565b606590565b6000546001600160a01b0316331461094c5760405162461bcd60e51b815260040161050f90611646565b600154600160b01b900460ff16156109765760405162461bcd60e51b815260040161050f90611621565b6001805462ffffff60b81b1960ff60b01b19909116600160b01b17169055600061099e61043f565b905060006109aa6107b7565b905060105460125411156109e65760006109d1601054601254610f6490919063ffffffff16565b90506109dd81846110fa565b601555506109ed565b6012546010555b600f546011541115610a27576000610a12600f54601154610f6490919063ffffffff16565b9050610a1e81836110fa565b60165550610a2e565b601154600f555b5050600e805460ff19169055565b60176020526000908152604090205460ff1681565b600154600160b01b900460ff1681565b600a546001600160a01b031681565b600a5460408051634c6afee560e11b815290516000926001600160a01b0316916398d5fdca916004808301926020929190829003018186803b15801561048457600080fd5b6013546040516370a0823160e01b81526000916001600160a01b0316906370a0823190610ae69085906004016113e4565b60206040518083038186803b158015610afe57600080fd5b505afa158015610b12573d6000803e3d6000fd5b505050506040513d601f19601f82011682018060405250810190610b369190611393565b92915050565b60125481565b6001546001600160a01b031681565b600354610100900460ff1681565b60045481565b60035460ff1681565b600154600160c01b900460ff1681565b600b5481565b6014546001600160a01b031681565b600f5481565b600c5481565b6000546001600160a01b03163314610bc95760405162461bcd60e51b815260040161050f90611646565b6008546001600160a01b0383811691161415610c9057601154610bf2908263ffffffff610fae16565b6008546040516370a0823160e01b81526001600160a01b03909116906370a0823190610c229030906004016113e4565b60206040518083038186803b158015610c3a57600080fd5b505afa158015610c4e573d6000803e3d6000fd5b505050506040513d601f19601f82011682018060405250810190610c729190611393565b1015610c905760405162461bcd60e51b815260040161050f906115c3565b6009546001600160a01b0383811691161415610d5757601254610cb9908263ffffffff610fae16565b6009546040516370a0823160e01b81526001600160a01b03909116906370a0823190610ce99030906004016113e4565b60206040518083038186803b158015610d0157600080fd5b505afa158015610d15573d6000803e3d6000fd5b505050506040513d601f19601f82011682018060405250810190610d399190611393565b1015610d575760405162461bcd60e51b815260040161050f90611454565b610d716001600160a01b038316338363ffffffff61111816565b5050565b600154600160b81b900460ff1681565b60155481565b6009546001600160a01b031681565b6013546001600160a01b031681565b600154600160c81b900460ff1681565b60115481565b600d5481565b600154600160a01b900460ff1615610def5760405162461bcd60e51b815260040161050f906114b2565b6001805460ff60a01b1916600160a01b179055610e0c3382611173565b61084c816111d8565b6000546001600160a01b03163314610e3f5760405162461bcd60e51b815260040161050f90611646565b6001600160a01b038116610e655760405162461bcd60e51b815260040161050f906115fa565b600080546040516001600160a01b03808516939216917fdcf55418cee3220104fef63f979ff3c4097ad240c0c43dcb33ce837748983e6291a3600180546001600160a01b0319166001600160a01b0392909216919091179055565b6014546040516370a0823160e01b81526000916001600160a01b0316906370a0823190610ae69085906004016113e4565b600082610f0057506000610b36565b82820282848281610f0d57fe5b0414610f2b5760405162461bcd60e51b815260040161050f906116d6565b9392505050565b6000808211610f535760405162461bcd60e51b815260040161050f90611541565b818381610f5c57fe5b049392505050565b600082821115610f865760405162461bcd60e51b815260040161050f906115a0565b50900390565b6000670de0b6b3a7640000610fa7848463ffffffff610ef116565b81610f5c57fe5b600082820183811015610f2b5760405162461bcd60e51b815260040161050f90611669565b600854610ff0906001600160a01b0316838363ffffffff61111816565b601154611003908263ffffffff610f6416565b6011555050565b600954611027906001600160a01b0316838363ffffffff61111816565b60125461103a908263ffffffff610f6416565b6012555050565b600554601254611057908363ffffffff610fae16565b11156110755760405162461bcd60e51b815260040161050f906114d5565b600954611093906001600160a01b031683308463ffffffff61122116565b60125461103a908263ffffffff610fae16565b6010546110b9908263ffffffff610fae16565b6010556040517fa259c93818139b6bc90fb80e8feb75122b42edaae49560f81392cf4e1946726e906110ef908390600090611754565b60405180910390a150565b6000610f2b826105dc85670de0b6b3a764000063ffffffff610ef116565b61116e8363a9059cbb60e01b84846040516024016111379291906113f8565b60408051601f198184030181529190526020810180516001600160e01b03166001600160e01b031990931692909217909152611248565b505050565b600454601154611189908363ffffffff610fae16565b11156111a75760405162461bcd60e51b815260040161050f90611569565b6008546111c5906001600160a01b031683308463ffffffff61122116565b601154611003908263ffffffff610fae16565b600f546111eb908263ffffffff610fae16565b600f556040517fa259c93818139b6bc90fb80e8feb75122b42edaae49560f81392cf4e1946726e906110ef908390600190611754565b611242846323b872dd60e01b85858560405160240161113793929190611411565b50505050565b60006060836001600160a01b03168360405161126491906113ab565b6000604051808303816000865af19150503d80600081146112a1576040519150601f19603f3d011682016040523d82523d6000602084013e6112a6565b606091505b5091509150816112c85760405162461bcd60e51b815260040161050f9061150c565b80511561124257808060200190518101906112e3919061135b565b6112425760405162461bcd60e51b815260040161050f9061168c565b80356001600160a01b0381168114610b3657600080fd5b600060208284031215611327578081fd5b610f2b83836112ff565b60008060408385031215611343578081fd5b61134d84846112ff565b946020939093013593505050565b60006020828403121561136c578081fd5b81518015158114610f2b578182fd5b60006020828403121561138c578081fd5b5035919050565b6000602082840312156113a4578081fd5b5051919050565b60008251815b818110156113cb57602081860181015185830152016113b1565b818111156113d95782828501525b509190910192915050565b6001600160a01b0391909116815260200190565b6001600160a01b03929092168252602082015260400190565b6001600160a01b039384168152919092166020820152604081019190915260600190565b901515815260200190565b602081016003831061144e57fe5b91905290565b6020808252601d908201527f444f444f5f51554f54455f42414c414e43455f4e4f545f454e4f554748000000604082015260600190565b6020808252600d908201526c494e56414c49445f434c41494d60981b604082015260600190565b60208082526009908201526814915153951490539560ba1b604082015260600190565b6020808252601c908201527f51554f54455f42414c414e43455f4c494d49545f455843454544454400000000604082015260600190565b6020808252818101527f5361666545524332303a206c6f772d6c6576656c2063616c6c206661696c6564604082015260600190565b6020808252600e908201526d2224ab24a224a723afa2a92927a960911b604082015260600190565b6020808252601b908201527f424153455f42414c414e43455f4c494d49545f45584345454445440000000000604082015260600190565b60208082526009908201526829aaa12fa2a92927a960b91b604082015260600190565b6020808252601c908201527f444f444f5f424153455f42414c414e43455f4e4f545f454e4f55474800000000604082015260600190565b6020808252600d908201526c24a72b20a624a22fa7aba722a960991b604082015260600190565b6020808252600b908201526a1113d113d7d0d313d4d15160aa1b604082015260600190565b6020808252600990820152682727aa2fa7aba722a960b91b604082015260600190565b60208082526009908201526820a2222fa2a92927a960b91b604082015260600190565b6020808252602a908201527f5361666545524332303a204552433230206f7065726174696f6e20646964206e6040820152691bdd081cdd58d8d9595960b21b606082015260800190565b60208082526009908201526826aaa62fa2a92927a960b91b604082015260600190565b6020808252600f908201526e1053149150511657d0d31052535151608a1b604082015260600190565b6020808252600f908201526e1113d113d7d393d517d0d313d4d151608a1b604082015260600190565b90815260200190565b9182521515602082015260400190565b91825260208201526040019056fea2646970667358221220cfea613c5e0f5d3e3df8fc569e9c30dd6e0f3e8a4581f0064c3c6f4a868b6cf964736f6c63430006090033",
  "immutableReferences": {},
  "source": "/*\n\n    Copyright 2020 DODO ZOO.\n    SPDX-License-Identifier: Apache-2.0\n\n*/\n\npragma solidity 0.6.9;\npragma experimental ABIEncoderV2;\n\nimport {SafeMath} from \"../lib/SafeMath.sol\";\nimport {SafeERC20} from \"../lib/SafeERC20.sol\";\nimport {DecimalMath} from \"../lib/DecimalMath.sol\";\nimport {Types} from \"../lib/Types.sol\";\nimport {IDODOLpToken} from \"../intf/IDODOLpToken.sol\";\nimport {IERC20} from \"../intf/IERC20.sol\";\nimport {Storage} from \"./Storage.sol\";\n\n\n/**\n * @title Settlement\n * @author DODO Breeder\n *\n * @notice Functions for assets settlement\n */\ncontract Settlement is Storage {\n    using SafeMath for uint256;\n    using SafeERC20 for IERC20;\n\n    // ============ Events ============\n\n    event Donate(uint256 amount, bool isBaseToken);\n\n    event ClaimAssets(address indexed user, uint256 baseTokenAmount, uint256 quoteTokenAmount);\n\n    // ============ Assets IN/OUT Functions ============\n\n    function _baseTokenTransferIn(address from, uint256 amount) internal {\n        require(_BASE_BALANCE_.add(amount) <= _BASE_BALANCE_LIMIT_, \"BASE_BALANCE_LIMIT_EXCEEDED\");\n        IERC20(_BASE_TOKEN_).safeTransferFrom(from, address(this), amount);\n        _BASE_BALANCE_ = _BASE_BALANCE_.add(amount);\n    }\n\n    function _quoteTokenTransferIn(address from, uint256 amount) internal {\n        require(\n            _QUOTE_BALANCE_.add(amount) <= _QUOTE_BALANCE_LIMIT_,\n            \"QUOTE_BALANCE_LIMIT_EXCEEDED\"\n        );\n        IERC20(_QUOTE_TOKEN_).safeTransferFrom(from, address(this), amount);\n        _QUOTE_BALANCE_ = _QUOTE_BALANCE_.add(amount);\n    }\n\n    function _baseTokenTransferOut(address to, uint256 amount) internal {\n        IERC20(_BASE_TOKEN_).safeTransfer(to, amount);\n        _BASE_BALANCE_ = _BASE_BALANCE_.sub(amount);\n    }\n\n    function _quoteTokenTransferOut(address to, uint256 amount) internal {\n        IERC20(_QUOTE_TOKEN_).safeTransfer(to, amount);\n        _QUOTE_BALANCE_ = _QUOTE_BALANCE_.sub(amount);\n    }\n\n    // ============ Donate to Liquidity Pool Functions ============\n\n    function _donateBaseToken(uint256 amount) internal {\n        _TARGET_BASE_TOKEN_AMOUNT_ = _TARGET_BASE_TOKEN_AMOUNT_.add(amount);\n        emit Donate(amount, true);\n    }\n\n    function _donateQuoteToken(uint256 amount) internal {\n        _TARGET_QUOTE_TOKEN_AMOUNT_ = _TARGET_QUOTE_TOKEN_AMOUNT_.add(amount);\n        emit Donate(amount, false);\n    }\n\n    function donateBaseToken(uint256 amount) external preventReentrant {\n        _baseTokenTransferIn(msg.sender, amount);\n        _donateBaseToken(amount);\n    }\n\n    function donateQuoteToken(uint256 amount) external preventReentrant {\n        _quoteTokenTransferIn(msg.sender, amount);\n        _donateQuoteToken(amount);\n    }\n\n    // ============ Final Settlement Functions ============\n\n    // last step to shut down dodo\n    function finalSettlement() external onlyOwner notClosed {\n        _CLOSED_ = true;\n        _DEPOSIT_QUOTE_ALLOWED_ = false;\n        _DEPOSIT_BASE_ALLOWED_ = false;\n        _TRADE_ALLOWED_ = false;\n        uint256 totalBaseCapital = getTotalBaseCapital();\n        uint256 totalQuoteCapital = getTotalQuoteCapital();\n\n        if (_QUOTE_BALANCE_ > _TARGET_QUOTE_TOKEN_AMOUNT_) {\n            uint256 spareQuote = _QUOTE_BALANCE_.sub(_TARGET_QUOTE_TOKEN_AMOUNT_);\n            _BASE_CAPITAL_RECEIVE_QUOTE_ = DecimalMath.divFloor(spareQuote, totalBaseCapital);\n        } else {\n            _TARGET_QUOTE_TOKEN_AMOUNT_ = _QUOTE_BALANCE_;\n        }\n\n        if (_BASE_BALANCE_ > _TARGET_BASE_TOKEN_AMOUNT_) {\n            uint256 spareBase = _BASE_BALANCE_.sub(_TARGET_BASE_TOKEN_AMOUNT_);\n            _QUOTE_CAPITAL_RECEIVE_BASE_ = DecimalMath.divFloor(spareBase, totalQuoteCapital);\n        } else {\n            _TARGET_BASE_TOKEN_AMOUNT_ = _BASE_BALANCE_;\n        }\n\n        _R_STATUS_ = Types.RStatus.ONE;\n    }\n\n    // claim remaining assets after final settlement\n    function claimAssets() external preventReentrant {\n        require(_CLOSED_, \"DODO_NOT_CLOSED\");\n        require(!_CLAIMED_[msg.sender], \"ALREADY_CLAIMED\");\n        _CLAIMED_[msg.sender] = true;\n\n        uint256 quoteCapital = getQuoteCapitalBalanceOf(msg.sender);\n        uint256 baseCapital = getBaseCapitalBalanceOf(msg.sender);\n\n        uint256 quoteAmount = 0;\n        if (quoteCapital > 0) {\n            quoteAmount = _TARGET_QUOTE_TOKEN_AMOUNT_.mul(quoteCapital).div(getTotalQuoteCapital());\n        }\n        uint256 baseAmount = 0;\n        if (baseCapital > 0) {\n            baseAmount = _TARGET_BASE_TOKEN_AMOUNT_.mul(baseCapital).div(getTotalBaseCapital());\n        }\n\n        _TARGET_QUOTE_TOKEN_AMOUNT_ = _TARGET_QUOTE_TOKEN_AMOUNT_.sub(quoteAmount);\n        _TARGET_BASE_TOKEN_AMOUNT_ = _TARGET_BASE_TOKEN_AMOUNT_.sub(baseAmount);\n\n        quoteAmount = quoteAmount.add(DecimalMath.mul(baseCapital, _BASE_CAPITAL_RECEIVE_QUOTE_));\n        baseAmount = baseAmount.add(DecimalMath.mul(quoteCapital, _QUOTE_CAPITAL_RECEIVE_BASE_));\n\n        _baseTokenTransferOut(msg.sender, baseAmount);\n        _quoteTokenTransferOut(msg.sender, quoteAmount);\n\n        IDODOLpToken(_BASE_CAPITAL_TOKEN_).burn(msg.sender, baseCapital);\n        IDODOLpToken(_QUOTE_CAPITAL_TOKEN_).burn(msg.sender, quoteCapital);\n\n        emit ClaimAssets(msg.sender, baseAmount, quoteAmount);\n        return;\n    }\n\n    // in case someone transfer to contract directly\n    function retrieve(address token, uint256 amount) external onlyOwner {\n        if (token == _BASE_TOKEN_) {\n            require(\n                IERC20(_BASE_TOKEN_).balanceOf(address(this)) >= _BASE_BALANCE_.add(amount),\n                \"DODO_BASE_BALANCE_NOT_ENOUGH\"\n            );\n        }\n        if (token == _QUOTE_TOKEN_) {\n            require(\n                IERC20(_QUOTE_TOKEN_).balanceOf(address(this)) >= _QUOTE_BALANCE_.add(amount),\n                \"DODO_QUOTE_BALANCE_NOT_ENOUGH\"\n            );\n        }\n        IERC20(token).safeTransfer(msg.sender, amount);\n    }\n}\n",
  "sourcePath": "/Users/owen/Desktop/dodo/dodo-smart-contract/contracts/impl/Settlement.sol",
  "compiler": {
    "name": "solc",
    "version": "0.6.9+commit.3e3065ac.Emscripten.clang"
  },
  "schemaVersion": "3.2.3",
  "updatedAt": "2020-11-06T08:03:35.696Z",
  "devdoc": {
    "author": "DODO Breeder",
    "methods": {},
    "title": "Settlement"
  },
  "userdoc": {
    "methods": {},
    "notice": "Functions for assets settlement"
  }
}