{
  "contractName": "Storage",
  "abi": [
    {
      "anonymous": false,
      "inputs": [
        {
          "indexed": true,
          "internalType": "address",
          "name": "previousOwner",
          "type": "address"
        },
        {
          "indexed": true,
          "internalType": "address",
          "name": "newOwner",
          "type": "address"
        }
      ],
      "name": "OwnershipTransferPrepared",
      "type": "event"
    },
    {
      "anonymous": false,
      "inputs": [
        {
          "indexed": true,
          "internalType": "address",
          "name": "previousOwner",
          "type": "address"
        },
        {
          "indexed": true,
          "internalType": "address",
          "name": "newOwner",
          "type": "address"
        }
      ],
      "name": "OwnershipTransferred",
      "type": "event"
    },
    {
      "inputs": [],
      "name": "_BASE_BALANCE_",
      "outputs": [
        {
          "internalType": "uint256",
          "name": "",
          "type": "uint256"
        }
      ],
      "stateMutability": "view",
      "type": "function"
    },
    {
      "inputs": [],
      "name": "_BASE_BALANCE_LIMIT_",
      "outputs": [
        {
          "internalType": "uint256",
          "name": "",
          "type": "uint256"
        }
      ],
      "stateMutability": "view",
      "type": "function"
    },
    {
      "inputs": [],
      "name": "_BASE_CAPITAL_RECEIVE_QUOTE_",
      "outputs": [
        {
          "internalType": "uint256",
          "name": "",
          "type": "uint256"
        }
      ],
      "stateMutability": "view",
      "type": "function"
    },
    {
      "inputs": [],
      "name": "_BASE_CAPITAL_TOKEN_",
      "outputs": [
        {
          "internalType": "address",
          "name": "",
          "type": "address"
        }
      ],
      "stateMutability": "view",
      "type": "function"
    },
    {
      "inputs": [],
      "name": "_BASE_TOKEN_",
      "outputs": [
        {
          "internalType": "address",
          "name": "",
          "type": "address"
        }
      ],
      "stateMutability": "view",
      "type": "function"
    },
    {
      "inputs": [],
      "name": "_BUYING_ALLOWED_",
      "outputs": [
        {
          "internalType": "bool",
          "name": "",
          "type": "bool"
        }
      ],
      "stateMutability": "view",
      "type": "function"
    },
    {
      "inputs": [
        {
          "internalType": "address",
          "name": "",
          "type": "address"
        }
      ],
      "name": "_CLAIMED_",
      "outputs": [
        {
          "internalType": "bool",
          "name": "",
          "type": "bool"
        }
      ],
      "stateMutability": "view",
      "type": "function"
    },
    {
      "inputs": [],
      "name": "_CLOSED_",
      "outputs": [
        {
          "internalType": "bool",
          "name": "",
          "type": "bool"
        }
      ],
      "stateMutability": "view",
      "type": "function"
    },
    {
      "inputs": [],
      "name": "_DEPOSIT_BASE_ALLOWED_",
      "outputs": [
        {
          "internalType": "bool",
          "name": "",
          "type": "bool"
        }
      ],
      "stateMutability": "view",
      "type": "function"
    },
    {
      "inputs": [],
      "name": "_DEPOSIT_QUOTE_ALLOWED_",
      "outputs": [
        {
          "internalType": "bool",
          "name": "",
          "type": "bool"
        }
      ],
      "stateMutability": "view",
      "type": "function"
    },
    {
      "inputs": [],
      "name": "_GAS_PRICE_LIMIT_",
      "outputs": [
        {
          "internalType": "uint256",
          "name": "",
          "type": "uint256"
        }
      ],
      "stateMutability": "view",
      "type": "function"
    },
    {
      "inputs": [],
      "name": "_K_",
      "outputs": [
        {
          "internalType": "uint256",
          "name": "",
          "type": "uint256"
        }
      ],
      "stateMutability": "view",
      "type": "function"
    },
    {
      "inputs": [],
      "name": "_LP_FEE_RATE_",
      "outputs": [
        {
          "internalType": "uint256",
          "name": "",
          "type": "uint256"
        }
      ],
      "stateMutability": "view",
      "type": "function"
    },
    {
      "inputs": [],
      "name": "_MAINTAINER_",
      "outputs": [
        {
          "internalType": "address",
          "name": "",
          "type": "address"
        }
      ],
      "stateMutability": "view",
      "type": "function"
    },
    {
      "inputs": [],
      "name": "_MT_FEE_RATE_",
      "outputs": [
        {
          "internalType": "uint256",
          "name": "",
          "type": "uint256"
        }
      ],
      "stateMutability": "view",
      "type": "function"
    },
    {
      "inputs": [],
      "name": "_NEW_OWNER_",
      "outputs": [
        {
          "internalType": "address",
          "name": "",
          "type": "address"
        }
      ],
      "stateMutability": "view",
      "type": "function"
    },
    {
      "inputs": [],
      "name": "_ORACLE_",
      "outputs": [
        {
          "internalType": "address",
          "name": "",
          "type": "address"
        }
      ],
      "stateMutability": "view",
      "type": "function"
    },
    {
      "inputs": [],
      "name": "_OWNER_",
      "outputs": [
        {
          "internalType": "address",
          "name": "",
          "type": "address"
        }
      ],
      "stateMutability": "view",
      "type": "function"
    },
    {
      "inputs": [],
      "name": "_QUOTE_BALANCE_",
      "outputs": [
        {
          "internalType": "uint256",
          "name": "",
          "type": "uint256"
        }
      ],
      "stateMutability": "view",
      "type": "function"
    },
    {
      "inputs": [],
      "name": "_QUOTE_BALANCE_LIMIT_",
      "outputs": [
        {
          "internalType": "uint256",
          "name": "",
          "type": "uint256"
        }
      ],
      "stateMutability": "view",
      "type": "function"
    },
    {
      "inputs": [],
      "name": "_QUOTE_CAPITAL_RECEIVE_BASE_",
      "outputs": [
        {
          "internalType": "uint256",
          "name": "",
          "type": "uint256"
        }
      ],
      "stateMutability": "view",
      "type": "function"
    },
    {
      "inputs": [],
      "name": "_QUOTE_CAPITAL_TOKEN_",
      "outputs": [
        {
          "internalType": "address",
          "name": "",
          "type": "address"
        }
      ],
      "stateMutability": "view",
      "type": "function"
    },
    {
      "inputs": [],
      "name": "_QUOTE_TOKEN_",
      "outputs": [
        {
          "internalType": "address",
          "name": "",
          "type": "address"
        }
      ],
      "stateMutability": "view",
      "type": "function"
    },
    {
      "inputs": [],
      "name": "_R_STATUS_",
      "outputs": [
        {
          "internalType": "enum Types.RStatus",
          "name": "",
          "type": "uint8"
        }
      ],
      "stateMutability": "view",
      "type": "function"
    },
    {
      "inputs": [],
      "name": "_SELLING_ALLOWED_",
      "outputs": [
        {
          "internalType": "bool",
          "name": "",
          "type": "bool"
        }
      ],
      "stateMutability": "view",
      "type": "function"
    },
    {
      "inputs": [],
      "name": "_SUPERVISOR_",
      "outputs": [
        {
          "internalType": "address",
          "name": "",
          "type": "address"
        }
      ],
      "stateMutability": "view",
      "type": "function"
    },
    {
      "inputs": [],
      "name": "_TARGET_BASE_TOKEN_AMOUNT_",
      "outputs": [
        {
          "internalType": "uint256",
          "name": "",
          "type": "uint256"
        }
      ],
      "stateMutability": "view",
      "type": "function"
    },
    {
      "inputs": [],
      "name": "_TARGET_QUOTE_TOKEN_AMOUNT_",
      "outputs": [
        {
          "internalType": "uint256",
          "name": "",
          "type": "uint256"
        }
      ],
      "stateMutability": "view",
      "type": "function"
    },
    {
      "inputs": [],
      "name": "_TRADE_ALLOWED_",
      "outputs": [
        {
          "internalType": "bool",
          "name": "",
          "type": "bool"
        }
      ],
      "stateMutability": "view",
      "type": "function"
    },
    {
      "inputs": [],
      "name": "claimOwnership",
      "outputs": [],
      "stateMutability": "nonpayable",
      "type": "function"
    },
    {
      "inputs": [
        {
          "internalType": "address",
          "name": "newOwner",
          "type": "address"
        }
      ],
      "name": "transferOwnership",
      "outputs": [],
      "stateMutability": "nonpayable",
      "type": "function"
    },
    {
      "inputs": [],
      "name": "getOraclePrice",
      "outputs": [
        {
          "internalType": "uint256",
          "name": "",
          "type": "uint256"
        }
      ],
      "stateMutability": "view",
      "type": "function"
    },
    {
      "inputs": [
        {
          "internalType": "address",
          "name": "lp",
          "type": "address"
        }
      ],
      "name": "getBaseCapitalBalanceOf",
      "outputs": [
        {
          "internalType": "uint256",
          "name": "",
          "type": "uint256"
        }
      ],
      "stateMutability": "view",
      "type": "function"
    },
    {
      "inputs": [],
      "name": "getTotalBaseCapital",
      "outputs": [
        {
          "internalType": "uint256",
          "name": "",
          "type": "uint256"
        }
      ],
      "stateMutability": "view",
      "type": "function"
    },
    {
      "inputs": [
        {
          "internalType": "address",
          "name": "lp",
          "type": "address"
        }
      ],
      "name": "getQuoteCapitalBalanceOf",
      "outputs": [
        {
          "internalType": "uint256",
          "name": "",
          "type": "uint256"
        }
      ],
      "stateMutability": "view",
      "type": "function"
    },
    {
      "inputs": [],
      "name": "getTotalQuoteCapital",
      "outputs": [
        {
          "internalType": "uint256",
          "name": "",
          "type": "uint256"
        }
      ],
      "stateMutability": "view",
      "type": "function"
    },
    {
      "inputs": [],
      "name": "version",
      "outputs": [
        {
          "internalType": "uint256",
          "name": "",
          "type": "uint256"
        }
      ],
      "stateMutability": "pure",
      "type": "function"
    }
  ],
  "bytecode": "0x608060405234801561001057600080fd5b50610937806100206000396000f3fe608060405234801561001057600080fd5b50600436106102275760003560e01c80637c9b8e8911610130578063c0ffa178116100b8578063dd58b41c1161007c578063dd58b41c14610381578063eab5d20e14610389578063ec2fd46d14610391578063f2fde38b14610399578063f67ed448146103ac57610227565b8063c0ffa17814610359578063c5bbffe814610361578063c6b73cf914610369578063d4b9704614610371578063d689107c1461037957610227565b8063a3161a56116100ff578063a3161a5614610331578063a598aca714610339578063ab44a7a314610341578063ac1fbc9814610349578063b2094fd31461035157610227565b80637c9b8e89146103115780638456db15146103195780638ff5e742146103215780639b020fba1461032957610227565b80634a248d2a116101b357806368be20ad1161018257806368be20ad146102c65780636ec6a58d146102e657806373a2ab7c146102ee578063796da7af146102f65780637aed942d146102fe57610227565b80634a248d2a146102a45780634de4527e146102ac5780634e71e0c8146102b457806354fd4d50146102be57610227565b806317be952e116101fa57806317be952e1461026f578063245c9685146102845780632aa82c651461028c5780633960f142146102945780634322ec831461029c57610227565b80630cd1667d1461022c5780630e6518e91461024a57806316048bc4146102525780631769ddaa14610267575b600080fd5b6102346103bf565b60405161024191906108f8565b60405180910390f35b610234610441565b61025a610447565b6040516102419190610854565b610234610456565b61027761045c565b6040516102419190610873565b610234610465565b61023461046b565b61025a6104b0565b61025a6104bf565b61025a6104ce565b6102346104dd565b6102bc6104e3565b005b61023461057a565b6102d96102d436600461080e565b61057f565b6040516102419190610868565b6102d9610594565b61025a6105a4565b6102346105b3565b61023461030c36600461080e565b6105f8565b61023461067f565b61025a610685565b6102d9610694565b6102346106a2565b6102d96106a8565b6102d96106b1565b6102346106c1565b61025a6106c7565b6102346106d6565b6102346106dc565b6102d96106e2565b6102346106f2565b61025a6106f8565b61025a610707565b6102d9610716565b610234610726565b61023461072c565b6102bc6103a736600461080e565b610732565b6102346103ba36600461080e565b6107dd565b601354604080516318160ddd60e01b815290516000926001600160a01b0316916318160ddd916004808301926020929190829003018186803b15801561040457600080fd5b505afa158015610418573d6000803e3d6000fd5b505050506040513d601f19601f8201168201806040525081019061043c919061083c565b905090565b60165481565b6000546001600160a01b031681565b60055481565b600e5460ff1681565b60105481565b601454604080516318160ddd60e01b815290516000926001600160a01b0316916318160ddd916004808301926020929190829003018186803b15801561040457600080fd5b6006546001600160a01b031681565b6007546001600160a01b031681565b6008546001600160a01b031681565b60025481565b6001546001600160a01b031633146105165760405162461bcd60e51b815260040161050d90610887565b60405180910390fd5b600154600080546040516001600160a01b0393841693909116917f8be0079c531659141344cd1fd0a4f28419497f9722a3daafe3b4186f6b6457e091a360018054600080546001600160a01b03199081166001600160a01b03841617909155169055565b606590565b60176020526000908152604090205460ff1681565b600154600160b01b900460ff1681565b600a546001600160a01b031681565b600a5460408051634c6afee560e11b815290516000926001600160a01b0316916398d5fdca916004808301926020929190829003018186803b15801561040457600080fd5b6013546040516370a0823160e01b81526000916001600160a01b0316906370a0823190610629908590600401610854565b60206040518083038186803b15801561064157600080fd5b505afa158015610655573d6000803e3d6000fd5b505050506040513d601f19601f82011682018060405250810190610679919061083c565b92915050565b60125481565b6001546001600160a01b031681565b600354610100900460ff1681565b60045481565b60035460ff1681565b600154600160c01b900460ff1681565b600b5481565b6014546001600160a01b031681565b600f5481565b600c5481565b600154600160b81b900460ff1681565b60155481565b6009546001600160a01b031681565b6013546001600160a01b031681565b600154600160c81b900460ff1681565b60115481565b600d5481565b6000546001600160a01b0316331461075c5760405162461bcd60e51b815260040161050d906108d5565b6001600160a01b0381166107825760405162461bcd60e51b815260040161050d906108ae565b600080546040516001600160a01b03808516939216917fdcf55418cee3220104fef63f979ff3c4097ad240c0c43dcb33ce837748983e6291a3600180546001600160a01b0319166001600160a01b0392909216919091179055565b6014546040516370a0823160e01b81526000916001600160a01b0316906370a0823190610629908590600401610854565b60006020828403121561081f578081fd5b81356001600160a01b0381168114610835578182fd5b9392505050565b60006020828403121561084d578081fd5b5051919050565b6001600160a01b0391909116815260200190565b901515815260200190565b602081016003831061088157fe5b91905290565b6020808252600d908201526c494e56414c49445f434c41494d60981b604082015260600190565b6020808252600d908201526c24a72b20a624a22fa7aba722a960991b604082015260600190565b6020808252600990820152682727aa2fa7aba722a960b91b604082015260600190565b9081526020019056fea2646970667358221220de85d30714b6ff26479b2b7380794f9558de8935208fe987a8e942c67d0d78b064736f6c63430006090033",
  "immutableReferences": {},
  "source": "/*\n\n    Copyright 2020 DODO ZOO.\n    SPDX-License-Identifier: Apache-2.0\n\n*/\n\npragma solidity 0.6.9;\npragma experimental ABIEncoderV2;\n\nimport {InitializableOwnable} from \"../lib/InitializableOwnable.sol\";\nimport {SafeMath} from \"../lib/SafeMath.sol\";\nimport {DecimalMath} from \"../lib/DecimalMath.sol\";\nimport {ReentrancyGuard} from \"../lib/ReentrancyGuard.sol\";\nimport {IOracle} from \"../intf/IOracle.sol\";\nimport {IDODOLpToken} from \"../intf/IDODOLpToken.sol\";\nimport {Types} from \"../lib/Types.sol\";\n\n\n/**\n * @title Storage\n * @author DODO Breeder\n *\n * @notice Local Variables\n */\ncontract Storage is InitializableOwnable, ReentrancyGuard {\n    using SafeMath for uint256;\n\n    // ============ Variables for Control ============\n\n    bool internal _INITIALIZED_;\n    bool public _CLOSED_;\n    bool public _DEPOSIT_QUOTE_ALLOWED_;\n    bool public _DEPOSIT_BASE_ALLOWED_;\n    bool public _TRADE_ALLOWED_;\n    uint256 public _GAS_PRICE_LIMIT_;\n\n    // ============ Advanced Controls ============\n    bool public _BUYING_ALLOWED_;\n    bool public _SELLING_ALLOWED_;\n    uint256 public _BASE_BALANCE_LIMIT_;\n    uint256 public _QUOTE_BALANCE_LIMIT_;\n\n    // ============ Core Address ============\n\n    address public _SUPERVISOR_; // could freeze system in emergency\n    address public _MAINTAINER_; // collect maintainer fee to buy food for DODO\n\n    address public _BASE_TOKEN_;\n    address public _QUOTE_TOKEN_;\n    address public _ORACLE_;\n\n    // ============ Variables for PMM Algorithm ============\n\n    uint256 public _LP_FEE_RATE_;\n    uint256 public _MT_FEE_RATE_;\n    uint256 public _K_;\n\n    Types.RStatus public _R_STATUS_;\n    uint256 public _TARGET_BASE_TOKEN_AMOUNT_;\n    uint256 public _TARGET_QUOTE_TOKEN_AMOUNT_;\n    uint256 public _BASE_BALANCE_;\n    uint256 public _QUOTE_BALANCE_;\n\n    address public _BASE_CAPITAL_TOKEN_;\n    address public _QUOTE_CAPITAL_TOKEN_;\n\n    // ============ Variables for Final Settlement ============\n\n    uint256 public _BASE_CAPITAL_RECEIVE_QUOTE_;\n    uint256 public _QUOTE_CAPITAL_RECEIVE_BASE_;\n    mapping(address => bool) public _CLAIMED_;\n\n    // ============ Modifiers ============\n\n    modifier onlySupervisorOrOwner() {\n        require(msg.sender == _SUPERVISOR_ || msg.sender == _OWNER_, \"NOT_SUPERVISOR_OR_OWNER\");\n        _;\n    }\n\n    modifier notClosed() {\n        require(!_CLOSED_, \"DODO_CLOSED\");\n        _;\n    }\n\n    // ============ Helper Functions ============\n\n    function _checkDODOParameters() internal view returns (uint256) {\n        require(_K_ < DecimalMath.ONE, \"K>=1\");\n        require(_K_ > 0, \"K=0\");\n        require(_LP_FEE_RATE_.add(_MT_FEE_RATE_) < DecimalMath.ONE, \"FEE_RATE>=1\");\n    }\n\n    function getOraclePrice() public view returns (uint256) {\n        return IOracle(_ORACLE_).getPrice();\n    }\n\n    function getBaseCapitalBalanceOf(address lp) public view returns (uint256) {\n        return IDODOLpToken(_BASE_CAPITAL_TOKEN_).balanceOf(lp);\n    }\n\n    function getTotalBaseCapital() public view returns (uint256) {\n        return IDODOLpToken(_BASE_CAPITAL_TOKEN_).totalSupply();\n    }\n\n    function getQuoteCapitalBalanceOf(address lp) public view returns (uint256) {\n        return IDODOLpToken(_QUOTE_CAPITAL_TOKEN_).balanceOf(lp);\n    }\n\n    function getTotalQuoteCapital() public view returns (uint256) {\n        return IDODOLpToken(_QUOTE_CAPITAL_TOKEN_).totalSupply();\n    }\n\n    // ============ Version Control ============\n    function version() external pure returns (uint256) {\n        return 101; // 1.0.1\n    }\n}\n",
  "sourcePath": "/Users/owen/Desktop/dodo/dodo-smart-contract/contracts/impl/Storage.sol",
  "compiler": {
    "name": "solc",
    "version": "0.6.9+commit.3e3065ac.Emscripten.clang"
  },
  "schemaVersion": "3.2.3",
  "updatedAt": "2020-11-06T08:03:35.702Z",
  "devdoc": {
    "author": "DODO Breeder",
    "methods": {},
    "title": "Storage"
  },
  "userdoc": {
    "methods": {},
    "notice": "Local Variables"
  }
}