{
  "contractName": "Trader",
  "abi": [
    {
      "anonymous": false,
      "inputs": [
        {
          "indexed": true,
          "internalType": "address",
          "name": "buyer",
          "type": "address"
        },
        {
          "indexed": false,
          "internalType": "uint256",
          "name": "receiveBase",
          "type": "uint256"
        },
        {
          "indexed": false,
          "internalType": "uint256",
          "name": "payQuote",
          "type": "uint256"
        }
      ],
      "name": "BuyBaseToken",
      "type": "event"
    },
    {
      "anonymous": false,
      "inputs": [
        {
          "indexed": true,
          "internalType": "address",
          "name": "maintainer",
          "type": "address"
        },
        {
          "indexed": false,
          "internalType": "bool",
          "name": "isBaseToken",
          "type": "bool"
        },
        {
          "indexed": false,
          "internalType": "uint256",
          "name": "amount",
          "type": "uint256"
        }
      ],
      "name": "ChargeMaintainerFee",
      "type": "event"
    },
    {
      "anonymous": false,
      "inputs": [
        {
          "indexed": true,
          "internalType": "address",
          "name": "user",
          "type": "address"
        },
        {
          "indexed": false,
          "internalType": "uint256",
          "name": "baseTokenAmount",
          "type": "uint256"
        },
        {
          "indexed": false,
          "internalType": "uint256",
          "name": "quoteTokenAmount",
          "type": "uint256"
        }
      ],
      "name": "ClaimAssets",
      "type": "event"
    },
    {
      "anonymous": false,
      "inputs": [
        {
          "indexed": false,
          "internalType": "uint256",
          "name": "amount",
          "type": "uint256"
        },
        {
          "indexed": false,
          "internalType": "bool",
          "name": "isBaseToken",
          "type": "bool"
        }
      ],
      "name": "Donate",
      "type": "event"
    },
    {
      "anonymous": false,
      "inputs": [
        {
          "indexed": true,
          "internalType": "address",
          "name": "previousOwner",
          "type": "address"
        },
        {
          "indexed": true,
          "internalType": "address",
          "name": "newOwner",
          "type": "address"
        }
      ],
      "name": "OwnershipTransferPrepared",
      "type": "event"
    },
    {
      "anonymous": false,
      "inputs": [
        {
          "indexed": true,
          "internalType": "address",
          "name": "previousOwner",
          "type": "address"
        },
        {
          "indexed": true,
          "internalType": "address",
          "name": "newOwner",
          "type": "address"
        }
      ],
      "name": "OwnershipTransferred",
      "type": "event"
    },
    {
      "anonymous": false,
      "inputs": [
        {
          "indexed": true,
          "internalType": "address",
          "name": "seller",
          "type": "address"
        },
        {
          "indexed": false,
          "internalType": "uint256",
          "name": "payBase",
          "type": "uint256"
        },
        {
          "indexed": false,
          "internalType": "uint256",
          "name": "receiveQuote",
          "type": "uint256"
        }
      ],
      "name": "SellBaseToken",
      "type": "event"
    },
    {
      "inputs": [],
      "name": "_BASE_BALANCE_",
      "outputs": [
        {
          "internalType": "uint256",
          "name": "",
          "type": "uint256"
        }
      ],
      "stateMutability": "view",
      "type": "function"
    },
    {
      "inputs": [],
      "name": "_BASE_BALANCE_LIMIT_",
      "outputs": [
        {
          "internalType": "uint256",
          "name": "",
          "type": "uint256"
        }
      ],
      "stateMutability": "view",
      "type": "function"
    },
    {
      "inputs": [],
      "name": "_BASE_CAPITAL_RECEIVE_QUOTE_",
      "outputs": [
        {
          "internalType": "uint256",
          "name": "",
          "type": "uint256"
        }
      ],
      "stateMutability": "view",
      "type": "function"
    },
    {
      "inputs": [],
      "name": "_BASE_CAPITAL_TOKEN_",
      "outputs": [
        {
          "internalType": "address",
          "name": "",
          "type": "address"
        }
      ],
      "stateMutability": "view",
      "type": "function"
    },
    {
      "inputs": [],
      "name": "_BASE_TOKEN_",
      "outputs": [
        {
          "internalType": "address",
          "name": "",
          "type": "address"
        }
      ],
      "stateMutability": "view",
      "type": "function"
    },
    {
      "inputs": [],
      "name": "_BUYING_ALLOWED_",
      "outputs": [
        {
          "internalType": "bool",
          "name": "",
          "type": "bool"
        }
      ],
      "stateMutability": "view",
      "type": "function"
    },
    {
      "inputs": [
        {
          "internalType": "address",
          "name": "",
          "type": "address"
        }
      ],
      "name": "_CLAIMED_",
      "outputs": [
        {
          "internalType": "bool",
          "name": "",
          "type": "bool"
        }
      ],
      "stateMutability": "view",
      "type": "function"
    },
    {
      "inputs": [],
      "name": "_CLOSED_",
      "outputs": [
        {
          "internalType": "bool",
          "name": "",
          "type": "bool"
        }
      ],
      "stateMutability": "view",
      "type": "function"
    },
    {
      "inputs": [],
      "name": "_DEPOSIT_BASE_ALLOWED_",
      "outputs": [
        {
          "internalType": "bool",
          "name": "",
          "type": "bool"
        }
      ],
      "stateMutability": "view",
      "type": "function"
    },
    {
      "inputs": [],
      "name": "_DEPOSIT_QUOTE_ALLOWED_",
      "outputs": [
        {
          "internalType": "bool",
          "name": "",
          "type": "bool"
        }
      ],
      "stateMutability": "view",
      "type": "function"
    },
    {
      "inputs": [],
      "name": "_GAS_PRICE_LIMIT_",
      "outputs": [
        {
          "internalType": "uint256",
          "name": "",
          "type": "uint256"
        }
      ],
      "stateMutability": "view",
      "type": "function"
    },
    {
      "inputs": [],
      "name": "_K_",
      "outputs": [
        {
          "internalType": "uint256",
          "name": "",
          "type": "uint256"
        }
      ],
      "stateMutability": "view",
      "type": "function"
    },
    {
      "inputs": [],
      "name": "_LP_FEE_RATE_",
      "outputs": [
        {
          "internalType": "uint256",
          "name": "",
          "type": "uint256"
        }
      ],
      "stateMutability": "view",
      "type": "function"
    },
    {
      "inputs": [],
      "name": "_MAINTAINER_",
      "outputs": [
        {
          "internalType": "address",
          "name": "",
          "type": "address"
        }
      ],
      "stateMutability": "view",
      "type": "function"
    },
    {
      "inputs": [],
      "name": "_MT_FEE_RATE_",
      "outputs": [
        {
          "internalType": "uint256",
          "name": "",
          "type": "uint256"
        }
      ],
      "stateMutability": "view",
      "type": "function"
    },
    {
      "inputs": [],
      "name": "_NEW_OWNER_",
      "outputs": [
        {
          "internalType": "address",
          "name": "",
          "type": "address"
        }
      ],
      "stateMutability": "view",
      "type": "function"
    },
    {
      "inputs": [],
      "name": "_ORACLE_",
      "outputs": [
        {
          "internalType": "address",
          "name": "",
          "type": "address"
        }
      ],
      "stateMutability": "view",
      "type": "function"
    },
    {
      "inputs": [],
      "name": "_OWNER_",
      "outputs": [
        {
          "internalType": "address",
          "name": "",
          "type": "address"
        }
      ],
      "stateMutability": "view",
      "type": "function"
    },
    {
      "inputs": [],
      "name": "_QUOTE_BALANCE_",
      "outputs": [
        {
          "internalType": "uint256",
          "name": "",
          "type": "uint256"
        }
      ],
      "stateMutability": "view",
      "type": "function"
    },
    {
      "inputs": [],
      "name": "_QUOTE_BALANCE_LIMIT_",
      "outputs": [
        {
          "internalType": "uint256",
          "name": "",
          "type": "uint256"
        }
      ],
      "stateMutability": "view",
      "type": "function"
    },
    {
      "inputs": [],
      "name": "_QUOTE_CAPITAL_RECEIVE_BASE_",
      "outputs": [
        {
          "internalType": "uint256",
          "name": "",
          "type": "uint256"
        }
      ],
      "stateMutability": "view",
      "type": "function"
    },
    {
      "inputs": [],
      "name": "_QUOTE_CAPITAL_TOKEN_",
      "outputs": [
        {
          "internalType": "address",
          "name": "",
          "type": "address"
        }
      ],
      "stateMutability": "view",
      "type": "function"
    },
    {
      "inputs": [],
      "name": "_QUOTE_TOKEN_",
      "outputs": [
        {
          "internalType": "address",
          "name": "",
          "type": "address"
        }
      ],
      "stateMutability": "view",
      "type": "function"
    },
    {
      "inputs": [],
      "name": "_R_STATUS_",
      "outputs": [
        {
          "internalType": "enum Types.RStatus",
          "name": "",
          "type": "uint8"
        }
      ],
      "stateMutability": "view",
      "type": "function"
    },
    {
      "inputs": [],
      "name": "_SELLING_ALLOWED_",
      "outputs": [
        {
          "internalType": "bool",
          "name": "",
          "type": "bool"
        }
      ],
      "stateMutability": "view",
      "type": "function"
    },
    {
      "inputs": [],
      "name": "_SUPERVISOR_",
      "outputs": [
        {
          "internalType": "address",
          "name": "",
          "type": "address"
        }
      ],
      "stateMutability": "view",
      "type": "function"
    },
    {
      "inputs": [],
      "name": "_TARGET_BASE_TOKEN_AMOUNT_",
      "outputs": [
        {
          "internalType": "uint256",
          "name": "",
          "type": "uint256"
        }
      ],
      "stateMutability": "view",
      "type": "function"
    },
    {
      "inputs": [],
      "name": "_TARGET_QUOTE_TOKEN_AMOUNT_",
      "outputs": [
        {
          "internalType": "uint256",
          "name": "",
          "type": "uint256"
        }
      ],
      "stateMutability": "view",
      "type": "function"
    },
    {
      "inputs": [],
      "name": "_TRADE_ALLOWED_",
      "outputs": [
        {
          "internalType": "bool",
          "name": "",
          "type": "bool"
        }
      ],
      "stateMutability": "view",
      "type": "function"
    },
    {
      "inputs": [],
      "name": "claimAssets",
      "outputs": [],
      "stateMutability": "nonpayable",
      "type": "function"
    },
    {
      "inputs": [],
      "name": "claimOwnership",
      "outputs": [],
      "stateMutability": "nonpayable",
      "type": "function"
    },
    {
      "inputs": [
        {
          "internalType": "uint256",
          "name": "amount",
          "type": "uint256"
        }
      ],
      "name": "donateBaseToken",
      "outputs": [],
      "stateMutability": "nonpayable",
      "type": "function"
    },
    {
      "inputs": [
        {
          "internalType": "uint256",
          "name": "amount",
          "type": "uint256"
        }
      ],
      "name": "donateQuoteToken",
      "outputs": [],
      "stateMutability": "nonpayable",
      "type": "function"
    },
    {
      "inputs": [],
      "name": "finalSettlement",
      "outputs": [],
      "stateMutability": "nonpayable",
      "type": "function"
    },
    {
      "inputs": [
        {
          "internalType": "address",
          "name": "lp",
          "type": "address"
        }
      ],
      "name": "getBaseCapitalBalanceOf",
      "outputs": [
        {
          "internalType": "uint256",
          "name": "",
          "type": "uint256"
        }
      ],
      "stateMutability": "view",
      "type": "function"
    },
    {
      "inputs": [],
      "name": "getExpectedTarget",
      "outputs": [
        {
          "internalType": "uint256",
          "name": "baseTarget",
          "type": "uint256"
        },
        {
          "internalType": "uint256",
          "name": "quoteTarget",
          "type": "uint256"
        }
      ],
      "stateMutability": "view",
      "type": "function"
    },
    {
      "inputs": [],
      "name": "getMidPrice",
      "outputs": [
        {
          "internalType": "uint256",
          "name": "midPrice",
          "type": "uint256"
        }
      ],
      "stateMutability": "view",
      "type": "function"
    },
    {
      "inputs": [],
      "name": "getOraclePrice",
      "outputs": [
        {
          "internalType": "uint256",
          "name": "",
          "type": "uint256"
        }
      ],
      "stateMutability": "view",
      "type": "function"
    },
    {
      "inputs": [
        {
          "internalType": "address",
          "name": "lp",
          "type": "address"
        }
      ],
      "name": "getQuoteCapitalBalanceOf",
      "outputs": [
        {
          "internalType": "uint256",
          "name": "",
          "type": "uint256"
        }
      ],
      "stateMutability": "view",
      "type": "function"
    },
    {
      "inputs": [],
      "name": "getTotalBaseCapital",
      "outputs": [
        {
          "internalType": "uint256",
          "name": "",
          "type": "uint256"
        }
      ],
      "stateMutability": "view",
      "type": "function"
    },
    {
      "inputs": [],
      "name": "getTotalQuoteCapital",
      "outputs": [
        {
          "internalType": "uint256",
          "name": "",
          "type": "uint256"
        }
      ],
      "stateMutability": "view",
      "type": "function"
    },
    {
      "inputs": [
        {
          "internalType": "address",
          "name": "token",
          "type": "address"
        },
        {
          "internalType": "uint256",
          "name": "amount",
          "type": "uint256"
        }
      ],
      "name": "retrieve",
      "outputs": [],
      "stateMutability": "nonpayable",
      "type": "function"
    },
    {
      "inputs": [
        {
          "internalType": "address",
          "name": "newOwner",
          "type": "address"
        }
      ],
      "name": "transferOwnership",
      "outputs": [],
      "stateMutability": "nonpayable",
      "type": "function"
    },
    {
      "inputs": [],
      "name": "version",
      "outputs": [
        {
          "internalType": "uint256",
          "name": "",
          "type": "uint256"
        }
      ],
      "stateMutability": "pure",
      "type": "function"
    },
    {
      "inputs": [
        {
          "internalType": "uint256",
          "name": "amount",
          "type": "uint256"
        },
        {
          "internalType": "uint256",
          "name": "minReceiveQuote",
          "type": "uint256"
        },
        {
          "internalType": "bytes",
          "name": "data",
          "type": "bytes"
        }
      ],
      "name": "sellBaseToken",
      "outputs": [
        {
          "internalType": "uint256",
          "name": "",
          "type": "uint256"
        }
      ],
      "stateMutability": "nonpayable",
      "type": "function"
    },
    {
      "inputs": [
        {
          "internalType": "uint256",
          "name": "amount",
          "type": "uint256"
        },
        {
          "internalType": "uint256",
          "name": "maxPayQuote",
          "type": "uint256"
        },
        {
          "internalType": "bytes",
          "name": "data",
          "type": "bytes"
        }
      ],
      "name": "buyBaseToken",
      "outputs": [
        {
          "internalType": "uint256",
          "name": "",
          "type": "uint256"
        }
      ],
      "stateMutability": "nonpayable",
      "type": "function"
    },
    {
      "inputs": [
        {
          "internalType": "uint256",
          "name": "amount",
          "type": "uint256"
        }
      ],
      "name": "querySellBaseToken",
      "outputs": [
        {
          "internalType": "uint256",
          "name": "receiveQuote",
          "type": "uint256"
        }
      ],
      "stateMutability": "view",
      "type": "function"
    },
    {
      "inputs": [
        {
          "internalType": "uint256",
          "name": "amount",
          "type": "uint256"
        }
      ],
      "name": "queryBuyBaseToken",
      "outputs": [
        {
          "internalType": "uint256",
          "name": "payQuote",
          "type": "uint256"
        }
      ],
      "stateMutability": "view",
      "type": "function"
    }
  ],
  "bytecode": "0x608060405234801561001057600080fd5b50612928806100206000396000f3fe608060405234801561001057600080fd5b50600436106102a05760003560e01c80638dae733311610167578063c6b73cf9116100ce578063ec2fd46d11610087578063ec2fd46d1461048c578063ed0aa42814610494578063ee27c689146104a7578063f2fde38b146104af578063f67ed448146104c2578063ffa64225146104d5576102a0565b8063c6b73cf914610451578063d4b9704614610459578063d689107c14610461578063dd58b41c14610469578063e67ce70614610471578063eab5d20e14610484576102a0565b8063ab44a7a311610120578063ab44a7a314610416578063ac1fbc981461041e578063b2094fd314610426578063c0ffa1781461042e578063c3a2a66514610436578063c5bbffe814610449576102a0565b80638dae7333146103d05780638ff5e742146103e35780639b020fba146103eb578063a2801e16146103f3578063a3161a5614610406578063a598aca71461040e576102a0565b80634a248d2a1161020b5780636ec6a58d116101c45780636ec6a58d1461039557806373a2ab7c1461039d578063796da7af146103a55780637aed942d146103ad5780637c9b8e89146103c05780638456db15146103c8576102a0565b80634a248d2a1461034d5780634de4527e146103555780634e71e0c81461035d57806354fd4d5014610365578063648a4fac1461036d57806368be20ad14610375576102a0565b80631f3c156e1161025d5780631f3c156e14610310578063245c96851461031a5780632aa82c6514610322578063387b0c111461032a5780633960f1421461033d5780634322ec8314610345576102a0565b80630cd1667d146102a55780630e6518e9146102c357806316048bc4146102cb5780631769ddaa146102e057806317be952e146102e857806318c0bbe4146102fd575b600080fd5b6102ad6104eb565b6040516102ba91906128cb565b60405180910390f35b6102ad61056e565b6102d3610574565b6040516102ba91906123f9565b6102ad610583565b6102f0610589565b6040516102ba91906124ab565b6102ad61030b366004612313565b610592565b6103186105a9565b005b6102ad610875565b6102ad61087b565b610318610338366004612313565b6108c0565b6102d3610920565b6102d361092f565b6102d361093e565b6102ad61094d565b610318610953565b6102ad6109e1565b6103186109e6565b6103886103833660046122ae565b610b00565b6040516102ba919061244a565b610388610b15565b6102d3610b25565b6102ad610b34565b6102ad6103bb3660046122ae565b610b79565b6102ad610c00565b6102d3610c06565b6102ad6103de366004612343565b610c15565b610388610eaa565b6102ad610eb8565b6102ad610401366004612313565b610ebe565b610388610ec9565b610388610ed2565b6102ad610ee2565b6102d3610ee8565b6102ad610ef7565b6102ad610efd565b6103186104443660046122c9565b610f03565b6103886110d9565b6102ad6110e9565b6102d36110ef565b6102d36110fe565b61038861110d565b6102ad61047f366004612343565b61111d565b6102ad611389565b6102ad61138f565b6103186104a2366004612313565b611395565b6102ad6113e5565b6103186104bd3660046122ae565b6114d6565b6102ad6104d03660046122ae565b611581565b6104dd6115b2565b6040516102ba9291906128e4565b601354604080516318160ddd60e01b815290516000926001600160a01b0316916318160ddd916004808301926020929190829003018186803b15801561053057600080fd5b505afa158015610544573d6000803e3d6000fd5b505050506040513d601f19601f82011682018060405250810190610568919061232b565b90505b90565b60165481565b6000546001600160a01b031681565b60055481565b600e5460ff1681565b600061059d82611676565b50939695505050505050565b600154600160a01b900460ff16156105dc5760405162461bcd60e51b81526004016105d39061251d565b60405180910390fd5b6001805460ff60a01b1916600160a01b1790819055600160b01b900460ff166106175760405162461bcd60e51b81526004016105d390612876565b3360009081526017602052604090205460ff16156106475760405162461bcd60e51b81526004016105d39061284d565b336000818152601760205260408120805460ff191660011790559061066b90611581565b9050600061067833610b79565b9050600082156106af576106ac61068d61087b565b6010546106a0908663ffffffff6117c616565b9063ffffffff61180716565b90505b600082156106d8576106d56106c26104eb565b600f546106a0908663ffffffff6117c616565b90505b6010546106eb908363ffffffff61183916565b601055600f54610701908263ffffffff61183916565b600f8190555061072361071684601554611861565b839063ffffffff61188316565b915061074161073485601654611861565b829063ffffffff61188316565b905061074d33826118a8565b61075733836118df565b601354604051632770a7eb60e21b81526001600160a01b0390911690639dc29fac90610789903390879060040161240d565b600060405180830381600087803b1580156107a357600080fd5b505af11580156107b7573d6000803e3d6000fd5b5050601454604051632770a7eb60e21b81526001600160a01b039091169250639dc29fac91506107ed903390889060040161240d565b600060405180830381600087803b15801561080757600080fd5b505af115801561081b573d6000803e3d6000fd5b50505050336001600160a01b03167fbe5f7fe66d16c6a87bb5b8b08a96634fe4f1c2bac9e5e413efe41a782d4d0c43828460405161085a9291906128e4565b60405180910390a2505050506001805460ff60a01b19169055565b60105481565b601454604080516318160ddd60e01b815290516000926001600160a01b0316916318160ddd916004808301926020929190829003018186803b15801561053057600080fd5b600154600160a01b900460ff16156108ea5760405162461bcd60e51b81526004016105d39061251d565b6001805460ff60a01b1916600160a01b1790556109073382611916565b6109108161197b565b506001805460ff60a01b19169055565b6006546001600160a01b031681565b6007546001600160a01b031681565b6008546001600160a01b031681565b60025481565b6001546001600160a01b0316331461097d5760405162461bcd60e51b81526004016105d3906124f6565b600154600080546040516001600160a01b0393841693909116917f8be0079c531659141344cd1fd0a4f28419497f9722a3daafe3b4186f6b6457e091a360018054600080546001600160a01b03199081166001600160a01b03841617909155169055565b606590565b6000546001600160a01b03163314610a105760405162461bcd60e51b81526004016105d390612709565b600154600160b01b900460ff1615610a3a5760405162461bcd60e51b81526004016105d3906126b7565b6001805462ffffff60b81b1960ff60b01b19909116600160b01b171690556000610a626104eb565b90506000610a6e61087b565b90506010546012541115610aaa576000610a9560105460125461183990919063ffffffff16565b9050610aa181846119cf565b60155550610ab1565b6012546010555b600f546011541115610aeb576000610ad6600f5460115461183990919063ffffffff16565b9050610ae281836119cf565b60165550610af2565b601154600f555b5050600e805460ff19169055565b60176020526000908152604090205460ff1681565b600154600160b01b900460ff1681565b600a546001600160a01b031681565b600a5460408051634c6afee560e11b815290516000926001600160a01b0316916398d5fdca916004808301926020929190829003018186803b15801561053057600080fd5b6013546040516370a0823160e01b81526000916001600160a01b0316906370a0823190610baa9085906004016123f9565b60206040518083038186803b158015610bc257600080fd5b505afa158015610bd6573d6000803e3d6000fd5b505050506040513d601f19601f82011682018060405250810190610bfa919061232b565b92915050565b60125481565b6001546001600160a01b031681565b600154600090600160c81b900460ff16610c415760405162461bcd60e51b81526004016105d390612665565b600354610100900460ff16610c685760405162461bcd60e51b81526004016105d3906126dc565b6002543a1115610c8a5760405162461bcd60e51b81526004016105d390612823565b600154600160a01b900460ff1615610cb45760405162461bcd60e51b81526004016105d39061251d565b6001805460ff60a01b1916600160a01b17905560008080808080610cd78b6119ed565b95509550955095509550955089861015610d035760405162461bcd60e51b81526004016105d390612799565b610d0d33876118df565b8715610d725760405163301bc67560e11b815233906360378cea90610d3f906000908f908b908f908f90600401612465565b600060405180830381600087803b158015610d5957600080fd5b505af1158015610d6d573d6000803e3d6000fd5b505050505b610d7c338c611b42565b8315610de357600754610d98906001600160a01b0316856118df565b6007546040516001600160a01b03909116907fe4fed5362e2669c70e5da5a18942d1e617d8917f6adc0164d9668bd3a6d0cebe90610dda906000908890612455565b60405180910390a25b8160105414610df25760108290555b80600f5414610e0157600f8190555b826002811115610e0d57fe5b600e5460ff166002811115610e1e57fe5b14610e4257600e805484919060ff19166001836002811115610e3c57fe5b02179055505b610e4b8561197b565b336001600160a01b03167fd8648b6ac54162763c86fd54bf2005af8ecd2f9cb273a5775921fd7f91e17b2d8c88604051610e869291906128e4565b60405180910390a250506001805460ff60a01b191690555091979650505050505050565b600354610100900460ff1681565b60045481565b600061059d826119ed565b60035460ff1681565b600154600160c01b900460ff1681565b600b5481565b6014546001600160a01b031681565b600f5481565b600c5481565b6000546001600160a01b03163314610f2d5760405162461bcd60e51b81526004016105d390612709565b6008546001600160a01b0383811691161415610ff457601154610f56908263ffffffff61188316565b6008546040516370a0823160e01b81526001600160a01b03909116906370a0823190610f869030906004016123f9565b60206040518083038186803b158015610f9e57600080fd5b505afa158015610fb2573d6000803e3d6000fd5b505050506040513d601f19601f82011682018060405250810190610fd6919061232b565b1015610ff45760405162461bcd60e51b81526004016105d39061262e565b6009546001600160a01b03838116911614156110bb5760125461101d908263ffffffff61188316565b6009546040516370a0823160e01b81526001600160a01b03909116906370a082319061104d9030906004016123f9565b60206040518083038186803b15801561106557600080fd5b505afa158015611079573d6000803e3d6000fd5b505050506040513d601f19601f8201168201806040525081019061109d919061232b565b10156110bb5760405162461bcd60e51b81526004016105d3906124bf565b6110d56001600160a01b038316338363ffffffff611ba716565b5050565b600154600160b81b900460ff1681565b60155481565b6009546001600160a01b031681565b6013546001600160a01b031681565b600154600160c81b900460ff1681565b600154600090600160c81b900460ff166111495760405162461bcd60e51b81526004016105d390612665565b60035460ff1661116b5760405162461bcd60e51b81526004016105d39061289f565b6002543a111561118d5760405162461bcd60e51b81526004016105d390612823565b600154600160a01b900460ff16156111b75760405162461bcd60e51b81526004016105d39061251d565b6001805460ff60a01b1916600160a01b179055600080808080806111da8b611676565b955095509550955095509550898611156112065760405162461bcd60e51b81526004016105d3906127d0565b611210338c6118a8565b87156112755760405163301bc67560e11b815233906360378cea90611242906001908f908b908f908f90600401612465565b600060405180830381600087803b15801561125c57600080fd5b505af1158015611270573d6000803e3d6000fd5b505050505b61127f3387611916565b83156112e65760075461129b906001600160a01b0316856118a8565b6007546040516001600160a01b03909116907fe4fed5362e2669c70e5da5a18942d1e617d8917f6adc0164d9668bd3a6d0cebe906112dd906001908890612455565b60405180910390a25b81601054146112f55760108290555b80600f541461130457600f8190555b82600281111561131057fe5b600e5460ff16600281111561132157fe5b1461134557600e805484919060ff1916600183600281111561133f57fe5b02179055505b61134e85611c02565b336001600160a01b03167fe93ad76094f247c0dafc1c61adc2187de1ac2738f7a3b49cb20b2263420251a38c88604051610e869291906128e4565b60115481565b600d5481565b600154600160a01b900460ff16156113bf5760405162461bcd60e51b81526004016105d39061251d565b6001805460ff60a01b1916600160a01b1790556113dc3382611b42565b61091081611c02565b60008060006113f26115b2565b90925090506002600e5460ff16600281111561140a57fe5b141561148c57600061143661142e6012546106a085866117c690919063ffffffff16565b6012546119cf565b905061146f611447600d5483611861565b600d5461146390670de0b6b3a76400009063ffffffff61183916565b9063ffffffff61188316565b905061148261147c610b34565b826119cf565b935050505061056b565b60006114b26114aa6011546106a086876117c690919063ffffffff16565b6011546119cf565b90506114c3611447600d5483611861565b90506114826114d0610b34565b82611861565b6000546001600160a01b031633146115005760405162461bcd60e51b81526004016105d390612709565b6001600160a01b0381166115265760405162461bcd60e51b81526004016105d390612690565b600080546040516001600160a01b03808516939216917fdcf55418cee3220104fef63f979ff3c4097ad240c0c43dcb33ce837748983e6291a3600180546001600160a01b0319166001600160a01b0392909216919091179055565b6014546040516370a0823160e01b81526000916001600160a01b0316906370a0823190610baa9085906004016123f9565b601254601154600091829182600e5460ff1660028111156115cf57fe5b14156115e657600f54601054935093505050611672565b6002600e5460ff1660028111156115f957fe5b141561162b576000611609611c4b565b600f5490915061161f848363ffffffff61188316565b94509450505050611672565b6001600e5460ff16600281111561163e57fe5b141561166f57600061164e611cb2565b9050611660828263ffffffff61188316565b60105494509450505050611672565b50505b9091565b6000806000806000806116876115b2565b809350819250505061169b87600b54611861565b94506116a987600c54611861565b935060006116c1856114638a8963ffffffff61188316565b90506000600e5460ff1660028111156116d657fe5b14156116f1576116e68183611d10565b9650600193506117bc565b6001600e5460ff16600281111561170457fe5b1415611717576116e68160115484611d58565b6002600e5460ff16600281111561172a57fe5b14156117bc5760006117476012548561183990919063ffffffff16565b905060006117608460115461183990919063ffffffff16565b905080831015611782576117778360125487611da1565b9850600295506117b9565b8083141561179657819850600095506117b9565b6117b26107166117ac858463ffffffff61183916565b86611d10565b9850600195505b50505b5091939550919395565b6000826117d557506000610bfa565b828202828482816117e257fe5b04146118005760405162461bcd60e51b81526004016105d390612800565b9392505050565b60008082116118285760405162461bcd60e51b81526004016105d3906125ac565b81838161183157fe5b049392505050565b60008282111561185b5760405162461bcd60e51b81526004016105d39061260b565b50900390565b6000670de0b6b3a764000061187c848463ffffffff6117c616565b8161183157fe5b6000828201838110156118005760405162461bcd60e51b81526004016105d39061272c565b6008546118c5906001600160a01b0316838363ffffffff611ba716565b6011546118d8908263ffffffff61183916565b6011555050565b6009546118fc906001600160a01b0316838363ffffffff611ba716565b60125461190f908263ffffffff61183916565b6012555050565b60055460125461192c908363ffffffff61188316565b111561194a5760405162461bcd60e51b81526004016105d390612540565b600954611968906001600160a01b031683308463ffffffff611de516565b60125461190f908263ffffffff61188316565b60105461198e908263ffffffff61188316565b6010556040517fa259c93818139b6bc90fb80e8feb75122b42edaae49560f81392cf4e1946726e906119c49083906000906128d4565b60405180910390a150565b6000611800826106a085670de0b6b3a764000063ffffffff6117c616565b6000806000806000806119fe6115b2565b92509050866000600e5460ff166002811115611a1657fe5b1415611a3157611a268184611e0c565b965060029350611afa565b6001600e5460ff166002811115611a4457fe5b1415611ae6576000611a616011548461183990919063ffffffff16565b90506000611a7a8560125461183990919063ffffffff16565b905081831015611aa857611a918360115486611e46565b98506001955080891115611aa3578098505b611adf565b81831415611abc5780985060009550611adf565b611ad8610734611ad2858563ffffffff61183916565b87611e0c565b9850600295505b5050611afa565b611af38160125485611e66565b9650600293505b611b0687600b54611861565b9550611b1487600c54611861565b9450611b3685611b2a898963ffffffff61183916565b9063ffffffff61183916565b96505091939550919395565b600454601154611b58908363ffffffff61188316565b1115611b765760405162461bcd60e51b81526004016105d3906125d4565b600854611b94906001600160a01b031683308463ffffffff611de516565b6011546118d8908263ffffffff61188316565b611bfd8363a9059cbb60e01b8484604051602401611bc692919061240d565b60408051601f198184030181529190526020810180516001600160e01b03166001600160e01b031990931692909217909152611e96565b505050565b600f54611c15908263ffffffff61188316565b600f556040517fa259c93818139b6bc90fb80e8feb75122b42edaae49560f81392cf4e1946726e906119c49083906001906128d4565b600080611c65600f5460115461183990919063ffffffff16565b90506000611c71610b34565b90506000611c7f8383611861565b90506000611c92601254600d5484611f4d565b9050611ca96012548261183990919063ffffffff16565b94505050505090565b600080611ccc60105460125461183990919063ffffffff16565b90506000611cd8610b34565b90506000611ce683836119cf565b90506000611cf9601154600d5484611f4d565b9050611ca96011548261183990919063ffffffff16565b6000818310611d315760405162461bcd60e51b81526004016105d39061262e565b6000611d43838563ffffffff61183916565b9050611d50838483611ff2565b949350505050565b6000828410611d795760405162461bcd60e51b81526004016105d39061262e565b6000611d8b848663ffffffff61183916565b9050611d98838583611ff2565b95945050505050565b600080611dac610b34565b90506000611dc98486611dbf858a61200e565b6001600d54612038565b9050611ddb818663ffffffff61183916565b9695505050505050565b611e06846323b872dd60e01b858585604051602401611bc693929190612426565b50505050565b600080611e17610b34565b90506000611e348485611e2a8589611861565b6000600d54612038565b9050611d98848263ffffffff61183916565b600080611e59848663ffffffff61188316565b9050611d98838286611ff2565b600080611e71610b34565b90506000611e848486611e2a858a611861565b9050611ddb858263ffffffff61183916565b60006060836001600160a01b031683604051611eb291906123c0565b6000604051808303816000865af19150503d8060008114611eef576040519150601f19603f3d011682016040523d82523d6000602084013e611ef4565b606091505b509150915081611f165760405162461bcd60e51b81526004016105d390612577565b805115611e065780806020019051810190611f3191906122f3565b611e065760405162461bcd60e51b81526004016105d39061274f565b600080611f74611f6e6004611f628787611861565b9063ffffffff6117c616565b866121a0565b9050611f9a611f95670de0b6b3a7640000611f62848263ffffffff61188316565b6121be565b90506000611fcf611fb983670de0b6b3a764000063ffffffff61183916565b611fca87600263ffffffff6117c616565b6121a0565b9050611ddb86611fed670de0b6b3a76400008463ffffffff61188316565b611861565b600080611ffd610b34565b9050611d9885858584600d546121f5565b6000611800670de0b6b3a764000061202c858563ffffffff6117c616565b9063ffffffff61226a16565b60008061204d866106a089611f62878c611861565b9050600061207261206c670de0b6b3a76400008663ffffffff61183916565b88611861565b9050600185156120935761208c828863ffffffff61188316565b91506120a6565b6120a3838863ffffffff61188316565b92505b8282106120c8576120bd828463ffffffff61183916565b9150600190506120df565b6120d8838363ffffffff61183916565b9150600090505b600061210f6121016004611f62670de0b6b3a76400008a63ffffffff61183916565b611fed8c611f628a8f611861565b9050612128611f9582611463868063ffffffff6117c616565b905060006121496002611f62670de0b6b3a76400008a63ffffffff61183916565b90506000831561216a57612163858463ffffffff61188316565b905061217d565b61217a838663ffffffff61183916565b90505b881561219a5761218d81836119cf565b9650505050505050611d98565b61218d81835b60006118008261202c85670de0b6b3a764000063ffffffff6117c616565b80600160028204015b818110156121ef578091506002818285816121de57fe5b0401816121e757fe5b0490506121c7565b50919050565b60008061220c84611fed888863ffffffff61183916565b9050600061222d612227886106a08b8063ffffffff6117c616565b876121a0565b9050600061223b8583611861565b905061225d83611fed83611463670de0b6b3a76400008a63ffffffff61183916565b9998505050505050505050565b6000806122778484611807565b90508281028403801561228f57506001019050610bfa565b509050610bfa565b80356001600160a01b0381168114610bfa57600080fd5b6000602082840312156122bf578081fd5b6118008383612297565b600080604083850312156122db578081fd5b6122e58484612297565b946020939093013593505050565b600060208284031215612304578081fd5b81518015158114611800578182fd5b600060208284031215612324578081fd5b5035919050565b60006020828403121561233c578081fd5b5051919050565b60008060008060608587031215612358578182fd5b8435935060208501359250604085013567ffffffffffffffff8082111561237d578384fd5b81870188601f82011261238e578485fd5b803592508183111561239e578485fd5b8860208483010111156123af578485fd5b959894975050602090940194505050565b60008251815b818110156123e057602081860181015185830152016123c6565b818111156123ee5782828501525b509190910192915050565b6001600160a01b0391909116815260200190565b6001600160a01b03929092168252602082015260400190565b6001600160a01b039384168152919092166020820152604081019190915260600190565b901515815260200190565b9115158252602082015260400190565b6000861515825285602083015284604083015260806060830152826080830152828460a084013781830160a090810191909152601f909201601f19160101949350505050565b60208101600383106124b957fe5b91905290565b6020808252601d908201527f444f444f5f51554f54455f42414c414e43455f4e4f545f454e4f554748000000604082015260600190565b6020808252600d908201526c494e56414c49445f434c41494d60981b604082015260600190565b60208082526009908201526814915153951490539560ba1b604082015260600190565b6020808252601c908201527f51554f54455f42414c414e43455f4c494d49545f455843454544454400000000604082015260600190565b6020808252818101527f5361666545524332303a206c6f772d6c6576656c2063616c6c206661696c6564604082015260600190565b6020808252600e908201526d2224ab24a224a723afa2a92927a960911b604082015260600190565b6020808252601b908201527f424153455f42414c414e43455f4c494d49545f45584345454445440000000000604082015260600190565b60208082526009908201526829aaa12fa2a92927a960b91b604082015260600190565b6020808252601c908201527f444f444f5f424153455f42414c414e43455f4e4f545f454e4f55474800000000604082015260600190565b602080825260119082015270151490511157d393d517d0531313d5d151607a1b604082015260600190565b6020808252600d908201526c24a72b20a624a22fa7aba722a960991b604082015260600190565b6020808252600b908201526a1113d113d7d0d313d4d15160aa1b604082015260600190565b60208082526013908201527214d15313125391d7d393d517d0531313d5d151606a1b604082015260600190565b6020808252600990820152682727aa2fa7aba722a960b91b604082015260600190565b60208082526009908201526820a2222fa2a92927a960b91b604082015260600190565b6020808252602a908201527f5361666545524332303a204552433230206f7065726174696f6e20646964206e6040820152691bdd081cdd58d8d9595960b21b606082015260800190565b6020808252601c908201527f53454c4c5f424153455f524543454956455f4e4f545f454e4f55474800000000604082015260600190565b602080825260169082015275084aab2be8482a68abe869ea6a8bea89e9ebe9aaa86960531b604082015260600190565b60208082526009908201526826aaa62fa2a92927a960b91b604082015260600190565b60208082526010908201526f11d054d7d4149250d157d15610d1515160821b604082015260600190565b6020808252600f908201526e1053149150511657d0d31052535151608a1b604082015260600190565b6020808252600f908201526e1113d113d7d393d517d0d313d4d151608a1b604082015260600190565b602080825260129082015271109556525391d7d393d517d0531313d5d15160721b604082015260600190565b90815260200190565b9182521515602082015260400190565b91825260208201526040019056fea26469706673582212207a4c255481018edf84fe613b9725b4a42410b40e0027c90d542b6341c231f00264736f6c63430006090033",
  "immutableReferences": {},
  "source": "/*\n\n    Copyright 2020 DODO ZOO.\n    SPDX-License-Identifier: Apache-2.0\n\n*/\n\npragma solidity 0.6.9;\npragma experimental ABIEncoderV2;\n\nimport {SafeMath} from \"../lib/SafeMath.sol\";\nimport {DecimalMath} from \"../lib/DecimalMath.sol\";\nimport {Types} from \"../lib/Types.sol\";\nimport {IDODOCallee} from \"../intf/IDODOCallee.sol\";\nimport {Storage} from \"./Storage.sol\";\nimport {Pricing} from \"./Pricing.sol\";\nimport {Settlement} from \"./Settlement.sol\";\n\n\n/**\n * @title Trader\n * @author DODO Breeder\n *\n * @notice Functions for trader operations\n */\ncontract Trader is Storage, Pricing, Settlement {\n    using SafeMath for uint256;\n\n    // ============ Events ============\n\n    event SellBaseToken(address indexed seller, uint256 payBase, uint256 receiveQuote);\n\n    event BuyBaseToken(address indexed buyer, uint256 receiveBase, uint256 payQuote);\n\n    event ChargeMaintainerFee(address indexed maintainer, bool isBaseToken, uint256 amount);\n\n    // ============ Modifiers ============\n\n    modifier tradeAllowed() {\n        require(_TRADE_ALLOWED_, \"TRADE_NOT_ALLOWED\");\n        _;\n    }\n\n    modifier buyingAllowed() {\n        require(_BUYING_ALLOWED_, \"BUYING_NOT_ALLOWED\");\n        _;\n    }\n\n    modifier sellingAllowed() {\n        require(_SELLING_ALLOWED_, \"SELLING_NOT_ALLOWED\");\n        _;\n    }\n\n    modifier gasPriceLimit() {\n        require(tx.gasprice <= _GAS_PRICE_LIMIT_, \"GAS_PRICE_EXCEED\");\n        _;\n    }\n\n    // ============ Trade Functions ============\n\n    function sellBaseToken(\n        uint256 amount,\n        uint256 minReceiveQuote,\n        bytes calldata data\n    ) external tradeAllowed sellingAllowed gasPriceLimit preventReentrant returns (uint256) {\n        // query price\n        (\n            uint256 receiveQuote,\n            uint256 lpFeeQuote,\n            uint256 mtFeeQuote,\n            Types.RStatus newRStatus,\n            uint256 newQuoteTarget,\n            uint256 newBaseTarget\n        ) = _querySellBaseToken(amount);\n        require(receiveQuote >= minReceiveQuote, \"SELL_BASE_RECEIVE_NOT_ENOUGH\");\n\n        // settle assets\n        _quoteTokenTransferOut(msg.sender, receiveQuote);\n        if (data.length > 0) {\n            IDODOCallee(msg.sender).dodoCall(false, amount, receiveQuote, data);\n        }\n        _baseTokenTransferIn(msg.sender, amount);\n        if (mtFeeQuote != 0) {\n            _quoteTokenTransferOut(_MAINTAINER_, mtFeeQuote);\n            emit ChargeMaintainerFee(_MAINTAINER_, false, mtFeeQuote);\n        }\n\n        // update TARGET\n        if (_TARGET_QUOTE_TOKEN_AMOUNT_ != newQuoteTarget) {\n            _TARGET_QUOTE_TOKEN_AMOUNT_ = newQuoteTarget;\n        }\n        if (_TARGET_BASE_TOKEN_AMOUNT_ != newBaseTarget) {\n            _TARGET_BASE_TOKEN_AMOUNT_ = newBaseTarget;\n        }\n        if (_R_STATUS_ != newRStatus) {\n            _R_STATUS_ = newRStatus;\n        }\n\n        _donateQuoteToken(lpFeeQuote);\n        emit SellBaseToken(msg.sender, amount, receiveQuote);\n\n        return receiveQuote;\n    }\n\n    function buyBaseToken(\n        uint256 amount,\n        uint256 maxPayQuote,\n        bytes calldata data\n    ) external tradeAllowed buyingAllowed gasPriceLimit preventReentrant returns (uint256) {\n        // query price\n        (\n            uint256 payQuote,\n            uint256 lpFeeBase,\n            uint256 mtFeeBase,\n            Types.RStatus newRStatus,\n            uint256 newQuoteTarget,\n            uint256 newBaseTarget\n        ) = _queryBuyBaseToken(amount);\n        require(payQuote <= maxPayQuote, \"BUY_BASE_COST_TOO_MUCH\");\n\n        // settle assets\n        _baseTokenTransferOut(msg.sender, amount);\n        if (data.length > 0) {\n            IDODOCallee(msg.sender).dodoCall(true, amount, payQuote, data);\n        }\n        _quoteTokenTransferIn(msg.sender, payQuote);\n        if (mtFeeBase != 0) {\n            _baseTokenTransferOut(_MAINTAINER_, mtFeeBase);\n            emit ChargeMaintainerFee(_MAINTAINER_, true, mtFeeBase);\n        }\n\n        // update TARGET\n        if (_TARGET_QUOTE_TOKEN_AMOUNT_ != newQuoteTarget) {\n            _TARGET_QUOTE_TOKEN_AMOUNT_ = newQuoteTarget;\n        }\n        if (_TARGET_BASE_TOKEN_AMOUNT_ != newBaseTarget) {\n            _TARGET_BASE_TOKEN_AMOUNT_ = newBaseTarget;\n        }\n        if (_R_STATUS_ != newRStatus) {\n            _R_STATUS_ = newRStatus;\n        }\n\n        _donateBaseToken(lpFeeBase);\n        emit BuyBaseToken(msg.sender, amount, payQuote);\n\n        return payQuote;\n    }\n\n    // ============ Query Functions ============\n\n    function querySellBaseToken(uint256 amount) external view returns (uint256 receiveQuote) {\n        (receiveQuote, , , , , ) = _querySellBaseToken(amount);\n        return receiveQuote;\n    }\n\n    function queryBuyBaseToken(uint256 amount) external view returns (uint256 payQuote) {\n        (payQuote, , , , , ) = _queryBuyBaseToken(amount);\n        return payQuote;\n    }\n\n    function _querySellBaseToken(uint256 amount)\n        internal\n        view\n        returns (\n            uint256 receiveQuote,\n            uint256 lpFeeQuote,\n            uint256 mtFeeQuote,\n            Types.RStatus newRStatus,\n            uint256 newQuoteTarget,\n            uint256 newBaseTarget\n        )\n    {\n        (newBaseTarget, newQuoteTarget) = getExpectedTarget();\n\n        uint256 sellBaseAmount = amount;\n\n        if (_R_STATUS_ == Types.RStatus.ONE) {\n            // case 1: R=1\n            // R falls below one\n            receiveQuote = _ROneSellBaseToken(sellBaseAmount, newQuoteTarget);\n            newRStatus = Types.RStatus.BELOW_ONE;\n        } else if (_R_STATUS_ == Types.RStatus.ABOVE_ONE) {\n            uint256 backToOnePayBase = newBaseTarget.sub(_BASE_BALANCE_);\n            uint256 backToOneReceiveQuote = _QUOTE_BALANCE_.sub(newQuoteTarget);\n            // case 2: R>1\n            // complex case, R status depends on trading amount\n            if (sellBaseAmount < backToOnePayBase) {\n                // case 2.1: R status do not change\n                receiveQuote = _RAboveSellBaseToken(sellBaseAmount, _BASE_BALANCE_, newBaseTarget);\n                newRStatus = Types.RStatus.ABOVE_ONE;\n                if (receiveQuote > backToOneReceiveQuote) {\n                    // [Important corner case!] may enter this branch when some precision problem happens. And consequently contribute to negative spare quote amount\n                    // to make sure spare quote>=0, mannually set receiveQuote=backToOneReceiveQuote\n                    receiveQuote = backToOneReceiveQuote;\n                }\n            } else if (sellBaseAmount == backToOnePayBase) {\n                // case 2.2: R status changes to ONE\n                receiveQuote = backToOneReceiveQuote;\n                newRStatus = Types.RStatus.ONE;\n            } else {\n                // case 2.3: R status changes to BELOW_ONE\n                receiveQuote = backToOneReceiveQuote.add(\n                    _ROneSellBaseToken(sellBaseAmount.sub(backToOnePayBase), newQuoteTarget)\n                );\n                newRStatus = Types.RStatus.BELOW_ONE;\n            }\n        } else {\n            // _R_STATUS_ == Types.RStatus.BELOW_ONE\n            // case 3: R<1\n            receiveQuote = _RBelowSellBaseToken(sellBaseAmount, _QUOTE_BALANCE_, newQuoteTarget);\n            newRStatus = Types.RStatus.BELOW_ONE;\n        }\n\n        // count fees\n        lpFeeQuote = DecimalMath.mul(receiveQuote, _LP_FEE_RATE_);\n        mtFeeQuote = DecimalMath.mul(receiveQuote, _MT_FEE_RATE_);\n        receiveQuote = receiveQuote.sub(lpFeeQuote).sub(mtFeeQuote);\n\n        return (receiveQuote, lpFeeQuote, mtFeeQuote, newRStatus, newQuoteTarget, newBaseTarget);\n    }\n\n    function _queryBuyBaseToken(uint256 amount)\n        internal\n        view\n        returns (\n            uint256 payQuote,\n            uint256 lpFeeBase,\n            uint256 mtFeeBase,\n            Types.RStatus newRStatus,\n            uint256 newQuoteTarget,\n            uint256 newBaseTarget\n        )\n    {\n        (newBaseTarget, newQuoteTarget) = getExpectedTarget();\n\n        // charge fee from user receive amount\n        lpFeeBase = DecimalMath.mul(amount, _LP_FEE_RATE_);\n        mtFeeBase = DecimalMath.mul(amount, _MT_FEE_RATE_);\n        uint256 buyBaseAmount = amount.add(lpFeeBase).add(mtFeeBase);\n\n        if (_R_STATUS_ == Types.RStatus.ONE) {\n            // case 1: R=1\n            payQuote = _ROneBuyBaseToken(buyBaseAmount, newBaseTarget);\n            newRStatus = Types.RStatus.ABOVE_ONE;\n        } else if (_R_STATUS_ == Types.RStatus.ABOVE_ONE) {\n            // case 2: R>1\n            payQuote = _RAboveBuyBaseToken(buyBaseAmount, _BASE_BALANCE_, newBaseTarget);\n            newRStatus = Types.RStatus.ABOVE_ONE;\n        } else if (_R_STATUS_ == Types.RStatus.BELOW_ONE) {\n            uint256 backToOnePayQuote = newQuoteTarget.sub(_QUOTE_BALANCE_);\n            uint256 backToOneReceiveBase = _BASE_BALANCE_.sub(newBaseTarget);\n            // case 3: R<1\n            // complex case, R status may change\n            if (buyBaseAmount < backToOneReceiveBase) {\n                // case 3.1: R status do not change\n                // no need to check payQuote because spare base token must be greater than zero\n                payQuote = _RBelowBuyBaseToken(buyBaseAmount, _QUOTE_BALANCE_, newQuoteTarget);\n                newRStatus = Types.RStatus.BELOW_ONE;\n            } else if (buyBaseAmount == backToOneReceiveBase) {\n                // case 3.2: R status changes to ONE\n                payQuote = backToOnePayQuote;\n                newRStatus = Types.RStatus.ONE;\n            } else {\n                // case 3.3: R status changes to ABOVE_ONE\n                payQuote = backToOnePayQuote.add(\n                    _ROneBuyBaseToken(buyBaseAmount.sub(backToOneReceiveBase), newBaseTarget)\n                );\n                newRStatus = Types.RStatus.ABOVE_ONE;\n            }\n        }\n\n        return (payQuote, lpFeeBase, mtFeeBase, newRStatus, newQuoteTarget, newBaseTarget);\n    }\n}\n",
  "sourcePath": "/Users/owen/Desktop/dodo/dodo-smart-contract/contracts/impl/Trader.sol",
  "compiler": {
    "name": "solc",
    "version": "0.6.9+commit.3e3065ac.Emscripten.clang"
  },
  "schemaVersion": "3.2.3",
  "updatedAt": "2020-11-06T08:03:35.705Z",
  "devdoc": {
    "author": "DODO Breeder",
    "methods": {},
    "title": "Trader"
  },
  "userdoc": {
    "methods": {},
    "notice": "Functions for trader operations"
  }
}