{
  "contractName": "UniswapArbitrageur",
  "abi": [
    {
      "inputs": [
        {
          "internalType": "address",
          "name": "_uniswap",
          "type": "address"
        },
        {
          "internalType": "address",
          "name": "_dodo",
          "type": "address"
        }
      ],
      "stateMutability": "nonpayable",
      "type": "constructor"
    },
    {
      "inputs": [],
      "name": "_BASE_",
      "outputs": [
        {
          "internalType": "address",
          "name": "",
          "type": "address"
        }
      ],
      "stateMutability": "view",
      "type": "function"
    },
    {
      "inputs": [],
      "name": "_DODO_",
      "outputs": [
        {
          "internalType": "address",
          "name": "",
          "type": "address"
        }
      ],
      "stateMutability": "view",
      "type": "function"
    },
    {
      "inputs": [],
      "name": "_QUOTE_",
      "outputs": [
        {
          "internalType": "address",
          "name": "",
          "type": "address"
        }
      ],
      "stateMutability": "view",
      "type": "function"
    },
    {
      "inputs": [],
      "name": "_REVERSE_",
      "outputs": [
        {
          "internalType": "bool",
          "name": "",
          "type": "bool"
        }
      ],
      "stateMutability": "view",
      "type": "function"
    },
    {
      "inputs": [],
      "name": "_UNISWAP_",
      "outputs": [
        {
          "internalType": "address",
          "name": "",
          "type": "address"
        }
      ],
      "stateMutability": "view",
      "type": "function"
    },
    {
      "inputs": [
        {
          "internalType": "uint256",
          "name": "baseAmount",
          "type": "uint256"
        }
      ],
      "name": "executeBuyArbitrage",
      "outputs": [
        {
          "internalType": "uint256",
          "name": "quoteProfit",
          "type": "uint256"
        }
      ],
      "stateMutability": "nonpayable",
      "type": "function"
    },
    {
      "inputs": [
        {
          "internalType": "uint256",
          "name": "baseAmount",
          "type": "uint256"
        }
      ],
      "name": "executeSellArbitrage",
      "outputs": [
        {
          "internalType": "uint256",
          "name": "baseProfit",
          "type": "uint256"
        }
      ],
      "stateMutability": "nonpayable",
      "type": "function"
    },
    {
      "inputs": [
        {
          "internalType": "bool",
          "name": "isDODOBuy",
          "type": "bool"
        },
        {
          "internalType": "uint256",
          "name": "baseAmount",
          "type": "uint256"
        },
        {
          "internalType": "uint256",
          "name": "quoteAmount",
          "type": "uint256"
        },
        {
          "internalType": "bytes",
          "name": "",
          "type": "bytes"
        }
      ],
      "name": "dodoCall",
      "outputs": [],
      "stateMutability": "nonpayable",
      "type": "function"
    },
    {
      "inputs": [
        {
          "internalType": "address",
          "name": "token",
          "type": "address"
        },
        {
          "internalType": "uint256",
          "name": "amount",
          "type": "uint256"
        }
      ],
      "name": "retrieve",
      "outputs": [],
      "stateMutability": "nonpayable",
      "type": "function"
    }
  ],
  "bytecode": "0x60806040523480156200001157600080fd5b506040516200159d3803806200159d833981016040819052620000349162000481565b600080546001600160a01b038085166001600160a01b0319928316178355600180548583169316929092179182905560408051632512469560e11b815290519290911692634a248d2a926004808401936020939083900390910190829087803b158015620000a157600080fd5b505af1158015620000b6573d6000803e3d6000fd5b505050506040513d601f19601f82011682018060405250810190620000dc919062000451565b600280546001600160a01b0319166001600160a01b0392831617905560015460408051636a5cb82360e11b81529051919092169163d4b970469160048083019260209291908290030181600087803b1580156200013857600080fd5b505af11580156200014d573d6000803e3d6000fd5b505050506040513d601f19601f8201168201806040525081019062000173919062000451565b600380546001600160a01b0319166001600160a01b039283161790556000805460408051630dfe168160e01b8152905192939190911691630dfe168191600480820192602092909190829003018186803b158015620001d157600080fd5b505afa158015620001e6573d6000803e3d6000fd5b505050506040513d601f19601f820116820180604052508101906200020c919062000451565b905060008060009054906101000a90046001600160a01b03166001600160a01b031663d21220a76040518163ffffffff1660e01b815260040160206040518083038186803b1580156200025e57600080fd5b505afa15801562000273573d6000803e3d6000fd5b505050506040513d601f19601f8201168201806040525081019062000299919062000451565b6002549091506001600160a01b038381169116148015620002c757506003546001600160a01b038281169116145b15620002e0576003805460ff60a01b1916905562000325565b6003546001600160a01b0383811691161480156200030b57506002546001600160a01b038281169116145b1562000325576003805460ff60a01b1916600160a01b1790555b60025460015460405163095ea7b360e01b81526001600160a01b039283169263095ea7b3926200035f9291169060001990600401620004e1565b602060405180830381600087803b1580156200037a57600080fd5b505af11580156200038f573d6000803e3d6000fd5b505050506040513d601f19601f82011682018060405250810190620003b59190620004bf565b5060035460015460405163095ea7b360e01b81526001600160a01b039283169263095ea7b392620003f09291169060001990600401620004e1565b602060405180830381600087803b1580156200040b57600080fd5b505af115801562000420573d6000803e3d6000fd5b505050506040513d601f19601f82011682018060405250810190620004469190620004bf565b505050505062000513565b60006020828403121562000463578081fd5b81516001600160a01b03811681146200047a578182fd5b9392505050565b6000806040838503121562000494578081fd5b8251620004a181620004fa565b6020840151909250620004b481620004fa565b809150509250929050565b600060208284031215620004d1578081fd5b815180151581146200047a578182fd5b6001600160a01b03929092168252602082015260400190565b6001600160a01b03811681146200051057600080fd5b50565b61107a80620005236000396000f3fe608060405234801561001057600080fd5b50600436106100935760003560e01c8063919d365d11610066578063919d365d146100e8578063949805ff14610108578063c3a2a6651461011b578063ca436ea41461012e578063f4c7076a1461013657610093565b806323208b5a1461009857806325755c95146100b657806360378cea146100be57806375103e15146100d3575b600080fd5b6100a061013e565b6040516100ad9190610e2d565b60405180910390f35b6100a061014d565b6100d16100cc366004610cc6565b61015c565b005b6100db6101c3565b6040516100ad9190610e5a565b6100fb6100f6366004610dae565b6101d3565b6040516100ad9190610fc1565b6100fb610116366004610dae565b610364565b6100d1610129366004610c74565b61049f565b6100a06104bd565b6100a06104cc565b6001546001600160a01b031681565b6000546001600160a01b031681565b6001546001600160a01b0316331461018f5760405162461bcd60e51b815260040161018690610e65565b60405180910390fd5b600354600160a01b900460ff16156101b1576101ac8585856104db565b6101bc565b6101bc858585610836565b5050505050565b600354600160a01b900460ff1681565b600154604051638dae733360e01b81526000916001600160a01b031690638dae7333906102069085908590600401610fca565b602060405180830381600087803b15801561022057600080fd5b505af1158015610234573d6000803e3d6000fd5b505050506040513d601f19601f820116820180604052508101906102589190610dc6565b506002546040516370a0823160e01b81526001600160a01b03909116906370a0823190610289903090600401610e2d565b60206040518083038186803b1580156102a157600080fd5b505afa1580156102b5573d6000803e3d6000fd5b505050506040513d601f19601f820116820180604052508101906102d99190610dc6565b60025460405163a9059cbb60e01b81529192506001600160a01b03169063a9059cbb9061030c9033908590600401610e41565b602060405180830381600087803b15801561032657600080fd5b505af115801561033a573d6000803e3d6000fd5b505050506040513d601f19601f8201168201806040525081019061035e9190610caa565b50919050565b60015460405163733e738360e11b81526000916001600160a01b03169063e67ce7069061039990859060001990600401610fca565b602060405180830381600087803b1580156103b357600080fd5b505af11580156103c7573d6000803e3d6000fd5b505050506040513d601f19601f820116820180604052508101906103eb9190610dc6565b506003546040516370a0823160e01b81526001600160a01b03909116906370a082319061041c903090600401610e2d565b60206040518083038186803b15801561043457600080fd5b505afa158015610448573d6000803e3d6000fd5b505050506040513d601f19601f8201168201806040525081019061046c9190610dc6565b60035460405163a9059cbb60e01b81529192506001600160a01b03169063a9059cbb9061030c9033908590600401610e41565b6104b96001600160a01b038316338363ffffffff610a9a16565b5050565b6003546001600160a01b031681565b6002546001600160a01b031681565b6000805460408051630240bc6b60e21b8152905183926001600160a01b031691630902f1ac916004808301926060929190829003018186803b15801561052057600080fd5b505afa158015610534573d6000803e3d6000fd5b505050506040513d601f19601f820116820180604052508101906105589190610d5a565b5090925090506001600160701b0380831690821660008088156106e65760025460005460405163a9059cbb60e01b81526001600160a01b039283169263a9059cbb926105ab929116908c90600401610e41565b602060405180830381600087803b1580156105c557600080fd5b505af11580156105d9573d6000803e3d6000fd5b505050506040513d601f19601f820116820180604052508101906105fd9190610caa565b50600061062f610613858b63ffffffff610af516565b610623878763ffffffff610b2316565b9063ffffffff610b5d16565b90506106596127106106236126f161064d898663ffffffff610b8f16565b9063ffffffff610b2316565b925087831161067a5760405162461bcd60e51b815260040161018690610f76565b60005460405163022c0d9f60e01b81526001600160a01b039091169063022c0d9f906106ae90869086903090600401610ff0565b600060405180830381600087803b1580156106c857600080fd5b505af11580156106dc573d6000803e3d6000fd5b505050505061082b565b60035460005460405163a9059cbb60e01b81526001600160a01b039283169263a9059cbb9261071c929116908b90600401610e41565b602060405180830381600087803b15801561073657600080fd5b505af115801561074a573d6000803e3d6000fd5b505050506040513d601f19601f8201168201806040525081019061076e9190610caa565b506000610784610613868a63ffffffff610af516565b90506107a26127106106236126f161064d888663ffffffff610b8f16565b91508882116107c35760405162461bcd60e51b815260040161018690610f76565b60005460405163022c0d9f60e01b81526001600160a01b039091169063022c0d9f906107f790869086903090600401610ff0565b600060405180830381600087803b15801561081157600080fd5b505af1158015610825573d6000803e3d6000fd5b50505050505b505050505050505050565b6000805460408051630240bc6b60e21b8152905183926001600160a01b031691630902f1ac916004808301926060929190829003018186803b15801561087b57600080fd5b505afa15801561088f573d6000803e3d6000fd5b505050506040513d601f19601f820116820180604052508101906108b39190610d5a565b5090925090506001600160701b0380831690821660008088156109bd5760025460005460405163a9059cbb60e01b81526001600160a01b039283169263a9059cbb92610906929116908c90600401610e41565b602060405180830381600087803b15801561092057600080fd5b505af1158015610934573d6000803e3d6000fd5b505050506040513d601f19601f820116820180604052508101906109589190610caa565b50600061097e61096e868b63ffffffff610af516565b610623868863ffffffff610b2316565b905061099c6127106106236126f161064d888663ffffffff610b8f16565b915087821161067a5760405162461bcd60e51b815260040161018690610f76565b60035460005460405163a9059cbb60e01b81526001600160a01b039283169263a9059cbb926109f3929116908b90600401610e41565b602060405180830381600087803b158015610a0d57600080fd5b505af1158015610a21573d6000803e3d6000fd5b505050506040513d601f19601f82011682018060405250810190610a459190610caa565b506000610a5b61096e858a63ffffffff610af516565b9050610a796127106106236126f161064d898663ffffffff610b8f16565b92508883116107c35760405162461bcd60e51b815260040161018690610f76565b610af08363a9059cbb60e01b8484604051602401610ab9929190610e41565b60408051601f198184030181529190526020810180516001600160e01b03166001600160e01b031990931692909217909152610bb7565b505050565b600082820183811015610b1a5760405162461bcd60e51b815260040161018690610f09565b90505b92915050565b600082610b3257506000610b1d565b82820282848281610b3f57fe5b0414610b1a5760405162461bcd60e51b815260040161018690610f9e565b6000808211610b7e5760405162461bcd60e51b815260040161018690610ebe565b818381610b8757fe5b049392505050565b600082821115610bb15760405162461bcd60e51b815260040161018690610ee6565b50900390565b60006060836001600160a01b031683604051610bd39190610df4565b6000604051808303816000865af19150503d8060008114610c10576040519150601f19603f3d011682016040523d82523d6000602084013e610c15565b606091505b509150915081610c375760405162461bcd60e51b815260040161018690610e89565b805115610c6e5780806020019051810190610c529190610caa565b610c6e5760405162461bcd60e51b815260040161018690610f2c565b50505050565b60008060408385031215610c86578182fd5b82356001600160a01b0381168114610c9c578283fd5b946020939093013593505050565b600060208284031215610cbb578081fd5b8151610b1a8161101e565b600080600080600060808688031215610cdd578081fd5b8535610ce88161101e565b94506020860135935060408601359250606086013567ffffffffffffffff80821115610d12578283fd5b81880189601f820112610d23578384fd5b8035925081831115610d33578384fd5b896020848301011115610d44578384fd5b6020810194505050809150509295509295909350565b600080600060608486031215610d6e578283fd5b8351610d798161102f565b6020850151909350610d8a8161102f565b604085015190925063ffffffff81168114610da3578182fd5b809150509250925092565b600060208284031215610dbf578081fd5b5035919050565b600060208284031215610dd7578081fd5b5051919050565b60038152620c1e1960ea1b602082015260400190565b60008251815b81811015610e145760208186018101518583015201610dfa565b81811115610e225782828501525b509190910192915050565b6001600160a01b0391909116815260200190565b6001600160a01b03929092168252602082015260400190565b901515815260200190565b6020808252600a908201526957524f4e475f444f444f60b01b604082015260600190565b6020808252818101527f5361666545524332303a206c6f772d6c6576656c2063616c6c206661696c6564604082015260600190565b6020808252600e908201526d2224ab24a224a723afa2a92927a960911b604082015260600190565b60208082526009908201526829aaa12fa2a92927a960b91b604082015260600190565b60208082526009908201526820a2222fa2a92927a960b91b604082015260600190565b6020808252602a908201527f5361666545524332303a204552433230206f7065726174696f6e20646964206e6040820152691bdd081cdd58d8d9595960b21b606082015260800190565b6020808252600e908201526d4e4f545f50524f46495441424c4560901b604082015260600190565b60208082526009908201526826aaa62fa2a92927a960b91b604082015260600190565b90815260200190565b600083825282602083015260606040830152610fe860608301610dde565b949350505050565b92835260208301919091526001600160a01b0316604082015260806060820181905260009082015260a00190565b801515811461102c57600080fd5b50565b6001600160701b038116811461102c57600080fdfea26469706673582212201ea39c0ccb151d3e43c2b6a501dfd3dbb90b6a942e145fb823668cef61e177ae64736f6c63430006090033",
  "immutableReferences": {},
  "source": "/*\n\n    Copyright 2020 DODO ZOO.\n    SPDX-License-Identifier: Apache-2.0\n\n*/\n\npragma solidity 0.6.9;\npragma experimental ABIEncoderV2;\n\nimport {Ownable} from \"../lib/Ownable.sol\";\nimport {IDODO} from \"../intf/IDODO.sol\";\nimport {IERC20} from \"../intf/IERC20.sol\";\nimport {SafeERC20} from \"../lib/SafeERC20.sol\";\nimport {SafeMath} from \"../lib/SafeMath.sol\";\n\ninterface IUniswapV2Pair {\n    function token0() external view returns (address);\n\n    function token1() external view returns (address);\n\n    function getReserves()\n        external\n        view\n        returns (\n            uint112 reserve0,\n            uint112 reserve1,\n            uint32 blockTimestampLast\n        );\n\n    function swap(\n        uint256 amount0Out,\n        uint256 amount1Out,\n        address to,\n        bytes calldata data\n    ) external;\n}\n\ncontract UniswapArbitrageur {\n    using SafeMath for uint256;\n    using SafeERC20 for IERC20;\n\n    address public _UNISWAP_;\n    address public _DODO_;\n    address public _BASE_;\n    address public _QUOTE_;\n\n    bool public _REVERSE_; // true if dodo.baseToken=uniswap.token0\n\n    constructor(address _uniswap, address _dodo) public {\n        _UNISWAP_ = _uniswap;\n        _DODO_ = _dodo;\n\n        _BASE_ = IDODO(_DODO_)._BASE_TOKEN_();\n        _QUOTE_ = IDODO(_DODO_)._QUOTE_TOKEN_();\n\n        address token0 = IUniswapV2Pair(_UNISWAP_).token0();\n        address token1 = IUniswapV2Pair(_UNISWAP_).token1();\n\n        if (token0 == _BASE_ && token1 == _QUOTE_) {\n            _REVERSE_ = false;\n        } else if (token0 == _QUOTE_ && token1 == _BASE_) {\n            _REVERSE_ = true;\n        } else {\n            require(true, \"DODO_UNISWAP_NOT_MATCH\");\n        }\n\n        IERC20(_BASE_).approve(_DODO_, uint256(-1));\n        IERC20(_QUOTE_).approve(_DODO_, uint256(-1));\n    }\n\n    function executeBuyArbitrage(uint256 baseAmount) external returns (uint256 quoteProfit) {\n        IDODO(_DODO_).buyBaseToken(baseAmount, uint256(-1), \"0xd\");\n        quoteProfit = IERC20(_QUOTE_).balanceOf(address(this));\n        IERC20(_QUOTE_).transfer(msg.sender, quoteProfit);\n        return quoteProfit;\n    }\n\n    function executeSellArbitrage(uint256 baseAmount) external returns (uint256 baseProfit) {\n        IDODO(_DODO_).sellBaseToken(baseAmount, 0, \"0xd\");\n        baseProfit = IERC20(_BASE_).balanceOf(address(this));\n        IERC20(_BASE_).transfer(msg.sender, baseProfit);\n        return baseProfit;\n    }\n\n    function dodoCall(\n        bool isDODOBuy,\n        uint256 baseAmount,\n        uint256 quoteAmount,\n        bytes calldata\n    ) external {\n        require(msg.sender == _DODO_, \"WRONG_DODO\");\n        if (_REVERSE_) {\n            _inverseArbitrage(isDODOBuy, baseAmount, quoteAmount);\n        } else {\n            _arbitrage(isDODOBuy, baseAmount, quoteAmount);\n        }\n    }\n\n    function _inverseArbitrage(\n        bool isDODOBuy,\n        uint256 baseAmount,\n        uint256 quoteAmount\n    ) internal {\n        (uint112 _reserve0, uint112 _reserve1, ) = IUniswapV2Pair(_UNISWAP_).getReserves();\n        uint256 token0Balance = uint256(_reserve0);\n        uint256 token1Balance = uint256(_reserve1);\n        uint256 token0Amount;\n        uint256 token1Amount;\n        if (isDODOBuy) {\n            IERC20(_BASE_).transfer(_UNISWAP_, baseAmount);\n            // transfer token1 into uniswap\n            uint256 newToken0Balance = token0Balance.mul(token1Balance).div(\n                token1Balance.add(baseAmount)\n            );\n            token0Amount = token0Balance.sub(newToken0Balance).mul(9969).div(10000); // mul 0.9969\n            require(token0Amount > quoteAmount, \"NOT_PROFITABLE\");\n            IUniswapV2Pair(_UNISWAP_).swap(token0Amount, token1Amount, address(this), \"\");\n        } else {\n            IERC20(_QUOTE_).transfer(_UNISWAP_, quoteAmount);\n            // transfer token0 into uniswap\n            uint256 newToken1Balance = token0Balance.mul(token1Balance).div(\n                token0Balance.add(quoteAmount)\n            );\n            token1Amount = token1Balance.sub(newToken1Balance).mul(9969).div(10000); // mul 0.9969\n            require(token1Amount > baseAmount, \"NOT_PROFITABLE\");\n            IUniswapV2Pair(_UNISWAP_).swap(token0Amount, token1Amount, address(this), \"\");\n        }\n    }\n\n    function _arbitrage(\n        bool isDODOBuy,\n        uint256 baseAmount,\n        uint256 quoteAmount\n    ) internal {\n        (uint112 _reserve0, uint112 _reserve1, ) = IUniswapV2Pair(_UNISWAP_).getReserves();\n        uint256 token0Balance = uint256(_reserve0);\n        uint256 token1Balance = uint256(_reserve1);\n        uint256 token0Amount;\n        uint256 token1Amount;\n        if (isDODOBuy) {\n            IERC20(_BASE_).transfer(_UNISWAP_, baseAmount);\n            // transfer token0 into uniswap\n            uint256 newToken1Balance = token1Balance.mul(token0Balance).div(\n                token0Balance.add(baseAmount)\n            );\n            token1Amount = token1Balance.sub(newToken1Balance).mul(9969).div(10000); // mul 0.9969\n            require(token1Amount > quoteAmount, \"NOT_PROFITABLE\");\n            IUniswapV2Pair(_UNISWAP_).swap(token0Amount, token1Amount, address(this), \"\");\n        } else {\n            IERC20(_QUOTE_).transfer(_UNISWAP_, quoteAmount);\n            // transfer token1 into uniswap\n            uint256 newToken0Balance = token1Balance.mul(token0Balance).div(\n                token1Balance.add(quoteAmount)\n            );\n            token0Amount = token0Balance.sub(newToken0Balance).mul(9969).div(10000); // mul 0.9969\n            require(token0Amount > baseAmount, \"NOT_PROFITABLE\");\n            IUniswapV2Pair(_UNISWAP_).swap(token0Amount, token1Amount, address(this), \"\");\n        }\n    }\n\n    function retrieve(address token, uint256 amount) external {\n        IERC20(token).safeTransfer(msg.sender, amount);\n    }\n}\n",
  "sourcePath": "/Users/owen/Desktop/dodo/dodo-smart-contract/contracts/helper/UniswapArbitrageur.sol",
  "compiler": {
    "name": "solc",
    "version": "0.6.9+commit.3e3065ac.Emscripten.clang"
  },
  "schemaVersion": "3.2.3",
  "updatedAt": "2020-11-06T08:03:35.544Z",
  "devdoc": {
    "methods": {}
  },
  "userdoc": {
    "methods": {}
  }
}